{
	"data": {
		"bytecode": {
			"linkReferences": {},
			"object": "60806040525f805f6101000a81548163ffffffff021916908363ffffffff16021790555034801561002e575f80fd5b50619eab8061003c5f395ff3fe608060405234801562000010575f80fd5b506004361062000050575f3560e01c80633ea8873a1462000054578063996517e214620000955780639d585de114620000cb578063a98ac3dc14620000ed575b5f80fd5b6200007260048036038101906200006c919062000db7565b6200010d565b6040516200008c9c9b9a9998979695949392919062000ee9565b60405180910390f35b620000b36004803603810190620000ad919062000db7565b6200044b565b604051620000c2919062001186565b60405180910390f35b620000d5620008b2565b604051620000e49190620011a8565b60405180910390f35b6200010b60048036038101906200010591906200133a565b620008c5565b005b6001602052805f5260405f205f91509050805f015f9054906101000a900463ffffffff1690806001018054620001439062001491565b80601f0160208091040260200160405190810160405280929190818152602001828054620001719062001491565b8015620001c05780601f106200019657610100808354040283529160200191620001c0565b820191905f5260205f20905b815481529060010190602001808311620001a257829003601f168201915b505050505090806002018054620001d79062001491565b80601f0160208091040260200160405190810160405280929190818152602001828054620002059062001491565b8015620002545780601f106200022a5761010080835404028352916020019162000254565b820191905f5260205f20905b8154815290600101906020018083116200023657829003601f168201915b5050505050908060030180546200026b9062001491565b80601f0160208091040260200160405190810160405280929190818152602001828054620002999062001491565b8015620002e85780601f10620002be57610100808354040283529160200191620002e8565b820191905f5260205f20905b815481529060010190602001808311620002ca57829003601f168201915b505050505090806004018054620002ff9062001491565b80601f01602080910402602001604051908101604052809291908181526020018280546200032d9062001491565b80156200037c5780601f1062000352576101008083540402835291602001916200037c565b820191905f5260205f20905b8154815290600101906020018083116200035e57829003601f168201915b505050505090806005015f9054906101000a900463ffffffff16908060050160049054906101000a900463ffffffff1690806006015490806007015f9054906101000a900473ffffffffffffffffffffffffffffffffffffffff1690806008015f9054906101000a900473ffffffffffffffffffffffffffffffffffffffff1690806009015f9054906101000a900473ffffffffffffffffffffffffffffffffffffffff169080600a015f9054906101000a900473ffffffffffffffffffffffffffffffffffffffff1690508c565b6200045562000c7b565b60015f8363ffffffff1663ffffffff1681526020019081526020015f20604051806101800160405290815f82015f9054906101000a900463ffffffff1663ffffffff1663ffffffff168152602001600182018054620004b49062001491565b80601f0160208091040260200160405190810160405280929190818152602001828054620004e29062001491565b8015620005315780601f10620005075761010080835404028352916020019162000531565b820191905f5260205f20905b8154815290600101906020018083116200051357829003601f168201915b505050505081526020016002820180546200054c9062001491565b80601f01602080910402602001604051908101604052809291908181526020018280546200057a9062001491565b8015620005c95780601f106200059f57610100808354040283529160200191620005c9565b820191905f5260205f20905b815481529060010190602001808311620005ab57829003601f168201915b50505050508152602001600382018054620005e49062001491565b80601f0160208091040260200160405190810160405280929190818152602001828054620006129062001491565b8015620006615780601f10620006375761010080835404028352916020019162000661565b820191905f5260205f20905b8154815290600101906020018083116200064357829003601f168201915b505050505081526020016004820180546200067c9062001491565b80601f0160208091040260200160405190810160405280929190818152602001828054620006aa9062001491565b8015620006f95780601f10620006cf57610100808354040283529160200191620006f9565b820191905f5260205f20905b815481529060010190602001808311620006db57829003601f168201915b50505050508152602001600582015f9054906101000a900463ffffffff1663ffffffff1663ffffffff1681526020016005820160049054906101000a900463ffffffff1663ffffffff1663ffffffff16815260200160068201548152602001600782015f9054906101000a900473ffffffffffffffffffffffffffffffffffffffff1673ffffffffffffffffffffffffffffffffffffffff1673ffffffffffffffffffffffffffffffffffffffff168152602001600882015f9054906101000a900473ffffffffffffffffffffffffffffffffffffffff1673ffffffffffffffffffffffffffffffffffffffff1673ffffffffffffffffffffffffffffffffffffffff168152602001600982015f9054906101000a900473ffffffffffffffffffffffffffffffffffffffff1673ffffffffffffffffffffffffffffffffffffffff1673ffffffffffffffffffffffffffffffffffffffff168152602001600a82015f9054906101000a900473ffffffffffffffffffffffffffffffffffffffff1673ffffffffffffffffffffffffffffffffffffffff1673ffffffffffffffffffffffffffffffffffffffff16815250509050919050565b5f8054906101000a900463ffffffff1681565b5f87604051620008d59062000d3e565b620008e19190620014c5565b604051809103905ff080158015620008fb573d5f803e3d5ffd5b5090505f88856040516200090f9062000d4c565b6200091c929190620014e7565b604051809103905ff08015801562000936573d5f803e3d5ffd5b5090505f898585856040516200094c9062000d5a565b6200095b949392919062001519565b604051809103905ff08015801562000975573d5f803e3d5ffd5b5090505f6040518061018001604052805f8054906101000a900463ffffffff1663ffffffff1681526020018c81526020018b81526020018a81526020018981526020018863ffffffff1681526020018763ffffffff1681526020018681526020018573ffffffffffffffffffffffffffffffffffffffff1681526020018473ffffffffffffffffffffffffffffffffffffffff1681526020018373ffffffffffffffffffffffffffffffffffffffff1681526020013373ffffffffffffffffffffffffffffffffffffffff1681525090508060015f805f9054906101000a900463ffffffff1663ffffffff1663ffffffff1681526020019081526020015f205f820151815f015f6101000a81548163ffffffff021916908363ffffffff160217905550602082015181600101908162000aaf91906200172e565b50604082015181600201908162000ac791906200172e565b50606082015181600301908162000adf91906200172e565b50608082015181600401908162000af791906200172e565b5060a0820151816005015f6101000a81548163ffffffff021916908363ffffffff16021790555060c08201518160050160046101000a81548163ffffffff021916908363ffffffff16021790555060e08201518160060155610100820151816007015f6101000a81548173ffffffffffffffffffffffffffffffffffffffff021916908373ffffffffffffffffffffffffffffffffffffffff160217905550610120820151816008015f6101000a81548173ffffffffffffffffffffffffffffffffffffffff021916908373ffffffffffffffffffffffffffffffffffffffff160217905550610140820151816009015f6101000a81548173ffffffffffffffffffffffffffffffffffffffff021916908373ffffffffffffffffffffffffffffffffffffffff16021790555061016082015181600a015f6101000a81548173ffffffffffffffffffffffffffffffffffffffff021916908373ffffffffffffffffffffffffffffffffffffffff1602179055509050505050505050505050505050565b6040518061018001604052805f63ffffffff168152602001606081526020016060815260200160608152602001606081526020015f63ffffffff1681526020015f63ffffffff1681526020015f81526020015f73ffffffffffffffffffffffffffffffffffffffff1681526020015f73ffffffffffffffffffffffffffffffffffffffff1681526020015f73ffffffffffffffffffffffffffffffffffffffff1681526020015f73ffffffffffffffffffffffffffffffffffffffff1681525090565b612f45806200181383390190565b6128c3806200475883390190565b612e5b806200701b83390190565b5f604051905090565b5f80fd5b5f80fd5b5f63ffffffff82169050919050565b62000d938162000d79565b811462000d9e575f80fd5b50565b5f8135905062000db18162000d88565b92915050565b5f6020828403121562000dcf5762000dce62000d71565b5b5f62000dde8482850162000da1565b91505092915050565b62000df28162000d79565b82525050565b5f81519050919050565b5f82825260208201905092915050565b5f5b8381101562000e3157808201518184015260208101905062000e14565b5f8484015250505050565b5f601f19601f8301169050919050565b5f62000e588262000df8565b62000e64818562000e02565b935062000e7681856020860162000e12565b62000e818162000e3c565b840191505092915050565b5f819050919050565b62000ea08162000e8c565b82525050565b5f73ffffffffffffffffffffffffffffffffffffffff82169050919050565b5f62000ed18262000ea6565b9050919050565b62000ee38162000ec5565b82525050565b5f6101808201905062000eff5f83018f62000de7565b818103602083015262000f13818e62000e4c565b9050818103604083015262000f29818d62000e4c565b9050818103606083015262000f3f818c62000e4c565b9050818103608083015262000f55818b62000e4c565b905062000f6660a083018a62000de7565b62000f7560c083018962000de7565b62000f8460e083018862000e95565b62000f9461010083018762000ed8565b62000fa461012083018662000ed8565b62000fb461014083018562000ed8565b62000fc461016083018462000ed8565b9d9c50505050505050505050505050565b62000fe08162000d79565b82525050565b5f82825260208201905092915050565b5f620010028262000df8565b6200100e818562000fe6565b93506200102081856020860162000e12565b6200102b8162000e3c565b840191505092915050565b620010418162000e8c565b82525050565b620010528162000ec5565b82525050565b5f61018083015f830151620010705f86018262000fd5565b50602083015184820360208601526200108a828262000ff6565b91505060408301518482036040860152620010a6828262000ff6565b91505060608301518482036060860152620010c2828262000ff6565b91505060808301518482036080860152620010de828262000ff6565b91505060a0830151620010f560a086018262000fd5565b5060c08301516200110a60c086018262000fd5565b5060e08301516200111f60e086018262001036565b506101008301516200113661010086018262001047565b506101208301516200114d61012086018262001047565b506101408301516200116461014086018262001047565b506101608301516200117b61016086018262001047565b508091505092915050565b5f6020820190508181035f830152620011a0818462001058565b905092915050565b5f602082019050620011bd5f83018462000de7565b92915050565b5f80fd5b5f80fd5b7f4e487b71000000000000000000000000000000000000000000000000000000005f52604160045260245ffd5b620012038262000e3c565b810181811067ffffffffffffffff82111715620012255762001224620011cb565b5b80604052505050565b5f6200123962000d68565b9050620012478282620011f8565b919050565b5f67ffffffffffffffff821115620012695762001268620011cb565b5b620012748262000e3c565b9050602081019050919050565b828183375f83830152505050565b5f620012a56200129f846200124c565b6200122e565b905082815260208101848484011115620012c457620012c3620011c7565b5b620012d184828562001281565b509392505050565b5f82601f830112620012f057620012ef620011c3565b5b8135620013028482602086016200128f565b91505092915050565b620013168162000e8c565b811462001321575f80fd5b50565b5f8135905062001334816200130b565b92915050565b5f805f805f805f60e0888a03121562001358576200135762000d71565b5b5f88013567ffffffffffffffff81111562001378576200137762000d75565b5b620013868a828b01620012d9565b975050602088013567ffffffffffffffff811115620013aa57620013a962000d75565b5b620013b88a828b01620012d9565b965050604088013567ffffffffffffffff811115620013dc57620013db62000d75565b5b620013ea8a828b01620012d9565b955050606088013567ffffffffffffffff8111156200140e576200140d62000d75565b5b6200141c8a828b01620012d9565b94505060806200142f8a828b0162000da1565b93505060a0620014428a828b0162000da1565b92505060c0620014558a828b0162001324565b91505092959891949750929550565b7f4e487b71000000000000000000000000000000000000000000000000000000005f52602260045260245ffd5b5f6002820490506001821680620014a957607f821691505b602082108103620014bf57620014be62001464565b5b50919050565b5f6020820190508181035f830152620014df818462000e4c565b905092915050565b5f6040820190508181035f83015262001501818562000e4c565b905062001512602083018462000de7565b9392505050565b5f6080820190508181035f83015262001533818762000e4c565b905062001544602083018662000de7565b62001553604083018562000e95565b62001562606083018462000ed8565b95945050505050565b5f819050815f5260205f209050919050565b5f6020601f8301049050919050565b5f82821b905092915050565b5f60088302620015c97fffffffffffffffffffffffffffffffffffffffffffffffffffffffffffffffff826200158c565b620015d586836200158c565b95508019841693508086168417925050509392505050565b5f819050919050565b5f62001616620016106200160a8462000e8c565b620015ed565b62000e8c565b9050919050565b5f819050919050565b6200163183620015f6565b6200164962001640826200161d565b84845462001598565b825550505050565b5f90565b6200165f62001651565b6200166c81848462001626565b505050565b5b818110156200169357620016875f8262001655565b60018101905062001672565b5050565b601f821115620016e257620016ac816200156b565b620016b7846200157d565b81016020851015620016c7578190505b620016df620016d6856200157d565b83018262001671565b50505b505050565b5f82821c905092915050565b5f620017045f1984600802620016e7565b1980831691505092915050565b5f6200171e8383620016f3565b9150826002028217905092915050565b620017398262000df8565b67ffffffffffffffff811115620017555762001754620011cb565b5b62001761825462001491565b6200176e82828562001697565b5f60209050601f831160018114620017a4575f84156200178f578287015190505b6200179b858262001711565b8655506200180a565b601f198416620017b4866200156b565b5f5b82811015620017dd57848901518255600182019150602085019450602081019050620017b6565b86831015620017fd5784890151620017f9601f891682620016f3565b8355505b6001600288020188555050505b50505050505056fe608060405234801562000010575f80fd5b5060405162002f4538038062002f45833981810160405281019062000036919062000ac7565b806040518060400160405280600981526020017f4f574e45525f4e46540000000000000000000000000000000000000000000000815250815f90816200007d919062000d4d565b5080600190816200008f919062000d4d565b5050503360065f6101000a81548173ffffffffffffffffffffffffffffffffffffffff021916908373ffffffffffffffffffffffffffffffffffffffff1602179055506200010860065f9054906101000a900473ffffffffffffffffffffffffffffffffffffffff165f60ff166200010f60201b60201c565b5062000ee6565b5f73ffffffffffffffffffffffffffffffffffffffff168273ffffffffffffffffffffffffffffffffffffffff160362000182575f6040517f64a0ae9200000000000000000000000000000000000000000000000000000000815260040162000179919062000e74565b60405180910390fd5b5f6200019683835f6200021060201b60201c565b90505f73ffffffffffffffffffffffffffffffffffffffff168173ffffffffffffffffffffffffffffffffffffffff16146200020b575f6040517f73c6ac6e00000000000000000000000000000000000000000000000000000000815260040162000202919062000e74565b60405180910390fd5b505050565b5f8062000223846200043660201b60201c565b90505f73ffffffffffffffffffffffffffffffffffffffff168373ffffffffffffffffffffffffffffffffffffffff16146200026d576200026c8184866200046f60201b60201c565b5b5f73ffffffffffffffffffffffffffffffffffffffff168173ffffffffffffffffffffffffffffffffffffffff16146200030157620002b55f855f806200054060201b60201c565b600160035f8373ffffffffffffffffffffffffffffffffffffffff1673ffffffffffffffffffffffffffffffffffffffff1681526020019081526020015f205f82825403925050819055505b5f73ffffffffffffffffffffffffffffffffffffffff168573ffffffffffffffffffffffffffffffffffffffff16146200038157600160035f8773ffffffffffffffffffffffffffffffffffffffff1673ffffffffffffffffffffffffffffffffffffffff1681526020019081526020015f205f82825401925050819055505b8460025f8681526020019081526020015f205f6101000a81548173ffffffffffffffffffffffffffffffffffffffff021916908373ffffffffffffffffffffffffffffffffffffffff160217905550838573ffffffffffffffffffffffffffffffffffffffff168273ffffffffffffffffffffffffffffffffffffffff167fddf252ad1be2c89b69c2b068fc378daa952ba7f163c4a11628f55a4df523b3ef60405160405180910390a4809150509392505050565b5f60025f8381526020019081526020015f205f9054906101000a900473ffffffffffffffffffffffffffffffffffffffff169050919050565b620004828383836200071760201b60201c565b6200053b575f73ffffffffffffffffffffffffffffffffffffffff168373ffffffffffffffffffffffffffffffffffffffff1603620004fa57806040517f7e273289000000000000000000000000000000000000000000000000000000008152600401620004f1919062000ea0565b60405180910390fd5b81816040517f177e802f0000000000000000000000000000000000000000000000000000000081526004016200053292919062000ebb565b60405180910390fd5b505050565b80806200057957505f73ffffffffffffffffffffffffffffffffffffffff168273ffffffffffffffffffffffffffffffffffffffff1614155b15620006c2575f6200059184620007ea60201b60201c565b90505f73ffffffffffffffffffffffffffffffffffffffff168373ffffffffffffffffffffffffffffffffffffffff1614158015620005fc57508273ffffffffffffffffffffffffffffffffffffffff168173ffffffffffffffffffffffffffffffffffffffff1614155b80156200061857506200061681846200087b60201b60201c565b155b156200065d57826040517fa9fbf51f00000000000000000000000000000000000000000000000000000000815260040162000654919062000e74565b60405180910390fd5b8115620006c057838573ffffffffffffffffffffffffffffffffffffffff168273ffffffffffffffffffffffffffffffffffffffff167f8c5be1e5ebec7d5bd14f71427d1e84f3dd0314c0f7b2291e5b200ac8c7c3b92560405160405180910390a45b505b8360045f8581526020019081526020015f205f6101000a81548173ffffffffffffffffffffffffffffffffffffffff021916908373ffffffffffffffffffffffffffffffffffffffff16021790555050505050565b5f8073ffffffffffffffffffffffffffffffffffffffff168373ffffffffffffffffffffffffffffffffffffffff1614158015620007e157508273ffffffffffffffffffffffffffffffffffffffff168473ffffffffffffffffffffffffffffffffffffffff1614806200079957506200079884846200087b60201b60201c565b5b80620007e057508273ffffffffffffffffffffffffffffffffffffffff16620007c8836200090960201b60201c565b73ffffffffffffffffffffffffffffffffffffffff16145b5b90509392505050565b5f80620007fd836200043660201b60201c565b90505f73ffffffffffffffffffffffffffffffffffffffff168173ffffffffffffffffffffffffffffffffffffffff16036200087257826040517f7e27328900000000000000000000000000000000000000000000000000000000815260040162000869919062000ea0565b60405180910390fd5b80915050919050565b5f60055f8473ffffffffffffffffffffffffffffffffffffffff1673ffffffffffffffffffffffffffffffffffffffff1681526020019081526020015f205f8373ffffffffffffffffffffffffffffffffffffffff1673ffffffffffffffffffffffffffffffffffffffff1681526020019081526020015f205f9054906101000a900460ff16905092915050565b5f60045f8381526020019081526020015f205f9054906101000a900473ffffffffffffffffffffffffffffffffffffffff169050919050565b5f604051905090565b5f80fd5b5f80fd5b5f80fd5b5f80fd5b5f601f19601f8301169050919050565b7f4e487b71000000000000000000000000000000000000000000000000000000005f52604160045260245ffd5b620009a3826200095b565b810181811067ffffffffffffffff82111715620009c557620009c46200096b565b5b80604052505050565b5f620009d962000942565b9050620009e7828262000998565b919050565b5f67ffffffffffffffff82111562000a095762000a086200096b565b5b62000a14826200095b565b9050602081019050919050565b5f5b8381101562000a4057808201518184015260208101905062000a23565b5f8484015250505050565b5f62000a6162000a5b84620009ec565b620009ce565b90508281526020810184848401111562000a805762000a7f62000957565b5b62000a8d84828562000a21565b509392505050565b5f82601f83011262000aac5762000aab62000953565b5b815162000abe84826020860162000a4b565b91505092915050565b5f6020828403121562000adf5762000ade6200094b565b5b5f82015167ffffffffffffffff81111562000aff5762000afe6200094f565b5b62000b0d8482850162000a95565b91505092915050565b5f81519050919050565b7f4e487b71000000000000000000000000000000000000000000000000000000005f52602260045260245ffd5b5f600282049050600182168062000b6557607f821691505b60208210810362000b7b5762000b7a62000b20565b5b50919050565b5f819050815f5260205f209050919050565b5f6020601f8301049050919050565b5f82821b905092915050565b5f6008830262000bdf7fffffffffffffffffffffffffffffffffffffffffffffffffffffffffffffffff8262000ba2565b62000beb868362000ba2565b95508019841693508086168417925050509392505050565b5f819050919050565b5f819050919050565b5f62000c3562000c2f62000c298462000c03565b62000c0c565b62000c03565b9050919050565b5f819050919050565b62000c508362000c15565b62000c6862000c5f8262000c3c565b84845462000bae565b825550505050565b5f90565b62000c7e62000c70565b62000c8b81848462000c45565b505050565b5b8181101562000cb25762000ca65f8262000c74565b60018101905062000c91565b5050565b601f82111562000d015762000ccb8162000b81565b62000cd68462000b93565b8101602085101562000ce6578190505b62000cfe62000cf58562000b93565b83018262000c90565b50505b505050565b5f82821c905092915050565b5f62000d235f198460080262000d06565b1980831691505092915050565b5f62000d3d838362000d12565b9150826002028217905092915050565b62000d588262000b16565b67ffffffffffffffff81111562000d745762000d736200096b565b5b62000d80825462000b4d565b62000d8d82828562000cb6565b5f60209050601f83116001811462000dc3575f841562000dae578287015190505b62000dba858262000d30565b86555062000e29565b601f19841662000dd38662000b81565b5f5b8281101562000dfc5784890151825560018201915060208501945060208101905062000dd5565b8683101562000e1c578489015162000e18601f89168262000d12565b8355505b6001600288020188555050505b505050505050565b5f73ffffffffffffffffffffffffffffffffffffffff82169050919050565b5f62000e5c8262000e31565b9050919050565b62000e6e8162000e50565b82525050565b5f60208201905062000e895f83018462000e63565b92915050565b62000e9a8162000c03565b82525050565b5f60208201905062000eb55f83018462000e8f565b92915050565b5f60408201905062000ed05f83018562000e63565b62000edf602083018462000e8f565b9392505050565b6120518062000ef45f395ff3fe608060405234801561000f575f80fd5b5060043610610109575f3560e01c8063893d20e8116100a0578063a5c42ef11161006f578063a5c42ef1146102b5578063b88d4fde146102d3578063c87b56dd146102ef578063e985e9c51461031f578063f2fde38b1461034f57610109565b8063893d20e81461023f5780638da5cb5b1461025d57806395d89b411461027b578063a22cb4651461029957610109565b806323b872dd116100dc57806323b872dd146101a757806342842e0e146101c35780636352211e146101df57806370a082311461020f57610109565b806301ffc9a71461010d57806306fdde031461013d578063081812fc1461015b578063095ea7b31461018b575b5f80fd5b61012760048036038101906101229190611820565b61036b565b6040516101349190611865565b60405180910390f35b61014561044c565b6040516101529190611908565b60405180910390f35b6101756004803603810190610170919061195b565b6104db565b60405161018291906119c5565b60405180910390f35b6101a560048036038101906101a09190611a08565b6104f6565b005b6101c160048036038101906101bc9190611a46565b61050c565b005b6101dd60048036038101906101d89190611a46565b61060b565b005b6101f960048036038101906101f4919061195b565b61062a565b60405161020691906119c5565b60405180910390f35b61022960048036038101906102249190611a96565b61063b565b6040516102369190611ad0565b60405180910390f35b6102476106f1565b60405161025491906119c5565b60405180910390f35b610265610719565b60405161027291906119c5565b60405180910390f35b61028361073e565b6040516102909190611908565b60405180910390f35b6102b360048036038101906102ae9190611b13565b6107ce565b005b6102bd6107e4565b6040516102ca9190611b6c565b60405180910390f35b6102ed60048036038101906102e89190611cb1565b6107e8565b005b6103096004803603810190610304919061195b565b61080d565b6040516103169190611908565b60405180910390f35b61033960048036038101906103349190611d31565b610873565b6040516103469190611865565b60405180910390f35b61036960048036038101906103649190611a96565b610901565b005b5f7f80ac58cd000000000000000000000000000000000000000000000000000000007bffffffffffffffffffffffffffffffffffffffffffffffffffffffff1916827bffffffffffffffffffffffffffffffffffffffffffffffffffffffff1916148061043557507f5b5e139f000000000000000000000000000000000000000000000000000000007bffffffffffffffffffffffffffffffffffffffffffffffffffffffff1916827bffffffffffffffffffffffffffffffffffffffffffffffffffffffff1916145b80610445575061044482610a45565b5b9050919050565b60605f805461045a90611d9c565b80601f016020809104026020016040519081016040528092919081815260200182805461048690611d9c565b80156104d15780601f106104a8576101008083540402835291602001916104d1565b820191905f5260205f20905b8154815290600101906020018083116104b457829003601f168201915b5050505050905090565b5f6104e582610aae565b506104ef82610b34565b9050919050565b6105088282610503610b6d565b610b74565b5050565b5f73ffffffffffffffffffffffffffffffffffffffff168273ffffffffffffffffffffffffffffffffffffffff160361057c575f6040517f64a0ae9200000000000000000000000000000000000000000000000000000000815260040161057391906119c5565b60405180910390fd5b5f61058f838361058a610b6d565b610b86565b90508373ffffffffffffffffffffffffffffffffffffffff168173ffffffffffffffffffffffffffffffffffffffff1614610605578382826040517f64283d7b0000000000000000000000000000000000000000000000000000000081526004016105fc93929190611dcc565b60405180910390fd5b50505050565b61062583838360405180602001604052805f8152506107e8565b505050565b5f61063482610aae565b9050919050565b5f8073ffffffffffffffffffffffffffffffffffffffff168273ffffffffffffffffffffffffffffffffffffffff16036106ac575f6040517f89c62b640000000000000000000000000000000000000000000000000000000081526004016106a391906119c5565b60405180910390fd5b60035f8373ffffffffffffffffffffffffffffffffffffffff1673ffffffffffffffffffffffffffffffffffffffff1681526020019081526020015f20549050919050565b5f60065f9054906101000a900473ffffffffffffffffffffffffffffffffffffffff16905090565b60065f9054906101000a900473ffffffffffffffffffffffffffffffffffffffff1681565b60606001805461074d90611d9c565b80601f016020809104026020016040519081016040528092919081815260200182805461077990611d9c565b80156107c45780601f1061079b576101008083540402835291602001916107c4565b820191905f5260205f20905b8154815290600101906020018083116107a757829003601f168201915b5050505050905090565b6107e06107d9610b6d565b8383610d91565b5050565b5f81565b6107f384848461050c565b6108076107fe610b6d565b85858585610efa565b50505050565b606061081882610aae565b505f6108226110a6565b90505f8151116108405760405180602001604052805f81525061086b565b8061084a846110bc565b60405160200161085b929190611e3b565b6040516020818303038152906040525b915050919050565b5f60055f8473ffffffffffffffffffffffffffffffffffffffff1673ffffffffffffffffffffffffffffffffffffffff1681526020019081526020015f205f8373ffffffffffffffffffffffffffffffffffffffff1673ffffffffffffffffffffffffffffffffffffffff1681526020019081526020015f205f9054906101000a900460ff16905092915050565b5f60065f9054906101000a900473ffffffffffffffffffffffffffffffffffffffff1673ffffffffffffffffffffffffffffffffffffffff163373ffffffffffffffffffffffffffffffffffffffff16148061099357503373ffffffffffffffffffffffffffffffffffffffff1661097b5f60ff166104db565b73ffffffffffffffffffffffffffffffffffffffff16145b9050806109d5576040517f08c379a00000000000000000000000000000000000000000000000000000000081526004016109cc90611ece565b60405180910390fd5b610a0160065f9054906101000a900473ffffffffffffffffffffffffffffffffffffffff16835f611186565b8160065f6101000a81548173ffffffffffffffffffffffffffffffffffffffff021916908373ffffffffffffffffffffffffffffffffffffffff1602179055505050565b5f7f01ffc9a7000000000000000000000000000000000000000000000000000000007bffffffffffffffffffffffffffffffffffffffffffffffffffffffff1916827bffffffffffffffffffffffffffffffffffffffffffffffffffffffff1916149050919050565b5f80610ab9836112ee565b90505f73ffffffffffffffffffffffffffffffffffffffff168173ffffffffffffffffffffffffffffffffffffffff1603610b2b57826040517f7e273289000000000000000000000000000000000000000000000000000000008152600401610b229190611ad0565b60405180910390fd5b80915050919050565b5f60045f8381526020019081526020015f205f9054906101000a900473ffffffffffffffffffffffffffffffffffffffff169050919050565b5f33905090565b610b818383836001611327565b505050565b5f80610b91846112ee565b90505f73ffffffffffffffffffffffffffffffffffffffff168373ffffffffffffffffffffffffffffffffffffffff1614610bd257610bd18184866114e6565b5b5f73ffffffffffffffffffffffffffffffffffffffff168173ffffffffffffffffffffffffffffffffffffffff1614610c5d57610c115f855f80611327565b600160035f8373ffffffffffffffffffffffffffffffffffffffff1673ffffffffffffffffffffffffffffffffffffffff1681526020019081526020015f205f82825403925050819055505b5f73ffffffffffffffffffffffffffffffffffffffff168573ffffffffffffffffffffffffffffffffffffffff1614610cdc57600160035f8773ffffffffffffffffffffffffffffffffffffffff1673ffffffffffffffffffffffffffffffffffffffff1681526020019081526020015f205f82825401925050819055505b8460025f8681526020019081526020015f205f6101000a81548173ffffffffffffffffffffffffffffffffffffffff021916908373ffffffffffffffffffffffffffffffffffffffff160217905550838573ffffffffffffffffffffffffffffffffffffffff168273ffffffffffffffffffffffffffffffffffffffff167fddf252ad1be2c89b69c2b068fc378daa952ba7f163c4a11628f55a4df523b3ef60405160405180910390a4809150509392505050565b5f73ffffffffffffffffffffffffffffffffffffffff168273ffffffffffffffffffffffffffffffffffffffff1603610e0157816040517f5b08ba18000000000000000000000000000000000000000000000000000000008152600401610df891906119c5565b60405180910390fd5b8060055f8573ffffffffffffffffffffffffffffffffffffffff1673ffffffffffffffffffffffffffffffffffffffff1681526020019081526020015f205f8473ffffffffffffffffffffffffffffffffffffffff1673ffffffffffffffffffffffffffffffffffffffff1681526020019081526020015f205f6101000a81548160ff0219169083151502179055508173ffffffffffffffffffffffffffffffffffffffff168373ffffffffffffffffffffffffffffffffffffffff167f17307eab39ab6107e8899845ad3d59bd9653f200f220920489ca2b5937696c3183604051610eed9190611865565b60405180910390a3505050565b5f8373ffffffffffffffffffffffffffffffffffffffff163b111561109f578273ffffffffffffffffffffffffffffffffffffffff1663150b7a02868685856040518563ffffffff1660e01b8152600401610f589493929190611f3e565b6020604051808303815f875af1925050508015610f9357506040513d601f19601f82011682018060405250810190610f909190611f9c565b60015b611014573d805f8114610fc1576040519150601f19603f3d011682016040523d82523d5f602084013e610fc6565b606091505b505f81510361100c57836040517f64a0ae9200000000000000000000000000000000000000000000000000000000815260040161100391906119c5565b60405180910390fd5b805181602001fd5b63150b7a0260e01b7bffffffffffffffffffffffffffffffffffffffffffffffffffffffff1916817bffffffffffffffffffffffffffffffffffffffffffffffffffffffff19161461109d57836040517f64a0ae9200000000000000000000000000000000000000000000000000000000815260040161109491906119c5565b60405180910390fd5b505b5050505050565b606060405180602001604052805f815250905090565b60605f60016110ca846115a9565b0190505f8167ffffffffffffffff8111156110e8576110e7611b8d565b5b6040519080825280601f01601f19166020018201604052801561111a5781602001600182028036833780820191505090505b5090505f82602001820190505b60011561117b578080600190039150507f3031323334353637383961626364656600000000000000000000000000000000600a86061a8153600a85816111705761116f611fc7565b5b0494505f8503611127575b819350505050919050565b5f73ffffffffffffffffffffffffffffffffffffffff168273ffffffffffffffffffffffffffffffffffffffff16036111f6575f6040517f64a0ae920000000000000000000000000000000000000000000000000000000081526004016111ed91906119c5565b60405180910390fd5b5f61120283835f610b86565b90505f73ffffffffffffffffffffffffffffffffffffffff168173ffffffffffffffffffffffffffffffffffffffff160361127457816040517f7e27328900000000000000000000000000000000000000000000000000000000815260040161126b9190611ad0565b60405180910390fd5b8373ffffffffffffffffffffffffffffffffffffffff168173ffffffffffffffffffffffffffffffffffffffff16146112e8578382826040517f64283d7b0000000000000000000000000000000000000000000000000000000081526004016112df93929190611dcc565b60405180910390fd5b50505050565b5f60025f8381526020019081526020015f205f9054906101000a900473ffffffffffffffffffffffffffffffffffffffff169050919050565b808061135f57505f73ffffffffffffffffffffffffffffffffffffffff168273ffffffffffffffffffffffffffffffffffffffff1614155b15611491575f61136e84610aae565b90505f73ffffffffffffffffffffffffffffffffffffffff168373ffffffffffffffffffffffffffffffffffffffff16141580156113d857508273ffffffffffffffffffffffffffffffffffffffff168173ffffffffffffffffffffffffffffffffffffffff1614155b80156113eb57506113e98184610873565b155b1561142d57826040517fa9fbf51f00000000000000000000000000000000000000000000000000000000815260040161142491906119c5565b60405180910390fd5b811561148f57838573ffffffffffffffffffffffffffffffffffffffff168273ffffffffffffffffffffffffffffffffffffffff167f8c5be1e5ebec7d5bd14f71427d1e84f3dd0314c0f7b2291e5b200ac8c7c3b92560405160405180910390a45b505b8360045f8581526020019081526020015f205f6101000a81548173ffffffffffffffffffffffffffffffffffffffff021916908373ffffffffffffffffffffffffffffffffffffffff16021790555050505050565b6114f18383836116fa565b6115a4575f73ffffffffffffffffffffffffffffffffffffffff168373ffffffffffffffffffffffffffffffffffffffff160361156557806040517f7e27328900000000000000000000000000000000000000000000000000000000815260040161155c9190611ad0565b60405180910390fd5b81816040517f177e802f00000000000000000000000000000000000000000000000000000000815260040161159b929190611ff4565b60405180910390fd5b505050565b5f805f90507a184f03e93ff9f4daa797ed6e38ed64bf6a1f0100000000000000008310611605577a184f03e93ff9f4daa797ed6e38ed64bf6a1f01000000000000000083816115fb576115fa611fc7565b5b0492506040810190505b6d04ee2d6d415b85acef81000000008310611642576d04ee2d6d415b85acef8100000000838161163857611637611fc7565b5b0492506020810190505b662386f26fc10000831061167157662386f26fc10000838161166757611666611fc7565b5b0492506010810190505b6305f5e100831061169a576305f5e10083816116905761168f611fc7565b5b0492506008810190505b61271083106116bf5761271083816116b5576116b4611fc7565b5b0492506004810190505b606483106116e257606483816116d8576116d7611fc7565b5b0492506002810190505b600a83106116f1576001810190505b80915050919050565b5f8073ffffffffffffffffffffffffffffffffffffffff168373ffffffffffffffffffffffffffffffffffffffff16141580156117b157508273ffffffffffffffffffffffffffffffffffffffff168473ffffffffffffffffffffffffffffffffffffffff16148061177257506117718484610873565b5b806117b057508273ffffffffffffffffffffffffffffffffffffffff1661179883610b34565b73ffffffffffffffffffffffffffffffffffffffff16145b5b90509392505050565b5f604051905090565b5f80fd5b5f80fd5b5f7fffffffff0000000000000000000000000000000000000000000000000000000082169050919050565b6117ff816117cb565b8114611809575f80fd5b50565b5f8135905061181a816117f6565b92915050565b5f60208284031215611835576118346117c3565b5b5f6118428482850161180c565b91505092915050565b5f8115159050919050565b61185f8161184b565b82525050565b5f6020820190506118785f830184611856565b92915050565b5f81519050919050565b5f82825260208201905092915050565b5f5b838110156118b557808201518184015260208101905061189a565b5f8484015250505050565b5f601f19601f8301169050919050565b5f6118da8261187e565b6118e48185611888565b93506118f4818560208601611898565b6118fd816118c0565b840191505092915050565b5f6020820190508181035f83015261192081846118d0565b905092915050565b5f819050919050565b61193a81611928565b8114611944575f80fd5b50565b5f8135905061195581611931565b92915050565b5f602082840312156119705761196f6117c3565b5b5f61197d84828501611947565b91505092915050565b5f73ffffffffffffffffffffffffffffffffffffffff82169050919050565b5f6119af82611986565b9050919050565b6119bf816119a5565b82525050565b5f6020820190506119d85f8301846119b6565b92915050565b6119e7816119a5565b81146119f1575f80fd5b50565b5f81359050611a02816119de565b92915050565b5f8060408385031215611a1e57611a1d6117c3565b5b5f611a2b858286016119f4565b9250506020611a3c85828601611947565b9150509250929050565b5f805f60608486031215611a5d57611a5c6117c3565b5b5f611a6a868287016119f4565b9350506020611a7b868287016119f4565b9250506040611a8c86828701611947565b9150509250925092565b5f60208284031215611aab57611aaa6117c3565b5b5f611ab8848285016119f4565b91505092915050565b611aca81611928565b82525050565b5f602082019050611ae35f830184611ac1565b92915050565b611af28161184b565b8114611afc575f80fd5b50565b5f81359050611b0d81611ae9565b92915050565b5f8060408385031215611b2957611b286117c3565b5b5f611b36858286016119f4565b9250506020611b4785828601611aff565b9150509250929050565b5f60ff82169050919050565b611b6681611b51565b82525050565b5f602082019050611b7f5f830184611b5d565b92915050565b5f80fd5b5f80fd5b7f4e487b71000000000000000000000000000000000000000000000000000000005f52604160045260245ffd5b611bc3826118c0565b810181811067ffffffffffffffff82111715611be257611be1611b8d565b5b80604052505050565b5f611bf46117ba565b9050611c008282611bba565b919050565b5f67ffffffffffffffff821115611c1f57611c1e611b8d565b5b611c28826118c0565b9050602081019050919050565b828183375f83830152505050565b5f611c55611c5084611c05565b611beb565b905082815260208101848484011115611c7157611c70611b89565b5b611c7c848285611c35565b509392505050565b5f82601f830112611c9857611c97611b85565b5b8135611ca8848260208601611c43565b91505092915050565b5f805f8060808587031215611cc957611cc86117c3565b5b5f611cd6878288016119f4565b9450506020611ce7878288016119f4565b9350506040611cf887828801611947565b925050606085013567ffffffffffffffff811115611d1957611d186117c7565b5b611d2587828801611c84565b91505092959194509250565b5f8060408385031215611d4757611d466117c3565b5b5f611d54858286016119f4565b9250506020611d65858286016119f4565b9150509250929050565b7f4e487b71000000000000000000000000000000000000000000000000000000005f52602260045260245ffd5b5f6002820490506001821680611db357607f821691505b602082108103611dc657611dc5611d6f565b5b50919050565b5f606082019050611ddf5f8301866119b6565b611dec6020830185611ac1565b611df960408301846119b6565b949350505050565b5f81905092915050565b5f611e158261187e565b611e1f8185611e01565b9350611e2f818560208601611898565b80840191505092915050565b5f611e468285611e0b565b9150611e528284611e0b565b91508190509392505050565b7f4f6e6c792074686520636f6e7472616374206f776e65722063616e20646f20745f8201527f6869730000000000000000000000000000000000000000000000000000000000602082015250565b5f611eb8602383611888565b9150611ec382611e5e565b604082019050919050565b5f6020820190508181035f830152611ee581611eac565b9050919050565b5f81519050919050565b5f82825260208201905092915050565b5f611f1082611eec565b611f1a8185611ef6565b9350611f2a818560208601611898565b611f33816118c0565b840191505092915050565b5f608082019050611f515f8301876119b6565b611f5e60208301866119b6565b611f6b6040830185611ac1565b8181036060830152611f7d8184611f06565b905095945050505050565b5f81519050611f96816117f6565b92915050565b5f60208284031215611fb157611fb06117c3565b5b5f611fbe84828501611f88565b91505092915050565b7f4e487b71000000000000000000000000000000000000000000000000000000005f52601260045260245ffd5b5f6040820190506120075f8301856119b6565b6120146020830184611ac1565b939250505056fea2646970667358221220fe8e99cf60b429d124f2c78c7672765af0e2aea2806302ddfb36d29b8acd4f9064736f6c6343000814003360806040525f600660106101000a81548160ff0219169083151502179055503480156200002a575f80fd5b50604051620028c3380380620028c38339818101604052810190620000509190620002b9565b816040518060400160405280600781526020017f46414e5f4e465400000000000000000000000000000000000000000000000000815250815f908162000097919062000554565b508060019081620000a9919062000554565b50505080600660086101000a81548163ffffffff021916908363ffffffff160217905550806006600c6101000a81548163ffffffff021916908363ffffffff160217905550505062000638565b5f604051905090565b5f80fd5b5f80fd5b5f80fd5b5f80fd5b5f601f19601f8301169050919050565b7f4e487b71000000000000000000000000000000000000000000000000000000005f52604160045260245ffd5b62000157826200010f565b810181811067ffffffffffffffff821117156200017957620001786200011f565b5b80604052505050565b5f6200018d620000f6565b90506200019b82826200014c565b919050565b5f67ffffffffffffffff821115620001bd57620001bc6200011f565b5b620001c8826200010f565b9050602081019050919050565b5f5b83811015620001f4578082015181840152602081019050620001d7565b5f8484015250505050565b5f620002156200020f84620001a0565b62000182565b9050828152602081018484840111156200023457620002336200010b565b5b62000241848285620001d5565b509392505050565b5f82601f83011262000260576200025f62000107565b5b815162000272848260208601620001ff565b91505092915050565b5f63ffffffff82169050919050565b62000295816200027b565b8114620002a0575f80fd5b50565b5f81519050620002b3816200028a565b92915050565b5f8060408385031215620002d257620002d1620000ff565b5b5f83015167ffffffffffffffff811115620002f257620002f162000103565b5b620003008582860162000249565b92505060206200031385828601620002a3565b9150509250929050565b5f81519050919050565b7f4e487b71000000000000000000000000000000000000000000000000000000005f52602260045260245ffd5b5f60028204905060018216806200036c57607f821691505b60208210810362000382576200038162000327565b5b50919050565b5f819050815f5260205f209050919050565b5f6020601f8301049050919050565b5f82821b905092915050565b5f60088302620003e67fffffffffffffffffffffffffffffffffffffffffffffffffffffffffffffffff82620003a9565b620003f28683620003a9565b95508019841693508086168417925050509392505050565b5f819050919050565b5f819050919050565b5f6200043c6200043662000430846200040a565b62000413565b6200040a565b9050919050565b5f819050919050565b62000457836200041c565b6200046f620004668262000443565b848454620003b5565b825550505050565b5f90565b6200048562000477565b620004928184846200044c565b505050565b5b81811015620004b957620004ad5f826200047b565b60018101905062000498565b5050565b601f8211156200050857620004d28162000388565b620004dd846200039a565b81016020851015620004ed578190505b62000505620004fc856200039a565b83018262000497565b50505b505050565b5f82821c905092915050565b5f6200052a5f19846008026200050d565b1980831691505092915050565b5f62000544838362000519565b9150826002028217905092915050565b6200055f826200031d565b67ffffffffffffffff8111156200057b576200057a6200011f565b5b62000587825462000354565b62000594828285620004bd565b5f60209050601f831160018114620005ca575f8415620005b5578287015190505b620005c1858262000537565b86555062000630565b601f198416620005da8662000388565b5f5b828110156200060357848901518255600182019150602085019450602081019050620005dc565b868310156200062357848901516200061f601f89168262000519565b8355505b6001600288020188555050505b505050505050565b61227d80620006465f395ff3fe608060405234801561000f575f80fd5b5060043610610114575f3560e01c806342842e0e116100a057806395d89b411161006f57806395d89b41146102ca578063a22cb465146102e8578063b88d4fde14610304578063c87b56dd14610320578063e985e9c51461035057610114565b806342842e0e146102305780636352211e1461024c57806370a082311461027c5780638a333b50146102ac57610114565b8063095ea7b3116100e7578063095ea7b3146101b25780632004ffd9146101ce57806323b872dd146101d857806324f92a25146101f45780633940e9ee1461021257610114565b806301173a741461011857806301ffc9a71461013457806306fdde0314610164578063081812fc14610182575b5f80fd5b610132600480360381019061012d91906118e3565b610380565b005b61014e60048036038101906101499190611963565b6105a7565b60405161015b91906119a8565b60405180910390f35b61016c610688565b6040516101799190611a4b565b60405180910390f35b61019c60048036038101906101979190611a9e565b610717565b6040516101a99190611ad8565b60405180910390f35b6101cc60048036038101906101c79190611af1565b610732565b005b6101d6610748565b005b6101f260048036038101906101ed9190611b2f565b610753565b005b6101fc610852565b6040516102099190611b9d565b60405180910390f35b61021a610868565b6040516102279190611b9d565b60405180910390f35b61024a60048036038101906102459190611b2f565b61087d565b005b61026660048036038101906102619190611a9e565b61089c565b6040516102739190611ad8565b60405180910390f35b610296600480360381019061029191906118e3565b6108ad565b6040516102a39190611bc5565b60405180910390f35b6102b4610963565b6040516102c19190611b9d565b60405180910390f35b6102d2610979565b6040516102df9190611a4b565b60405180910390f35b61030260048036038101906102fd9190611c08565b610a09565b005b61031e60048036038101906103199190611d72565b610a1f565b005b61033a60048036038101906103359190611a9e565b610a44565b6040516103479190611a4b565b60405180910390f35b61036a60048036038101906103659190611df2565b610aaa565b60405161037791906119a8565b60405180910390f35b80600660109054906101000a900460ff16156103d1576040517f08c379a00000000000000000000000000000000000000000000000000000000081526004016103c890611ea0565b60405180910390fd5b6001600660106101000a81548160ff0219169083151502179055505f6006600c9054906101000a900463ffffffff1663ffffffff1611610446576040517f08c379a000000000000000000000000000000000000000000000000000000000815260040161043d90611f08565b60405180910390fd5b5f80610451836108ad565b1161045c575f61045f565b60015b90505f1515811515146104a7576040517f08c379a000000000000000000000000000000000000000000000000000000000815260040161049e90611f70565b60405180910390fd5b6104c983600660049054906101000a900463ffffffff1663ffffffff16610b38565b6001600660048282829054906101000a900463ffffffff166104eb9190611fbb565b92506101000a81548163ffffffff021916908363ffffffff16021790555060016006600c8282829054906101000a900463ffffffff1661052b9190611ff2565b92506101000a81548163ffffffff021916908363ffffffff160217905550600160065f8282829054906101000a900463ffffffff1661056a9190611fbb565b92506101000a81548163ffffffff021916908363ffffffff1602179055505f600660106101000a81548160ff021916908315150217905550505050565b5f7f80ac58cd000000000000000000000000000000000000000000000000000000007bffffffffffffffffffffffffffffffffffffffffffffffffffffffff1916827bffffffffffffffffffffffffffffffffffffffffffffffffffffffff1916148061067157507f5b5e139f000000000000000000000000000000000000000000000000000000007bffffffffffffffffffffffffffffffffffffffffffffffffffffffff1916827bffffffffffffffffffffffffffffffffffffffffffffffffffffffff1916145b80610681575061068082610b55565b5b9050919050565b60605f805461069690612056565b80601f01602080910402602001604051908101604052809291908181526020018280546106c290612056565b801561070d5780601f106106e45761010080835404028352916020019161070d565b820191905f5260205f20905b8154815290600101906020018083116106f057829003601f168201915b5050505050905090565b5f61072182610bbe565b5061072b82610c44565b9050919050565b610744828261073f610c7d565b610c84565b5050565b61075133610380565b565b5f73ffffffffffffffffffffffffffffffffffffffff168273ffffffffffffffffffffffffffffffffffffffff16036107c3575f6040517f64a0ae920000000000000000000000000000000000000000000000000000000081526004016107ba9190611ad8565b60405180910390fd5b5f6107d683836107d1610c7d565b610c96565b90508373ffffffffffffffffffffffffffffffffffffffff168173ffffffffffffffffffffffffffffffffffffffff161461084c578382826040517f64283d7b00000000000000000000000000000000000000000000000000000000815260040161084393929190612086565b60405180910390fd5b50505050565b6006600c9054906101000a900463ffffffff1681565b60065f9054906101000a900463ffffffff1681565b61089783838360405180602001604052805f815250610a1f565b505050565b5f6108a682610bbe565b9050919050565b5f8073ffffffffffffffffffffffffffffffffffffffff168273ffffffffffffffffffffffffffffffffffffffff160361091e575f6040517f89c62b640000000000000000000000000000000000000000000000000000000081526004016109159190611ad8565b60405180910390fd5b60035f8373ffffffffffffffffffffffffffffffffffffffff1673ffffffffffffffffffffffffffffffffffffffff1681526020019081526020015f20549050919050565b600660089054906101000a900463ffffffff1681565b60606001805461098890612056565b80601f01602080910402602001604051908101604052809291908181526020018280546109b490612056565b80156109ff5780601f106109d6576101008083540402835291602001916109ff565b820191905f5260205f20905b8154815290600101906020018083116109e257829003601f168201915b5050505050905090565b610a1b610a14610c7d565b8383610ea1565b5050565b610a2a848484610753565b610a3e610a35610c7d565b8585858561100a565b50505050565b6060610a4f82610bbe565b505f610a596111b6565b90505f815111610a775760405180602001604052805f815250610aa2565b80610a81846111cc565b604051602001610a929291906120f5565b6040516020818303038152906040525b915050919050565b5f60055f8473ffffffffffffffffffffffffffffffffffffffff1673ffffffffffffffffffffffffffffffffffffffff1681526020019081526020015f205f8373ffffffffffffffffffffffffffffffffffffffff1673ffffffffffffffffffffffffffffffffffffffff1681526020019081526020015f205f9054906101000a900460ff16905092915050565b610b51828260405180602001604052805f815250611296565b5050565b5f7f01ffc9a7000000000000000000000000000000000000000000000000000000007bffffffffffffffffffffffffffffffffffffffffffffffffffffffff1916827bffffffffffffffffffffffffffffffffffffffffffffffffffffffff1916149050919050565b5f80610bc9836112b9565b90505f73ffffffffffffffffffffffffffffffffffffffff168173ffffffffffffffffffffffffffffffffffffffff1603610c3b57826040517f7e273289000000000000000000000000000000000000000000000000000000008152600401610c329190611bc5565b60405180910390fd5b80915050919050565b5f60045f8381526020019081526020015f205f9054906101000a900473ffffffffffffffffffffffffffffffffffffffff169050919050565b5f33905090565b610c9183838360016112f2565b505050565b5f80610ca1846112b9565b90505f73ffffffffffffffffffffffffffffffffffffffff168373ffffffffffffffffffffffffffffffffffffffff1614610ce257610ce18184866114b1565b5b5f73ffffffffffffffffffffffffffffffffffffffff168173ffffffffffffffffffffffffffffffffffffffff1614610d6d57610d215f855f806112f2565b600160035f8373ffffffffffffffffffffffffffffffffffffffff1673ffffffffffffffffffffffffffffffffffffffff1681526020019081526020015f205f82825403925050819055505b5f73ffffffffffffffffffffffffffffffffffffffff168573ffffffffffffffffffffffffffffffffffffffff1614610dec57600160035f8773ffffffffffffffffffffffffffffffffffffffff1673ffffffffffffffffffffffffffffffffffffffff1681526020019081526020015f205f82825401925050819055505b8460025f8681526020019081526020015f205f6101000a81548173ffffffffffffffffffffffffffffffffffffffff021916908373ffffffffffffffffffffffffffffffffffffffff160217905550838573ffffffffffffffffffffffffffffffffffffffff168273ffffffffffffffffffffffffffffffffffffffff167fddf252ad1be2c89b69c2b068fc378daa952ba7f163c4a11628f55a4df523b3ef60405160405180910390a4809150509392505050565b5f73ffffffffffffffffffffffffffffffffffffffff168273ffffffffffffffffffffffffffffffffffffffff1603610f1157816040517f5b08ba18000000000000000000000000000000000000000000000000000000008152600401610f089190611ad8565b60405180910390fd5b8060055f8573ffffffffffffffffffffffffffffffffffffffff1673ffffffffffffffffffffffffffffffffffffffff1681526020019081526020015f205f8473ffffffffffffffffffffffffffffffffffffffff1673ffffffffffffffffffffffffffffffffffffffff1681526020019081526020015f205f6101000a81548160ff0219169083151502179055508173ffffffffffffffffffffffffffffffffffffffff168373ffffffffffffffffffffffffffffffffffffffff167f17307eab39ab6107e8899845ad3d59bd9653f200f220920489ca2b5937696c3183604051610ffd91906119a8565b60405180910390a3505050565b5f8373ffffffffffffffffffffffffffffffffffffffff163b11156111af578273ffffffffffffffffffffffffffffffffffffffff1663150b7a02868685856040518563ffffffff1660e01b8152600401611068949392919061216a565b6020604051808303815f875af19250505080156110a357506040513d601f19601f820116820180604052508101906110a091906121c8565b60015b611124573d805f81146110d1576040519150601f19603f3d011682016040523d82523d5f602084013e6110d6565b606091505b505f81510361111c57836040517f64a0ae920000000000000000000000000000000000000000000000000000000081526004016111139190611ad8565b60405180910390fd5b805181602001fd5b63150b7a0260e01b7bffffffffffffffffffffffffffffffffffffffffffffffffffffffff1916817bffffffffffffffffffffffffffffffffffffffffffffffffffffffff1916146111ad57836040517f64a0ae920000000000000000000000000000000000000000000000000000000081526004016111a49190611ad8565b60405180910390fd5b505b5050505050565b606060405180602001604052805f815250905090565b60605f60016111da84611574565b0190505f8167ffffffffffffffff8111156111f8576111f7611c4e565b5b6040519080825280601f01601f19166020018201604052801561122a5781602001600182028036833780820191505090505b5090505f82602001820190505b60011561128b578080600190039150507f3031323334353637383961626364656600000000000000000000000000000000600a86061a8153600a85816112805761127f6121f3565b5b0494505f8503611237575b819350505050919050565b6112a083836116c5565b6112b46112ab610c7d565b5f85858561100a565b505050565b5f60025f8381526020019081526020015f205f9054906101000a900473ffffffffffffffffffffffffffffffffffffffff169050919050565b808061132a57505f73ffffffffffffffffffffffffffffffffffffffff168273ffffffffffffffffffffffffffffffffffffffff1614155b1561145c575f61133984610bbe565b90505f73ffffffffffffffffffffffffffffffffffffffff168373ffffffffffffffffffffffffffffffffffffffff16141580156113a357508273ffffffffffffffffffffffffffffffffffffffff168173ffffffffffffffffffffffffffffffffffffffff1614155b80156113b657506113b48184610aaa565b155b156113f857826040517fa9fbf51f0000000000000000000000000000000000000000000000000000000081526004016113ef9190611ad8565b60405180910390fd5b811561145a57838573ffffffffffffffffffffffffffffffffffffffff168273ffffffffffffffffffffffffffffffffffffffff167f8c5be1e5ebec7d5bd14f71427d1e84f3dd0314c0f7b2291e5b200ac8c7c3b92560405160405180910390a45b505b8360045f8581526020019081526020015f205f6101000a81548173ffffffffffffffffffffffffffffffffffffffff021916908373ffffffffffffffffffffffffffffffffffffffff16021790555050505050565b6114bc8383836117b8565b61156f575f73ffffffffffffffffffffffffffffffffffffffff168373ffffffffffffffffffffffffffffffffffffffff160361153057806040517f7e2732890000000000000000000000000000000000000000000000000000000081526004016115279190611bc5565b60405180910390fd5b81816040517f177e802f000000000000000000000000000000000000000000000000000000008152600401611566929190612220565b60405180910390fd5b505050565b5f805f90507a184f03e93ff9f4daa797ed6e38ed64bf6a1f01000000000000000083106115d0577a184f03e93ff9f4daa797ed6e38ed64bf6a1f01000000000000000083816115c6576115c56121f3565b5b0492506040810190505b6d04ee2d6d415b85acef8100000000831061160d576d04ee2d6d415b85acef81000000008381611603576116026121f3565b5b0492506020810190505b662386f26fc10000831061163c57662386f26fc100008381611632576116316121f3565b5b0492506010810190505b6305f5e1008310611665576305f5e100838161165b5761165a6121f3565b5b0492506008810190505b612710831061168a5761271083816116805761167f6121f3565b5b0492506004810190505b606483106116ad57606483816116a3576116a26121f3565b5b0492506002810190505b600a83106116bc576001810190505b80915050919050565b5f73ffffffffffffffffffffffffffffffffffffffff168273ffffffffffffffffffffffffffffffffffffffff1603611735575f6040517f64a0ae9200000000000000000000000000000000000000000000000000000000815260040161172c9190611ad8565b60405180910390fd5b5f61174183835f610c96565b90505f73ffffffffffffffffffffffffffffffffffffffff168173ffffffffffffffffffffffffffffffffffffffff16146117b3575f6040517f73c6ac6e0000000000000000000000000000000000000000000000000000000081526004016117aa9190611ad8565b60405180910390fd5b505050565b5f8073ffffffffffffffffffffffffffffffffffffffff168373ffffffffffffffffffffffffffffffffffffffff161415801561186f57508273ffffffffffffffffffffffffffffffffffffffff168473ffffffffffffffffffffffffffffffffffffffff161480611830575061182f8484610aaa565b5b8061186e57508273ffffffffffffffffffffffffffffffffffffffff1661185683610c44565b73ffffffffffffffffffffffffffffffffffffffff16145b5b90509392505050565b5f604051905090565b5f80fd5b5f80fd5b5f73ffffffffffffffffffffffffffffffffffffffff82169050919050565b5f6118b282611889565b9050919050565b6118c2816118a8565b81146118cc575f80fd5b50565b5f813590506118dd816118b9565b92915050565b5f602082840312156118f8576118f7611881565b5b5f611905848285016118cf565b91505092915050565b5f7fffffffff0000000000000000000000000000000000000000000000000000000082169050919050565b6119428161190e565b811461194c575f80fd5b50565b5f8135905061195d81611939565b92915050565b5f6020828403121561197857611977611881565b5b5f6119858482850161194f565b91505092915050565b5f8115159050919050565b6119a28161198e565b82525050565b5f6020820190506119bb5f830184611999565b92915050565b5f81519050919050565b5f82825260208201905092915050565b5f5b838110156119f85780820151818401526020810190506119dd565b5f8484015250505050565b5f601f19601f8301169050919050565b5f611a1d826119c1565b611a2781856119cb565b9350611a378185602086016119db565b611a4081611a03565b840191505092915050565b5f6020820190508181035f830152611a638184611a13565b905092915050565b5f819050919050565b611a7d81611a6b565b8114611a87575f80fd5b50565b5f81359050611a9881611a74565b92915050565b5f60208284031215611ab357611ab2611881565b5b5f611ac084828501611a8a565b91505092915050565b611ad2816118a8565b82525050565b5f602082019050611aeb5f830184611ac9565b92915050565b5f8060408385031215611b0757611b06611881565b5b5f611b14858286016118cf565b9250506020611b2585828601611a8a565b9150509250929050565b5f805f60608486031215611b4657611b45611881565b5b5f611b53868287016118cf565b9350506020611b64868287016118cf565b9250506040611b7586828701611a8a565b9150509250925092565b5f63ffffffff82169050919050565b611b9781611b7f565b82525050565b5f602082019050611bb05f830184611b8e565b92915050565b611bbf81611a6b565b82525050565b5f602082019050611bd85f830184611bb6565b92915050565b611be78161198e565b8114611bf1575f80fd5b50565b5f81359050611c0281611bde565b92915050565b5f8060408385031215611c1e57611c1d611881565b5b5f611c2b858286016118cf565b9250506020611c3c85828601611bf4565b9150509250929050565b5f80fd5b5f80fd5b7f4e487b71000000000000000000000000000000000000000000000000000000005f52604160045260245ffd5b611c8482611a03565b810181811067ffffffffffffffff82111715611ca357611ca2611c4e565b5b80604052505050565b5f611cb5611878565b9050611cc18282611c7b565b919050565b5f67ffffffffffffffff821115611ce057611cdf611c4e565b5b611ce982611a03565b9050602081019050919050565b828183375f83830152505050565b5f611d16611d1184611cc6565b611cac565b905082815260208101848484011115611d3257611d31611c4a565b5b611d3d848285611cf6565b509392505050565b5f82601f830112611d5957611d58611c46565b5b8135611d69848260208601611d04565b91505092915050565b5f805f8060808587031215611d8a57611d89611881565b5b5f611d97878288016118cf565b9450506020611da8878288016118cf565b9350506040611db987828801611a8a565b925050606085013567ffffffffffffffff811115611dda57611dd9611885565b5b611de687828801611d45565b91505092959194509250565b5f8060408385031215611e0857611e07611881565b5b5f611e15858286016118cf565b9250506020611e26858286016118cf565b9150509250929050565b7f736f72727920736f6d656f6e6520656c7365206973206d696e74696e67206e6f5f8201527f772c20706c656173652074727920616761696e206c6174657200000000000000602082015250565b5f611e8a6039836119cb565b9150611e9582611e30565b604082019050919050565b5f6020820190508181035f830152611eb781611e7e565b9050919050565b7f736f727279206e6f7420656e6f75676820737570706c790000000000000000005f82015250565b5f611ef26017836119cb565b9150611efd82611ebe565b602082019050919050565b5f6020820190508181035f830152611f1f81611ee6565b9050919050565b7f796f75206861766520616c7265616479206d696e7465640000000000000000005f82015250565b5f611f5a6017836119cb565b9150611f6582611f26565b602082019050919050565b5f6020820190508181035f830152611f8781611f4e565b9050919050565b7f4e487b71000000000000000000000000000000000000000000000000000000005f52601160045260245ffd5b5f611fc582611b7f565b9150611fd083611b7f565b9250828201905063ffffffff811115611fec57611feb611f8e565b5b92915050565b5f611ffc82611b7f565b915061200783611b7f565b9250828203905063ffffffff81111561202357612022611f8e565b5b92915050565b7f4e487b71000000000000000000000000000000000000000000000000000000005f52602260045260245ffd5b5f600282049050600182168061206d57607f821691505b6020821081036120805761207f612029565b5b50919050565b5f6060820190506120995f830186611ac9565b6120a66020830185611bb6565b6120b36040830184611ac9565b949350505050565b5f81905092915050565b5f6120cf826119c1565b6120d981856120bb565b93506120e98185602086016119db565b80840191505092915050565b5f61210082856120c5565b915061210c82846120c5565b91508190509392505050565b5f81519050919050565b5f82825260208201905092915050565b5f61213c82612118565b6121468185612122565b93506121568185602086016119db565b61215f81611a03565b840191505092915050565b5f60808201905061217d5f830187611ac9565b61218a6020830186611ac9565b6121976040830185611bb6565b81810360608301526121a98184612132565b905095945050505050565b5f815190506121c281611939565b92915050565b5f602082840312156121dd576121dc611881565b5b5f6121ea848285016121b4565b91505092915050565b7f4e487b71000000000000000000000000000000000000000000000000000000005f52601260045260245ffd5b5f6040820190506122335f830185611ac9565b6122406020830184611bb6565b939250505056fea2646970667358221220555e2fbf0d437c77140e5e83ba5991c22e1ed83c05cc26e0b8e7e610ed5f5e0164736f6c6343000814003360806040525f60085f6101000a81548160ff02191690831515021790555034801562000029575f80fd5b5060405162002e5b38038062002e5b83398181016040528101906200004f91906200039b565b836040518060400160405280600d81526020017f434f505952494748545f4e465400000000000000000000000000000000000000815250815f908162000096919062000657565b508060019081620000a8919062000657565b50505082600660086101000a81548163ffffffff021916908363ffffffff160217905550826006600c6101000a81548163ffffffff021916908363ffffffff1602179055508160078190555080600860016101000a81548173ffffffffffffffffffffffffffffffffffffffff021916908373ffffffffffffffffffffffffffffffffffffffff160217905550505050506200073b565b5f604051905090565b5f80fd5b5f80fd5b5f80fd5b5f80fd5b5f601f19601f8301169050919050565b7f4e487b71000000000000000000000000000000000000000000000000000000005f52604160045260245ffd5b620001a08262000158565b810181811067ffffffffffffffff82111715620001c257620001c162000168565b5b80604052505050565b5f620001d66200013f565b9050620001e4828262000195565b919050565b5f67ffffffffffffffff82111562000206576200020562000168565b5b620002118262000158565b9050602081019050919050565b5f5b838110156200023d57808201518184015260208101905062000220565b5f8484015250505050565b5f6200025e6200025884620001e9565b620001cb565b9050828152602081018484840111156200027d576200027c62000154565b5b6200028a8482856200021e565b509392505050565b5f82601f830112620002a957620002a862000150565b5b8151620002bb84826020860162000248565b91505092915050565b5f63ffffffff82169050919050565b620002de81620002c4565b8114620002e9575f80fd5b50565b5f81519050620002fc81620002d3565b92915050565b5f819050919050565b620003168162000302565b811462000321575f80fd5b50565b5f8151905062000334816200030b565b92915050565b5f73ffffffffffffffffffffffffffffffffffffffff82169050919050565b5f62000365826200033a565b9050919050565b620003778162000359565b811462000382575f80fd5b50565b5f8151905062000395816200036c565b92915050565b5f805f8060808587031215620003b657620003b562000148565b5b5f85015167ffffffffffffffff811115620003d657620003d56200014c565b5b620003e48782880162000292565b9450506020620003f787828801620002ec565b93505060406200040a8782880162000324565b92505060606200041d8782880162000385565b91505092959194509250565b5f81519050919050565b7f4e487b71000000000000000000000000000000000000000000000000000000005f52602260045260245ffd5b5f60028204905060018216806200047857607f821691505b6020821081036200048e576200048d62000433565b5b50919050565b5f819050815f5260205f209050919050565b5f6020601f8301049050919050565b5f82821b905092915050565b5f60088302620004f27fffffffffffffffffffffffffffffffffffffffffffffffffffffffffffffffff82620004b5565b620004fe8683620004b5565b95508019841693508086168417925050509392505050565b5f819050919050565b5f6200053f62000539620005338462000302565b62000516565b62000302565b9050919050565b5f819050919050565b6200055a836200051f565b62000572620005698262000546565b848454620004c1565b825550505050565b5f90565b620005886200057a565b620005958184846200054f565b505050565b5b81811015620005bc57620005b05f826200057e565b6001810190506200059b565b5050565b601f8211156200060b57620005d58162000494565b620005e084620004a6565b81016020851015620005f0578190505b62000608620005ff85620004a6565b8301826200059a565b50505b505050565b5f82821c905092915050565b5f6200062d5f198460080262000610565b1980831691505092915050565b5f6200064783836200061c565b9150826002028217905092915050565b620006628262000429565b67ffffffffffffffff8111156200067e576200067d62000168565b5b6200068a825462000460565b62000697828285620005c0565b5f60209050601f831160018114620006cd575f8415620006b8578287015190505b620006c485826200063a565b86555062000733565b601f198416620006dd8662000494565b5f5b828110156200070657848901518255600182019150602085019450602081019050620006df565b8683101562000726578489015162000722601f8916826200061c565b8355505b6001600288020188555050505b505050505050565b61271280620007495f395ff3fe60806040526004361061011e575f3560e01c80636352211e1161009f578063a035b1fe11610063578063a035b1fe146103aa578063a22cb465146103d4578063b88d4fde146103fc578063c87b56dd14610424578063e985e9c5146104605761011e565b80636352211e146102b657806370a08231146102f25780638a333b501461032e57806391b7f5ed1461035857806395d89b41146103805761011e565b80632004ffd9116100e65780632004ffd91461020857806323b872dd1461021257806324f92a251461023a5780633940e9ee1461026457806342842e0e1461028e5761011e565b806301173a741461012257806301ffc9a71461013e57806306fdde031461017a578063081812fc146101a4578063095ea7b3146101e0575b5f80fd5b61013c60048036038101906101379190611c10565b61049c565b005b348015610149575f80fd5b50610164600480360381019061015f9190611c90565b610768565b6040516101719190611cd5565b60405180910390f35b348015610185575f80fd5b5061018e610849565b60405161019b9190611d78565b60405180910390f35b3480156101af575f80fd5b506101ca60048036038101906101c59190611dcb565b6108d8565b6040516101d79190611e05565b60405180910390f35b3480156101eb575f80fd5b5061020660048036038101906102019190611e1e565b6108f3565b005b610210610909565b005b34801561021d575f80fd5b5061023860048036038101906102339190611e5c565b610914565b005b348015610245575f80fd5b5061024e610a13565b60405161025b9190611eca565b60405180910390f35b34801561026f575f80fd5b50610278610a29565b6040516102859190611eca565b60405180910390f35b348015610299575f80fd5b506102b460048036038101906102af9190611e5c565b610a3e565b005b3480156102c1575f80fd5b506102dc60048036038101906102d79190611dcb565b610a5d565b6040516102e99190611e05565b60405180910390f35b3480156102fd575f80fd5b5061031860048036038101906103139190611c10565b610a6e565b6040516103259190611ef2565b60405180910390f35b348015610339575f80fd5b50610342610b24565b60405161034f9190611eca565b60405180910390f35b348015610363575f80fd5b5061037e60048036038101906103799190611dcb565b610b3a565b005b34801561038b575f80fd5b50610394610ca0565b6040516103a19190611d78565b60405180910390f35b3480156103b5575f80fd5b506103be610d30565b6040516103cb9190611ef2565b60405180910390f35b3480156103df575f80fd5b506103fa60048036038101906103f59190611f35565b610d36565b005b348015610407575f80fd5b50610422600480360381019061041d919061209f565b610d4c565b005b34801561042f575f80fd5b5061044a60048036038101906104459190611dcb565b610d71565b6040516104579190611d78565b60405180910390f35b34801561046b575f80fd5b506104866004803603810190610481919061211f565b610dd7565b6040516104939190611cd5565b60405180910390f35b8060085f9054906101000a900460ff16156104ec576040517f08c379a00000000000000000000000000000000000000000000000000000000081526004016104e3906121cd565b60405180910390fd5b600160085f6101000a81548160ff0219169083151502179055505f6006600c9054906101000a900463ffffffff1663ffffffff1611610560576040517f08c379a000000000000000000000000000000000000000000000000000000000815260040161055790612235565b60405180910390fd5b5f8061056b83610a6e565b11610576575f610579565b60015b90505f1515811515146105c1576040517f08c379a00000000000000000000000000000000000000000000000000000000081526004016105b89061229d565b60405180910390fd5b34600754811015610607576040517f08c379a00000000000000000000000000000000000000000000000000000000081526004016105fe90612305565b60405180910390fd5b600754811115610668575f600754826106209190612350565b90503373ffffffffffffffffffffffffffffffffffffffff166108fc8290811502906040515f60405180830381858888f19350505050158015610665573d5f803e3d5ffd5b50505b61068a84600660049054906101000a900463ffffffff1663ffffffff16610e65565b6001600660048282829054906101000a900463ffffffff166106ac9190612383565b92506101000a81548163ffffffff021916908363ffffffff16021790555060016006600c8282829054906101000a900463ffffffff166106ec91906123ba565b92506101000a81548163ffffffff021916908363ffffffff160217905550600160065f8282829054906101000a900463ffffffff1661072b9190612383565b92506101000a81548163ffffffff021916908363ffffffff160217905550505f60085f6101000a81548160ff021916908315150217905550505050565b5f7f80ac58cd000000000000000000000000000000000000000000000000000000007bffffffffffffffffffffffffffffffffffffffffffffffffffffffff1916827bffffffffffffffffffffffffffffffffffffffffffffffffffffffff1916148061083257507f5b5e139f000000000000000000000000000000000000000000000000000000007bffffffffffffffffffffffffffffffffffffffffffffffffffffffff1916827bffffffffffffffffffffffffffffffffffffffffffffffffffffffff1916145b80610842575061084182610e82565b5b9050919050565b60605f80546108579061241e565b80601f01602080910402602001604051908101604052809291908181526020018280546108839061241e565b80156108ce5780601f106108a5576101008083540402835291602001916108ce565b820191905f5260205f20905b8154815290600101906020018083116108b157829003601f168201915b5050505050905090565b5f6108e282610eeb565b506108ec82610f71565b9050919050565b6109058282610900610faa565b610fb1565b5050565b6109123361049c565b565b5f73ffffffffffffffffffffffffffffffffffffffff168273ffffffffffffffffffffffffffffffffffffffff1603610984575f6040517f64a0ae9200000000000000000000000000000000000000000000000000000000815260040161097b9190611e05565b60405180910390fd5b5f6109978383610992610faa565b610fc3565b90508373ffffffffffffffffffffffffffffffffffffffff168173ffffffffffffffffffffffffffffffffffffffff1614610a0d578382826040517f64283d7b000000000000000000000000000000000000000000000000000000008152600401610a049392919061244e565b60405180910390fd5b50505050565b6006600c9054906101000a900463ffffffff1681565b60065f9054906101000a900463ffffffff1681565b610a5883838360405180602001604052805f815250610d4c565b505050565b5f610a6782610eeb565b9050919050565b5f8073ffffffffffffffffffffffffffffffffffffffff168273ffffffffffffffffffffffffffffffffffffffff1603610adf575f6040517f89c62b64000000000000000000000000000000000000000000000000000000008152600401610ad69190611e05565b60405180910390fd5b60035f8373ffffffffffffffffffffffffffffffffffffffff1673ffffffffffffffffffffffffffffffffffffffff1681526020019081526020015f20549050919050565b600660089054906101000a900463ffffffff1681565b5f600860019054906101000a900473ffffffffffffffffffffffffffffffffffffffff1673ffffffffffffffffffffffffffffffffffffffff1663893d20e86040518163ffffffff1660e01b8152600401602060405180830381865afa158015610ba6573d5f803e3d5ffd5b505050506040513d601f19601f82011682018060405250810190610bca9190612497565b90505f8173ffffffffffffffffffffffffffffffffffffffff163373ffffffffffffffffffffffffffffffffffffffff161480610c5257503373ffffffffffffffffffffffffffffffffffffffff16610c3a600660049054906101000a900463ffffffff1663ffffffff166108d8565b73ffffffffffffffffffffffffffffffffffffffff16145b905080610c94576040517f08c379a0000000000000000000000000000000000000000000000000000000008152600401610c8b90612532565b60405180910390fd5b82600781905550505050565b606060018054610caf9061241e565b80601f0160208091040260200160405190810160405280929190818152602001828054610cdb9061241e565b8015610d265780601f10610cfd57610100808354040283529160200191610d26565b820191905f5260205f20905b815481529060010190602001808311610d0957829003601f168201915b5050505050905090565b60075481565b610d48610d41610faa565b83836111ce565b5050565b610d57848484610914565b610d6b610d62610faa565b85858585611337565b50505050565b6060610d7c82610eeb565b505f610d866114e3565b90505f815111610da45760405180602001604052805f815250610dcf565b80610dae846114f9565b604051602001610dbf92919061258a565b6040516020818303038152906040525b915050919050565b5f60055f8473ffffffffffffffffffffffffffffffffffffffff1673ffffffffffffffffffffffffffffffffffffffff1681526020019081526020015f205f8373ffffffffffffffffffffffffffffffffffffffff1673ffffffffffffffffffffffffffffffffffffffff1681526020019081526020015f205f9054906101000a900460ff16905092915050565b610e7e828260405180602001604052805f8152506115c3565b5050565b5f7f01ffc9a7000000000000000000000000000000000000000000000000000000007bffffffffffffffffffffffffffffffffffffffffffffffffffffffff1916827bffffffffffffffffffffffffffffffffffffffffffffffffffffffff1916149050919050565b5f80610ef6836115e6565b90505f73ffffffffffffffffffffffffffffffffffffffff168173ffffffffffffffffffffffffffffffffffffffff1603610f6857826040517f7e273289000000000000000000000000000000000000000000000000000000008152600401610f5f9190611ef2565b60405180910390fd5b80915050919050565b5f60045f8381526020019081526020015f205f9054906101000a900473ffffffffffffffffffffffffffffffffffffffff169050919050565b5f33905090565b610fbe838383600161161f565b505050565b5f80610fce846115e6565b90505f73ffffffffffffffffffffffffffffffffffffffff168373ffffffffffffffffffffffffffffffffffffffff161461100f5761100e8184866117de565b5b5f73ffffffffffffffffffffffffffffffffffffffff168173ffffffffffffffffffffffffffffffffffffffff161461109a5761104e5f855f8061161f565b600160035f8373ffffffffffffffffffffffffffffffffffffffff1673ffffffffffffffffffffffffffffffffffffffff1681526020019081526020015f205f82825403925050819055505b5f73ffffffffffffffffffffffffffffffffffffffff168573ffffffffffffffffffffffffffffffffffffffff161461111957600160035f8773ffffffffffffffffffffffffffffffffffffffff1673ffffffffffffffffffffffffffffffffffffffff1681526020019081526020015f205f82825401925050819055505b8460025f8681526020019081526020015f205f6101000a81548173ffffffffffffffffffffffffffffffffffffffff021916908373ffffffffffffffffffffffffffffffffffffffff160217905550838573ffffffffffffffffffffffffffffffffffffffff168273ffffffffffffffffffffffffffffffffffffffff167fddf252ad1be2c89b69c2b068fc378daa952ba7f163c4a11628f55a4df523b3ef60405160405180910390a4809150509392505050565b5f73ffffffffffffffffffffffffffffffffffffffff168273ffffffffffffffffffffffffffffffffffffffff160361123e57816040517f5b08ba180000000000000000000000000000000000000000000000000000000081526004016112359190611e05565b60405180910390fd5b8060055f8573ffffffffffffffffffffffffffffffffffffffff1673ffffffffffffffffffffffffffffffffffffffff1681526020019081526020015f205f8473ffffffffffffffffffffffffffffffffffffffff1673ffffffffffffffffffffffffffffffffffffffff1681526020019081526020015f205f6101000a81548160ff0219169083151502179055508173ffffffffffffffffffffffffffffffffffffffff168373ffffffffffffffffffffffffffffffffffffffff167f17307eab39ab6107e8899845ad3d59bd9653f200f220920489ca2b5937696c318360405161132a9190611cd5565b60405180910390a3505050565b5f8373ffffffffffffffffffffffffffffffffffffffff163b11156114dc578273ffffffffffffffffffffffffffffffffffffffff1663150b7a02868685856040518563ffffffff1660e01b815260040161139594939291906125ff565b6020604051808303815f875af19250505080156113d057506040513d601f19601f820116820180604052508101906113cd919061265d565b60015b611451573d805f81146113fe576040519150601f19603f3d011682016040523d82523d5f602084013e611403565b606091505b505f81510361144957836040517f64a0ae920000000000000000000000000000000000000000000000000000000081526004016114409190611e05565b60405180910390fd5b805181602001fd5b63150b7a0260e01b7bffffffffffffffffffffffffffffffffffffffffffffffffffffffff1916817bffffffffffffffffffffffffffffffffffffffffffffffffffffffff1916146114da57836040517f64a0ae920000000000000000000000000000000000000000000000000000000081526004016114d19190611e05565b60405180910390fd5b505b5050505050565b606060405180602001604052805f815250905090565b60605f6001611507846118a1565b0190505f8167ffffffffffffffff81111561152557611524611f7b565b5b6040519080825280601f01601f1916602001820160405280156115575781602001600182028036833780820191505090505b5090505f82602001820190505b6001156115b8578080600190039150507f3031323334353637383961626364656600000000000000000000000000000000600a86061a8153600a85816115ad576115ac612688565b5b0494505f8503611564575b819350505050919050565b6115cd83836119f2565b6115e16115d8610faa565b5f858585611337565b505050565b5f60025f8381526020019081526020015f205f9054906101000a900473ffffffffffffffffffffffffffffffffffffffff169050919050565b808061165757505f73ffffffffffffffffffffffffffffffffffffffff168273ffffffffffffffffffffffffffffffffffffffff1614155b15611789575f61166684610eeb565b90505f73ffffffffffffffffffffffffffffffffffffffff168373ffffffffffffffffffffffffffffffffffffffff16141580156116d057508273ffffffffffffffffffffffffffffffffffffffff168173ffffffffffffffffffffffffffffffffffffffff1614155b80156116e357506116e18184610dd7565b155b1561172557826040517fa9fbf51f00000000000000000000000000000000000000000000000000000000815260040161171c9190611e05565b60405180910390fd5b811561178757838573ffffffffffffffffffffffffffffffffffffffff168273ffffffffffffffffffffffffffffffffffffffff167f8c5be1e5ebec7d5bd14f71427d1e84f3dd0314c0f7b2291e5b200ac8c7c3b92560405160405180910390a45b505b8360045f8581526020019081526020015f205f6101000a81548173ffffffffffffffffffffffffffffffffffffffff021916908373ffffffffffffffffffffffffffffffffffffffff16021790555050505050565b6117e9838383611ae5565b61189c575f73ffffffffffffffffffffffffffffffffffffffff168373ffffffffffffffffffffffffffffffffffffffff160361185d57806040517f7e2732890000000000000000000000000000000000000000000000000000000081526004016118549190611ef2565b60405180910390fd5b81816040517f177e802f0000000000000000000000000000000000000000000000000000000081526004016118939291906126b5565b60405180910390fd5b505050565b5f805f90507a184f03e93ff9f4daa797ed6e38ed64bf6a1f01000000000000000083106118fd577a184f03e93ff9f4daa797ed6e38ed64bf6a1f01000000000000000083816118f3576118f2612688565b5b0492506040810190505b6d04ee2d6d415b85acef8100000000831061193a576d04ee2d6d415b85acef810000000083816119305761192f612688565b5b0492506020810190505b662386f26fc10000831061196957662386f26fc10000838161195f5761195e612688565b5b0492506010810190505b6305f5e1008310611992576305f5e100838161198857611987612688565b5b0492506008810190505b61271083106119b75761271083816119ad576119ac612688565b5b0492506004810190505b606483106119da57606483816119d0576119cf612688565b5b0492506002810190505b600a83106119e9576001810190505b80915050919050565b5f73ffffffffffffffffffffffffffffffffffffffff168273ffffffffffffffffffffffffffffffffffffffff1603611a62575f6040517f64a0ae92000000000000000000000000000000000000000000000000000000008152600401611a599190611e05565b60405180910390fd5b5f611a6e83835f610fc3565b90505f73ffffffffffffffffffffffffffffffffffffffff168173ffffffffffffffffffffffffffffffffffffffff1614611ae0575f6040517f73c6ac6e000000000000000000000000000000000000000000000000000000008152600401611ad79190611e05565b60405180910390fd5b505050565b5f8073ffffffffffffffffffffffffffffffffffffffff168373ffffffffffffffffffffffffffffffffffffffff1614158015611b9c57508273ffffffffffffffffffffffffffffffffffffffff168473ffffffffffffffffffffffffffffffffffffffff161480611b5d5750611b5c8484610dd7565b5b80611b9b57508273ffffffffffffffffffffffffffffffffffffffff16611b8383610f71565b73ffffffffffffffffffffffffffffffffffffffff16145b5b90509392505050565b5f604051905090565b5f80fd5b5f80fd5b5f73ffffffffffffffffffffffffffffffffffffffff82169050919050565b5f611bdf82611bb6565b9050919050565b611bef81611bd5565b8114611bf9575f80fd5b50565b5f81359050611c0a81611be6565b92915050565b5f60208284031215611c2557611c24611bae565b5b5f611c3284828501611bfc565b91505092915050565b5f7fffffffff0000000000000000000000000000000000000000000000000000000082169050919050565b611c6f81611c3b565b8114611c79575f80fd5b50565b5f81359050611c8a81611c66565b92915050565b5f60208284031215611ca557611ca4611bae565b5b5f611cb284828501611c7c565b91505092915050565b5f8115159050919050565b611ccf81611cbb565b82525050565b5f602082019050611ce85f830184611cc6565b92915050565b5f81519050919050565b5f82825260208201905092915050565b5f5b83811015611d25578082015181840152602081019050611d0a565b5f8484015250505050565b5f601f19601f8301169050919050565b5f611d4a82611cee565b611d548185611cf8565b9350611d64818560208601611d08565b611d6d81611d30565b840191505092915050565b5f6020820190508181035f830152611d908184611d40565b905092915050565b5f819050919050565b611daa81611d98565b8114611db4575f80fd5b50565b5f81359050611dc581611da1565b92915050565b5f60208284031215611de057611ddf611bae565b5b5f611ded84828501611db7565b91505092915050565b611dff81611bd5565b82525050565b5f602082019050611e185f830184611df6565b92915050565b5f8060408385031215611e3457611e33611bae565b5b5f611e4185828601611bfc565b9250506020611e5285828601611db7565b9150509250929050565b5f805f60608486031215611e7357611e72611bae565b5b5f611e8086828701611bfc565b9350506020611e9186828701611bfc565b9250506040611ea286828701611db7565b9150509250925092565b5f63ffffffff82169050919050565b611ec481611eac565b82525050565b5f602082019050611edd5f830184611ebb565b92915050565b611eec81611d98565b82525050565b5f602082019050611f055f830184611ee3565b92915050565b611f1481611cbb565b8114611f1e575f80fd5b50565b5f81359050611f2f81611f0b565b92915050565b5f8060408385031215611f4b57611f4a611bae565b5b5f611f5885828601611bfc565b9250506020611f6985828601611f21565b9150509250929050565b5f80fd5b5f80fd5b7f4e487b71000000000000000000000000000000000000000000000000000000005f52604160045260245ffd5b611fb182611d30565b810181811067ffffffffffffffff82111715611fd057611fcf611f7b565b5b80604052505050565b5f611fe2611ba5565b9050611fee8282611fa8565b919050565b5f67ffffffffffffffff82111561200d5761200c611f7b565b5b61201682611d30565b9050602081019050919050565b828183375f83830152505050565b5f61204361203e84611ff3565b611fd9565b90508281526020810184848401111561205f5761205e611f77565b5b61206a848285612023565b509392505050565b5f82601f83011261208657612085611f73565b5b8135612096848260208601612031565b91505092915050565b5f805f80608085870312156120b7576120b6611bae565b5b5f6120c487828801611bfc565b94505060206120d587828801611bfc565b93505060406120e687828801611db7565b925050606085013567ffffffffffffffff81111561210757612106611bb2565b5b61211387828801612072565b91505092959194509250565b5f806040838503121561213557612134611bae565b5b5f61214285828601611bfc565b925050602061215385828601611bfc565b9150509250929050565b7f736f72727920736f6d656f6e6520656c7365206973206d696e74696e67206e6f5f8201527f772c20706c656173652074727920616761696e206c6174657200000000000000602082015250565b5f6121b7603983611cf8565b91506121c28261215d565b604082019050919050565b5f6020820190508181035f8301526121e4816121ab565b9050919050565b7f736f727279206e6f7420656e6f75676820737570706c790000000000000000005f82015250565b5f61221f601783611cf8565b915061222a826121eb565b602082019050919050565b5f6020820190508181035f83015261224c81612213565b9050919050565b7f796f75206861766520616c7265616479206d696e7465640000000000000000005f82015250565b5f612287601783611cf8565b915061229282612253565b602082019050919050565b5f6020820190508181035f8301526122b48161227b565b9050919050565b7f74686520676976656e20616d6f756e74206973206e6f7420656e6f75676800005f82015250565b5f6122ef601e83611cf8565b91506122fa826122bb565b602082019050919050565b5f6020820190508181035f83015261231c816122e3565b9050919050565b7f4e487b71000000000000000000000000000000000000000000000000000000005f52601160045260245ffd5b5f61235a82611d98565b915061236583611d98565b925082820390508181111561237d5761237c612323565b5b92915050565b5f61238d82611eac565b915061239883611eac565b9250828201905063ffffffff8111156123b4576123b3612323565b5b92915050565b5f6123c482611eac565b91506123cf83611eac565b9250828203905063ffffffff8111156123eb576123ea612323565b5b92915050565b7f4e487b71000000000000000000000000000000000000000000000000000000005f52602260045260245ffd5b5f600282049050600182168061243557607f821691505b602082108103612448576124476123f1565b5b50919050565b5f6060820190506124615f830186611df6565b61246e6020830185611ee3565b61247b6040830184611df6565b949350505050565b5f8151905061249181611be6565b92915050565b5f602082840312156124ac576124ab611bae565b5b5f6124b984828501612483565b91505092915050565b7f4f6e6c792074686520636f6e7472616374206f776e65722063616e20646f20745f8201527f6869730000000000000000000000000000000000000000000000000000000000602082015250565b5f61251c602383611cf8565b9150612527826124c2565b604082019050919050565b5f6020820190508181035f83015261254981612510565b9050919050565b5f81905092915050565b5f61256482611cee565b61256e8185612550565b935061257e818560208601611d08565b80840191505092915050565b5f612595828561255a565b91506125a1828461255a565b91508190509392505050565b5f81519050919050565b5f82825260208201905092915050565b5f6125d1826125ad565b6125db81856125b7565b93506125eb818560208601611d08565b6125f481611d30565b840191505092915050565b5f6080820190506126125f830187611df6565b61261f6020830186611df6565b61262c6040830185611ee3565b818103606083015261263e81846125c7565b905095945050505050565b5f8151905061265781611c66565b92915050565b5f6020828403121561267257612671611bae565b5b5f61267f84828501612649565b91505092915050565b7f4e487b71000000000000000000000000000000000000000000000000000000005f52601260045260245ffd5b5f6040820190506126c85f830185611df6565b6126d56020830184611ee3565b939250505056fea2646970667358221220336bc556b265ac0f7113e26238425eba12d8e83e56e32fcb986908460f873fbe64736f6c63430008140033a26469706673582212206f789547b232e99f60cddafe25d1f2a81f58724a637c9585c4c6f463d6d524eb64736f6c63430008140033",
			"opcodes": "PUSH1 0x80 PUSH1 0x40 MSTORE PUSH0 DUP1 PUSH0 PUSH2 0x100 EXP DUP2 SLOAD DUP2 PUSH4 0xFFFFFFFF MUL NOT AND SWAP1 DUP4 PUSH4 0xFFFFFFFF AND MUL OR SWAP1 SSTORE POP CALLVALUE DUP1 ISZERO PUSH2 0x2E JUMPI PUSH0 DUP1 REVERT JUMPDEST POP PUSH2 0x9EAB DUP1 PUSH2 0x3C PUSH0 CODECOPY PUSH0 RETURN INVALID PUSH1 0x80 PUSH1 0x40 MSTORE CALLVALUE DUP1 ISZERO PUSH3 0x10 JUMPI PUSH0 DUP1 REVERT JUMPDEST POP PUSH1 0x4 CALLDATASIZE LT PUSH3 0x50 JUMPI PUSH0 CALLDATALOAD PUSH1 0xE0 SHR DUP1 PUSH4 0x3EA8873A EQ PUSH3 0x54 JUMPI DUP1 PUSH4 0x996517E2 EQ PUSH3 0x95 JUMPI DUP1 PUSH4 0x9D585DE1 EQ PUSH3 0xCB JUMPI DUP1 PUSH4 0xA98AC3DC EQ PUSH3 0xED JUMPI JUMPDEST PUSH0 DUP1 REVERT JUMPDEST PUSH3 0x72 PUSH1 0x4 DUP1 CALLDATASIZE SUB DUP2 ADD SWAP1 PUSH3 0x6C SWAP2 SWAP1 PUSH3 0xDB7 JUMP JUMPDEST PUSH3 0x10D JUMP JUMPDEST PUSH1 0x40 MLOAD PUSH3 0x8C SWAP13 SWAP12 SWAP11 SWAP10 SWAP9 SWAP8 SWAP7 SWAP6 SWAP5 SWAP4 SWAP3 SWAP2 SWAP1 PUSH3 0xEE9 JUMP JUMPDEST PUSH1 0x40 MLOAD DUP1 SWAP2 SUB SWAP1 RETURN JUMPDEST PUSH3 0xB3 PUSH1 0x4 DUP1 CALLDATASIZE SUB DUP2 ADD SWAP1 PUSH3 0xAD SWAP2 SWAP1 PUSH3 0xDB7 JUMP JUMPDEST PUSH3 0x44B JUMP JUMPDEST PUSH1 0x40 MLOAD PUSH3 0xC2 SWAP2 SWAP1 PUSH3 0x1186 JUMP JUMPDEST PUSH1 0x40 MLOAD DUP1 SWAP2 SUB SWAP1 RETURN JUMPDEST PUSH3 0xD5 PUSH3 0x8B2 JUMP JUMPDEST PUSH1 0x40 MLOAD PUSH3 0xE4 SWAP2 SWAP1 PUSH3 0x11A8 JUMP JUMPDEST PUSH1 0x40 MLOAD DUP1 SWAP2 SUB SWAP1 RETURN JUMPDEST PUSH3 0x10B PUSH1 0x4 DUP1 CALLDATASIZE SUB DUP2 ADD SWAP1 PUSH3 0x105 SWAP2 SWAP1 PUSH3 0x133A JUMP JUMPDEST PUSH3 0x8C5 JUMP JUMPDEST STOP JUMPDEST PUSH1 0x1 PUSH1 0x20 MSTORE DUP1 PUSH0 MSTORE PUSH1 0x40 PUSH0 KECCAK256 PUSH0 SWAP2 POP SWAP1 POP DUP1 PUSH0 ADD PUSH0 SWAP1 SLOAD SWAP1 PUSH2 0x100 EXP SWAP1 DIV PUSH4 0xFFFFFFFF AND SWAP1 DUP1 PUSH1 0x1 ADD DUP1 SLOAD PUSH3 0x143 SWAP1 PUSH3 0x1491 JUMP JUMPDEST DUP1 PUSH1 0x1F ADD PUSH1 0x20 DUP1 SWAP2 DIV MUL PUSH1 0x20 ADD PUSH1 0x40 MLOAD SWAP1 DUP2 ADD PUSH1 0x40 MSTORE DUP1 SWAP3 SWAP2 SWAP1 DUP2 DUP2 MSTORE PUSH1 0x20 ADD DUP3 DUP1 SLOAD PUSH3 0x171 SWAP1 PUSH3 0x1491 JUMP JUMPDEST DUP1 ISZERO PUSH3 0x1C0 JUMPI DUP1 PUSH1 0x1F LT PUSH3 0x196 JUMPI PUSH2 0x100 DUP1 DUP4 SLOAD DIV MUL DUP4 MSTORE SWAP2 PUSH1 0x20 ADD SWAP2 PUSH3 0x1C0 JUMP JUMPDEST DUP3 ADD SWAP2 SWAP1 PUSH0 MSTORE PUSH1 0x20 PUSH0 KECCAK256 SWAP1 JUMPDEST DUP2 SLOAD DUP2 MSTORE SWAP1 PUSH1 0x1 ADD SWAP1 PUSH1 0x20 ADD DUP1 DUP4 GT PUSH3 0x1A2 JUMPI DUP3 SWAP1 SUB PUSH1 0x1F AND DUP3 ADD SWAP2 JUMPDEST POP POP POP POP POP SWAP1 DUP1 PUSH1 0x2 ADD DUP1 SLOAD PUSH3 0x1D7 SWAP1 PUSH3 0x1491 JUMP JUMPDEST DUP1 PUSH1 0x1F ADD PUSH1 0x20 DUP1 SWAP2 DIV MUL PUSH1 0x20 ADD PUSH1 0x40 MLOAD SWAP1 DUP2 ADD PUSH1 0x40 MSTORE DUP1 SWAP3 SWAP2 SWAP1 DUP2 DUP2 MSTORE PUSH1 0x20 ADD DUP3 DUP1 SLOAD PUSH3 0x205 SWAP1 PUSH3 0x1491 JUMP JUMPDEST DUP1 ISZERO PUSH3 0x254 JUMPI DUP1 PUSH1 0x1F LT PUSH3 0x22A JUMPI PUSH2 0x100 DUP1 DUP4 SLOAD DIV MUL DUP4 MSTORE SWAP2 PUSH1 0x20 ADD SWAP2 PUSH3 0x254 JUMP JUMPDEST DUP3 ADD SWAP2 SWAP1 PUSH0 MSTORE PUSH1 0x20 PUSH0 KECCAK256 SWAP1 JUMPDEST DUP2 SLOAD DUP2 MSTORE SWAP1 PUSH1 0x1 ADD SWAP1 PUSH1 0x20 ADD DUP1 DUP4 GT PUSH3 0x236 JUMPI DUP3 SWAP1 SUB PUSH1 0x1F AND DUP3 ADD SWAP2 JUMPDEST POP POP POP POP POP SWAP1 DUP1 PUSH1 0x3 ADD DUP1 SLOAD PUSH3 0x26B SWAP1 PUSH3 0x1491 JUMP JUMPDEST DUP1 PUSH1 0x1F ADD PUSH1 0x20 DUP1 SWAP2 DIV MUL PUSH1 0x20 ADD PUSH1 0x40 MLOAD SWAP1 DUP2 ADD PUSH1 0x40 MSTORE DUP1 SWAP3 SWAP2 SWAP1 DUP2 DUP2 MSTORE PUSH1 0x20 ADD DUP3 DUP1 SLOAD PUSH3 0x299 SWAP1 PUSH3 0x1491 JUMP JUMPDEST DUP1 ISZERO PUSH3 0x2E8 JUMPI DUP1 PUSH1 0x1F LT PUSH3 0x2BE JUMPI PUSH2 0x100 DUP1 DUP4 SLOAD DIV MUL DUP4 MSTORE SWAP2 PUSH1 0x20 ADD SWAP2 PUSH3 0x2E8 JUMP JUMPDEST DUP3 ADD SWAP2 SWAP1 PUSH0 MSTORE PUSH1 0x20 PUSH0 KECCAK256 SWAP1 JUMPDEST DUP2 SLOAD DUP2 MSTORE SWAP1 PUSH1 0x1 ADD SWAP1 PUSH1 0x20 ADD DUP1 DUP4 GT PUSH3 0x2CA JUMPI DUP3 SWAP1 SUB PUSH1 0x1F AND DUP3 ADD SWAP2 JUMPDEST POP POP POP POP POP SWAP1 DUP1 PUSH1 0x4 ADD DUP1 SLOAD PUSH3 0x2FF SWAP1 PUSH3 0x1491 JUMP JUMPDEST DUP1 PUSH1 0x1F ADD PUSH1 0x20 DUP1 SWAP2 DIV MUL PUSH1 0x20 ADD PUSH1 0x40 MLOAD SWAP1 DUP2 ADD PUSH1 0x40 MSTORE DUP1 SWAP3 SWAP2 SWAP1 DUP2 DUP2 MSTORE PUSH1 0x20 ADD DUP3 DUP1 SLOAD PUSH3 0x32D SWAP1 PUSH3 0x1491 JUMP JUMPDEST DUP1 ISZERO PUSH3 0x37C JUMPI DUP1 PUSH1 0x1F LT PUSH3 0x352 JUMPI PUSH2 0x100 DUP1 DUP4 SLOAD DIV MUL DUP4 MSTORE SWAP2 PUSH1 0x20 ADD SWAP2 PUSH3 0x37C JUMP JUMPDEST DUP3 ADD SWAP2 SWAP1 PUSH0 MSTORE PUSH1 0x20 PUSH0 KECCAK256 SWAP1 JUMPDEST DUP2 SLOAD DUP2 MSTORE SWAP1 PUSH1 0x1 ADD SWAP1 PUSH1 0x20 ADD DUP1 DUP4 GT PUSH3 0x35E JUMPI DUP3 SWAP1 SUB PUSH1 0x1F AND DUP3 ADD SWAP2 JUMPDEST POP POP POP POP POP SWAP1 DUP1 PUSH1 0x5 ADD PUSH0 SWAP1 SLOAD SWAP1 PUSH2 0x100 EXP SWAP1 DIV PUSH4 0xFFFFFFFF AND SWAP1 DUP1 PUSH1 0x5 ADD PUSH1 0x4 SWAP1 SLOAD SWAP1 PUSH2 0x100 EXP SWAP1 DIV PUSH4 0xFFFFFFFF AND SWAP1 DUP1 PUSH1 0x6 ADD SLOAD SWAP1 DUP1 PUSH1 0x7 ADD PUSH0 SWAP1 SLOAD SWAP1 PUSH2 0x100 EXP SWAP1 DIV PUSH20 0xFFFFFFFFFFFFFFFFFFFFFFFFFFFFFFFFFFFFFFFF AND SWAP1 DUP1 PUSH1 0x8 ADD PUSH0 SWAP1 SLOAD SWAP1 PUSH2 0x100 EXP SWAP1 DIV PUSH20 0xFFFFFFFFFFFFFFFFFFFFFFFFFFFFFFFFFFFFFFFF AND SWAP1 DUP1 PUSH1 0x9 ADD PUSH0 SWAP1 SLOAD SWAP1 PUSH2 0x100 EXP SWAP1 DIV PUSH20 0xFFFFFFFFFFFFFFFFFFFFFFFFFFFFFFFFFFFFFFFF AND SWAP1 DUP1 PUSH1 0xA ADD PUSH0 SWAP1 SLOAD SWAP1 PUSH2 0x100 EXP SWAP1 DIV PUSH20 0xFFFFFFFFFFFFFFFFFFFFFFFFFFFFFFFFFFFFFFFF AND SWAP1 POP DUP13 JUMP JUMPDEST PUSH3 0x455 PUSH3 0xC7B JUMP JUMPDEST PUSH1 0x1 PUSH0 DUP4 PUSH4 0xFFFFFFFF AND PUSH4 0xFFFFFFFF AND DUP2 MSTORE PUSH1 0x20 ADD SWAP1 DUP2 MSTORE PUSH1 0x20 ADD PUSH0 KECCAK256 PUSH1 0x40 MLOAD DUP1 PUSH2 0x180 ADD PUSH1 0x40 MSTORE SWAP1 DUP2 PUSH0 DUP3 ADD PUSH0 SWAP1 SLOAD SWAP1 PUSH2 0x100 EXP SWAP1 DIV PUSH4 0xFFFFFFFF AND PUSH4 0xFFFFFFFF AND PUSH4 0xFFFFFFFF AND DUP2 MSTORE PUSH1 0x20 ADD PUSH1 0x1 DUP3 ADD DUP1 SLOAD PUSH3 0x4B4 SWAP1 PUSH3 0x1491 JUMP JUMPDEST DUP1 PUSH1 0x1F ADD PUSH1 0x20 DUP1 SWAP2 DIV MUL PUSH1 0x20 ADD PUSH1 0x40 MLOAD SWAP1 DUP2 ADD PUSH1 0x40 MSTORE DUP1 SWAP3 SWAP2 SWAP1 DUP2 DUP2 MSTORE PUSH1 0x20 ADD DUP3 DUP1 SLOAD PUSH3 0x4E2 SWAP1 PUSH3 0x1491 JUMP JUMPDEST DUP1 ISZERO PUSH3 0x531 JUMPI DUP1 PUSH1 0x1F LT PUSH3 0x507 JUMPI PUSH2 0x100 DUP1 DUP4 SLOAD DIV MUL DUP4 MSTORE SWAP2 PUSH1 0x20 ADD SWAP2 PUSH3 0x531 JUMP JUMPDEST DUP3 ADD SWAP2 SWAP1 PUSH0 MSTORE PUSH1 0x20 PUSH0 KECCAK256 SWAP1 JUMPDEST DUP2 SLOAD DUP2 MSTORE SWAP1 PUSH1 0x1 ADD SWAP1 PUSH1 0x20 ADD DUP1 DUP4 GT PUSH3 0x513 JUMPI DUP3 SWAP1 SUB PUSH1 0x1F AND DUP3 ADD SWAP2 JUMPDEST POP POP POP POP POP DUP2 MSTORE PUSH1 0x20 ADD PUSH1 0x2 DUP3 ADD DUP1 SLOAD PUSH3 0x54C SWAP1 PUSH3 0x1491 JUMP JUMPDEST DUP1 PUSH1 0x1F ADD PUSH1 0x20 DUP1 SWAP2 DIV MUL PUSH1 0x20 ADD PUSH1 0x40 MLOAD SWAP1 DUP2 ADD PUSH1 0x40 MSTORE DUP1 SWAP3 SWAP2 SWAP1 DUP2 DUP2 MSTORE PUSH1 0x20 ADD DUP3 DUP1 SLOAD PUSH3 0x57A SWAP1 PUSH3 0x1491 JUMP JUMPDEST DUP1 ISZERO PUSH3 0x5C9 JUMPI DUP1 PUSH1 0x1F LT PUSH3 0x59F JUMPI PUSH2 0x100 DUP1 DUP4 SLOAD DIV MUL DUP4 MSTORE SWAP2 PUSH1 0x20 ADD SWAP2 PUSH3 0x5C9 JUMP JUMPDEST DUP3 ADD SWAP2 SWAP1 PUSH0 MSTORE PUSH1 0x20 PUSH0 KECCAK256 SWAP1 JUMPDEST DUP2 SLOAD DUP2 MSTORE SWAP1 PUSH1 0x1 ADD SWAP1 PUSH1 0x20 ADD DUP1 DUP4 GT PUSH3 0x5AB JUMPI DUP3 SWAP1 SUB PUSH1 0x1F AND DUP3 ADD SWAP2 JUMPDEST POP POP POP POP POP DUP2 MSTORE PUSH1 0x20 ADD PUSH1 0x3 DUP3 ADD DUP1 SLOAD PUSH3 0x5E4 SWAP1 PUSH3 0x1491 JUMP JUMPDEST DUP1 PUSH1 0x1F ADD PUSH1 0x20 DUP1 SWAP2 DIV MUL PUSH1 0x20 ADD PUSH1 0x40 MLOAD SWAP1 DUP2 ADD PUSH1 0x40 MSTORE DUP1 SWAP3 SWAP2 SWAP1 DUP2 DUP2 MSTORE PUSH1 0x20 ADD DUP3 DUP1 SLOAD PUSH3 0x612 SWAP1 PUSH3 0x1491 JUMP JUMPDEST DUP1 ISZERO PUSH3 0x661 JUMPI DUP1 PUSH1 0x1F LT PUSH3 0x637 JUMPI PUSH2 0x100 DUP1 DUP4 SLOAD DIV MUL DUP4 MSTORE SWAP2 PUSH1 0x20 ADD SWAP2 PUSH3 0x661 JUMP JUMPDEST DUP3 ADD SWAP2 SWAP1 PUSH0 MSTORE PUSH1 0x20 PUSH0 KECCAK256 SWAP1 JUMPDEST DUP2 SLOAD DUP2 MSTORE SWAP1 PUSH1 0x1 ADD SWAP1 PUSH1 0x20 ADD DUP1 DUP4 GT PUSH3 0x643 JUMPI DUP3 SWAP1 SUB PUSH1 0x1F AND DUP3 ADD SWAP2 JUMPDEST POP POP POP POP POP DUP2 MSTORE PUSH1 0x20 ADD PUSH1 0x4 DUP3 ADD DUP1 SLOAD PUSH3 0x67C SWAP1 PUSH3 0x1491 JUMP JUMPDEST DUP1 PUSH1 0x1F ADD PUSH1 0x20 DUP1 SWAP2 DIV MUL PUSH1 0x20 ADD PUSH1 0x40 MLOAD SWAP1 DUP2 ADD PUSH1 0x40 MSTORE DUP1 SWAP3 SWAP2 SWAP1 DUP2 DUP2 MSTORE PUSH1 0x20 ADD DUP3 DUP1 SLOAD PUSH3 0x6AA SWAP1 PUSH3 0x1491 JUMP JUMPDEST DUP1 ISZERO PUSH3 0x6F9 JUMPI DUP1 PUSH1 0x1F LT PUSH3 0x6CF JUMPI PUSH2 0x100 DUP1 DUP4 SLOAD DIV MUL DUP4 MSTORE SWAP2 PUSH1 0x20 ADD SWAP2 PUSH3 0x6F9 JUMP JUMPDEST DUP3 ADD SWAP2 SWAP1 PUSH0 MSTORE PUSH1 0x20 PUSH0 KECCAK256 SWAP1 JUMPDEST DUP2 SLOAD DUP2 MSTORE SWAP1 PUSH1 0x1 ADD SWAP1 PUSH1 0x20 ADD DUP1 DUP4 GT PUSH3 0x6DB JUMPI DUP3 SWAP1 SUB PUSH1 0x1F AND DUP3 ADD SWAP2 JUMPDEST POP POP POP POP POP DUP2 MSTORE PUSH1 0x20 ADD PUSH1 0x5 DUP3 ADD PUSH0 SWAP1 SLOAD SWAP1 PUSH2 0x100 EXP SWAP1 DIV PUSH4 0xFFFFFFFF AND PUSH4 0xFFFFFFFF AND PUSH4 0xFFFFFFFF AND DUP2 MSTORE PUSH1 0x20 ADD PUSH1 0x5 DUP3 ADD PUSH1 0x4 SWAP1 SLOAD SWAP1 PUSH2 0x100 EXP SWAP1 DIV PUSH4 0xFFFFFFFF AND PUSH4 0xFFFFFFFF AND PUSH4 0xFFFFFFFF AND DUP2 MSTORE PUSH1 0x20 ADD PUSH1 0x6 DUP3 ADD SLOAD DUP2 MSTORE PUSH1 0x20 ADD PUSH1 0x7 DUP3 ADD PUSH0 SWAP1 SLOAD SWAP1 PUSH2 0x100 EXP SWAP1 DIV PUSH20 0xFFFFFFFFFFFFFFFFFFFFFFFFFFFFFFFFFFFFFFFF AND PUSH20 0xFFFFFFFFFFFFFFFFFFFFFFFFFFFFFFFFFFFFFFFF AND PUSH20 0xFFFFFFFFFFFFFFFFFFFFFFFFFFFFFFFFFFFFFFFF AND DUP2 MSTORE PUSH1 0x20 ADD PUSH1 0x8 DUP3 ADD PUSH0 SWAP1 SLOAD SWAP1 PUSH2 0x100 EXP SWAP1 DIV PUSH20 0xFFFFFFFFFFFFFFFFFFFFFFFFFFFFFFFFFFFFFFFF AND PUSH20 0xFFFFFFFFFFFFFFFFFFFFFFFFFFFFFFFFFFFFFFFF AND PUSH20 0xFFFFFFFFFFFFFFFFFFFFFFFFFFFFFFFFFFFFFFFF AND DUP2 MSTORE PUSH1 0x20 ADD PUSH1 0x9 DUP3 ADD PUSH0 SWAP1 SLOAD SWAP1 PUSH2 0x100 EXP SWAP1 DIV PUSH20 0xFFFFFFFFFFFFFFFFFFFFFFFFFFFFFFFFFFFFFFFF AND PUSH20 0xFFFFFFFFFFFFFFFFFFFFFFFFFFFFFFFFFFFFFFFF AND PUSH20 0xFFFFFFFFFFFFFFFFFFFFFFFFFFFFFFFFFFFFFFFF AND DUP2 MSTORE PUSH1 0x20 ADD PUSH1 0xA DUP3 ADD PUSH0 SWAP1 SLOAD SWAP1 PUSH2 0x100 EXP SWAP1 DIV PUSH20 0xFFFFFFFFFFFFFFFFFFFFFFFFFFFFFFFFFFFFFFFF AND PUSH20 0xFFFFFFFFFFFFFFFFFFFFFFFFFFFFFFFFFFFFFFFF AND PUSH20 0xFFFFFFFFFFFFFFFFFFFFFFFFFFFFFFFFFFFFFFFF AND DUP2 MSTORE POP POP SWAP1 POP SWAP2 SWAP1 POP JUMP JUMPDEST PUSH0 DUP1 SLOAD SWAP1 PUSH2 0x100 EXP SWAP1 DIV PUSH4 0xFFFFFFFF AND DUP2 JUMP JUMPDEST PUSH0 DUP8 PUSH1 0x40 MLOAD PUSH3 0x8D5 SWAP1 PUSH3 0xD3E JUMP JUMPDEST PUSH3 0x8E1 SWAP2 SWAP1 PUSH3 0x14C5 JUMP JUMPDEST PUSH1 0x40 MLOAD DUP1 SWAP2 SUB SWAP1 PUSH0 CREATE DUP1 ISZERO DUP1 ISZERO PUSH3 0x8FB JUMPI RETURNDATASIZE PUSH0 DUP1 RETURNDATACOPY RETURNDATASIZE PUSH0 REVERT JUMPDEST POP SWAP1 POP PUSH0 DUP9 DUP6 PUSH1 0x40 MLOAD PUSH3 0x90F SWAP1 PUSH3 0xD4C JUMP JUMPDEST PUSH3 0x91C SWAP3 SWAP2 SWAP1 PUSH3 0x14E7 JUMP JUMPDEST PUSH1 0x40 MLOAD DUP1 SWAP2 SUB SWAP1 PUSH0 CREATE DUP1 ISZERO DUP1 ISZERO PUSH3 0x936 JUMPI RETURNDATASIZE PUSH0 DUP1 RETURNDATACOPY RETURNDATASIZE PUSH0 REVERT JUMPDEST POP SWAP1 POP PUSH0 DUP10 DUP6 DUP6 DUP6 PUSH1 0x40 MLOAD PUSH3 0x94C SWAP1 PUSH3 0xD5A JUMP JUMPDEST PUSH3 0x95B SWAP5 SWAP4 SWAP3 SWAP2 SWAP1 PUSH3 0x1519 JUMP JUMPDEST PUSH1 0x40 MLOAD DUP1 SWAP2 SUB SWAP1 PUSH0 CREATE DUP1 ISZERO DUP1 ISZERO PUSH3 0x975 JUMPI RETURNDATASIZE PUSH0 DUP1 RETURNDATACOPY RETURNDATASIZE PUSH0 REVERT JUMPDEST POP SWAP1 POP PUSH0 PUSH1 0x40 MLOAD DUP1 PUSH2 0x180 ADD PUSH1 0x40 MSTORE DUP1 PUSH0 DUP1 SLOAD SWAP1 PUSH2 0x100 EXP SWAP1 DIV PUSH4 0xFFFFFFFF AND PUSH4 0xFFFFFFFF AND DUP2 MSTORE PUSH1 0x20 ADD DUP13 DUP2 MSTORE PUSH1 0x20 ADD DUP12 DUP2 MSTORE PUSH1 0x20 ADD DUP11 DUP2 MSTORE PUSH1 0x20 ADD DUP10 DUP2 MSTORE PUSH1 0x20 ADD DUP9 PUSH4 0xFFFFFFFF AND DUP2 MSTORE PUSH1 0x20 ADD DUP8 PUSH4 0xFFFFFFFF AND DUP2 MSTORE PUSH1 0x20 ADD DUP7 DUP2 MSTORE PUSH1 0x20 ADD DUP6 PUSH20 0xFFFFFFFFFFFFFFFFFFFFFFFFFFFFFFFFFFFFFFFF AND DUP2 MSTORE PUSH1 0x20 ADD DUP5 PUSH20 0xFFFFFFFFFFFFFFFFFFFFFFFFFFFFFFFFFFFFFFFF AND DUP2 MSTORE PUSH1 0x20 ADD DUP4 PUSH20 0xFFFFFFFFFFFFFFFFFFFFFFFFFFFFFFFFFFFFFFFF AND DUP2 MSTORE PUSH1 0x20 ADD CALLER PUSH20 0xFFFFFFFFFFFFFFFFFFFFFFFFFFFFFFFFFFFFFFFF AND DUP2 MSTORE POP SWAP1 POP DUP1 PUSH1 0x1 PUSH0 DUP1 PUSH0 SWAP1 SLOAD SWAP1 PUSH2 0x100 EXP SWAP1 DIV PUSH4 0xFFFFFFFF AND PUSH4 0xFFFFFFFF AND PUSH4 0xFFFFFFFF AND DUP2 MSTORE PUSH1 0x20 ADD SWAP1 DUP2 MSTORE PUSH1 0x20 ADD PUSH0 KECCAK256 PUSH0 DUP3 ADD MLOAD DUP2 PUSH0 ADD PUSH0 PUSH2 0x100 EXP DUP2 SLOAD DUP2 PUSH4 0xFFFFFFFF MUL NOT AND SWAP1 DUP4 PUSH4 0xFFFFFFFF AND MUL OR SWAP1 SSTORE POP PUSH1 0x20 DUP3 ADD MLOAD DUP2 PUSH1 0x1 ADD SWAP1 DUP2 PUSH3 0xAAF SWAP2 SWAP1 PUSH3 0x172E JUMP JUMPDEST POP PUSH1 0x40 DUP3 ADD MLOAD DUP2 PUSH1 0x2 ADD SWAP1 DUP2 PUSH3 0xAC7 SWAP2 SWAP1 PUSH3 0x172E JUMP JUMPDEST POP PUSH1 0x60 DUP3 ADD MLOAD DUP2 PUSH1 0x3 ADD SWAP1 DUP2 PUSH3 0xADF SWAP2 SWAP1 PUSH3 0x172E JUMP JUMPDEST POP PUSH1 0x80 DUP3 ADD MLOAD DUP2 PUSH1 0x4 ADD SWAP1 DUP2 PUSH3 0xAF7 SWAP2 SWAP1 PUSH3 0x172E JUMP JUMPDEST POP PUSH1 0xA0 DUP3 ADD MLOAD DUP2 PUSH1 0x5 ADD PUSH0 PUSH2 0x100 EXP DUP2 SLOAD DUP2 PUSH4 0xFFFFFFFF MUL NOT AND SWAP1 DUP4 PUSH4 0xFFFFFFFF AND MUL OR SWAP1 SSTORE POP PUSH1 0xC0 DUP3 ADD MLOAD DUP2 PUSH1 0x5 ADD PUSH1 0x4 PUSH2 0x100 EXP DUP2 SLOAD DUP2 PUSH4 0xFFFFFFFF MUL NOT AND SWAP1 DUP4 PUSH4 0xFFFFFFFF AND MUL OR SWAP1 SSTORE POP PUSH1 0xE0 DUP3 ADD MLOAD DUP2 PUSH1 0x6 ADD SSTORE PUSH2 0x100 DUP3 ADD MLOAD DUP2 PUSH1 0x7 ADD PUSH0 PUSH2 0x100 EXP DUP2 SLOAD DUP2 PUSH20 0xFFFFFFFFFFFFFFFFFFFFFFFFFFFFFFFFFFFFFFFF MUL NOT AND SWAP1 DUP4 PUSH20 0xFFFFFFFFFFFFFFFFFFFFFFFFFFFFFFFFFFFFFFFF AND MUL OR SWAP1 SSTORE POP PUSH2 0x120 DUP3 ADD MLOAD DUP2 PUSH1 0x8 ADD PUSH0 PUSH2 0x100 EXP DUP2 SLOAD DUP2 PUSH20 0xFFFFFFFFFFFFFFFFFFFFFFFFFFFFFFFFFFFFFFFF MUL NOT AND SWAP1 DUP4 PUSH20 0xFFFFFFFFFFFFFFFFFFFFFFFFFFFFFFFFFFFFFFFF AND MUL OR SWAP1 SSTORE POP PUSH2 0x140 DUP3 ADD MLOAD DUP2 PUSH1 0x9 ADD PUSH0 PUSH2 0x100 EXP DUP2 SLOAD DUP2 PUSH20 0xFFFFFFFFFFFFFFFFFFFFFFFFFFFFFFFFFFFFFFFF MUL NOT AND SWAP1 DUP4 PUSH20 0xFFFFFFFFFFFFFFFFFFFFFFFFFFFFFFFFFFFFFFFF AND MUL OR SWAP1 SSTORE POP PUSH2 0x160 DUP3 ADD MLOAD DUP2 PUSH1 0xA ADD PUSH0 PUSH2 0x100 EXP DUP2 SLOAD DUP2 PUSH20 0xFFFFFFFFFFFFFFFFFFFFFFFFFFFFFFFFFFFFFFFF MUL NOT AND SWAP1 DUP4 PUSH20 0xFFFFFFFFFFFFFFFFFFFFFFFFFFFFFFFFFFFFFFFF AND MUL OR SWAP1 SSTORE POP SWAP1 POP POP POP POP POP POP POP POP POP POP POP POP POP JUMP JUMPDEST PUSH1 0x40 MLOAD DUP1 PUSH2 0x180 ADD PUSH1 0x40 MSTORE DUP1 PUSH0 PUSH4 0xFFFFFFFF AND DUP2 MSTORE PUSH1 0x20 ADD PUSH1 0x60 DUP2 MSTORE PUSH1 0x20 ADD PUSH1 0x60 DUP2 MSTORE PUSH1 0x20 ADD PUSH1 0x60 DUP2 MSTORE PUSH1 0x20 ADD PUSH1 0x60 DUP2 MSTORE PUSH1 0x20 ADD PUSH0 PUSH4 0xFFFFFFFF AND DUP2 MSTORE PUSH1 0x20 ADD PUSH0 PUSH4 0xFFFFFFFF AND DUP2 MSTORE PUSH1 0x20 ADD PUSH0 DUP2 MSTORE PUSH1 0x20 ADD PUSH0 PUSH20 0xFFFFFFFFFFFFFFFFFFFFFFFFFFFFFFFFFFFFFFFF AND DUP2 MSTORE PUSH1 0x20 ADD PUSH0 PUSH20 0xFFFFFFFFFFFFFFFFFFFFFFFFFFFFFFFFFFFFFFFF AND DUP2 MSTORE PUSH1 0x20 ADD PUSH0 PUSH20 0xFFFFFFFFFFFFFFFFFFFFFFFFFFFFFFFFFFFFFFFF AND DUP2 MSTORE PUSH1 0x20 ADD PUSH0 PUSH20 0xFFFFFFFFFFFFFFFFFFFFFFFFFFFFFFFFFFFFFFFF AND DUP2 MSTORE POP SWAP1 JUMP JUMPDEST PUSH2 0x2F45 DUP1 PUSH3 0x1813 DUP4 CODECOPY ADD SWAP1 JUMP JUMPDEST PUSH2 0x28C3 DUP1 PUSH3 0x4758 DUP4 CODECOPY ADD SWAP1 JUMP JUMPDEST PUSH2 0x2E5B DUP1 PUSH3 0x701B DUP4 CODECOPY ADD SWAP1 JUMP JUMPDEST PUSH0 PUSH1 0x40 MLOAD SWAP1 POP SWAP1 JUMP JUMPDEST PUSH0 DUP1 REVERT JUMPDEST PUSH0 DUP1 REVERT JUMPDEST PUSH0 PUSH4 0xFFFFFFFF DUP3 AND SWAP1 POP SWAP2 SWAP1 POP JUMP JUMPDEST PUSH3 0xD93 DUP2 PUSH3 0xD79 JUMP JUMPDEST DUP2 EQ PUSH3 0xD9E JUMPI PUSH0 DUP1 REVERT JUMPDEST POP JUMP JUMPDEST PUSH0 DUP2 CALLDATALOAD SWAP1 POP PUSH3 0xDB1 DUP2 PUSH3 0xD88 JUMP JUMPDEST SWAP3 SWAP2 POP POP JUMP JUMPDEST PUSH0 PUSH1 0x20 DUP3 DUP5 SUB SLT ISZERO PUSH3 0xDCF JUMPI PUSH3 0xDCE PUSH3 0xD71 JUMP JUMPDEST JUMPDEST PUSH0 PUSH3 0xDDE DUP5 DUP3 DUP6 ADD PUSH3 0xDA1 JUMP JUMPDEST SWAP2 POP POP SWAP3 SWAP2 POP POP JUMP JUMPDEST PUSH3 0xDF2 DUP2 PUSH3 0xD79 JUMP JUMPDEST DUP3 MSTORE POP POP JUMP JUMPDEST PUSH0 DUP2 MLOAD SWAP1 POP SWAP2 SWAP1 POP JUMP JUMPDEST PUSH0 DUP3 DUP3 MSTORE PUSH1 0x20 DUP3 ADD SWAP1 POP SWAP3 SWAP2 POP POP JUMP JUMPDEST PUSH0 JUMPDEST DUP4 DUP2 LT ISZERO PUSH3 0xE31 JUMPI DUP1 DUP3 ADD MLOAD DUP2 DUP5 ADD MSTORE PUSH1 0x20 DUP2 ADD SWAP1 POP PUSH3 0xE14 JUMP JUMPDEST PUSH0 DUP5 DUP5 ADD MSTORE POP POP POP POP JUMP JUMPDEST PUSH0 PUSH1 0x1F NOT PUSH1 0x1F DUP4 ADD AND SWAP1 POP SWAP2 SWAP1 POP JUMP JUMPDEST PUSH0 PUSH3 0xE58 DUP3 PUSH3 0xDF8 JUMP JUMPDEST PUSH3 0xE64 DUP2 DUP6 PUSH3 0xE02 JUMP JUMPDEST SWAP4 POP PUSH3 0xE76 DUP2 DUP6 PUSH1 0x20 DUP7 ADD PUSH3 0xE12 JUMP JUMPDEST PUSH3 0xE81 DUP2 PUSH3 0xE3C JUMP JUMPDEST DUP5 ADD SWAP2 POP POP SWAP3 SWAP2 POP POP JUMP JUMPDEST PUSH0 DUP2 SWAP1 POP SWAP2 SWAP1 POP JUMP JUMPDEST PUSH3 0xEA0 DUP2 PUSH3 0xE8C JUMP JUMPDEST DUP3 MSTORE POP POP JUMP JUMPDEST PUSH0 PUSH20 0xFFFFFFFFFFFFFFFFFFFFFFFFFFFFFFFFFFFFFFFF DUP3 AND SWAP1 POP SWAP2 SWAP1 POP JUMP JUMPDEST PUSH0 PUSH3 0xED1 DUP3 PUSH3 0xEA6 JUMP JUMPDEST SWAP1 POP SWAP2 SWAP1 POP JUMP JUMPDEST PUSH3 0xEE3 DUP2 PUSH3 0xEC5 JUMP JUMPDEST DUP3 MSTORE POP POP JUMP JUMPDEST PUSH0 PUSH2 0x180 DUP3 ADD SWAP1 POP PUSH3 0xEFF PUSH0 DUP4 ADD DUP16 PUSH3 0xDE7 JUMP JUMPDEST DUP2 DUP2 SUB PUSH1 0x20 DUP4 ADD MSTORE PUSH3 0xF13 DUP2 DUP15 PUSH3 0xE4C JUMP JUMPDEST SWAP1 POP DUP2 DUP2 SUB PUSH1 0x40 DUP4 ADD MSTORE PUSH3 0xF29 DUP2 DUP14 PUSH3 0xE4C JUMP JUMPDEST SWAP1 POP DUP2 DUP2 SUB PUSH1 0x60 DUP4 ADD MSTORE PUSH3 0xF3F DUP2 DUP13 PUSH3 0xE4C JUMP JUMPDEST SWAP1 POP DUP2 DUP2 SUB PUSH1 0x80 DUP4 ADD MSTORE PUSH3 0xF55 DUP2 DUP12 PUSH3 0xE4C JUMP JUMPDEST SWAP1 POP PUSH3 0xF66 PUSH1 0xA0 DUP4 ADD DUP11 PUSH3 0xDE7 JUMP JUMPDEST PUSH3 0xF75 PUSH1 0xC0 DUP4 ADD DUP10 PUSH3 0xDE7 JUMP JUMPDEST PUSH3 0xF84 PUSH1 0xE0 DUP4 ADD DUP9 PUSH3 0xE95 JUMP JUMPDEST PUSH3 0xF94 PUSH2 0x100 DUP4 ADD DUP8 PUSH3 0xED8 JUMP JUMPDEST PUSH3 0xFA4 PUSH2 0x120 DUP4 ADD DUP7 PUSH3 0xED8 JUMP JUMPDEST PUSH3 0xFB4 PUSH2 0x140 DUP4 ADD DUP6 PUSH3 0xED8 JUMP JUMPDEST PUSH3 0xFC4 PUSH2 0x160 DUP4 ADD DUP5 PUSH3 0xED8 JUMP JUMPDEST SWAP14 SWAP13 POP POP POP POP POP POP POP POP POP POP POP POP POP JUMP JUMPDEST PUSH3 0xFE0 DUP2 PUSH3 0xD79 JUMP JUMPDEST DUP3 MSTORE POP POP JUMP JUMPDEST PUSH0 DUP3 DUP3 MSTORE PUSH1 0x20 DUP3 ADD SWAP1 POP SWAP3 SWAP2 POP POP JUMP JUMPDEST PUSH0 PUSH3 0x1002 DUP3 PUSH3 0xDF8 JUMP JUMPDEST PUSH3 0x100E DUP2 DUP6 PUSH3 0xFE6 JUMP JUMPDEST SWAP4 POP PUSH3 0x1020 DUP2 DUP6 PUSH1 0x20 DUP7 ADD PUSH3 0xE12 JUMP JUMPDEST PUSH3 0x102B DUP2 PUSH3 0xE3C JUMP JUMPDEST DUP5 ADD SWAP2 POP POP SWAP3 SWAP2 POP POP JUMP JUMPDEST PUSH3 0x1041 DUP2 PUSH3 0xE8C JUMP JUMPDEST DUP3 MSTORE POP POP JUMP JUMPDEST PUSH3 0x1052 DUP2 PUSH3 0xEC5 JUMP JUMPDEST DUP3 MSTORE POP POP JUMP JUMPDEST PUSH0 PUSH2 0x180 DUP4 ADD PUSH0 DUP4 ADD MLOAD PUSH3 0x1070 PUSH0 DUP7 ADD DUP3 PUSH3 0xFD5 JUMP JUMPDEST POP PUSH1 0x20 DUP4 ADD MLOAD DUP5 DUP3 SUB PUSH1 0x20 DUP7 ADD MSTORE PUSH3 0x108A DUP3 DUP3 PUSH3 0xFF6 JUMP JUMPDEST SWAP2 POP POP PUSH1 0x40 DUP4 ADD MLOAD DUP5 DUP3 SUB PUSH1 0x40 DUP7 ADD MSTORE PUSH3 0x10A6 DUP3 DUP3 PUSH3 0xFF6 JUMP JUMPDEST SWAP2 POP POP PUSH1 0x60 DUP4 ADD MLOAD DUP5 DUP3 SUB PUSH1 0x60 DUP7 ADD MSTORE PUSH3 0x10C2 DUP3 DUP3 PUSH3 0xFF6 JUMP JUMPDEST SWAP2 POP POP PUSH1 0x80 DUP4 ADD MLOAD DUP5 DUP3 SUB PUSH1 0x80 DUP7 ADD MSTORE PUSH3 0x10DE DUP3 DUP3 PUSH3 0xFF6 JUMP JUMPDEST SWAP2 POP POP PUSH1 0xA0 DUP4 ADD MLOAD PUSH3 0x10F5 PUSH1 0xA0 DUP7 ADD DUP3 PUSH3 0xFD5 JUMP JUMPDEST POP PUSH1 0xC0 DUP4 ADD MLOAD PUSH3 0x110A PUSH1 0xC0 DUP7 ADD DUP3 PUSH3 0xFD5 JUMP JUMPDEST POP PUSH1 0xE0 DUP4 ADD MLOAD PUSH3 0x111F PUSH1 0xE0 DUP7 ADD DUP3 PUSH3 0x1036 JUMP JUMPDEST POP PUSH2 0x100 DUP4 ADD MLOAD PUSH3 0x1136 PUSH2 0x100 DUP7 ADD DUP3 PUSH3 0x1047 JUMP JUMPDEST POP PUSH2 0x120 DUP4 ADD MLOAD PUSH3 0x114D PUSH2 0x120 DUP7 ADD DUP3 PUSH3 0x1047 JUMP JUMPDEST POP PUSH2 0x140 DUP4 ADD MLOAD PUSH3 0x1164 PUSH2 0x140 DUP7 ADD DUP3 PUSH3 0x1047 JUMP JUMPDEST POP PUSH2 0x160 DUP4 ADD MLOAD PUSH3 0x117B PUSH2 0x160 DUP7 ADD DUP3 PUSH3 0x1047 JUMP JUMPDEST POP DUP1 SWAP2 POP POP SWAP3 SWAP2 POP POP JUMP JUMPDEST PUSH0 PUSH1 0x20 DUP3 ADD SWAP1 POP DUP2 DUP2 SUB PUSH0 DUP4 ADD MSTORE PUSH3 0x11A0 DUP2 DUP5 PUSH3 0x1058 JUMP JUMPDEST SWAP1 POP SWAP3 SWAP2 POP POP JUMP JUMPDEST PUSH0 PUSH1 0x20 DUP3 ADD SWAP1 POP PUSH3 0x11BD PUSH0 DUP4 ADD DUP5 PUSH3 0xDE7 JUMP JUMPDEST SWAP3 SWAP2 POP POP JUMP JUMPDEST PUSH0 DUP1 REVERT JUMPDEST PUSH0 DUP1 REVERT JUMPDEST PUSH32 0x4E487B7100000000000000000000000000000000000000000000000000000000 PUSH0 MSTORE PUSH1 0x41 PUSH1 0x4 MSTORE PUSH1 0x24 PUSH0 REVERT JUMPDEST PUSH3 0x1203 DUP3 PUSH3 0xE3C JUMP JUMPDEST DUP2 ADD DUP2 DUP2 LT PUSH8 0xFFFFFFFFFFFFFFFF DUP3 GT OR ISZERO PUSH3 0x1225 JUMPI PUSH3 0x1224 PUSH3 0x11CB JUMP JUMPDEST JUMPDEST DUP1 PUSH1 0x40 MSTORE POP POP POP JUMP JUMPDEST PUSH0 PUSH3 0x1239 PUSH3 0xD68 JUMP JUMPDEST SWAP1 POP PUSH3 0x1247 DUP3 DUP3 PUSH3 0x11F8 JUMP JUMPDEST SWAP2 SWAP1 POP JUMP JUMPDEST PUSH0 PUSH8 0xFFFFFFFFFFFFFFFF DUP3 GT ISZERO PUSH3 0x1269 JUMPI PUSH3 0x1268 PUSH3 0x11CB JUMP JUMPDEST JUMPDEST PUSH3 0x1274 DUP3 PUSH3 0xE3C JUMP JUMPDEST SWAP1 POP PUSH1 0x20 DUP2 ADD SWAP1 POP SWAP2 SWAP1 POP JUMP JUMPDEST DUP3 DUP2 DUP4 CALLDATACOPY PUSH0 DUP4 DUP4 ADD MSTORE POP POP POP JUMP JUMPDEST PUSH0 PUSH3 0x12A5 PUSH3 0x129F DUP5 PUSH3 0x124C JUMP JUMPDEST PUSH3 0x122E JUMP JUMPDEST SWAP1 POP DUP3 DUP2 MSTORE PUSH1 0x20 DUP2 ADD DUP5 DUP5 DUP5 ADD GT ISZERO PUSH3 0x12C4 JUMPI PUSH3 0x12C3 PUSH3 0x11C7 JUMP JUMPDEST JUMPDEST PUSH3 0x12D1 DUP5 DUP3 DUP6 PUSH3 0x1281 JUMP JUMPDEST POP SWAP4 SWAP3 POP POP POP JUMP JUMPDEST PUSH0 DUP3 PUSH1 0x1F DUP4 ADD SLT PUSH3 0x12F0 JUMPI PUSH3 0x12EF PUSH3 0x11C3 JUMP JUMPDEST JUMPDEST DUP2 CALLDATALOAD PUSH3 0x1302 DUP5 DUP3 PUSH1 0x20 DUP7 ADD PUSH3 0x128F JUMP JUMPDEST SWAP2 POP POP SWAP3 SWAP2 POP POP JUMP JUMPDEST PUSH3 0x1316 DUP2 PUSH3 0xE8C JUMP JUMPDEST DUP2 EQ PUSH3 0x1321 JUMPI PUSH0 DUP1 REVERT JUMPDEST POP JUMP JUMPDEST PUSH0 DUP2 CALLDATALOAD SWAP1 POP PUSH3 0x1334 DUP2 PUSH3 0x130B JUMP JUMPDEST SWAP3 SWAP2 POP POP JUMP JUMPDEST PUSH0 DUP1 PUSH0 DUP1 PUSH0 DUP1 PUSH0 PUSH1 0xE0 DUP9 DUP11 SUB SLT ISZERO PUSH3 0x1358 JUMPI PUSH3 0x1357 PUSH3 0xD71 JUMP JUMPDEST JUMPDEST PUSH0 DUP9 ADD CALLDATALOAD PUSH8 0xFFFFFFFFFFFFFFFF DUP2 GT ISZERO PUSH3 0x1378 JUMPI PUSH3 0x1377 PUSH3 0xD75 JUMP JUMPDEST JUMPDEST PUSH3 0x1386 DUP11 DUP3 DUP12 ADD PUSH3 0x12D9 JUMP JUMPDEST SWAP8 POP POP PUSH1 0x20 DUP9 ADD CALLDATALOAD PUSH8 0xFFFFFFFFFFFFFFFF DUP2 GT ISZERO PUSH3 0x13AA JUMPI PUSH3 0x13A9 PUSH3 0xD75 JUMP JUMPDEST JUMPDEST PUSH3 0x13B8 DUP11 DUP3 DUP12 ADD PUSH3 0x12D9 JUMP JUMPDEST SWAP7 POP POP PUSH1 0x40 DUP9 ADD CALLDATALOAD PUSH8 0xFFFFFFFFFFFFFFFF DUP2 GT ISZERO PUSH3 0x13DC JUMPI PUSH3 0x13DB PUSH3 0xD75 JUMP JUMPDEST JUMPDEST PUSH3 0x13EA DUP11 DUP3 DUP12 ADD PUSH3 0x12D9 JUMP JUMPDEST SWAP6 POP POP PUSH1 0x60 DUP9 ADD CALLDATALOAD PUSH8 0xFFFFFFFFFFFFFFFF DUP2 GT ISZERO PUSH3 0x140E JUMPI PUSH3 0x140D PUSH3 0xD75 JUMP JUMPDEST JUMPDEST PUSH3 0x141C DUP11 DUP3 DUP12 ADD PUSH3 0x12D9 JUMP JUMPDEST SWAP5 POP POP PUSH1 0x80 PUSH3 0x142F DUP11 DUP3 DUP12 ADD PUSH3 0xDA1 JUMP JUMPDEST SWAP4 POP POP PUSH1 0xA0 PUSH3 0x1442 DUP11 DUP3 DUP12 ADD PUSH3 0xDA1 JUMP JUMPDEST SWAP3 POP POP PUSH1 0xC0 PUSH3 0x1455 DUP11 DUP3 DUP12 ADD PUSH3 0x1324 JUMP JUMPDEST SWAP2 POP POP SWAP3 SWAP6 SWAP9 SWAP2 SWAP5 SWAP8 POP SWAP3 SWAP6 POP JUMP JUMPDEST PUSH32 0x4E487B7100000000000000000000000000000000000000000000000000000000 PUSH0 MSTORE PUSH1 0x22 PUSH1 0x4 MSTORE PUSH1 0x24 PUSH0 REVERT JUMPDEST PUSH0 PUSH1 0x2 DUP3 DIV SWAP1 POP PUSH1 0x1 DUP3 AND DUP1 PUSH3 0x14A9 JUMPI PUSH1 0x7F DUP3 AND SWAP2 POP JUMPDEST PUSH1 0x20 DUP3 LT DUP2 SUB PUSH3 0x14BF JUMPI PUSH3 0x14BE PUSH3 0x1464 JUMP JUMPDEST JUMPDEST POP SWAP2 SWAP1 POP JUMP JUMPDEST PUSH0 PUSH1 0x20 DUP3 ADD SWAP1 POP DUP2 DUP2 SUB PUSH0 DUP4 ADD MSTORE PUSH3 0x14DF DUP2 DUP5 PUSH3 0xE4C JUMP JUMPDEST SWAP1 POP SWAP3 SWAP2 POP POP JUMP JUMPDEST PUSH0 PUSH1 0x40 DUP3 ADD SWAP1 POP DUP2 DUP2 SUB PUSH0 DUP4 ADD MSTORE PUSH3 0x1501 DUP2 DUP6 PUSH3 0xE4C JUMP JUMPDEST SWAP1 POP PUSH3 0x1512 PUSH1 0x20 DUP4 ADD DUP5 PUSH3 0xDE7 JUMP JUMPDEST SWAP4 SWAP3 POP POP POP JUMP JUMPDEST PUSH0 PUSH1 0x80 DUP3 ADD SWAP1 POP DUP2 DUP2 SUB PUSH0 DUP4 ADD MSTORE PUSH3 0x1533 DUP2 DUP8 PUSH3 0xE4C JUMP JUMPDEST SWAP1 POP PUSH3 0x1544 PUSH1 0x20 DUP4 ADD DUP7 PUSH3 0xDE7 JUMP JUMPDEST PUSH3 0x1553 PUSH1 0x40 DUP4 ADD DUP6 PUSH3 0xE95 JUMP JUMPDEST PUSH3 0x1562 PUSH1 0x60 DUP4 ADD DUP5 PUSH3 0xED8 JUMP JUMPDEST SWAP6 SWAP5 POP POP POP POP POP JUMP JUMPDEST PUSH0 DUP2 SWAP1 POP DUP2 PUSH0 MSTORE PUSH1 0x20 PUSH0 KECCAK256 SWAP1 POP SWAP2 SWAP1 POP JUMP JUMPDEST PUSH0 PUSH1 0x20 PUSH1 0x1F DUP4 ADD DIV SWAP1 POP SWAP2 SWAP1 POP JUMP JUMPDEST PUSH0 DUP3 DUP3 SHL SWAP1 POP SWAP3 SWAP2 POP POP JUMP JUMPDEST PUSH0 PUSH1 0x8 DUP4 MUL PUSH3 0x15C9 PUSH32 0xFFFFFFFFFFFFFFFFFFFFFFFFFFFFFFFFFFFFFFFFFFFFFFFFFFFFFFFFFFFFFFFF DUP3 PUSH3 0x158C JUMP JUMPDEST PUSH3 0x15D5 DUP7 DUP4 PUSH3 0x158C JUMP JUMPDEST SWAP6 POP DUP1 NOT DUP5 AND SWAP4 POP DUP1 DUP7 AND DUP5 OR SWAP3 POP POP POP SWAP4 SWAP3 POP POP POP JUMP JUMPDEST PUSH0 DUP2 SWAP1 POP SWAP2 SWAP1 POP JUMP JUMPDEST PUSH0 PUSH3 0x1616 PUSH3 0x1610 PUSH3 0x160A DUP5 PUSH3 0xE8C JUMP JUMPDEST PUSH3 0x15ED JUMP JUMPDEST PUSH3 0xE8C JUMP JUMPDEST SWAP1 POP SWAP2 SWAP1 POP JUMP JUMPDEST PUSH0 DUP2 SWAP1 POP SWAP2 SWAP1 POP JUMP JUMPDEST PUSH3 0x1631 DUP4 PUSH3 0x15F6 JUMP JUMPDEST PUSH3 0x1649 PUSH3 0x1640 DUP3 PUSH3 0x161D JUMP JUMPDEST DUP5 DUP5 SLOAD PUSH3 0x1598 JUMP JUMPDEST DUP3 SSTORE POP POP POP POP JUMP JUMPDEST PUSH0 SWAP1 JUMP JUMPDEST PUSH3 0x165F PUSH3 0x1651 JUMP JUMPDEST PUSH3 0x166C DUP2 DUP5 DUP5 PUSH3 0x1626 JUMP JUMPDEST POP POP POP JUMP JUMPDEST JUMPDEST DUP2 DUP2 LT ISZERO PUSH3 0x1693 JUMPI PUSH3 0x1687 PUSH0 DUP3 PUSH3 0x1655 JUMP JUMPDEST PUSH1 0x1 DUP2 ADD SWAP1 POP PUSH3 0x1672 JUMP JUMPDEST POP POP JUMP JUMPDEST PUSH1 0x1F DUP3 GT ISZERO PUSH3 0x16E2 JUMPI PUSH3 0x16AC DUP2 PUSH3 0x156B JUMP JUMPDEST PUSH3 0x16B7 DUP5 PUSH3 0x157D JUMP JUMPDEST DUP2 ADD PUSH1 0x20 DUP6 LT ISZERO PUSH3 0x16C7 JUMPI DUP2 SWAP1 POP JUMPDEST PUSH3 0x16DF PUSH3 0x16D6 DUP6 PUSH3 0x157D JUMP JUMPDEST DUP4 ADD DUP3 PUSH3 0x1671 JUMP JUMPDEST POP POP JUMPDEST POP POP POP JUMP JUMPDEST PUSH0 DUP3 DUP3 SHR SWAP1 POP SWAP3 SWAP2 POP POP JUMP JUMPDEST PUSH0 PUSH3 0x1704 PUSH0 NOT DUP5 PUSH1 0x8 MUL PUSH3 0x16E7 JUMP JUMPDEST NOT DUP1 DUP4 AND SWAP2 POP POP SWAP3 SWAP2 POP POP JUMP JUMPDEST PUSH0 PUSH3 0x171E DUP4 DUP4 PUSH3 0x16F3 JUMP JUMPDEST SWAP2 POP DUP3 PUSH1 0x2 MUL DUP3 OR SWAP1 POP SWAP3 SWAP2 POP POP JUMP JUMPDEST PUSH3 0x1739 DUP3 PUSH3 0xDF8 JUMP JUMPDEST PUSH8 0xFFFFFFFFFFFFFFFF DUP2 GT ISZERO PUSH3 0x1755 JUMPI PUSH3 0x1754 PUSH3 0x11CB JUMP JUMPDEST JUMPDEST PUSH3 0x1761 DUP3 SLOAD PUSH3 0x1491 JUMP JUMPDEST PUSH3 0x176E DUP3 DUP3 DUP6 PUSH3 0x1697 JUMP JUMPDEST PUSH0 PUSH1 0x20 SWAP1 POP PUSH1 0x1F DUP4 GT PUSH1 0x1 DUP2 EQ PUSH3 0x17A4 JUMPI PUSH0 DUP5 ISZERO PUSH3 0x178F JUMPI DUP3 DUP8 ADD MLOAD SWAP1 POP JUMPDEST PUSH3 0x179B DUP6 DUP3 PUSH3 0x1711 JUMP JUMPDEST DUP7 SSTORE POP PUSH3 0x180A JUMP JUMPDEST PUSH1 0x1F NOT DUP5 AND PUSH3 0x17B4 DUP7 PUSH3 0x156B JUMP JUMPDEST PUSH0 JUMPDEST DUP3 DUP2 LT ISZERO PUSH3 0x17DD JUMPI DUP5 DUP10 ADD MLOAD DUP3 SSTORE PUSH1 0x1 DUP3 ADD SWAP2 POP PUSH1 0x20 DUP6 ADD SWAP5 POP PUSH1 0x20 DUP2 ADD SWAP1 POP PUSH3 0x17B6 JUMP JUMPDEST DUP7 DUP4 LT ISZERO PUSH3 0x17FD JUMPI DUP5 DUP10 ADD MLOAD PUSH3 0x17F9 PUSH1 0x1F DUP10 AND DUP3 PUSH3 0x16F3 JUMP JUMPDEST DUP4 SSTORE POP JUMPDEST PUSH1 0x1 PUSH1 0x2 DUP9 MUL ADD DUP9 SSTORE POP POP POP JUMPDEST POP POP POP POP POP POP JUMP INVALID PUSH1 0x80 PUSH1 0x40 MSTORE CALLVALUE DUP1 ISZERO PUSH3 0x10 JUMPI PUSH0 DUP1 REVERT JUMPDEST POP PUSH1 0x40 MLOAD PUSH3 0x2F45 CODESIZE SUB DUP1 PUSH3 0x2F45 DUP4 CODECOPY DUP2 DUP2 ADD PUSH1 0x40 MSTORE DUP2 ADD SWAP1 PUSH3 0x36 SWAP2 SWAP1 PUSH3 0xAC7 JUMP JUMPDEST DUP1 PUSH1 0x40 MLOAD DUP1 PUSH1 0x40 ADD PUSH1 0x40 MSTORE DUP1 PUSH1 0x9 DUP2 MSTORE PUSH1 0x20 ADD PUSH32 0x4F574E45525F4E46540000000000000000000000000000000000000000000000 DUP2 MSTORE POP DUP2 PUSH0 SWAP1 DUP2 PUSH3 0x7D SWAP2 SWAP1 PUSH3 0xD4D JUMP JUMPDEST POP DUP1 PUSH1 0x1 SWAP1 DUP2 PUSH3 0x8F SWAP2 SWAP1 PUSH3 0xD4D JUMP JUMPDEST POP POP POP CALLER PUSH1 0x6 PUSH0 PUSH2 0x100 EXP DUP2 SLOAD DUP2 PUSH20 0xFFFFFFFFFFFFFFFFFFFFFFFFFFFFFFFFFFFFFFFF MUL NOT AND SWAP1 DUP4 PUSH20 0xFFFFFFFFFFFFFFFFFFFFFFFFFFFFFFFFFFFFFFFF AND MUL OR SWAP1 SSTORE POP PUSH3 0x108 PUSH1 0x6 PUSH0 SWAP1 SLOAD SWAP1 PUSH2 0x100 EXP SWAP1 DIV PUSH20 0xFFFFFFFFFFFFFFFFFFFFFFFFFFFFFFFFFFFFFFFF AND PUSH0 PUSH1 0xFF AND PUSH3 0x10F PUSH1 0x20 SHL PUSH1 0x20 SHR JUMP JUMPDEST POP PUSH3 0xEE6 JUMP JUMPDEST PUSH0 PUSH20 0xFFFFFFFFFFFFFFFFFFFFFFFFFFFFFFFFFFFFFFFF AND DUP3 PUSH20 0xFFFFFFFFFFFFFFFFFFFFFFFFFFFFFFFFFFFFFFFF AND SUB PUSH3 0x182 JUMPI PUSH0 PUSH1 0x40 MLOAD PUSH32 0x64A0AE9200000000000000000000000000000000000000000000000000000000 DUP2 MSTORE PUSH1 0x4 ADD PUSH3 0x179 SWAP2 SWAP1 PUSH3 0xE74 JUMP JUMPDEST PUSH1 0x40 MLOAD DUP1 SWAP2 SUB SWAP1 REVERT JUMPDEST PUSH0 PUSH3 0x196 DUP4 DUP4 PUSH0 PUSH3 0x210 PUSH1 0x20 SHL PUSH1 0x20 SHR JUMP JUMPDEST SWAP1 POP PUSH0 PUSH20 0xFFFFFFFFFFFFFFFFFFFFFFFFFFFFFFFFFFFFFFFF AND DUP2 PUSH20 0xFFFFFFFFFFFFFFFFFFFFFFFFFFFFFFFFFFFFFFFF AND EQ PUSH3 0x20B JUMPI PUSH0 PUSH1 0x40 MLOAD PUSH32 0x73C6AC6E00000000000000000000000000000000000000000000000000000000 DUP2 MSTORE PUSH1 0x4 ADD PUSH3 0x202 SWAP2 SWAP1 PUSH3 0xE74 JUMP JUMPDEST PUSH1 0x40 MLOAD DUP1 SWAP2 SUB SWAP1 REVERT JUMPDEST POP POP POP JUMP JUMPDEST PUSH0 DUP1 PUSH3 0x223 DUP5 PUSH3 0x436 PUSH1 0x20 SHL PUSH1 0x20 SHR JUMP JUMPDEST SWAP1 POP PUSH0 PUSH20 0xFFFFFFFFFFFFFFFFFFFFFFFFFFFFFFFFFFFFFFFF AND DUP4 PUSH20 0xFFFFFFFFFFFFFFFFFFFFFFFFFFFFFFFFFFFFFFFF AND EQ PUSH3 0x26D JUMPI PUSH3 0x26C DUP2 DUP5 DUP7 PUSH3 0x46F PUSH1 0x20 SHL PUSH1 0x20 SHR JUMP JUMPDEST JUMPDEST PUSH0 PUSH20 0xFFFFFFFFFFFFFFFFFFFFFFFFFFFFFFFFFFFFFFFF AND DUP2 PUSH20 0xFFFFFFFFFFFFFFFFFFFFFFFFFFFFFFFFFFFFFFFF AND EQ PUSH3 0x301 JUMPI PUSH3 0x2B5 PUSH0 DUP6 PUSH0 DUP1 PUSH3 0x540 PUSH1 0x20 SHL PUSH1 0x20 SHR JUMP JUMPDEST PUSH1 0x1 PUSH1 0x3 PUSH0 DUP4 PUSH20 0xFFFFFFFFFFFFFFFFFFFFFFFFFFFFFFFFFFFFFFFF AND PUSH20 0xFFFFFFFFFFFFFFFFFFFFFFFFFFFFFFFFFFFFFFFF AND DUP2 MSTORE PUSH1 0x20 ADD SWAP1 DUP2 MSTORE PUSH1 0x20 ADD PUSH0 KECCAK256 PUSH0 DUP3 DUP3 SLOAD SUB SWAP3 POP POP DUP2 SWAP1 SSTORE POP JUMPDEST PUSH0 PUSH20 0xFFFFFFFFFFFFFFFFFFFFFFFFFFFFFFFFFFFFFFFF AND DUP6 PUSH20 0xFFFFFFFFFFFFFFFFFFFFFFFFFFFFFFFFFFFFFFFF AND EQ PUSH3 0x381 JUMPI PUSH1 0x1 PUSH1 0x3 PUSH0 DUP8 PUSH20 0xFFFFFFFFFFFFFFFFFFFFFFFFFFFFFFFFFFFFFFFF AND PUSH20 0xFFFFFFFFFFFFFFFFFFFFFFFFFFFFFFFFFFFFFFFF AND DUP2 MSTORE PUSH1 0x20 ADD SWAP1 DUP2 MSTORE PUSH1 0x20 ADD PUSH0 KECCAK256 PUSH0 DUP3 DUP3 SLOAD ADD SWAP3 POP POP DUP2 SWAP1 SSTORE POP JUMPDEST DUP5 PUSH1 0x2 PUSH0 DUP7 DUP2 MSTORE PUSH1 0x20 ADD SWAP1 DUP2 MSTORE PUSH1 0x20 ADD PUSH0 KECCAK256 PUSH0 PUSH2 0x100 EXP DUP2 SLOAD DUP2 PUSH20 0xFFFFFFFFFFFFFFFFFFFFFFFFFFFFFFFFFFFFFFFF MUL NOT AND SWAP1 DUP4 PUSH20 0xFFFFFFFFFFFFFFFFFFFFFFFFFFFFFFFFFFFFFFFF AND MUL OR SWAP1 SSTORE POP DUP4 DUP6 PUSH20 0xFFFFFFFFFFFFFFFFFFFFFFFFFFFFFFFFFFFFFFFF AND DUP3 PUSH20 0xFFFFFFFFFFFFFFFFFFFFFFFFFFFFFFFFFFFFFFFF AND PUSH32 0xDDF252AD1BE2C89B69C2B068FC378DAA952BA7F163C4A11628F55A4DF523B3EF PUSH1 0x40 MLOAD PUSH1 0x40 MLOAD DUP1 SWAP2 SUB SWAP1 LOG4 DUP1 SWAP2 POP POP SWAP4 SWAP3 POP POP POP JUMP JUMPDEST PUSH0 PUSH1 0x2 PUSH0 DUP4 DUP2 MSTORE PUSH1 0x20 ADD SWAP1 DUP2 MSTORE PUSH1 0x20 ADD PUSH0 KECCAK256 PUSH0 SWAP1 SLOAD SWAP1 PUSH2 0x100 EXP SWAP1 DIV PUSH20 0xFFFFFFFFFFFFFFFFFFFFFFFFFFFFFFFFFFFFFFFF AND SWAP1 POP SWAP2 SWAP1 POP JUMP JUMPDEST PUSH3 0x482 DUP4 DUP4 DUP4 PUSH3 0x717 PUSH1 0x20 SHL PUSH1 0x20 SHR JUMP JUMPDEST PUSH3 0x53B JUMPI PUSH0 PUSH20 0xFFFFFFFFFFFFFFFFFFFFFFFFFFFFFFFFFFFFFFFF AND DUP4 PUSH20 0xFFFFFFFFFFFFFFFFFFFFFFFFFFFFFFFFFFFFFFFF AND SUB PUSH3 0x4FA JUMPI DUP1 PUSH1 0x40 MLOAD PUSH32 0x7E27328900000000000000000000000000000000000000000000000000000000 DUP2 MSTORE PUSH1 0x4 ADD PUSH3 0x4F1 SWAP2 SWAP1 PUSH3 0xEA0 JUMP JUMPDEST PUSH1 0x40 MLOAD DUP1 SWAP2 SUB SWAP1 REVERT JUMPDEST DUP2 DUP2 PUSH1 0x40 MLOAD PUSH32 0x177E802F00000000000000000000000000000000000000000000000000000000 DUP2 MSTORE PUSH1 0x4 ADD PUSH3 0x532 SWAP3 SWAP2 SWAP1 PUSH3 0xEBB JUMP JUMPDEST PUSH1 0x40 MLOAD DUP1 SWAP2 SUB SWAP1 REVERT JUMPDEST POP POP POP JUMP JUMPDEST DUP1 DUP1 PUSH3 0x579 JUMPI POP PUSH0 PUSH20 0xFFFFFFFFFFFFFFFFFFFFFFFFFFFFFFFFFFFFFFFF AND DUP3 PUSH20 0xFFFFFFFFFFFFFFFFFFFFFFFFFFFFFFFFFFFFFFFF AND EQ ISZERO JUMPDEST ISZERO PUSH3 0x6C2 JUMPI PUSH0 PUSH3 0x591 DUP5 PUSH3 0x7EA PUSH1 0x20 SHL PUSH1 0x20 SHR JUMP JUMPDEST SWAP1 POP PUSH0 PUSH20 0xFFFFFFFFFFFFFFFFFFFFFFFFFFFFFFFFFFFFFFFF AND DUP4 PUSH20 0xFFFFFFFFFFFFFFFFFFFFFFFFFFFFFFFFFFFFFFFF AND EQ ISZERO DUP1 ISZERO PUSH3 0x5FC JUMPI POP DUP3 PUSH20 0xFFFFFFFFFFFFFFFFFFFFFFFFFFFFFFFFFFFFFFFF AND DUP2 PUSH20 0xFFFFFFFFFFFFFFFFFFFFFFFFFFFFFFFFFFFFFFFF AND EQ ISZERO JUMPDEST DUP1 ISZERO PUSH3 0x618 JUMPI POP PUSH3 0x616 DUP2 DUP5 PUSH3 0x87B PUSH1 0x20 SHL PUSH1 0x20 SHR JUMP JUMPDEST ISZERO JUMPDEST ISZERO PUSH3 0x65D JUMPI DUP3 PUSH1 0x40 MLOAD PUSH32 0xA9FBF51F00000000000000000000000000000000000000000000000000000000 DUP2 MSTORE PUSH1 0x4 ADD PUSH3 0x654 SWAP2 SWAP1 PUSH3 0xE74 JUMP JUMPDEST PUSH1 0x40 MLOAD DUP1 SWAP2 SUB SWAP1 REVERT JUMPDEST DUP2 ISZERO PUSH3 0x6C0 JUMPI DUP4 DUP6 PUSH20 0xFFFFFFFFFFFFFFFFFFFFFFFFFFFFFFFFFFFFFFFF AND DUP3 PUSH20 0xFFFFFFFFFFFFFFFFFFFFFFFFFFFFFFFFFFFFFFFF AND PUSH32 0x8C5BE1E5EBEC7D5BD14F71427D1E84F3DD0314C0F7B2291E5B200AC8C7C3B925 PUSH1 0x40 MLOAD PUSH1 0x40 MLOAD DUP1 SWAP2 SUB SWAP1 LOG4 JUMPDEST POP JUMPDEST DUP4 PUSH1 0x4 PUSH0 DUP6 DUP2 MSTORE PUSH1 0x20 ADD SWAP1 DUP2 MSTORE PUSH1 0x20 ADD PUSH0 KECCAK256 PUSH0 PUSH2 0x100 EXP DUP2 SLOAD DUP2 PUSH20 0xFFFFFFFFFFFFFFFFFFFFFFFFFFFFFFFFFFFFFFFF MUL NOT AND SWAP1 DUP4 PUSH20 0xFFFFFFFFFFFFFFFFFFFFFFFFFFFFFFFFFFFFFFFF AND MUL OR SWAP1 SSTORE POP POP POP POP POP JUMP JUMPDEST PUSH0 DUP1 PUSH20 0xFFFFFFFFFFFFFFFFFFFFFFFFFFFFFFFFFFFFFFFF AND DUP4 PUSH20 0xFFFFFFFFFFFFFFFFFFFFFFFFFFFFFFFFFFFFFFFF AND EQ ISZERO DUP1 ISZERO PUSH3 0x7E1 JUMPI POP DUP3 PUSH20 0xFFFFFFFFFFFFFFFFFFFFFFFFFFFFFFFFFFFFFFFF AND DUP5 PUSH20 0xFFFFFFFFFFFFFFFFFFFFFFFFFFFFFFFFFFFFFFFF AND EQ DUP1 PUSH3 0x799 JUMPI POP PUSH3 0x798 DUP5 DUP5 PUSH3 0x87B PUSH1 0x20 SHL PUSH1 0x20 SHR JUMP JUMPDEST JUMPDEST DUP1 PUSH3 0x7E0 JUMPI POP DUP3 PUSH20 0xFFFFFFFFFFFFFFFFFFFFFFFFFFFFFFFFFFFFFFFF AND PUSH3 0x7C8 DUP4 PUSH3 0x909 PUSH1 0x20 SHL PUSH1 0x20 SHR JUMP JUMPDEST PUSH20 0xFFFFFFFFFFFFFFFFFFFFFFFFFFFFFFFFFFFFFFFF AND EQ JUMPDEST JUMPDEST SWAP1 POP SWAP4 SWAP3 POP POP POP JUMP JUMPDEST PUSH0 DUP1 PUSH3 0x7FD DUP4 PUSH3 0x436 PUSH1 0x20 SHL PUSH1 0x20 SHR JUMP JUMPDEST SWAP1 POP PUSH0 PUSH20 0xFFFFFFFFFFFFFFFFFFFFFFFFFFFFFFFFFFFFFFFF AND DUP2 PUSH20 0xFFFFFFFFFFFFFFFFFFFFFFFFFFFFFFFFFFFFFFFF AND SUB PUSH3 0x872 JUMPI DUP3 PUSH1 0x40 MLOAD PUSH32 0x7E27328900000000000000000000000000000000000000000000000000000000 DUP2 MSTORE PUSH1 0x4 ADD PUSH3 0x869 SWAP2 SWAP1 PUSH3 0xEA0 JUMP JUMPDEST PUSH1 0x40 MLOAD DUP1 SWAP2 SUB SWAP1 REVERT JUMPDEST DUP1 SWAP2 POP POP SWAP2 SWAP1 POP JUMP JUMPDEST PUSH0 PUSH1 0x5 PUSH0 DUP5 PUSH20 0xFFFFFFFFFFFFFFFFFFFFFFFFFFFFFFFFFFFFFFFF AND PUSH20 0xFFFFFFFFFFFFFFFFFFFFFFFFFFFFFFFFFFFFFFFF AND DUP2 MSTORE PUSH1 0x20 ADD SWAP1 DUP2 MSTORE PUSH1 0x20 ADD PUSH0 KECCAK256 PUSH0 DUP4 PUSH20 0xFFFFFFFFFFFFFFFFFFFFFFFFFFFFFFFFFFFFFFFF AND PUSH20 0xFFFFFFFFFFFFFFFFFFFFFFFFFFFFFFFFFFFFFFFF AND DUP2 MSTORE PUSH1 0x20 ADD SWAP1 DUP2 MSTORE PUSH1 0x20 ADD PUSH0 KECCAK256 PUSH0 SWAP1 SLOAD SWAP1 PUSH2 0x100 EXP SWAP1 DIV PUSH1 0xFF AND SWAP1 POP SWAP3 SWAP2 POP POP JUMP JUMPDEST PUSH0 PUSH1 0x4 PUSH0 DUP4 DUP2 MSTORE PUSH1 0x20 ADD SWAP1 DUP2 MSTORE PUSH1 0x20 ADD PUSH0 KECCAK256 PUSH0 SWAP1 SLOAD SWAP1 PUSH2 0x100 EXP SWAP1 DIV PUSH20 0xFFFFFFFFFFFFFFFFFFFFFFFFFFFFFFFFFFFFFFFF AND SWAP1 POP SWAP2 SWAP1 POP JUMP JUMPDEST PUSH0 PUSH1 0x40 MLOAD SWAP1 POP SWAP1 JUMP JUMPDEST PUSH0 DUP1 REVERT JUMPDEST PUSH0 DUP1 REVERT JUMPDEST PUSH0 DUP1 REVERT JUMPDEST PUSH0 DUP1 REVERT JUMPDEST PUSH0 PUSH1 0x1F NOT PUSH1 0x1F DUP4 ADD AND SWAP1 POP SWAP2 SWAP1 POP JUMP JUMPDEST PUSH32 0x4E487B7100000000000000000000000000000000000000000000000000000000 PUSH0 MSTORE PUSH1 0x41 PUSH1 0x4 MSTORE PUSH1 0x24 PUSH0 REVERT JUMPDEST PUSH3 0x9A3 DUP3 PUSH3 0x95B JUMP JUMPDEST DUP2 ADD DUP2 DUP2 LT PUSH8 0xFFFFFFFFFFFFFFFF DUP3 GT OR ISZERO PUSH3 0x9C5 JUMPI PUSH3 0x9C4 PUSH3 0x96B JUMP JUMPDEST JUMPDEST DUP1 PUSH1 0x40 MSTORE POP POP POP JUMP JUMPDEST PUSH0 PUSH3 0x9D9 PUSH3 0x942 JUMP JUMPDEST SWAP1 POP PUSH3 0x9E7 DUP3 DUP3 PUSH3 0x998 JUMP JUMPDEST SWAP2 SWAP1 POP JUMP JUMPDEST PUSH0 PUSH8 0xFFFFFFFFFFFFFFFF DUP3 GT ISZERO PUSH3 0xA09 JUMPI PUSH3 0xA08 PUSH3 0x96B JUMP JUMPDEST JUMPDEST PUSH3 0xA14 DUP3 PUSH3 0x95B JUMP JUMPDEST SWAP1 POP PUSH1 0x20 DUP2 ADD SWAP1 POP SWAP2 SWAP1 POP JUMP JUMPDEST PUSH0 JUMPDEST DUP4 DUP2 LT ISZERO PUSH3 0xA40 JUMPI DUP1 DUP3 ADD MLOAD DUP2 DUP5 ADD MSTORE PUSH1 0x20 DUP2 ADD SWAP1 POP PUSH3 0xA23 JUMP JUMPDEST PUSH0 DUP5 DUP5 ADD MSTORE POP POP POP POP JUMP JUMPDEST PUSH0 PUSH3 0xA61 PUSH3 0xA5B DUP5 PUSH3 0x9EC JUMP JUMPDEST PUSH3 0x9CE JUMP JUMPDEST SWAP1 POP DUP3 DUP2 MSTORE PUSH1 0x20 DUP2 ADD DUP5 DUP5 DUP5 ADD GT ISZERO PUSH3 0xA80 JUMPI PUSH3 0xA7F PUSH3 0x957 JUMP JUMPDEST JUMPDEST PUSH3 0xA8D DUP5 DUP3 DUP6 PUSH3 0xA21 JUMP JUMPDEST POP SWAP4 SWAP3 POP POP POP JUMP JUMPDEST PUSH0 DUP3 PUSH1 0x1F DUP4 ADD SLT PUSH3 0xAAC JUMPI PUSH3 0xAAB PUSH3 0x953 JUMP JUMPDEST JUMPDEST DUP2 MLOAD PUSH3 0xABE DUP5 DUP3 PUSH1 0x20 DUP7 ADD PUSH3 0xA4B JUMP JUMPDEST SWAP2 POP POP SWAP3 SWAP2 POP POP JUMP JUMPDEST PUSH0 PUSH1 0x20 DUP3 DUP5 SUB SLT ISZERO PUSH3 0xADF JUMPI PUSH3 0xADE PUSH3 0x94B JUMP JUMPDEST JUMPDEST PUSH0 DUP3 ADD MLOAD PUSH8 0xFFFFFFFFFFFFFFFF DUP2 GT ISZERO PUSH3 0xAFF JUMPI PUSH3 0xAFE PUSH3 0x94F JUMP JUMPDEST JUMPDEST PUSH3 0xB0D DUP5 DUP3 DUP6 ADD PUSH3 0xA95 JUMP JUMPDEST SWAP2 POP POP SWAP3 SWAP2 POP POP JUMP JUMPDEST PUSH0 DUP2 MLOAD SWAP1 POP SWAP2 SWAP1 POP JUMP JUMPDEST PUSH32 0x4E487B7100000000000000000000000000000000000000000000000000000000 PUSH0 MSTORE PUSH1 0x22 PUSH1 0x4 MSTORE PUSH1 0x24 PUSH0 REVERT JUMPDEST PUSH0 PUSH1 0x2 DUP3 DIV SWAP1 POP PUSH1 0x1 DUP3 AND DUP1 PUSH3 0xB65 JUMPI PUSH1 0x7F DUP3 AND SWAP2 POP JUMPDEST PUSH1 0x20 DUP3 LT DUP2 SUB PUSH3 0xB7B JUMPI PUSH3 0xB7A PUSH3 0xB20 JUMP JUMPDEST JUMPDEST POP SWAP2 SWAP1 POP JUMP JUMPDEST PUSH0 DUP2 SWAP1 POP DUP2 PUSH0 MSTORE PUSH1 0x20 PUSH0 KECCAK256 SWAP1 POP SWAP2 SWAP1 POP JUMP JUMPDEST PUSH0 PUSH1 0x20 PUSH1 0x1F DUP4 ADD DIV SWAP1 POP SWAP2 SWAP1 POP JUMP JUMPDEST PUSH0 DUP3 DUP3 SHL SWAP1 POP SWAP3 SWAP2 POP POP JUMP JUMPDEST PUSH0 PUSH1 0x8 DUP4 MUL PUSH3 0xBDF PUSH32 0xFFFFFFFFFFFFFFFFFFFFFFFFFFFFFFFFFFFFFFFFFFFFFFFFFFFFFFFFFFFFFFFF DUP3 PUSH3 0xBA2 JUMP JUMPDEST PUSH3 0xBEB DUP7 DUP4 PUSH3 0xBA2 JUMP JUMPDEST SWAP6 POP DUP1 NOT DUP5 AND SWAP4 POP DUP1 DUP7 AND DUP5 OR SWAP3 POP POP POP SWAP4 SWAP3 POP POP POP JUMP JUMPDEST PUSH0 DUP2 SWAP1 POP SWAP2 SWAP1 POP JUMP JUMPDEST PUSH0 DUP2 SWAP1 POP SWAP2 SWAP1 POP JUMP JUMPDEST PUSH0 PUSH3 0xC35 PUSH3 0xC2F PUSH3 0xC29 DUP5 PUSH3 0xC03 JUMP JUMPDEST PUSH3 0xC0C JUMP JUMPDEST PUSH3 0xC03 JUMP JUMPDEST SWAP1 POP SWAP2 SWAP1 POP JUMP JUMPDEST PUSH0 DUP2 SWAP1 POP SWAP2 SWAP1 POP JUMP JUMPDEST PUSH3 0xC50 DUP4 PUSH3 0xC15 JUMP JUMPDEST PUSH3 0xC68 PUSH3 0xC5F DUP3 PUSH3 0xC3C JUMP JUMPDEST DUP5 DUP5 SLOAD PUSH3 0xBAE JUMP JUMPDEST DUP3 SSTORE POP POP POP POP JUMP JUMPDEST PUSH0 SWAP1 JUMP JUMPDEST PUSH3 0xC7E PUSH3 0xC70 JUMP JUMPDEST PUSH3 0xC8B DUP2 DUP5 DUP5 PUSH3 0xC45 JUMP JUMPDEST POP POP POP JUMP JUMPDEST JUMPDEST DUP2 DUP2 LT ISZERO PUSH3 0xCB2 JUMPI PUSH3 0xCA6 PUSH0 DUP3 PUSH3 0xC74 JUMP JUMPDEST PUSH1 0x1 DUP2 ADD SWAP1 POP PUSH3 0xC91 JUMP JUMPDEST POP POP JUMP JUMPDEST PUSH1 0x1F DUP3 GT ISZERO PUSH3 0xD01 JUMPI PUSH3 0xCCB DUP2 PUSH3 0xB81 JUMP JUMPDEST PUSH3 0xCD6 DUP5 PUSH3 0xB93 JUMP JUMPDEST DUP2 ADD PUSH1 0x20 DUP6 LT ISZERO PUSH3 0xCE6 JUMPI DUP2 SWAP1 POP JUMPDEST PUSH3 0xCFE PUSH3 0xCF5 DUP6 PUSH3 0xB93 JUMP JUMPDEST DUP4 ADD DUP3 PUSH3 0xC90 JUMP JUMPDEST POP POP JUMPDEST POP POP POP JUMP JUMPDEST PUSH0 DUP3 DUP3 SHR SWAP1 POP SWAP3 SWAP2 POP POP JUMP JUMPDEST PUSH0 PUSH3 0xD23 PUSH0 NOT DUP5 PUSH1 0x8 MUL PUSH3 0xD06 JUMP JUMPDEST NOT DUP1 DUP4 AND SWAP2 POP POP SWAP3 SWAP2 POP POP JUMP JUMPDEST PUSH0 PUSH3 0xD3D DUP4 DUP4 PUSH3 0xD12 JUMP JUMPDEST SWAP2 POP DUP3 PUSH1 0x2 MUL DUP3 OR SWAP1 POP SWAP3 SWAP2 POP POP JUMP JUMPDEST PUSH3 0xD58 DUP3 PUSH3 0xB16 JUMP JUMPDEST PUSH8 0xFFFFFFFFFFFFFFFF DUP2 GT ISZERO PUSH3 0xD74 JUMPI PUSH3 0xD73 PUSH3 0x96B JUMP JUMPDEST JUMPDEST PUSH3 0xD80 DUP3 SLOAD PUSH3 0xB4D JUMP JUMPDEST PUSH3 0xD8D DUP3 DUP3 DUP6 PUSH3 0xCB6 JUMP JUMPDEST PUSH0 PUSH1 0x20 SWAP1 POP PUSH1 0x1F DUP4 GT PUSH1 0x1 DUP2 EQ PUSH3 0xDC3 JUMPI PUSH0 DUP5 ISZERO PUSH3 0xDAE JUMPI DUP3 DUP8 ADD MLOAD SWAP1 POP JUMPDEST PUSH3 0xDBA DUP6 DUP3 PUSH3 0xD30 JUMP JUMPDEST DUP7 SSTORE POP PUSH3 0xE29 JUMP JUMPDEST PUSH1 0x1F NOT DUP5 AND PUSH3 0xDD3 DUP7 PUSH3 0xB81 JUMP JUMPDEST PUSH0 JUMPDEST DUP3 DUP2 LT ISZERO PUSH3 0xDFC JUMPI DUP5 DUP10 ADD MLOAD DUP3 SSTORE PUSH1 0x1 DUP3 ADD SWAP2 POP PUSH1 0x20 DUP6 ADD SWAP5 POP PUSH1 0x20 DUP2 ADD SWAP1 POP PUSH3 0xDD5 JUMP JUMPDEST DUP7 DUP4 LT ISZERO PUSH3 0xE1C JUMPI DUP5 DUP10 ADD MLOAD PUSH3 0xE18 PUSH1 0x1F DUP10 AND DUP3 PUSH3 0xD12 JUMP JUMPDEST DUP4 SSTORE POP JUMPDEST PUSH1 0x1 PUSH1 0x2 DUP9 MUL ADD DUP9 SSTORE POP POP POP JUMPDEST POP POP POP POP POP POP JUMP JUMPDEST PUSH0 PUSH20 0xFFFFFFFFFFFFFFFFFFFFFFFFFFFFFFFFFFFFFFFF DUP3 AND SWAP1 POP SWAP2 SWAP1 POP JUMP JUMPDEST PUSH0 PUSH3 0xE5C DUP3 PUSH3 0xE31 JUMP JUMPDEST SWAP1 POP SWAP2 SWAP1 POP JUMP JUMPDEST PUSH3 0xE6E DUP2 PUSH3 0xE50 JUMP JUMPDEST DUP3 MSTORE POP POP JUMP JUMPDEST PUSH0 PUSH1 0x20 DUP3 ADD SWAP1 POP PUSH3 0xE89 PUSH0 DUP4 ADD DUP5 PUSH3 0xE63 JUMP JUMPDEST SWAP3 SWAP2 POP POP JUMP JUMPDEST PUSH3 0xE9A DUP2 PUSH3 0xC03 JUMP JUMPDEST DUP3 MSTORE POP POP JUMP JUMPDEST PUSH0 PUSH1 0x20 DUP3 ADD SWAP1 POP PUSH3 0xEB5 PUSH0 DUP4 ADD DUP5 PUSH3 0xE8F JUMP JUMPDEST SWAP3 SWAP2 POP POP JUMP JUMPDEST PUSH0 PUSH1 0x40 DUP3 ADD SWAP1 POP PUSH3 0xED0 PUSH0 DUP4 ADD DUP6 PUSH3 0xE63 JUMP JUMPDEST PUSH3 0xEDF PUSH1 0x20 DUP4 ADD DUP5 PUSH3 0xE8F JUMP JUMPDEST SWAP4 SWAP3 POP POP POP JUMP JUMPDEST PUSH2 0x2051 DUP1 PUSH3 0xEF4 PUSH0 CODECOPY PUSH0 RETURN INVALID PUSH1 0x80 PUSH1 0x40 MSTORE CALLVALUE DUP1 ISZERO PUSH2 0xF JUMPI PUSH0 DUP1 REVERT JUMPDEST POP PUSH1 0x4 CALLDATASIZE LT PUSH2 0x109 JUMPI PUSH0 CALLDATALOAD PUSH1 0xE0 SHR DUP1 PUSH4 0x893D20E8 GT PUSH2 0xA0 JUMPI DUP1 PUSH4 0xA5C42EF1 GT PUSH2 0x6F JUMPI DUP1 PUSH4 0xA5C42EF1 EQ PUSH2 0x2B5 JUMPI DUP1 PUSH4 0xB88D4FDE EQ PUSH2 0x2D3 JUMPI DUP1 PUSH4 0xC87B56DD EQ PUSH2 0x2EF JUMPI DUP1 PUSH4 0xE985E9C5 EQ PUSH2 0x31F JUMPI DUP1 PUSH4 0xF2FDE38B EQ PUSH2 0x34F JUMPI PUSH2 0x109 JUMP JUMPDEST DUP1 PUSH4 0x893D20E8 EQ PUSH2 0x23F JUMPI DUP1 PUSH4 0x8DA5CB5B EQ PUSH2 0x25D JUMPI DUP1 PUSH4 0x95D89B41 EQ PUSH2 0x27B JUMPI DUP1 PUSH4 0xA22CB465 EQ PUSH2 0x299 JUMPI PUSH2 0x109 JUMP JUMPDEST DUP1 PUSH4 0x23B872DD GT PUSH2 0xDC JUMPI DUP1 PUSH4 0x23B872DD EQ PUSH2 0x1A7 JUMPI DUP1 PUSH4 0x42842E0E EQ PUSH2 0x1C3 JUMPI DUP1 PUSH4 0x6352211E EQ PUSH2 0x1DF JUMPI DUP1 PUSH4 0x70A08231 EQ PUSH2 0x20F JUMPI PUSH2 0x109 JUMP JUMPDEST DUP1 PUSH4 0x1FFC9A7 EQ PUSH2 0x10D JUMPI DUP1 PUSH4 0x6FDDE03 EQ PUSH2 0x13D JUMPI DUP1 PUSH4 0x81812FC EQ PUSH2 0x15B JUMPI DUP1 PUSH4 0x95EA7B3 EQ PUSH2 0x18B JUMPI JUMPDEST PUSH0 DUP1 REVERT JUMPDEST PUSH2 0x127 PUSH1 0x4 DUP1 CALLDATASIZE SUB DUP2 ADD SWAP1 PUSH2 0x122 SWAP2 SWAP1 PUSH2 0x1820 JUMP JUMPDEST PUSH2 0x36B JUMP JUMPDEST PUSH1 0x40 MLOAD PUSH2 0x134 SWAP2 SWAP1 PUSH2 0x1865 JUMP JUMPDEST PUSH1 0x40 MLOAD DUP1 SWAP2 SUB SWAP1 RETURN JUMPDEST PUSH2 0x145 PUSH2 0x44C JUMP JUMPDEST PUSH1 0x40 MLOAD PUSH2 0x152 SWAP2 SWAP1 PUSH2 0x1908 JUMP JUMPDEST PUSH1 0x40 MLOAD DUP1 SWAP2 SUB SWAP1 RETURN JUMPDEST PUSH2 0x175 PUSH1 0x4 DUP1 CALLDATASIZE SUB DUP2 ADD SWAP1 PUSH2 0x170 SWAP2 SWAP1 PUSH2 0x195B JUMP JUMPDEST PUSH2 0x4DB JUMP JUMPDEST PUSH1 0x40 MLOAD PUSH2 0x182 SWAP2 SWAP1 PUSH2 0x19C5 JUMP JUMPDEST PUSH1 0x40 MLOAD DUP1 SWAP2 SUB SWAP1 RETURN JUMPDEST PUSH2 0x1A5 PUSH1 0x4 DUP1 CALLDATASIZE SUB DUP2 ADD SWAP1 PUSH2 0x1A0 SWAP2 SWAP1 PUSH2 0x1A08 JUMP JUMPDEST PUSH2 0x4F6 JUMP JUMPDEST STOP JUMPDEST PUSH2 0x1C1 PUSH1 0x4 DUP1 CALLDATASIZE SUB DUP2 ADD SWAP1 PUSH2 0x1BC SWAP2 SWAP1 PUSH2 0x1A46 JUMP JUMPDEST PUSH2 0x50C JUMP JUMPDEST STOP JUMPDEST PUSH2 0x1DD PUSH1 0x4 DUP1 CALLDATASIZE SUB DUP2 ADD SWAP1 PUSH2 0x1D8 SWAP2 SWAP1 PUSH2 0x1A46 JUMP JUMPDEST PUSH2 0x60B JUMP JUMPDEST STOP JUMPDEST PUSH2 0x1F9 PUSH1 0x4 DUP1 CALLDATASIZE SUB DUP2 ADD SWAP1 PUSH2 0x1F4 SWAP2 SWAP1 PUSH2 0x195B JUMP JUMPDEST PUSH2 0x62A JUMP JUMPDEST PUSH1 0x40 MLOAD PUSH2 0x206 SWAP2 SWAP1 PUSH2 0x19C5 JUMP JUMPDEST PUSH1 0x40 MLOAD DUP1 SWAP2 SUB SWAP1 RETURN JUMPDEST PUSH2 0x229 PUSH1 0x4 DUP1 CALLDATASIZE SUB DUP2 ADD SWAP1 PUSH2 0x224 SWAP2 SWAP1 PUSH2 0x1A96 JUMP JUMPDEST PUSH2 0x63B JUMP JUMPDEST PUSH1 0x40 MLOAD PUSH2 0x236 SWAP2 SWAP1 PUSH2 0x1AD0 JUMP JUMPDEST PUSH1 0x40 MLOAD DUP1 SWAP2 SUB SWAP1 RETURN JUMPDEST PUSH2 0x247 PUSH2 0x6F1 JUMP JUMPDEST PUSH1 0x40 MLOAD PUSH2 0x254 SWAP2 SWAP1 PUSH2 0x19C5 JUMP JUMPDEST PUSH1 0x40 MLOAD DUP1 SWAP2 SUB SWAP1 RETURN JUMPDEST PUSH2 0x265 PUSH2 0x719 JUMP JUMPDEST PUSH1 0x40 MLOAD PUSH2 0x272 SWAP2 SWAP1 PUSH2 0x19C5 JUMP JUMPDEST PUSH1 0x40 MLOAD DUP1 SWAP2 SUB SWAP1 RETURN JUMPDEST PUSH2 0x283 PUSH2 0x73E JUMP JUMPDEST PUSH1 0x40 MLOAD PUSH2 0x290 SWAP2 SWAP1 PUSH2 0x1908 JUMP JUMPDEST PUSH1 0x40 MLOAD DUP1 SWAP2 SUB SWAP1 RETURN JUMPDEST PUSH2 0x2B3 PUSH1 0x4 DUP1 CALLDATASIZE SUB DUP2 ADD SWAP1 PUSH2 0x2AE SWAP2 SWAP1 PUSH2 0x1B13 JUMP JUMPDEST PUSH2 0x7CE JUMP JUMPDEST STOP JUMPDEST PUSH2 0x2BD PUSH2 0x7E4 JUMP JUMPDEST PUSH1 0x40 MLOAD PUSH2 0x2CA SWAP2 SWAP1 PUSH2 0x1B6C JUMP JUMPDEST PUSH1 0x40 MLOAD DUP1 SWAP2 SUB SWAP1 RETURN JUMPDEST PUSH2 0x2ED PUSH1 0x4 DUP1 CALLDATASIZE SUB DUP2 ADD SWAP1 PUSH2 0x2E8 SWAP2 SWAP1 PUSH2 0x1CB1 JUMP JUMPDEST PUSH2 0x7E8 JUMP JUMPDEST STOP JUMPDEST PUSH2 0x309 PUSH1 0x4 DUP1 CALLDATASIZE SUB DUP2 ADD SWAP1 PUSH2 0x304 SWAP2 SWAP1 PUSH2 0x195B JUMP JUMPDEST PUSH2 0x80D JUMP JUMPDEST PUSH1 0x40 MLOAD PUSH2 0x316 SWAP2 SWAP1 PUSH2 0x1908 JUMP JUMPDEST PUSH1 0x40 MLOAD DUP1 SWAP2 SUB SWAP1 RETURN JUMPDEST PUSH2 0x339 PUSH1 0x4 DUP1 CALLDATASIZE SUB DUP2 ADD SWAP1 PUSH2 0x334 SWAP2 SWAP1 PUSH2 0x1D31 JUMP JUMPDEST PUSH2 0x873 JUMP JUMPDEST PUSH1 0x40 MLOAD PUSH2 0x346 SWAP2 SWAP1 PUSH2 0x1865 JUMP JUMPDEST PUSH1 0x40 MLOAD DUP1 SWAP2 SUB SWAP1 RETURN JUMPDEST PUSH2 0x369 PUSH1 0x4 DUP1 CALLDATASIZE SUB DUP2 ADD SWAP1 PUSH2 0x364 SWAP2 SWAP1 PUSH2 0x1A96 JUMP JUMPDEST PUSH2 0x901 JUMP JUMPDEST STOP JUMPDEST PUSH0 PUSH32 0x80AC58CD00000000000000000000000000000000000000000000000000000000 PUSH28 0xFFFFFFFFFFFFFFFFFFFFFFFFFFFFFFFFFFFFFFFFFFFFFFFFFFFFFFFF NOT AND DUP3 PUSH28 0xFFFFFFFFFFFFFFFFFFFFFFFFFFFFFFFFFFFFFFFFFFFFFFFFFFFFFFFF NOT AND EQ DUP1 PUSH2 0x435 JUMPI POP PUSH32 0x5B5E139F00000000000000000000000000000000000000000000000000000000 PUSH28 0xFFFFFFFFFFFFFFFFFFFFFFFFFFFFFFFFFFFFFFFFFFFFFFFFFFFFFFFF NOT AND DUP3 PUSH28 0xFFFFFFFFFFFFFFFFFFFFFFFFFFFFFFFFFFFFFFFFFFFFFFFFFFFFFFFF NOT AND EQ JUMPDEST DUP1 PUSH2 0x445 JUMPI POP PUSH2 0x444 DUP3 PUSH2 0xA45 JUMP JUMPDEST JUMPDEST SWAP1 POP SWAP2 SWAP1 POP JUMP JUMPDEST PUSH1 0x60 PUSH0 DUP1 SLOAD PUSH2 0x45A SWAP1 PUSH2 0x1D9C JUMP JUMPDEST DUP1 PUSH1 0x1F ADD PUSH1 0x20 DUP1 SWAP2 DIV MUL PUSH1 0x20 ADD PUSH1 0x40 MLOAD SWAP1 DUP2 ADD PUSH1 0x40 MSTORE DUP1 SWAP3 SWAP2 SWAP1 DUP2 DUP2 MSTORE PUSH1 0x20 ADD DUP3 DUP1 SLOAD PUSH2 0x486 SWAP1 PUSH2 0x1D9C JUMP JUMPDEST DUP1 ISZERO PUSH2 0x4D1 JUMPI DUP1 PUSH1 0x1F LT PUSH2 0x4A8 JUMPI PUSH2 0x100 DUP1 DUP4 SLOAD DIV MUL DUP4 MSTORE SWAP2 PUSH1 0x20 ADD SWAP2 PUSH2 0x4D1 JUMP JUMPDEST DUP3 ADD SWAP2 SWAP1 PUSH0 MSTORE PUSH1 0x20 PUSH0 KECCAK256 SWAP1 JUMPDEST DUP2 SLOAD DUP2 MSTORE SWAP1 PUSH1 0x1 ADD SWAP1 PUSH1 0x20 ADD DUP1 DUP4 GT PUSH2 0x4B4 JUMPI DUP3 SWAP1 SUB PUSH1 0x1F AND DUP3 ADD SWAP2 JUMPDEST POP POP POP POP POP SWAP1 POP SWAP1 JUMP JUMPDEST PUSH0 PUSH2 0x4E5 DUP3 PUSH2 0xAAE JUMP JUMPDEST POP PUSH2 0x4EF DUP3 PUSH2 0xB34 JUMP JUMPDEST SWAP1 POP SWAP2 SWAP1 POP JUMP JUMPDEST PUSH2 0x508 DUP3 DUP3 PUSH2 0x503 PUSH2 0xB6D JUMP JUMPDEST PUSH2 0xB74 JUMP JUMPDEST POP POP JUMP JUMPDEST PUSH0 PUSH20 0xFFFFFFFFFFFFFFFFFFFFFFFFFFFFFFFFFFFFFFFF AND DUP3 PUSH20 0xFFFFFFFFFFFFFFFFFFFFFFFFFFFFFFFFFFFFFFFF AND SUB PUSH2 0x57C JUMPI PUSH0 PUSH1 0x40 MLOAD PUSH32 0x64A0AE9200000000000000000000000000000000000000000000000000000000 DUP2 MSTORE PUSH1 0x4 ADD PUSH2 0x573 SWAP2 SWAP1 PUSH2 0x19C5 JUMP JUMPDEST PUSH1 0x40 MLOAD DUP1 SWAP2 SUB SWAP1 REVERT JUMPDEST PUSH0 PUSH2 0x58F DUP4 DUP4 PUSH2 0x58A PUSH2 0xB6D JUMP JUMPDEST PUSH2 0xB86 JUMP JUMPDEST SWAP1 POP DUP4 PUSH20 0xFFFFFFFFFFFFFFFFFFFFFFFFFFFFFFFFFFFFFFFF AND DUP2 PUSH20 0xFFFFFFFFFFFFFFFFFFFFFFFFFFFFFFFFFFFFFFFF AND EQ PUSH2 0x605 JUMPI DUP4 DUP3 DUP3 PUSH1 0x40 MLOAD PUSH32 0x64283D7B00000000000000000000000000000000000000000000000000000000 DUP2 MSTORE PUSH1 0x4 ADD PUSH2 0x5FC SWAP4 SWAP3 SWAP2 SWAP1 PUSH2 0x1DCC JUMP JUMPDEST PUSH1 0x40 MLOAD DUP1 SWAP2 SUB SWAP1 REVERT JUMPDEST POP POP POP POP JUMP JUMPDEST PUSH2 0x625 DUP4 DUP4 DUP4 PUSH1 0x40 MLOAD DUP1 PUSH1 0x20 ADD PUSH1 0x40 MSTORE DUP1 PUSH0 DUP2 MSTORE POP PUSH2 0x7E8 JUMP JUMPDEST POP POP POP JUMP JUMPDEST PUSH0 PUSH2 0x634 DUP3 PUSH2 0xAAE JUMP JUMPDEST SWAP1 POP SWAP2 SWAP1 POP JUMP JUMPDEST PUSH0 DUP1 PUSH20 0xFFFFFFFFFFFFFFFFFFFFFFFFFFFFFFFFFFFFFFFF AND DUP3 PUSH20 0xFFFFFFFFFFFFFFFFFFFFFFFFFFFFFFFFFFFFFFFF AND SUB PUSH2 0x6AC JUMPI PUSH0 PUSH1 0x40 MLOAD PUSH32 0x89C62B6400000000000000000000000000000000000000000000000000000000 DUP2 MSTORE PUSH1 0x4 ADD PUSH2 0x6A3 SWAP2 SWAP1 PUSH2 0x19C5 JUMP JUMPDEST PUSH1 0x40 MLOAD DUP1 SWAP2 SUB SWAP1 REVERT JUMPDEST PUSH1 0x3 PUSH0 DUP4 PUSH20 0xFFFFFFFFFFFFFFFFFFFFFFFFFFFFFFFFFFFFFFFF AND PUSH20 0xFFFFFFFFFFFFFFFFFFFFFFFFFFFFFFFFFFFFFFFF AND DUP2 MSTORE PUSH1 0x20 ADD SWAP1 DUP2 MSTORE PUSH1 0x20 ADD PUSH0 KECCAK256 SLOAD SWAP1 POP SWAP2 SWAP1 POP JUMP JUMPDEST PUSH0 PUSH1 0x6 PUSH0 SWAP1 SLOAD SWAP1 PUSH2 0x100 EXP SWAP1 DIV PUSH20 0xFFFFFFFFFFFFFFFFFFFFFFFFFFFFFFFFFFFFFFFF AND SWAP1 POP SWAP1 JUMP JUMPDEST PUSH1 0x6 PUSH0 SWAP1 SLOAD SWAP1 PUSH2 0x100 EXP SWAP1 DIV PUSH20 0xFFFFFFFFFFFFFFFFFFFFFFFFFFFFFFFFFFFFFFFF AND DUP2 JUMP JUMPDEST PUSH1 0x60 PUSH1 0x1 DUP1 SLOAD PUSH2 0x74D SWAP1 PUSH2 0x1D9C JUMP JUMPDEST DUP1 PUSH1 0x1F ADD PUSH1 0x20 DUP1 SWAP2 DIV MUL PUSH1 0x20 ADD PUSH1 0x40 MLOAD SWAP1 DUP2 ADD PUSH1 0x40 MSTORE DUP1 SWAP3 SWAP2 SWAP1 DUP2 DUP2 MSTORE PUSH1 0x20 ADD DUP3 DUP1 SLOAD PUSH2 0x779 SWAP1 PUSH2 0x1D9C JUMP JUMPDEST DUP1 ISZERO PUSH2 0x7C4 JUMPI DUP1 PUSH1 0x1F LT PUSH2 0x79B JUMPI PUSH2 0x100 DUP1 DUP4 SLOAD DIV MUL DUP4 MSTORE SWAP2 PUSH1 0x20 ADD SWAP2 PUSH2 0x7C4 JUMP JUMPDEST DUP3 ADD SWAP2 SWAP1 PUSH0 MSTORE PUSH1 0x20 PUSH0 KECCAK256 SWAP1 JUMPDEST DUP2 SLOAD DUP2 MSTORE SWAP1 PUSH1 0x1 ADD SWAP1 PUSH1 0x20 ADD DUP1 DUP4 GT PUSH2 0x7A7 JUMPI DUP3 SWAP1 SUB PUSH1 0x1F AND DUP3 ADD SWAP2 JUMPDEST POP POP POP POP POP SWAP1 POP SWAP1 JUMP JUMPDEST PUSH2 0x7E0 PUSH2 0x7D9 PUSH2 0xB6D JUMP JUMPDEST DUP4 DUP4 PUSH2 0xD91 JUMP JUMPDEST POP POP JUMP JUMPDEST PUSH0 DUP2 JUMP JUMPDEST PUSH2 0x7F3 DUP5 DUP5 DUP5 PUSH2 0x50C JUMP JUMPDEST PUSH2 0x807 PUSH2 0x7FE PUSH2 0xB6D JUMP JUMPDEST DUP6 DUP6 DUP6 DUP6 PUSH2 0xEFA JUMP JUMPDEST POP POP POP POP JUMP JUMPDEST PUSH1 0x60 PUSH2 0x818 DUP3 PUSH2 0xAAE JUMP JUMPDEST POP PUSH0 PUSH2 0x822 PUSH2 0x10A6 JUMP JUMPDEST SWAP1 POP PUSH0 DUP2 MLOAD GT PUSH2 0x840 JUMPI PUSH1 0x40 MLOAD DUP1 PUSH1 0x20 ADD PUSH1 0x40 MSTORE DUP1 PUSH0 DUP2 MSTORE POP PUSH2 0x86B JUMP JUMPDEST DUP1 PUSH2 0x84A DUP5 PUSH2 0x10BC JUMP JUMPDEST PUSH1 0x40 MLOAD PUSH1 0x20 ADD PUSH2 0x85B SWAP3 SWAP2 SWAP1 PUSH2 0x1E3B JUMP JUMPDEST PUSH1 0x40 MLOAD PUSH1 0x20 DUP2 DUP4 SUB SUB DUP2 MSTORE SWAP1 PUSH1 0x40 MSTORE JUMPDEST SWAP2 POP POP SWAP2 SWAP1 POP JUMP JUMPDEST PUSH0 PUSH1 0x5 PUSH0 DUP5 PUSH20 0xFFFFFFFFFFFFFFFFFFFFFFFFFFFFFFFFFFFFFFFF AND PUSH20 0xFFFFFFFFFFFFFFFFFFFFFFFFFFFFFFFFFFFFFFFF AND DUP2 MSTORE PUSH1 0x20 ADD SWAP1 DUP2 MSTORE PUSH1 0x20 ADD PUSH0 KECCAK256 PUSH0 DUP4 PUSH20 0xFFFFFFFFFFFFFFFFFFFFFFFFFFFFFFFFFFFFFFFF AND PUSH20 0xFFFFFFFFFFFFFFFFFFFFFFFFFFFFFFFFFFFFFFFF AND DUP2 MSTORE PUSH1 0x20 ADD SWAP1 DUP2 MSTORE PUSH1 0x20 ADD PUSH0 KECCAK256 PUSH0 SWAP1 SLOAD SWAP1 PUSH2 0x100 EXP SWAP1 DIV PUSH1 0xFF AND SWAP1 POP SWAP3 SWAP2 POP POP JUMP JUMPDEST PUSH0 PUSH1 0x6 PUSH0 SWAP1 SLOAD SWAP1 PUSH2 0x100 EXP SWAP1 DIV PUSH20 0xFFFFFFFFFFFFFFFFFFFFFFFFFFFFFFFFFFFFFFFF AND PUSH20 0xFFFFFFFFFFFFFFFFFFFFFFFFFFFFFFFFFFFFFFFF AND CALLER PUSH20 0xFFFFFFFFFFFFFFFFFFFFFFFFFFFFFFFFFFFFFFFF AND EQ DUP1 PUSH2 0x993 JUMPI POP CALLER PUSH20 0xFFFFFFFFFFFFFFFFFFFFFFFFFFFFFFFFFFFFFFFF AND PUSH2 0x97B PUSH0 PUSH1 0xFF AND PUSH2 0x4DB JUMP JUMPDEST PUSH20 0xFFFFFFFFFFFFFFFFFFFFFFFFFFFFFFFFFFFFFFFF AND EQ JUMPDEST SWAP1 POP DUP1 PUSH2 0x9D5 JUMPI PUSH1 0x40 MLOAD PUSH32 0x8C379A000000000000000000000000000000000000000000000000000000000 DUP2 MSTORE PUSH1 0x4 ADD PUSH2 0x9CC SWAP1 PUSH2 0x1ECE JUMP JUMPDEST PUSH1 0x40 MLOAD DUP1 SWAP2 SUB SWAP1 REVERT JUMPDEST PUSH2 0xA01 PUSH1 0x6 PUSH0 SWAP1 SLOAD SWAP1 PUSH2 0x100 EXP SWAP1 DIV PUSH20 0xFFFFFFFFFFFFFFFFFFFFFFFFFFFFFFFFFFFFFFFF AND DUP4 PUSH0 PUSH2 0x1186 JUMP JUMPDEST DUP2 PUSH1 0x6 PUSH0 PUSH2 0x100 EXP DUP2 SLOAD DUP2 PUSH20 0xFFFFFFFFFFFFFFFFFFFFFFFFFFFFFFFFFFFFFFFF MUL NOT AND SWAP1 DUP4 PUSH20 0xFFFFFFFFFFFFFFFFFFFFFFFFFFFFFFFFFFFFFFFF AND MUL OR SWAP1 SSTORE POP POP POP JUMP JUMPDEST PUSH0 PUSH32 0x1FFC9A700000000000000000000000000000000000000000000000000000000 PUSH28 0xFFFFFFFFFFFFFFFFFFFFFFFFFFFFFFFFFFFFFFFFFFFFFFFFFFFFFFFF NOT AND DUP3 PUSH28 0xFFFFFFFFFFFFFFFFFFFFFFFFFFFFFFFFFFFFFFFFFFFFFFFFFFFFFFFF NOT AND EQ SWAP1 POP SWAP2 SWAP1 POP JUMP JUMPDEST PUSH0 DUP1 PUSH2 0xAB9 DUP4 PUSH2 0x12EE JUMP JUMPDEST SWAP1 POP PUSH0 PUSH20 0xFFFFFFFFFFFFFFFFFFFFFFFFFFFFFFFFFFFFFFFF AND DUP2 PUSH20 0xFFFFFFFFFFFFFFFFFFFFFFFFFFFFFFFFFFFFFFFF AND SUB PUSH2 0xB2B JUMPI DUP3 PUSH1 0x40 MLOAD PUSH32 0x7E27328900000000000000000000000000000000000000000000000000000000 DUP2 MSTORE PUSH1 0x4 ADD PUSH2 0xB22 SWAP2 SWAP1 PUSH2 0x1AD0 JUMP JUMPDEST PUSH1 0x40 MLOAD DUP1 SWAP2 SUB SWAP1 REVERT JUMPDEST DUP1 SWAP2 POP POP SWAP2 SWAP1 POP JUMP JUMPDEST PUSH0 PUSH1 0x4 PUSH0 DUP4 DUP2 MSTORE PUSH1 0x20 ADD SWAP1 DUP2 MSTORE PUSH1 0x20 ADD PUSH0 KECCAK256 PUSH0 SWAP1 SLOAD SWAP1 PUSH2 0x100 EXP SWAP1 DIV PUSH20 0xFFFFFFFFFFFFFFFFFFFFFFFFFFFFFFFFFFFFFFFF AND SWAP1 POP SWAP2 SWAP1 POP JUMP JUMPDEST PUSH0 CALLER SWAP1 POP SWAP1 JUMP JUMPDEST PUSH2 0xB81 DUP4 DUP4 DUP4 PUSH1 0x1 PUSH2 0x1327 JUMP JUMPDEST POP POP POP JUMP JUMPDEST PUSH0 DUP1 PUSH2 0xB91 DUP5 PUSH2 0x12EE JUMP JUMPDEST SWAP1 POP PUSH0 PUSH20 0xFFFFFFFFFFFFFFFFFFFFFFFFFFFFFFFFFFFFFFFF AND DUP4 PUSH20 0xFFFFFFFFFFFFFFFFFFFFFFFFFFFFFFFFFFFFFFFF AND EQ PUSH2 0xBD2 JUMPI PUSH2 0xBD1 DUP2 DUP5 DUP7 PUSH2 0x14E6 JUMP JUMPDEST JUMPDEST PUSH0 PUSH20 0xFFFFFFFFFFFFFFFFFFFFFFFFFFFFFFFFFFFFFFFF AND DUP2 PUSH20 0xFFFFFFFFFFFFFFFFFFFFFFFFFFFFFFFFFFFFFFFF AND EQ PUSH2 0xC5D JUMPI PUSH2 0xC11 PUSH0 DUP6 PUSH0 DUP1 PUSH2 0x1327 JUMP JUMPDEST PUSH1 0x1 PUSH1 0x3 PUSH0 DUP4 PUSH20 0xFFFFFFFFFFFFFFFFFFFFFFFFFFFFFFFFFFFFFFFF AND PUSH20 0xFFFFFFFFFFFFFFFFFFFFFFFFFFFFFFFFFFFFFFFF AND DUP2 MSTORE PUSH1 0x20 ADD SWAP1 DUP2 MSTORE PUSH1 0x20 ADD PUSH0 KECCAK256 PUSH0 DUP3 DUP3 SLOAD SUB SWAP3 POP POP DUP2 SWAP1 SSTORE POP JUMPDEST PUSH0 PUSH20 0xFFFFFFFFFFFFFFFFFFFFFFFFFFFFFFFFFFFFFFFF AND DUP6 PUSH20 0xFFFFFFFFFFFFFFFFFFFFFFFFFFFFFFFFFFFFFFFF AND EQ PUSH2 0xCDC JUMPI PUSH1 0x1 PUSH1 0x3 PUSH0 DUP8 PUSH20 0xFFFFFFFFFFFFFFFFFFFFFFFFFFFFFFFFFFFFFFFF AND PUSH20 0xFFFFFFFFFFFFFFFFFFFFFFFFFFFFFFFFFFFFFFFF AND DUP2 MSTORE PUSH1 0x20 ADD SWAP1 DUP2 MSTORE PUSH1 0x20 ADD PUSH0 KECCAK256 PUSH0 DUP3 DUP3 SLOAD ADD SWAP3 POP POP DUP2 SWAP1 SSTORE POP JUMPDEST DUP5 PUSH1 0x2 PUSH0 DUP7 DUP2 MSTORE PUSH1 0x20 ADD SWAP1 DUP2 MSTORE PUSH1 0x20 ADD PUSH0 KECCAK256 PUSH0 PUSH2 0x100 EXP DUP2 SLOAD DUP2 PUSH20 0xFFFFFFFFFFFFFFFFFFFFFFFFFFFFFFFFFFFFFFFF MUL NOT AND SWAP1 DUP4 PUSH20 0xFFFFFFFFFFFFFFFFFFFFFFFFFFFFFFFFFFFFFFFF AND MUL OR SWAP1 SSTORE POP DUP4 DUP6 PUSH20 0xFFFFFFFFFFFFFFFFFFFFFFFFFFFFFFFFFFFFFFFF AND DUP3 PUSH20 0xFFFFFFFFFFFFFFFFFFFFFFFFFFFFFFFFFFFFFFFF AND PUSH32 0xDDF252AD1BE2C89B69C2B068FC378DAA952BA7F163C4A11628F55A4DF523B3EF PUSH1 0x40 MLOAD PUSH1 0x40 MLOAD DUP1 SWAP2 SUB SWAP1 LOG4 DUP1 SWAP2 POP POP SWAP4 SWAP3 POP POP POP JUMP JUMPDEST PUSH0 PUSH20 0xFFFFFFFFFFFFFFFFFFFFFFFFFFFFFFFFFFFFFFFF AND DUP3 PUSH20 0xFFFFFFFFFFFFFFFFFFFFFFFFFFFFFFFFFFFFFFFF AND SUB PUSH2 0xE01 JUMPI DUP2 PUSH1 0x40 MLOAD PUSH32 0x5B08BA1800000000000000000000000000000000000000000000000000000000 DUP2 MSTORE PUSH1 0x4 ADD PUSH2 0xDF8 SWAP2 SWAP1 PUSH2 0x19C5 JUMP JUMPDEST PUSH1 0x40 MLOAD DUP1 SWAP2 SUB SWAP1 REVERT JUMPDEST DUP1 PUSH1 0x5 PUSH0 DUP6 PUSH20 0xFFFFFFFFFFFFFFFFFFFFFFFFFFFFFFFFFFFFFFFF AND PUSH20 0xFFFFFFFFFFFFFFFFFFFFFFFFFFFFFFFFFFFFFFFF AND DUP2 MSTORE PUSH1 0x20 ADD SWAP1 DUP2 MSTORE PUSH1 0x20 ADD PUSH0 KECCAK256 PUSH0 DUP5 PUSH20 0xFFFFFFFFFFFFFFFFFFFFFFFFFFFFFFFFFFFFFFFF AND PUSH20 0xFFFFFFFFFFFFFFFFFFFFFFFFFFFFFFFFFFFFFFFF AND DUP2 MSTORE PUSH1 0x20 ADD SWAP1 DUP2 MSTORE PUSH1 0x20 ADD PUSH0 KECCAK256 PUSH0 PUSH2 0x100 EXP DUP2 SLOAD DUP2 PUSH1 0xFF MUL NOT AND SWAP1 DUP4 ISZERO ISZERO MUL OR SWAP1 SSTORE POP DUP2 PUSH20 0xFFFFFFFFFFFFFFFFFFFFFFFFFFFFFFFFFFFFFFFF AND DUP4 PUSH20 0xFFFFFFFFFFFFFFFFFFFFFFFFFFFFFFFFFFFFFFFF AND PUSH32 0x17307EAB39AB6107E8899845AD3D59BD9653F200F220920489CA2B5937696C31 DUP4 PUSH1 0x40 MLOAD PUSH2 0xEED SWAP2 SWAP1 PUSH2 0x1865 JUMP JUMPDEST PUSH1 0x40 MLOAD DUP1 SWAP2 SUB SWAP1 LOG3 POP POP POP JUMP JUMPDEST PUSH0 DUP4 PUSH20 0xFFFFFFFFFFFFFFFFFFFFFFFFFFFFFFFFFFFFFFFF AND EXTCODESIZE GT ISZERO PUSH2 0x109F JUMPI DUP3 PUSH20 0xFFFFFFFFFFFFFFFFFFFFFFFFFFFFFFFFFFFFFFFF AND PUSH4 0x150B7A02 DUP7 DUP7 DUP6 DUP6 PUSH1 0x40 MLOAD DUP6 PUSH4 0xFFFFFFFF AND PUSH1 0xE0 SHL DUP2 MSTORE PUSH1 0x4 ADD PUSH2 0xF58 SWAP5 SWAP4 SWAP3 SWAP2 SWAP1 PUSH2 0x1F3E JUMP JUMPDEST PUSH1 0x20 PUSH1 0x40 MLOAD DUP1 DUP4 SUB DUP2 PUSH0 DUP8 GAS CALL SWAP3 POP POP POP DUP1 ISZERO PUSH2 0xF93 JUMPI POP PUSH1 0x40 MLOAD RETURNDATASIZE PUSH1 0x1F NOT PUSH1 0x1F DUP3 ADD AND DUP3 ADD DUP1 PUSH1 0x40 MSTORE POP DUP2 ADD SWAP1 PUSH2 0xF90 SWAP2 SWAP1 PUSH2 0x1F9C JUMP JUMPDEST PUSH1 0x1 JUMPDEST PUSH2 0x1014 JUMPI RETURNDATASIZE DUP1 PUSH0 DUP2 EQ PUSH2 0xFC1 JUMPI PUSH1 0x40 MLOAD SWAP2 POP PUSH1 0x1F NOT PUSH1 0x3F RETURNDATASIZE ADD AND DUP3 ADD PUSH1 0x40 MSTORE RETURNDATASIZE DUP3 MSTORE RETURNDATASIZE PUSH0 PUSH1 0x20 DUP5 ADD RETURNDATACOPY PUSH2 0xFC6 JUMP JUMPDEST PUSH1 0x60 SWAP2 POP JUMPDEST POP PUSH0 DUP2 MLOAD SUB PUSH2 0x100C JUMPI DUP4 PUSH1 0x40 MLOAD PUSH32 0x64A0AE9200000000000000000000000000000000000000000000000000000000 DUP2 MSTORE PUSH1 0x4 ADD PUSH2 0x1003 SWAP2 SWAP1 PUSH2 0x19C5 JUMP JUMPDEST PUSH1 0x40 MLOAD DUP1 SWAP2 SUB SWAP1 REVERT JUMPDEST DUP1 MLOAD DUP2 PUSH1 0x20 ADD REVERT JUMPDEST PUSH4 0x150B7A02 PUSH1 0xE0 SHL PUSH28 0xFFFFFFFFFFFFFFFFFFFFFFFFFFFFFFFFFFFFFFFFFFFFFFFFFFFFFFFF NOT AND DUP2 PUSH28 0xFFFFFFFFFFFFFFFFFFFFFFFFFFFFFFFFFFFFFFFFFFFFFFFFFFFFFFFF NOT AND EQ PUSH2 0x109D JUMPI DUP4 PUSH1 0x40 MLOAD PUSH32 0x64A0AE9200000000000000000000000000000000000000000000000000000000 DUP2 MSTORE PUSH1 0x4 ADD PUSH2 0x1094 SWAP2 SWAP1 PUSH2 0x19C5 JUMP JUMPDEST PUSH1 0x40 MLOAD DUP1 SWAP2 SUB SWAP1 REVERT JUMPDEST POP JUMPDEST POP POP POP POP POP JUMP JUMPDEST PUSH1 0x60 PUSH1 0x40 MLOAD DUP1 PUSH1 0x20 ADD PUSH1 0x40 MSTORE DUP1 PUSH0 DUP2 MSTORE POP SWAP1 POP SWAP1 JUMP JUMPDEST PUSH1 0x60 PUSH0 PUSH1 0x1 PUSH2 0x10CA DUP5 PUSH2 0x15A9 JUMP JUMPDEST ADD SWAP1 POP PUSH0 DUP2 PUSH8 0xFFFFFFFFFFFFFFFF DUP2 GT ISZERO PUSH2 0x10E8 JUMPI PUSH2 0x10E7 PUSH2 0x1B8D JUMP JUMPDEST JUMPDEST PUSH1 0x40 MLOAD SWAP1 DUP1 DUP3 MSTORE DUP1 PUSH1 0x1F ADD PUSH1 0x1F NOT AND PUSH1 0x20 ADD DUP3 ADD PUSH1 0x40 MSTORE DUP1 ISZERO PUSH2 0x111A JUMPI DUP2 PUSH1 0x20 ADD PUSH1 0x1 DUP3 MUL DUP1 CALLDATASIZE DUP4 CALLDATACOPY DUP1 DUP3 ADD SWAP2 POP POP SWAP1 POP JUMPDEST POP SWAP1 POP PUSH0 DUP3 PUSH1 0x20 ADD DUP3 ADD SWAP1 POP JUMPDEST PUSH1 0x1 ISZERO PUSH2 0x117B JUMPI DUP1 DUP1 PUSH1 0x1 SWAP1 SUB SWAP2 POP POP PUSH32 0x3031323334353637383961626364656600000000000000000000000000000000 PUSH1 0xA DUP7 MOD BYTE DUP2 MSTORE8 PUSH1 0xA DUP6 DUP2 PUSH2 0x1170 JUMPI PUSH2 0x116F PUSH2 0x1FC7 JUMP JUMPDEST JUMPDEST DIV SWAP5 POP PUSH0 DUP6 SUB PUSH2 0x1127 JUMPI JUMPDEST DUP2 SWAP4 POP POP POP POP SWAP2 SWAP1 POP JUMP JUMPDEST PUSH0 PUSH20 0xFFFFFFFFFFFFFFFFFFFFFFFFFFFFFFFFFFFFFFFF AND DUP3 PUSH20 0xFFFFFFFFFFFFFFFFFFFFFFFFFFFFFFFFFFFFFFFF AND SUB PUSH2 0x11F6 JUMPI PUSH0 PUSH1 0x40 MLOAD PUSH32 0x64A0AE9200000000000000000000000000000000000000000000000000000000 DUP2 MSTORE PUSH1 0x4 ADD PUSH2 0x11ED SWAP2 SWAP1 PUSH2 0x19C5 JUMP JUMPDEST PUSH1 0x40 MLOAD DUP1 SWAP2 SUB SWAP1 REVERT JUMPDEST PUSH0 PUSH2 0x1202 DUP4 DUP4 PUSH0 PUSH2 0xB86 JUMP JUMPDEST SWAP1 POP PUSH0 PUSH20 0xFFFFFFFFFFFFFFFFFFFFFFFFFFFFFFFFFFFFFFFF AND DUP2 PUSH20 0xFFFFFFFFFFFFFFFFFFFFFFFFFFFFFFFFFFFFFFFF AND SUB PUSH2 0x1274 JUMPI DUP2 PUSH1 0x40 MLOAD PUSH32 0x7E27328900000000000000000000000000000000000000000000000000000000 DUP2 MSTORE PUSH1 0x4 ADD PUSH2 0x126B SWAP2 SWAP1 PUSH2 0x1AD0 JUMP JUMPDEST PUSH1 0x40 MLOAD DUP1 SWAP2 SUB SWAP1 REVERT JUMPDEST DUP4 PUSH20 0xFFFFFFFFFFFFFFFFFFFFFFFFFFFFFFFFFFFFFFFF AND DUP2 PUSH20 0xFFFFFFFFFFFFFFFFFFFFFFFFFFFFFFFFFFFFFFFF AND EQ PUSH2 0x12E8 JUMPI DUP4 DUP3 DUP3 PUSH1 0x40 MLOAD PUSH32 0x64283D7B00000000000000000000000000000000000000000000000000000000 DUP2 MSTORE PUSH1 0x4 ADD PUSH2 0x12DF SWAP4 SWAP3 SWAP2 SWAP1 PUSH2 0x1DCC JUMP JUMPDEST PUSH1 0x40 MLOAD DUP1 SWAP2 SUB SWAP1 REVERT JUMPDEST POP POP POP POP JUMP JUMPDEST PUSH0 PUSH1 0x2 PUSH0 DUP4 DUP2 MSTORE PUSH1 0x20 ADD SWAP1 DUP2 MSTORE PUSH1 0x20 ADD PUSH0 KECCAK256 PUSH0 SWAP1 SLOAD SWAP1 PUSH2 0x100 EXP SWAP1 DIV PUSH20 0xFFFFFFFFFFFFFFFFFFFFFFFFFFFFFFFFFFFFFFFF AND SWAP1 POP SWAP2 SWAP1 POP JUMP JUMPDEST DUP1 DUP1 PUSH2 0x135F JUMPI POP PUSH0 PUSH20 0xFFFFFFFFFFFFFFFFFFFFFFFFFFFFFFFFFFFFFFFF AND DUP3 PUSH20 0xFFFFFFFFFFFFFFFFFFFFFFFFFFFFFFFFFFFFFFFF AND EQ ISZERO JUMPDEST ISZERO PUSH2 0x1491 JUMPI PUSH0 PUSH2 0x136E DUP5 PUSH2 0xAAE JUMP JUMPDEST SWAP1 POP PUSH0 PUSH20 0xFFFFFFFFFFFFFFFFFFFFFFFFFFFFFFFFFFFFFFFF AND DUP4 PUSH20 0xFFFFFFFFFFFFFFFFFFFFFFFFFFFFFFFFFFFFFFFF AND EQ ISZERO DUP1 ISZERO PUSH2 0x13D8 JUMPI POP DUP3 PUSH20 0xFFFFFFFFFFFFFFFFFFFFFFFFFFFFFFFFFFFFFFFF AND DUP2 PUSH20 0xFFFFFFFFFFFFFFFFFFFFFFFFFFFFFFFFFFFFFFFF AND EQ ISZERO JUMPDEST DUP1 ISZERO PUSH2 0x13EB JUMPI POP PUSH2 0x13E9 DUP2 DUP5 PUSH2 0x873 JUMP JUMPDEST ISZERO JUMPDEST ISZERO PUSH2 0x142D JUMPI DUP3 PUSH1 0x40 MLOAD PUSH32 0xA9FBF51F00000000000000000000000000000000000000000000000000000000 DUP2 MSTORE PUSH1 0x4 ADD PUSH2 0x1424 SWAP2 SWAP1 PUSH2 0x19C5 JUMP JUMPDEST PUSH1 0x40 MLOAD DUP1 SWAP2 SUB SWAP1 REVERT JUMPDEST DUP2 ISZERO PUSH2 0x148F JUMPI DUP4 DUP6 PUSH20 0xFFFFFFFFFFFFFFFFFFFFFFFFFFFFFFFFFFFFFFFF AND DUP3 PUSH20 0xFFFFFFFFFFFFFFFFFFFFFFFFFFFFFFFFFFFFFFFF AND PUSH32 0x8C5BE1E5EBEC7D5BD14F71427D1E84F3DD0314C0F7B2291E5B200AC8C7C3B925 PUSH1 0x40 MLOAD PUSH1 0x40 MLOAD DUP1 SWAP2 SUB SWAP1 LOG4 JUMPDEST POP JUMPDEST DUP4 PUSH1 0x4 PUSH0 DUP6 DUP2 MSTORE PUSH1 0x20 ADD SWAP1 DUP2 MSTORE PUSH1 0x20 ADD PUSH0 KECCAK256 PUSH0 PUSH2 0x100 EXP DUP2 SLOAD DUP2 PUSH20 0xFFFFFFFFFFFFFFFFFFFFFFFFFFFFFFFFFFFFFFFF MUL NOT AND SWAP1 DUP4 PUSH20 0xFFFFFFFFFFFFFFFFFFFFFFFFFFFFFFFFFFFFFFFF AND MUL OR SWAP1 SSTORE POP POP POP POP POP JUMP JUMPDEST PUSH2 0x14F1 DUP4 DUP4 DUP4 PUSH2 0x16FA JUMP JUMPDEST PUSH2 0x15A4 JUMPI PUSH0 PUSH20 0xFFFFFFFFFFFFFFFFFFFFFFFFFFFFFFFFFFFFFFFF AND DUP4 PUSH20 0xFFFFFFFFFFFFFFFFFFFFFFFFFFFFFFFFFFFFFFFF AND SUB PUSH2 0x1565 JUMPI DUP1 PUSH1 0x40 MLOAD PUSH32 0x7E27328900000000000000000000000000000000000000000000000000000000 DUP2 MSTORE PUSH1 0x4 ADD PUSH2 0x155C SWAP2 SWAP1 PUSH2 0x1AD0 JUMP JUMPDEST PUSH1 0x40 MLOAD DUP1 SWAP2 SUB SWAP1 REVERT JUMPDEST DUP2 DUP2 PUSH1 0x40 MLOAD PUSH32 0x177E802F00000000000000000000000000000000000000000000000000000000 DUP2 MSTORE PUSH1 0x4 ADD PUSH2 0x159B SWAP3 SWAP2 SWAP1 PUSH2 0x1FF4 JUMP JUMPDEST PUSH1 0x40 MLOAD DUP1 SWAP2 SUB SWAP1 REVERT JUMPDEST POP POP POP JUMP JUMPDEST PUSH0 DUP1 PUSH0 SWAP1 POP PUSH27 0x184F03E93FF9F4DAA797ED6E38ED64BF6A1F010000000000000000 DUP4 LT PUSH2 0x1605 JUMPI PUSH27 0x184F03E93FF9F4DAA797ED6E38ED64BF6A1F010000000000000000 DUP4 DUP2 PUSH2 0x15FB JUMPI PUSH2 0x15FA PUSH2 0x1FC7 JUMP JUMPDEST JUMPDEST DIV SWAP3 POP PUSH1 0x40 DUP2 ADD SWAP1 POP JUMPDEST PUSH14 0x4EE2D6D415B85ACEF8100000000 DUP4 LT PUSH2 0x1642 JUMPI PUSH14 0x4EE2D6D415B85ACEF8100000000 DUP4 DUP2 PUSH2 0x1638 JUMPI PUSH2 0x1637 PUSH2 0x1FC7 JUMP JUMPDEST JUMPDEST DIV SWAP3 POP PUSH1 0x20 DUP2 ADD SWAP1 POP JUMPDEST PUSH7 0x2386F26FC10000 DUP4 LT PUSH2 0x1671 JUMPI PUSH7 0x2386F26FC10000 DUP4 DUP2 PUSH2 0x1667 JUMPI PUSH2 0x1666 PUSH2 0x1FC7 JUMP JUMPDEST JUMPDEST DIV SWAP3 POP PUSH1 0x10 DUP2 ADD SWAP1 POP JUMPDEST PUSH4 0x5F5E100 DUP4 LT PUSH2 0x169A JUMPI PUSH4 0x5F5E100 DUP4 DUP2 PUSH2 0x1690 JUMPI PUSH2 0x168F PUSH2 0x1FC7 JUMP JUMPDEST JUMPDEST DIV SWAP3 POP PUSH1 0x8 DUP2 ADD SWAP1 POP JUMPDEST PUSH2 0x2710 DUP4 LT PUSH2 0x16BF JUMPI PUSH2 0x2710 DUP4 DUP2 PUSH2 0x16B5 JUMPI PUSH2 0x16B4 PUSH2 0x1FC7 JUMP JUMPDEST JUMPDEST DIV SWAP3 POP PUSH1 0x4 DUP2 ADD SWAP1 POP JUMPDEST PUSH1 0x64 DUP4 LT PUSH2 0x16E2 JUMPI PUSH1 0x64 DUP4 DUP2 PUSH2 0x16D8 JUMPI PUSH2 0x16D7 PUSH2 0x1FC7 JUMP JUMPDEST JUMPDEST DIV SWAP3 POP PUSH1 0x2 DUP2 ADD SWAP1 POP JUMPDEST PUSH1 0xA DUP4 LT PUSH2 0x16F1 JUMPI PUSH1 0x1 DUP2 ADD SWAP1 POP JUMPDEST DUP1 SWAP2 POP POP SWAP2 SWAP1 POP JUMP JUMPDEST PUSH0 DUP1 PUSH20 0xFFFFFFFFFFFFFFFFFFFFFFFFFFFFFFFFFFFFFFFF AND DUP4 PUSH20 0xFFFFFFFFFFFFFFFFFFFFFFFFFFFFFFFFFFFFFFFF AND EQ ISZERO DUP1 ISZERO PUSH2 0x17B1 JUMPI POP DUP3 PUSH20 0xFFFFFFFFFFFFFFFFFFFFFFFFFFFFFFFFFFFFFFFF AND DUP5 PUSH20 0xFFFFFFFFFFFFFFFFFFFFFFFFFFFFFFFFFFFFFFFF AND EQ DUP1 PUSH2 0x1772 JUMPI POP PUSH2 0x1771 DUP5 DUP5 PUSH2 0x873 JUMP JUMPDEST JUMPDEST DUP1 PUSH2 0x17B0 JUMPI POP DUP3 PUSH20 0xFFFFFFFFFFFFFFFFFFFFFFFFFFFFFFFFFFFFFFFF AND PUSH2 0x1798 DUP4 PUSH2 0xB34 JUMP JUMPDEST PUSH20 0xFFFFFFFFFFFFFFFFFFFFFFFFFFFFFFFFFFFFFFFF AND EQ JUMPDEST JUMPDEST SWAP1 POP SWAP4 SWAP3 POP POP POP JUMP JUMPDEST PUSH0 PUSH1 0x40 MLOAD SWAP1 POP SWAP1 JUMP JUMPDEST PUSH0 DUP1 REVERT JUMPDEST PUSH0 DUP1 REVERT JUMPDEST PUSH0 PUSH32 0xFFFFFFFF00000000000000000000000000000000000000000000000000000000 DUP3 AND SWAP1 POP SWAP2 SWAP1 POP JUMP JUMPDEST PUSH2 0x17FF DUP2 PUSH2 0x17CB JUMP JUMPDEST DUP2 EQ PUSH2 0x1809 JUMPI PUSH0 DUP1 REVERT JUMPDEST POP JUMP JUMPDEST PUSH0 DUP2 CALLDATALOAD SWAP1 POP PUSH2 0x181A DUP2 PUSH2 0x17F6 JUMP JUMPDEST SWAP3 SWAP2 POP POP JUMP JUMPDEST PUSH0 PUSH1 0x20 DUP3 DUP5 SUB SLT ISZERO PUSH2 0x1835 JUMPI PUSH2 0x1834 PUSH2 0x17C3 JUMP JUMPDEST JUMPDEST PUSH0 PUSH2 0x1842 DUP5 DUP3 DUP6 ADD PUSH2 0x180C JUMP JUMPDEST SWAP2 POP POP SWAP3 SWAP2 POP POP JUMP JUMPDEST PUSH0 DUP2 ISZERO ISZERO SWAP1 POP SWAP2 SWAP1 POP JUMP JUMPDEST PUSH2 0x185F DUP2 PUSH2 0x184B JUMP JUMPDEST DUP3 MSTORE POP POP JUMP JUMPDEST PUSH0 PUSH1 0x20 DUP3 ADD SWAP1 POP PUSH2 0x1878 PUSH0 DUP4 ADD DUP5 PUSH2 0x1856 JUMP JUMPDEST SWAP3 SWAP2 POP POP JUMP JUMPDEST PUSH0 DUP2 MLOAD SWAP1 POP SWAP2 SWAP1 POP JUMP JUMPDEST PUSH0 DUP3 DUP3 MSTORE PUSH1 0x20 DUP3 ADD SWAP1 POP SWAP3 SWAP2 POP POP JUMP JUMPDEST PUSH0 JUMPDEST DUP4 DUP2 LT ISZERO PUSH2 0x18B5 JUMPI DUP1 DUP3 ADD MLOAD DUP2 DUP5 ADD MSTORE PUSH1 0x20 DUP2 ADD SWAP1 POP PUSH2 0x189A JUMP JUMPDEST PUSH0 DUP5 DUP5 ADD MSTORE POP POP POP POP JUMP JUMPDEST PUSH0 PUSH1 0x1F NOT PUSH1 0x1F DUP4 ADD AND SWAP1 POP SWAP2 SWAP1 POP JUMP JUMPDEST PUSH0 PUSH2 0x18DA DUP3 PUSH2 0x187E JUMP JUMPDEST PUSH2 0x18E4 DUP2 DUP6 PUSH2 0x1888 JUMP JUMPDEST SWAP4 POP PUSH2 0x18F4 DUP2 DUP6 PUSH1 0x20 DUP7 ADD PUSH2 0x1898 JUMP JUMPDEST PUSH2 0x18FD DUP2 PUSH2 0x18C0 JUMP JUMPDEST DUP5 ADD SWAP2 POP POP SWAP3 SWAP2 POP POP JUMP JUMPDEST PUSH0 PUSH1 0x20 DUP3 ADD SWAP1 POP DUP2 DUP2 SUB PUSH0 DUP4 ADD MSTORE PUSH2 0x1920 DUP2 DUP5 PUSH2 0x18D0 JUMP JUMPDEST SWAP1 POP SWAP3 SWAP2 POP POP JUMP JUMPDEST PUSH0 DUP2 SWAP1 POP SWAP2 SWAP1 POP JUMP JUMPDEST PUSH2 0x193A DUP2 PUSH2 0x1928 JUMP JUMPDEST DUP2 EQ PUSH2 0x1944 JUMPI PUSH0 DUP1 REVERT JUMPDEST POP JUMP JUMPDEST PUSH0 DUP2 CALLDATALOAD SWAP1 POP PUSH2 0x1955 DUP2 PUSH2 0x1931 JUMP JUMPDEST SWAP3 SWAP2 POP POP JUMP JUMPDEST PUSH0 PUSH1 0x20 DUP3 DUP5 SUB SLT ISZERO PUSH2 0x1970 JUMPI PUSH2 0x196F PUSH2 0x17C3 JUMP JUMPDEST JUMPDEST PUSH0 PUSH2 0x197D DUP5 DUP3 DUP6 ADD PUSH2 0x1947 JUMP JUMPDEST SWAP2 POP POP SWAP3 SWAP2 POP POP JUMP JUMPDEST PUSH0 PUSH20 0xFFFFFFFFFFFFFFFFFFFFFFFFFFFFFFFFFFFFFFFF DUP3 AND SWAP1 POP SWAP2 SWAP1 POP JUMP JUMPDEST PUSH0 PUSH2 0x19AF DUP3 PUSH2 0x1986 JUMP JUMPDEST SWAP1 POP SWAP2 SWAP1 POP JUMP JUMPDEST PUSH2 0x19BF DUP2 PUSH2 0x19A5 JUMP JUMPDEST DUP3 MSTORE POP POP JUMP JUMPDEST PUSH0 PUSH1 0x20 DUP3 ADD SWAP1 POP PUSH2 0x19D8 PUSH0 DUP4 ADD DUP5 PUSH2 0x19B6 JUMP JUMPDEST SWAP3 SWAP2 POP POP JUMP JUMPDEST PUSH2 0x19E7 DUP2 PUSH2 0x19A5 JUMP JUMPDEST DUP2 EQ PUSH2 0x19F1 JUMPI PUSH0 DUP1 REVERT JUMPDEST POP JUMP JUMPDEST PUSH0 DUP2 CALLDATALOAD SWAP1 POP PUSH2 0x1A02 DUP2 PUSH2 0x19DE JUMP JUMPDEST SWAP3 SWAP2 POP POP JUMP JUMPDEST PUSH0 DUP1 PUSH1 0x40 DUP4 DUP6 SUB SLT ISZERO PUSH2 0x1A1E JUMPI PUSH2 0x1A1D PUSH2 0x17C3 JUMP JUMPDEST JUMPDEST PUSH0 PUSH2 0x1A2B DUP6 DUP3 DUP7 ADD PUSH2 0x19F4 JUMP JUMPDEST SWAP3 POP POP PUSH1 0x20 PUSH2 0x1A3C DUP6 DUP3 DUP7 ADD PUSH2 0x1947 JUMP JUMPDEST SWAP2 POP POP SWAP3 POP SWAP3 SWAP1 POP JUMP JUMPDEST PUSH0 DUP1 PUSH0 PUSH1 0x60 DUP5 DUP7 SUB SLT ISZERO PUSH2 0x1A5D JUMPI PUSH2 0x1A5C PUSH2 0x17C3 JUMP JUMPDEST JUMPDEST PUSH0 PUSH2 0x1A6A DUP7 DUP3 DUP8 ADD PUSH2 0x19F4 JUMP JUMPDEST SWAP4 POP POP PUSH1 0x20 PUSH2 0x1A7B DUP7 DUP3 DUP8 ADD PUSH2 0x19F4 JUMP JUMPDEST SWAP3 POP POP PUSH1 0x40 PUSH2 0x1A8C DUP7 DUP3 DUP8 ADD PUSH2 0x1947 JUMP JUMPDEST SWAP2 POP POP SWAP3 POP SWAP3 POP SWAP3 JUMP JUMPDEST PUSH0 PUSH1 0x20 DUP3 DUP5 SUB SLT ISZERO PUSH2 0x1AAB JUMPI PUSH2 0x1AAA PUSH2 0x17C3 JUMP JUMPDEST JUMPDEST PUSH0 PUSH2 0x1AB8 DUP5 DUP3 DUP6 ADD PUSH2 0x19F4 JUMP JUMPDEST SWAP2 POP POP SWAP3 SWAP2 POP POP JUMP JUMPDEST PUSH2 0x1ACA DUP2 PUSH2 0x1928 JUMP JUMPDEST DUP3 MSTORE POP POP JUMP JUMPDEST PUSH0 PUSH1 0x20 DUP3 ADD SWAP1 POP PUSH2 0x1AE3 PUSH0 DUP4 ADD DUP5 PUSH2 0x1AC1 JUMP JUMPDEST SWAP3 SWAP2 POP POP JUMP JUMPDEST PUSH2 0x1AF2 DUP2 PUSH2 0x184B JUMP JUMPDEST DUP2 EQ PUSH2 0x1AFC JUMPI PUSH0 DUP1 REVERT JUMPDEST POP JUMP JUMPDEST PUSH0 DUP2 CALLDATALOAD SWAP1 POP PUSH2 0x1B0D DUP2 PUSH2 0x1AE9 JUMP JUMPDEST SWAP3 SWAP2 POP POP JUMP JUMPDEST PUSH0 DUP1 PUSH1 0x40 DUP4 DUP6 SUB SLT ISZERO PUSH2 0x1B29 JUMPI PUSH2 0x1B28 PUSH2 0x17C3 JUMP JUMPDEST JUMPDEST PUSH0 PUSH2 0x1B36 DUP6 DUP3 DUP7 ADD PUSH2 0x19F4 JUMP JUMPDEST SWAP3 POP POP PUSH1 0x20 PUSH2 0x1B47 DUP6 DUP3 DUP7 ADD PUSH2 0x1AFF JUMP JUMPDEST SWAP2 POP POP SWAP3 POP SWAP3 SWAP1 POP JUMP JUMPDEST PUSH0 PUSH1 0xFF DUP3 AND SWAP1 POP SWAP2 SWAP1 POP JUMP JUMPDEST PUSH2 0x1B66 DUP2 PUSH2 0x1B51 JUMP JUMPDEST DUP3 MSTORE POP POP JUMP JUMPDEST PUSH0 PUSH1 0x20 DUP3 ADD SWAP1 POP PUSH2 0x1B7F PUSH0 DUP4 ADD DUP5 PUSH2 0x1B5D JUMP JUMPDEST SWAP3 SWAP2 POP POP JUMP JUMPDEST PUSH0 DUP1 REVERT JUMPDEST PUSH0 DUP1 REVERT JUMPDEST PUSH32 0x4E487B7100000000000000000000000000000000000000000000000000000000 PUSH0 MSTORE PUSH1 0x41 PUSH1 0x4 MSTORE PUSH1 0x24 PUSH0 REVERT JUMPDEST PUSH2 0x1BC3 DUP3 PUSH2 0x18C0 JUMP JUMPDEST DUP2 ADD DUP2 DUP2 LT PUSH8 0xFFFFFFFFFFFFFFFF DUP3 GT OR ISZERO PUSH2 0x1BE2 JUMPI PUSH2 0x1BE1 PUSH2 0x1B8D JUMP JUMPDEST JUMPDEST DUP1 PUSH1 0x40 MSTORE POP POP POP JUMP JUMPDEST PUSH0 PUSH2 0x1BF4 PUSH2 0x17BA JUMP JUMPDEST SWAP1 POP PUSH2 0x1C00 DUP3 DUP3 PUSH2 0x1BBA JUMP JUMPDEST SWAP2 SWAP1 POP JUMP JUMPDEST PUSH0 PUSH8 0xFFFFFFFFFFFFFFFF DUP3 GT ISZERO PUSH2 0x1C1F JUMPI PUSH2 0x1C1E PUSH2 0x1B8D JUMP JUMPDEST JUMPDEST PUSH2 0x1C28 DUP3 PUSH2 0x18C0 JUMP JUMPDEST SWAP1 POP PUSH1 0x20 DUP2 ADD SWAP1 POP SWAP2 SWAP1 POP JUMP JUMPDEST DUP3 DUP2 DUP4 CALLDATACOPY PUSH0 DUP4 DUP4 ADD MSTORE POP POP POP JUMP JUMPDEST PUSH0 PUSH2 0x1C55 PUSH2 0x1C50 DUP5 PUSH2 0x1C05 JUMP JUMPDEST PUSH2 0x1BEB JUMP JUMPDEST SWAP1 POP DUP3 DUP2 MSTORE PUSH1 0x20 DUP2 ADD DUP5 DUP5 DUP5 ADD GT ISZERO PUSH2 0x1C71 JUMPI PUSH2 0x1C70 PUSH2 0x1B89 JUMP JUMPDEST JUMPDEST PUSH2 0x1C7C DUP5 DUP3 DUP6 PUSH2 0x1C35 JUMP JUMPDEST POP SWAP4 SWAP3 POP POP POP JUMP JUMPDEST PUSH0 DUP3 PUSH1 0x1F DUP4 ADD SLT PUSH2 0x1C98 JUMPI PUSH2 0x1C97 PUSH2 0x1B85 JUMP JUMPDEST JUMPDEST DUP2 CALLDATALOAD PUSH2 0x1CA8 DUP5 DUP3 PUSH1 0x20 DUP7 ADD PUSH2 0x1C43 JUMP JUMPDEST SWAP2 POP POP SWAP3 SWAP2 POP POP JUMP JUMPDEST PUSH0 DUP1 PUSH0 DUP1 PUSH1 0x80 DUP6 DUP8 SUB SLT ISZERO PUSH2 0x1CC9 JUMPI PUSH2 0x1CC8 PUSH2 0x17C3 JUMP JUMPDEST JUMPDEST PUSH0 PUSH2 0x1CD6 DUP8 DUP3 DUP9 ADD PUSH2 0x19F4 JUMP JUMPDEST SWAP5 POP POP PUSH1 0x20 PUSH2 0x1CE7 DUP8 DUP3 DUP9 ADD PUSH2 0x19F4 JUMP JUMPDEST SWAP4 POP POP PUSH1 0x40 PUSH2 0x1CF8 DUP8 DUP3 DUP9 ADD PUSH2 0x1947 JUMP JUMPDEST SWAP3 POP POP PUSH1 0x60 DUP6 ADD CALLDATALOAD PUSH8 0xFFFFFFFFFFFFFFFF DUP2 GT ISZERO PUSH2 0x1D19 JUMPI PUSH2 0x1D18 PUSH2 0x17C7 JUMP JUMPDEST JUMPDEST PUSH2 0x1D25 DUP8 DUP3 DUP9 ADD PUSH2 0x1C84 JUMP JUMPDEST SWAP2 POP POP SWAP3 SWAP6 SWAP2 SWAP5 POP SWAP3 POP JUMP JUMPDEST PUSH0 DUP1 PUSH1 0x40 DUP4 DUP6 SUB SLT ISZERO PUSH2 0x1D47 JUMPI PUSH2 0x1D46 PUSH2 0x17C3 JUMP JUMPDEST JUMPDEST PUSH0 PUSH2 0x1D54 DUP6 DUP3 DUP7 ADD PUSH2 0x19F4 JUMP JUMPDEST SWAP3 POP POP PUSH1 0x20 PUSH2 0x1D65 DUP6 DUP3 DUP7 ADD PUSH2 0x19F4 JUMP JUMPDEST SWAP2 POP POP SWAP3 POP SWAP3 SWAP1 POP JUMP JUMPDEST PUSH32 0x4E487B7100000000000000000000000000000000000000000000000000000000 PUSH0 MSTORE PUSH1 0x22 PUSH1 0x4 MSTORE PUSH1 0x24 PUSH0 REVERT JUMPDEST PUSH0 PUSH1 0x2 DUP3 DIV SWAP1 POP PUSH1 0x1 DUP3 AND DUP1 PUSH2 0x1DB3 JUMPI PUSH1 0x7F DUP3 AND SWAP2 POP JUMPDEST PUSH1 0x20 DUP3 LT DUP2 SUB PUSH2 0x1DC6 JUMPI PUSH2 0x1DC5 PUSH2 0x1D6F JUMP JUMPDEST JUMPDEST POP SWAP2 SWAP1 POP JUMP JUMPDEST PUSH0 PUSH1 0x60 DUP3 ADD SWAP1 POP PUSH2 0x1DDF PUSH0 DUP4 ADD DUP7 PUSH2 0x19B6 JUMP JUMPDEST PUSH2 0x1DEC PUSH1 0x20 DUP4 ADD DUP6 PUSH2 0x1AC1 JUMP JUMPDEST PUSH2 0x1DF9 PUSH1 0x40 DUP4 ADD DUP5 PUSH2 0x19B6 JUMP JUMPDEST SWAP5 SWAP4 POP POP POP POP JUMP JUMPDEST PUSH0 DUP2 SWAP1 POP SWAP3 SWAP2 POP POP JUMP JUMPDEST PUSH0 PUSH2 0x1E15 DUP3 PUSH2 0x187E JUMP JUMPDEST PUSH2 0x1E1F DUP2 DUP6 PUSH2 0x1E01 JUMP JUMPDEST SWAP4 POP PUSH2 0x1E2F DUP2 DUP6 PUSH1 0x20 DUP7 ADD PUSH2 0x1898 JUMP JUMPDEST DUP1 DUP5 ADD SWAP2 POP POP SWAP3 SWAP2 POP POP JUMP JUMPDEST PUSH0 PUSH2 0x1E46 DUP3 DUP6 PUSH2 0x1E0B JUMP JUMPDEST SWAP2 POP PUSH2 0x1E52 DUP3 DUP5 PUSH2 0x1E0B JUMP JUMPDEST SWAP2 POP DUP2 SWAP1 POP SWAP4 SWAP3 POP POP POP JUMP JUMPDEST PUSH32 0x4F6E6C792074686520636F6E7472616374206F776E65722063616E20646F2074 PUSH0 DUP3 ADD MSTORE PUSH32 0x6869730000000000000000000000000000000000000000000000000000000000 PUSH1 0x20 DUP3 ADD MSTORE POP JUMP JUMPDEST PUSH0 PUSH2 0x1EB8 PUSH1 0x23 DUP4 PUSH2 0x1888 JUMP JUMPDEST SWAP2 POP PUSH2 0x1EC3 DUP3 PUSH2 0x1E5E JUMP JUMPDEST PUSH1 0x40 DUP3 ADD SWAP1 POP SWAP2 SWAP1 POP JUMP JUMPDEST PUSH0 PUSH1 0x20 DUP3 ADD SWAP1 POP DUP2 DUP2 SUB PUSH0 DUP4 ADD MSTORE PUSH2 0x1EE5 DUP2 PUSH2 0x1EAC JUMP JUMPDEST SWAP1 POP SWAP2 SWAP1 POP JUMP JUMPDEST PUSH0 DUP2 MLOAD SWAP1 POP SWAP2 SWAP1 POP JUMP JUMPDEST PUSH0 DUP3 DUP3 MSTORE PUSH1 0x20 DUP3 ADD SWAP1 POP SWAP3 SWAP2 POP POP JUMP JUMPDEST PUSH0 PUSH2 0x1F10 DUP3 PUSH2 0x1EEC JUMP JUMPDEST PUSH2 0x1F1A DUP2 DUP6 PUSH2 0x1EF6 JUMP JUMPDEST SWAP4 POP PUSH2 0x1F2A DUP2 DUP6 PUSH1 0x20 DUP7 ADD PUSH2 0x1898 JUMP JUMPDEST PUSH2 0x1F33 DUP2 PUSH2 0x18C0 JUMP JUMPDEST DUP5 ADD SWAP2 POP POP SWAP3 SWAP2 POP POP JUMP JUMPDEST PUSH0 PUSH1 0x80 DUP3 ADD SWAP1 POP PUSH2 0x1F51 PUSH0 DUP4 ADD DUP8 PUSH2 0x19B6 JUMP JUMPDEST PUSH2 0x1F5E PUSH1 0x20 DUP4 ADD DUP7 PUSH2 0x19B6 JUMP JUMPDEST PUSH2 0x1F6B PUSH1 0x40 DUP4 ADD DUP6 PUSH2 0x1AC1 JUMP JUMPDEST DUP2 DUP2 SUB PUSH1 0x60 DUP4 ADD MSTORE PUSH2 0x1F7D DUP2 DUP5 PUSH2 0x1F06 JUMP JUMPDEST SWAP1 POP SWAP6 SWAP5 POP POP POP POP POP JUMP JUMPDEST PUSH0 DUP2 MLOAD SWAP1 POP PUSH2 0x1F96 DUP2 PUSH2 0x17F6 JUMP JUMPDEST SWAP3 SWAP2 POP POP JUMP JUMPDEST PUSH0 PUSH1 0x20 DUP3 DUP5 SUB SLT ISZERO PUSH2 0x1FB1 JUMPI PUSH2 0x1FB0 PUSH2 0x17C3 JUMP JUMPDEST JUMPDEST PUSH0 PUSH2 0x1FBE DUP5 DUP3 DUP6 ADD PUSH2 0x1F88 JUMP JUMPDEST SWAP2 POP POP SWAP3 SWAP2 POP POP JUMP JUMPDEST PUSH32 0x4E487B7100000000000000000000000000000000000000000000000000000000 PUSH0 MSTORE PUSH1 0x12 PUSH1 0x4 MSTORE PUSH1 0x24 PUSH0 REVERT JUMPDEST PUSH0 PUSH1 0x40 DUP3 ADD SWAP1 POP PUSH2 0x2007 PUSH0 DUP4 ADD DUP6 PUSH2 0x19B6 JUMP JUMPDEST PUSH2 0x2014 PUSH1 0x20 DUP4 ADD DUP5 PUSH2 0x1AC1 JUMP JUMPDEST SWAP4 SWAP3 POP POP POP JUMP INVALID LOG2 PUSH5 0x6970667358 0x22 SLT KECCAK256 INVALID DUP15 SWAP10 0xCF PUSH1 0xB4 0x29 0xD1 0x24 CALLCODE 0xC7 DUP13 PUSH23 0x72765AF0E2AEA2806302DDFB36D29B8ACD4F9064736F6C PUSH4 0x43000814 STOP CALLER PUSH1 0x80 PUSH1 0x40 MSTORE PUSH0 PUSH1 0x6 PUSH1 0x10 PUSH2 0x100 EXP DUP2 SLOAD DUP2 PUSH1 0xFF MUL NOT AND SWAP1 DUP4 ISZERO ISZERO MUL OR SWAP1 SSTORE POP CALLVALUE DUP1 ISZERO PUSH3 0x2A JUMPI PUSH0 DUP1 REVERT JUMPDEST POP PUSH1 0x40 MLOAD PUSH3 0x28C3 CODESIZE SUB DUP1 PUSH3 0x28C3 DUP4 CODECOPY DUP2 DUP2 ADD PUSH1 0x40 MSTORE DUP2 ADD SWAP1 PUSH3 0x50 SWAP2 SWAP1 PUSH3 0x2B9 JUMP JUMPDEST DUP2 PUSH1 0x40 MLOAD DUP1 PUSH1 0x40 ADD PUSH1 0x40 MSTORE DUP1 PUSH1 0x7 DUP2 MSTORE PUSH1 0x20 ADD PUSH32 0x46414E5F4E465400000000000000000000000000000000000000000000000000 DUP2 MSTORE POP DUP2 PUSH0 SWAP1 DUP2 PUSH3 0x97 SWAP2 SWAP1 PUSH3 0x554 JUMP JUMPDEST POP DUP1 PUSH1 0x1 SWAP1 DUP2 PUSH3 0xA9 SWAP2 SWAP1 PUSH3 0x554 JUMP JUMPDEST POP POP POP DUP1 PUSH1 0x6 PUSH1 0x8 PUSH2 0x100 EXP DUP2 SLOAD DUP2 PUSH4 0xFFFFFFFF MUL NOT AND SWAP1 DUP4 PUSH4 0xFFFFFFFF AND MUL OR SWAP1 SSTORE POP DUP1 PUSH1 0x6 PUSH1 0xC PUSH2 0x100 EXP DUP2 SLOAD DUP2 PUSH4 0xFFFFFFFF MUL NOT AND SWAP1 DUP4 PUSH4 0xFFFFFFFF AND MUL OR SWAP1 SSTORE POP POP POP PUSH3 0x638 JUMP JUMPDEST PUSH0 PUSH1 0x40 MLOAD SWAP1 POP SWAP1 JUMP JUMPDEST PUSH0 DUP1 REVERT JUMPDEST PUSH0 DUP1 REVERT JUMPDEST PUSH0 DUP1 REVERT JUMPDEST PUSH0 DUP1 REVERT JUMPDEST PUSH0 PUSH1 0x1F NOT PUSH1 0x1F DUP4 ADD AND SWAP1 POP SWAP2 SWAP1 POP JUMP JUMPDEST PUSH32 0x4E487B7100000000000000000000000000000000000000000000000000000000 PUSH0 MSTORE PUSH1 0x41 PUSH1 0x4 MSTORE PUSH1 0x24 PUSH0 REVERT JUMPDEST PUSH3 0x157 DUP3 PUSH3 0x10F JUMP JUMPDEST DUP2 ADD DUP2 DUP2 LT PUSH8 0xFFFFFFFFFFFFFFFF DUP3 GT OR ISZERO PUSH3 0x179 JUMPI PUSH3 0x178 PUSH3 0x11F JUMP JUMPDEST JUMPDEST DUP1 PUSH1 0x40 MSTORE POP POP POP JUMP JUMPDEST PUSH0 PUSH3 0x18D PUSH3 0xF6 JUMP JUMPDEST SWAP1 POP PUSH3 0x19B DUP3 DUP3 PUSH3 0x14C JUMP JUMPDEST SWAP2 SWAP1 POP JUMP JUMPDEST PUSH0 PUSH8 0xFFFFFFFFFFFFFFFF DUP3 GT ISZERO PUSH3 0x1BD JUMPI PUSH3 0x1BC PUSH3 0x11F JUMP JUMPDEST JUMPDEST PUSH3 0x1C8 DUP3 PUSH3 0x10F JUMP JUMPDEST SWAP1 POP PUSH1 0x20 DUP2 ADD SWAP1 POP SWAP2 SWAP1 POP JUMP JUMPDEST PUSH0 JUMPDEST DUP4 DUP2 LT ISZERO PUSH3 0x1F4 JUMPI DUP1 DUP3 ADD MLOAD DUP2 DUP5 ADD MSTORE PUSH1 0x20 DUP2 ADD SWAP1 POP PUSH3 0x1D7 JUMP JUMPDEST PUSH0 DUP5 DUP5 ADD MSTORE POP POP POP POP JUMP JUMPDEST PUSH0 PUSH3 0x215 PUSH3 0x20F DUP5 PUSH3 0x1A0 JUMP JUMPDEST PUSH3 0x182 JUMP JUMPDEST SWAP1 POP DUP3 DUP2 MSTORE PUSH1 0x20 DUP2 ADD DUP5 DUP5 DUP5 ADD GT ISZERO PUSH3 0x234 JUMPI PUSH3 0x233 PUSH3 0x10B JUMP JUMPDEST JUMPDEST PUSH3 0x241 DUP5 DUP3 DUP6 PUSH3 0x1D5 JUMP JUMPDEST POP SWAP4 SWAP3 POP POP POP JUMP JUMPDEST PUSH0 DUP3 PUSH1 0x1F DUP4 ADD SLT PUSH3 0x260 JUMPI PUSH3 0x25F PUSH3 0x107 JUMP JUMPDEST JUMPDEST DUP2 MLOAD PUSH3 0x272 DUP5 DUP3 PUSH1 0x20 DUP7 ADD PUSH3 0x1FF JUMP JUMPDEST SWAP2 POP POP SWAP3 SWAP2 POP POP JUMP JUMPDEST PUSH0 PUSH4 0xFFFFFFFF DUP3 AND SWAP1 POP SWAP2 SWAP1 POP JUMP JUMPDEST PUSH3 0x295 DUP2 PUSH3 0x27B JUMP JUMPDEST DUP2 EQ PUSH3 0x2A0 JUMPI PUSH0 DUP1 REVERT JUMPDEST POP JUMP JUMPDEST PUSH0 DUP2 MLOAD SWAP1 POP PUSH3 0x2B3 DUP2 PUSH3 0x28A JUMP JUMPDEST SWAP3 SWAP2 POP POP JUMP JUMPDEST PUSH0 DUP1 PUSH1 0x40 DUP4 DUP6 SUB SLT ISZERO PUSH3 0x2D2 JUMPI PUSH3 0x2D1 PUSH3 0xFF JUMP JUMPDEST JUMPDEST PUSH0 DUP4 ADD MLOAD PUSH8 0xFFFFFFFFFFFFFFFF DUP2 GT ISZERO PUSH3 0x2F2 JUMPI PUSH3 0x2F1 PUSH3 0x103 JUMP JUMPDEST JUMPDEST PUSH3 0x300 DUP6 DUP3 DUP7 ADD PUSH3 0x249 JUMP JUMPDEST SWAP3 POP POP PUSH1 0x20 PUSH3 0x313 DUP6 DUP3 DUP7 ADD PUSH3 0x2A3 JUMP JUMPDEST SWAP2 POP POP SWAP3 POP SWAP3 SWAP1 POP JUMP JUMPDEST PUSH0 DUP2 MLOAD SWAP1 POP SWAP2 SWAP1 POP JUMP JUMPDEST PUSH32 0x4E487B7100000000000000000000000000000000000000000000000000000000 PUSH0 MSTORE PUSH1 0x22 PUSH1 0x4 MSTORE PUSH1 0x24 PUSH0 REVERT JUMPDEST PUSH0 PUSH1 0x2 DUP3 DIV SWAP1 POP PUSH1 0x1 DUP3 AND DUP1 PUSH3 0x36C JUMPI PUSH1 0x7F DUP3 AND SWAP2 POP JUMPDEST PUSH1 0x20 DUP3 LT DUP2 SUB PUSH3 0x382 JUMPI PUSH3 0x381 PUSH3 0x327 JUMP JUMPDEST JUMPDEST POP SWAP2 SWAP1 POP JUMP JUMPDEST PUSH0 DUP2 SWAP1 POP DUP2 PUSH0 MSTORE PUSH1 0x20 PUSH0 KECCAK256 SWAP1 POP SWAP2 SWAP1 POP JUMP JUMPDEST PUSH0 PUSH1 0x20 PUSH1 0x1F DUP4 ADD DIV SWAP1 POP SWAP2 SWAP1 POP JUMP JUMPDEST PUSH0 DUP3 DUP3 SHL SWAP1 POP SWAP3 SWAP2 POP POP JUMP JUMPDEST PUSH0 PUSH1 0x8 DUP4 MUL PUSH3 0x3E6 PUSH32 0xFFFFFFFFFFFFFFFFFFFFFFFFFFFFFFFFFFFFFFFFFFFFFFFFFFFFFFFFFFFFFFFF DUP3 PUSH3 0x3A9 JUMP JUMPDEST PUSH3 0x3F2 DUP7 DUP4 PUSH3 0x3A9 JUMP JUMPDEST SWAP6 POP DUP1 NOT DUP5 AND SWAP4 POP DUP1 DUP7 AND DUP5 OR SWAP3 POP POP POP SWAP4 SWAP3 POP POP POP JUMP JUMPDEST PUSH0 DUP2 SWAP1 POP SWAP2 SWAP1 POP JUMP JUMPDEST PUSH0 DUP2 SWAP1 POP SWAP2 SWAP1 POP JUMP JUMPDEST PUSH0 PUSH3 0x43C PUSH3 0x436 PUSH3 0x430 DUP5 PUSH3 0x40A JUMP JUMPDEST PUSH3 0x413 JUMP JUMPDEST PUSH3 0x40A JUMP JUMPDEST SWAP1 POP SWAP2 SWAP1 POP JUMP JUMPDEST PUSH0 DUP2 SWAP1 POP SWAP2 SWAP1 POP JUMP JUMPDEST PUSH3 0x457 DUP4 PUSH3 0x41C JUMP JUMPDEST PUSH3 0x46F PUSH3 0x466 DUP3 PUSH3 0x443 JUMP JUMPDEST DUP5 DUP5 SLOAD PUSH3 0x3B5 JUMP JUMPDEST DUP3 SSTORE POP POP POP POP JUMP JUMPDEST PUSH0 SWAP1 JUMP JUMPDEST PUSH3 0x485 PUSH3 0x477 JUMP JUMPDEST PUSH3 0x492 DUP2 DUP5 DUP5 PUSH3 0x44C JUMP JUMPDEST POP POP POP JUMP JUMPDEST JUMPDEST DUP2 DUP2 LT ISZERO PUSH3 0x4B9 JUMPI PUSH3 0x4AD PUSH0 DUP3 PUSH3 0x47B JUMP JUMPDEST PUSH1 0x1 DUP2 ADD SWAP1 POP PUSH3 0x498 JUMP JUMPDEST POP POP JUMP JUMPDEST PUSH1 0x1F DUP3 GT ISZERO PUSH3 0x508 JUMPI PUSH3 0x4D2 DUP2 PUSH3 0x388 JUMP JUMPDEST PUSH3 0x4DD DUP5 PUSH3 0x39A JUMP JUMPDEST DUP2 ADD PUSH1 0x20 DUP6 LT ISZERO PUSH3 0x4ED JUMPI DUP2 SWAP1 POP JUMPDEST PUSH3 0x505 PUSH3 0x4FC DUP6 PUSH3 0x39A JUMP JUMPDEST DUP4 ADD DUP3 PUSH3 0x497 JUMP JUMPDEST POP POP JUMPDEST POP POP POP JUMP JUMPDEST PUSH0 DUP3 DUP3 SHR SWAP1 POP SWAP3 SWAP2 POP POP JUMP JUMPDEST PUSH0 PUSH3 0x52A PUSH0 NOT DUP5 PUSH1 0x8 MUL PUSH3 0x50D JUMP JUMPDEST NOT DUP1 DUP4 AND SWAP2 POP POP SWAP3 SWAP2 POP POP JUMP JUMPDEST PUSH0 PUSH3 0x544 DUP4 DUP4 PUSH3 0x519 JUMP JUMPDEST SWAP2 POP DUP3 PUSH1 0x2 MUL DUP3 OR SWAP1 POP SWAP3 SWAP2 POP POP JUMP JUMPDEST PUSH3 0x55F DUP3 PUSH3 0x31D JUMP JUMPDEST PUSH8 0xFFFFFFFFFFFFFFFF DUP2 GT ISZERO PUSH3 0x57B JUMPI PUSH3 0x57A PUSH3 0x11F JUMP JUMPDEST JUMPDEST PUSH3 0x587 DUP3 SLOAD PUSH3 0x354 JUMP JUMPDEST PUSH3 0x594 DUP3 DUP3 DUP6 PUSH3 0x4BD JUMP JUMPDEST PUSH0 PUSH1 0x20 SWAP1 POP PUSH1 0x1F DUP4 GT PUSH1 0x1 DUP2 EQ PUSH3 0x5CA JUMPI PUSH0 DUP5 ISZERO PUSH3 0x5B5 JUMPI DUP3 DUP8 ADD MLOAD SWAP1 POP JUMPDEST PUSH3 0x5C1 DUP6 DUP3 PUSH3 0x537 JUMP JUMPDEST DUP7 SSTORE POP PUSH3 0x630 JUMP JUMPDEST PUSH1 0x1F NOT DUP5 AND PUSH3 0x5DA DUP7 PUSH3 0x388 JUMP JUMPDEST PUSH0 JUMPDEST DUP3 DUP2 LT ISZERO PUSH3 0x603 JUMPI DUP5 DUP10 ADD MLOAD DUP3 SSTORE PUSH1 0x1 DUP3 ADD SWAP2 POP PUSH1 0x20 DUP6 ADD SWAP5 POP PUSH1 0x20 DUP2 ADD SWAP1 POP PUSH3 0x5DC JUMP JUMPDEST DUP7 DUP4 LT ISZERO PUSH3 0x623 JUMPI DUP5 DUP10 ADD MLOAD PUSH3 0x61F PUSH1 0x1F DUP10 AND DUP3 PUSH3 0x519 JUMP JUMPDEST DUP4 SSTORE POP JUMPDEST PUSH1 0x1 PUSH1 0x2 DUP9 MUL ADD DUP9 SSTORE POP POP POP JUMPDEST POP POP POP POP POP POP JUMP JUMPDEST PUSH2 0x227D DUP1 PUSH3 0x646 PUSH0 CODECOPY PUSH0 RETURN INVALID PUSH1 0x80 PUSH1 0x40 MSTORE CALLVALUE DUP1 ISZERO PUSH2 0xF JUMPI PUSH0 DUP1 REVERT JUMPDEST POP PUSH1 0x4 CALLDATASIZE LT PUSH2 0x114 JUMPI PUSH0 CALLDATALOAD PUSH1 0xE0 SHR DUP1 PUSH4 0x42842E0E GT PUSH2 0xA0 JUMPI DUP1 PUSH4 0x95D89B41 GT PUSH2 0x6F JUMPI DUP1 PUSH4 0x95D89B41 EQ PUSH2 0x2CA JUMPI DUP1 PUSH4 0xA22CB465 EQ PUSH2 0x2E8 JUMPI DUP1 PUSH4 0xB88D4FDE EQ PUSH2 0x304 JUMPI DUP1 PUSH4 0xC87B56DD EQ PUSH2 0x320 JUMPI DUP1 PUSH4 0xE985E9C5 EQ PUSH2 0x350 JUMPI PUSH2 0x114 JUMP JUMPDEST DUP1 PUSH4 0x42842E0E EQ PUSH2 0x230 JUMPI DUP1 PUSH4 0x6352211E EQ PUSH2 0x24C JUMPI DUP1 PUSH4 0x70A08231 EQ PUSH2 0x27C JUMPI DUP1 PUSH4 0x8A333B50 EQ PUSH2 0x2AC JUMPI PUSH2 0x114 JUMP JUMPDEST DUP1 PUSH4 0x95EA7B3 GT PUSH2 0xE7 JUMPI DUP1 PUSH4 0x95EA7B3 EQ PUSH2 0x1B2 JUMPI DUP1 PUSH4 0x2004FFD9 EQ PUSH2 0x1CE JUMPI DUP1 PUSH4 0x23B872DD EQ PUSH2 0x1D8 JUMPI DUP1 PUSH4 0x24F92A25 EQ PUSH2 0x1F4 JUMPI DUP1 PUSH4 0x3940E9EE EQ PUSH2 0x212 JUMPI PUSH2 0x114 JUMP JUMPDEST DUP1 PUSH4 0x1173A74 EQ PUSH2 0x118 JUMPI DUP1 PUSH4 0x1FFC9A7 EQ PUSH2 0x134 JUMPI DUP1 PUSH4 0x6FDDE03 EQ PUSH2 0x164 JUMPI DUP1 PUSH4 0x81812FC EQ PUSH2 0x182 JUMPI JUMPDEST PUSH0 DUP1 REVERT JUMPDEST PUSH2 0x132 PUSH1 0x4 DUP1 CALLDATASIZE SUB DUP2 ADD SWAP1 PUSH2 0x12D SWAP2 SWAP1 PUSH2 0x18E3 JUMP JUMPDEST PUSH2 0x380 JUMP JUMPDEST STOP JUMPDEST PUSH2 0x14E PUSH1 0x4 DUP1 CALLDATASIZE SUB DUP2 ADD SWAP1 PUSH2 0x149 SWAP2 SWAP1 PUSH2 0x1963 JUMP JUMPDEST PUSH2 0x5A7 JUMP JUMPDEST PUSH1 0x40 MLOAD PUSH2 0x15B SWAP2 SWAP1 PUSH2 0x19A8 JUMP JUMPDEST PUSH1 0x40 MLOAD DUP1 SWAP2 SUB SWAP1 RETURN JUMPDEST PUSH2 0x16C PUSH2 0x688 JUMP JUMPDEST PUSH1 0x40 MLOAD PUSH2 0x179 SWAP2 SWAP1 PUSH2 0x1A4B JUMP JUMPDEST PUSH1 0x40 MLOAD DUP1 SWAP2 SUB SWAP1 RETURN JUMPDEST PUSH2 0x19C PUSH1 0x4 DUP1 CALLDATASIZE SUB DUP2 ADD SWAP1 PUSH2 0x197 SWAP2 SWAP1 PUSH2 0x1A9E JUMP JUMPDEST PUSH2 0x717 JUMP JUMPDEST PUSH1 0x40 MLOAD PUSH2 0x1A9 SWAP2 SWAP1 PUSH2 0x1AD8 JUMP JUMPDEST PUSH1 0x40 MLOAD DUP1 SWAP2 SUB SWAP1 RETURN JUMPDEST PUSH2 0x1CC PUSH1 0x4 DUP1 CALLDATASIZE SUB DUP2 ADD SWAP1 PUSH2 0x1C7 SWAP2 SWAP1 PUSH2 0x1AF1 JUMP JUMPDEST PUSH2 0x732 JUMP JUMPDEST STOP JUMPDEST PUSH2 0x1D6 PUSH2 0x748 JUMP JUMPDEST STOP JUMPDEST PUSH2 0x1F2 PUSH1 0x4 DUP1 CALLDATASIZE SUB DUP2 ADD SWAP1 PUSH2 0x1ED SWAP2 SWAP1 PUSH2 0x1B2F JUMP JUMPDEST PUSH2 0x753 JUMP JUMPDEST STOP JUMPDEST PUSH2 0x1FC PUSH2 0x852 JUMP JUMPDEST PUSH1 0x40 MLOAD PUSH2 0x209 SWAP2 SWAP1 PUSH2 0x1B9D JUMP JUMPDEST PUSH1 0x40 MLOAD DUP1 SWAP2 SUB SWAP1 RETURN JUMPDEST PUSH2 0x21A PUSH2 0x868 JUMP JUMPDEST PUSH1 0x40 MLOAD PUSH2 0x227 SWAP2 SWAP1 PUSH2 0x1B9D JUMP JUMPDEST PUSH1 0x40 MLOAD DUP1 SWAP2 SUB SWAP1 RETURN JUMPDEST PUSH2 0x24A PUSH1 0x4 DUP1 CALLDATASIZE SUB DUP2 ADD SWAP1 PUSH2 0x245 SWAP2 SWAP1 PUSH2 0x1B2F JUMP JUMPDEST PUSH2 0x87D JUMP JUMPDEST STOP JUMPDEST PUSH2 0x266 PUSH1 0x4 DUP1 CALLDATASIZE SUB DUP2 ADD SWAP1 PUSH2 0x261 SWAP2 SWAP1 PUSH2 0x1A9E JUMP JUMPDEST PUSH2 0x89C JUMP JUMPDEST PUSH1 0x40 MLOAD PUSH2 0x273 SWAP2 SWAP1 PUSH2 0x1AD8 JUMP JUMPDEST PUSH1 0x40 MLOAD DUP1 SWAP2 SUB SWAP1 RETURN JUMPDEST PUSH2 0x296 PUSH1 0x4 DUP1 CALLDATASIZE SUB DUP2 ADD SWAP1 PUSH2 0x291 SWAP2 SWAP1 PUSH2 0x18E3 JUMP JUMPDEST PUSH2 0x8AD JUMP JUMPDEST PUSH1 0x40 MLOAD PUSH2 0x2A3 SWAP2 SWAP1 PUSH2 0x1BC5 JUMP JUMPDEST PUSH1 0x40 MLOAD DUP1 SWAP2 SUB SWAP1 RETURN JUMPDEST PUSH2 0x2B4 PUSH2 0x963 JUMP JUMPDEST PUSH1 0x40 MLOAD PUSH2 0x2C1 SWAP2 SWAP1 PUSH2 0x1B9D JUMP JUMPDEST PUSH1 0x40 MLOAD DUP1 SWAP2 SUB SWAP1 RETURN JUMPDEST PUSH2 0x2D2 PUSH2 0x979 JUMP JUMPDEST PUSH1 0x40 MLOAD PUSH2 0x2DF SWAP2 SWAP1 PUSH2 0x1A4B JUMP JUMPDEST PUSH1 0x40 MLOAD DUP1 SWAP2 SUB SWAP1 RETURN JUMPDEST PUSH2 0x302 PUSH1 0x4 DUP1 CALLDATASIZE SUB DUP2 ADD SWAP1 PUSH2 0x2FD SWAP2 SWAP1 PUSH2 0x1C08 JUMP JUMPDEST PUSH2 0xA09 JUMP JUMPDEST STOP JUMPDEST PUSH2 0x31E PUSH1 0x4 DUP1 CALLDATASIZE SUB DUP2 ADD SWAP1 PUSH2 0x319 SWAP2 SWAP1 PUSH2 0x1D72 JUMP JUMPDEST PUSH2 0xA1F JUMP JUMPDEST STOP JUMPDEST PUSH2 0x33A PUSH1 0x4 DUP1 CALLDATASIZE SUB DUP2 ADD SWAP1 PUSH2 0x335 SWAP2 SWAP1 PUSH2 0x1A9E JUMP JUMPDEST PUSH2 0xA44 JUMP JUMPDEST PUSH1 0x40 MLOAD PUSH2 0x347 SWAP2 SWAP1 PUSH2 0x1A4B JUMP JUMPDEST PUSH1 0x40 MLOAD DUP1 SWAP2 SUB SWAP1 RETURN JUMPDEST PUSH2 0x36A PUSH1 0x4 DUP1 CALLDATASIZE SUB DUP2 ADD SWAP1 PUSH2 0x365 SWAP2 SWAP1 PUSH2 0x1DF2 JUMP JUMPDEST PUSH2 0xAAA JUMP JUMPDEST PUSH1 0x40 MLOAD PUSH2 0x377 SWAP2 SWAP1 PUSH2 0x19A8 JUMP JUMPDEST PUSH1 0x40 MLOAD DUP1 SWAP2 SUB SWAP1 RETURN JUMPDEST DUP1 PUSH1 0x6 PUSH1 0x10 SWAP1 SLOAD SWAP1 PUSH2 0x100 EXP SWAP1 DIV PUSH1 0xFF AND ISZERO PUSH2 0x3D1 JUMPI PUSH1 0x40 MLOAD PUSH32 0x8C379A000000000000000000000000000000000000000000000000000000000 DUP2 MSTORE PUSH1 0x4 ADD PUSH2 0x3C8 SWAP1 PUSH2 0x1EA0 JUMP JUMPDEST PUSH1 0x40 MLOAD DUP1 SWAP2 SUB SWAP1 REVERT JUMPDEST PUSH1 0x1 PUSH1 0x6 PUSH1 0x10 PUSH2 0x100 EXP DUP2 SLOAD DUP2 PUSH1 0xFF MUL NOT AND SWAP1 DUP4 ISZERO ISZERO MUL OR SWAP1 SSTORE POP PUSH0 PUSH1 0x6 PUSH1 0xC SWAP1 SLOAD SWAP1 PUSH2 0x100 EXP SWAP1 DIV PUSH4 0xFFFFFFFF AND PUSH4 0xFFFFFFFF AND GT PUSH2 0x446 JUMPI PUSH1 0x40 MLOAD PUSH32 0x8C379A000000000000000000000000000000000000000000000000000000000 DUP2 MSTORE PUSH1 0x4 ADD PUSH2 0x43D SWAP1 PUSH2 0x1F08 JUMP JUMPDEST PUSH1 0x40 MLOAD DUP1 SWAP2 SUB SWAP1 REVERT JUMPDEST PUSH0 DUP1 PUSH2 0x451 DUP4 PUSH2 0x8AD JUMP JUMPDEST GT PUSH2 0x45C JUMPI PUSH0 PUSH2 0x45F JUMP JUMPDEST PUSH1 0x1 JUMPDEST SWAP1 POP PUSH0 ISZERO ISZERO DUP2 ISZERO ISZERO EQ PUSH2 0x4A7 JUMPI PUSH1 0x40 MLOAD PUSH32 0x8C379A000000000000000000000000000000000000000000000000000000000 DUP2 MSTORE PUSH1 0x4 ADD PUSH2 0x49E SWAP1 PUSH2 0x1F70 JUMP JUMPDEST PUSH1 0x40 MLOAD DUP1 SWAP2 SUB SWAP1 REVERT JUMPDEST PUSH2 0x4C9 DUP4 PUSH1 0x6 PUSH1 0x4 SWAP1 SLOAD SWAP1 PUSH2 0x100 EXP SWAP1 DIV PUSH4 0xFFFFFFFF AND PUSH4 0xFFFFFFFF AND PUSH2 0xB38 JUMP JUMPDEST PUSH1 0x1 PUSH1 0x6 PUSH1 0x4 DUP3 DUP3 DUP3 SWAP1 SLOAD SWAP1 PUSH2 0x100 EXP SWAP1 DIV PUSH4 0xFFFFFFFF AND PUSH2 0x4EB SWAP2 SWAP1 PUSH2 0x1FBB JUMP JUMPDEST SWAP3 POP PUSH2 0x100 EXP DUP2 SLOAD DUP2 PUSH4 0xFFFFFFFF MUL NOT AND SWAP1 DUP4 PUSH4 0xFFFFFFFF AND MUL OR SWAP1 SSTORE POP PUSH1 0x1 PUSH1 0x6 PUSH1 0xC DUP3 DUP3 DUP3 SWAP1 SLOAD SWAP1 PUSH2 0x100 EXP SWAP1 DIV PUSH4 0xFFFFFFFF AND PUSH2 0x52B SWAP2 SWAP1 PUSH2 0x1FF2 JUMP JUMPDEST SWAP3 POP PUSH2 0x100 EXP DUP2 SLOAD DUP2 PUSH4 0xFFFFFFFF MUL NOT AND SWAP1 DUP4 PUSH4 0xFFFFFFFF AND MUL OR SWAP1 SSTORE POP PUSH1 0x1 PUSH1 0x6 PUSH0 DUP3 DUP3 DUP3 SWAP1 SLOAD SWAP1 PUSH2 0x100 EXP SWAP1 DIV PUSH4 0xFFFFFFFF AND PUSH2 0x56A SWAP2 SWAP1 PUSH2 0x1FBB JUMP JUMPDEST SWAP3 POP PUSH2 0x100 EXP DUP2 SLOAD DUP2 PUSH4 0xFFFFFFFF MUL NOT AND SWAP1 DUP4 PUSH4 0xFFFFFFFF AND MUL OR SWAP1 SSTORE POP PUSH0 PUSH1 0x6 PUSH1 0x10 PUSH2 0x100 EXP DUP2 SLOAD DUP2 PUSH1 0xFF MUL NOT AND SWAP1 DUP4 ISZERO ISZERO MUL OR SWAP1 SSTORE POP POP POP POP JUMP JUMPDEST PUSH0 PUSH32 0x80AC58CD00000000000000000000000000000000000000000000000000000000 PUSH28 0xFFFFFFFFFFFFFFFFFFFFFFFFFFFFFFFFFFFFFFFFFFFFFFFFFFFFFFFF NOT AND DUP3 PUSH28 0xFFFFFFFFFFFFFFFFFFFFFFFFFFFFFFFFFFFFFFFFFFFFFFFFFFFFFFFF NOT AND EQ DUP1 PUSH2 0x671 JUMPI POP PUSH32 0x5B5E139F00000000000000000000000000000000000000000000000000000000 PUSH28 0xFFFFFFFFFFFFFFFFFFFFFFFFFFFFFFFFFFFFFFFFFFFFFFFFFFFFFFFF NOT AND DUP3 PUSH28 0xFFFFFFFFFFFFFFFFFFFFFFFFFFFFFFFFFFFFFFFFFFFFFFFFFFFFFFFF NOT AND EQ JUMPDEST DUP1 PUSH2 0x681 JUMPI POP PUSH2 0x680 DUP3 PUSH2 0xB55 JUMP JUMPDEST JUMPDEST SWAP1 POP SWAP2 SWAP1 POP JUMP JUMPDEST PUSH1 0x60 PUSH0 DUP1 SLOAD PUSH2 0x696 SWAP1 PUSH2 0x2056 JUMP JUMPDEST DUP1 PUSH1 0x1F ADD PUSH1 0x20 DUP1 SWAP2 DIV MUL PUSH1 0x20 ADD PUSH1 0x40 MLOAD SWAP1 DUP2 ADD PUSH1 0x40 MSTORE DUP1 SWAP3 SWAP2 SWAP1 DUP2 DUP2 MSTORE PUSH1 0x20 ADD DUP3 DUP1 SLOAD PUSH2 0x6C2 SWAP1 PUSH2 0x2056 JUMP JUMPDEST DUP1 ISZERO PUSH2 0x70D JUMPI DUP1 PUSH1 0x1F LT PUSH2 0x6E4 JUMPI PUSH2 0x100 DUP1 DUP4 SLOAD DIV MUL DUP4 MSTORE SWAP2 PUSH1 0x20 ADD SWAP2 PUSH2 0x70D JUMP JUMPDEST DUP3 ADD SWAP2 SWAP1 PUSH0 MSTORE PUSH1 0x20 PUSH0 KECCAK256 SWAP1 JUMPDEST DUP2 SLOAD DUP2 MSTORE SWAP1 PUSH1 0x1 ADD SWAP1 PUSH1 0x20 ADD DUP1 DUP4 GT PUSH2 0x6F0 JUMPI DUP3 SWAP1 SUB PUSH1 0x1F AND DUP3 ADD SWAP2 JUMPDEST POP POP POP POP POP SWAP1 POP SWAP1 JUMP JUMPDEST PUSH0 PUSH2 0x721 DUP3 PUSH2 0xBBE JUMP JUMPDEST POP PUSH2 0x72B DUP3 PUSH2 0xC44 JUMP JUMPDEST SWAP1 POP SWAP2 SWAP1 POP JUMP JUMPDEST PUSH2 0x744 DUP3 DUP3 PUSH2 0x73F PUSH2 0xC7D JUMP JUMPDEST PUSH2 0xC84 JUMP JUMPDEST POP POP JUMP JUMPDEST PUSH2 0x751 CALLER PUSH2 0x380 JUMP JUMPDEST JUMP JUMPDEST PUSH0 PUSH20 0xFFFFFFFFFFFFFFFFFFFFFFFFFFFFFFFFFFFFFFFF AND DUP3 PUSH20 0xFFFFFFFFFFFFFFFFFFFFFFFFFFFFFFFFFFFFFFFF AND SUB PUSH2 0x7C3 JUMPI PUSH0 PUSH1 0x40 MLOAD PUSH32 0x64A0AE9200000000000000000000000000000000000000000000000000000000 DUP2 MSTORE PUSH1 0x4 ADD PUSH2 0x7BA SWAP2 SWAP1 PUSH2 0x1AD8 JUMP JUMPDEST PUSH1 0x40 MLOAD DUP1 SWAP2 SUB SWAP1 REVERT JUMPDEST PUSH0 PUSH2 0x7D6 DUP4 DUP4 PUSH2 0x7D1 PUSH2 0xC7D JUMP JUMPDEST PUSH2 0xC96 JUMP JUMPDEST SWAP1 POP DUP4 PUSH20 0xFFFFFFFFFFFFFFFFFFFFFFFFFFFFFFFFFFFFFFFF AND DUP2 PUSH20 0xFFFFFFFFFFFFFFFFFFFFFFFFFFFFFFFFFFFFFFFF AND EQ PUSH2 0x84C JUMPI DUP4 DUP3 DUP3 PUSH1 0x40 MLOAD PUSH32 0x64283D7B00000000000000000000000000000000000000000000000000000000 DUP2 MSTORE PUSH1 0x4 ADD PUSH2 0x843 SWAP4 SWAP3 SWAP2 SWAP1 PUSH2 0x2086 JUMP JUMPDEST PUSH1 0x40 MLOAD DUP1 SWAP2 SUB SWAP1 REVERT JUMPDEST POP POP POP POP JUMP JUMPDEST PUSH1 0x6 PUSH1 0xC SWAP1 SLOAD SWAP1 PUSH2 0x100 EXP SWAP1 DIV PUSH4 0xFFFFFFFF AND DUP2 JUMP JUMPDEST PUSH1 0x6 PUSH0 SWAP1 SLOAD SWAP1 PUSH2 0x100 EXP SWAP1 DIV PUSH4 0xFFFFFFFF AND DUP2 JUMP JUMPDEST PUSH2 0x897 DUP4 DUP4 DUP4 PUSH1 0x40 MLOAD DUP1 PUSH1 0x20 ADD PUSH1 0x40 MSTORE DUP1 PUSH0 DUP2 MSTORE POP PUSH2 0xA1F JUMP JUMPDEST POP POP POP JUMP JUMPDEST PUSH0 PUSH2 0x8A6 DUP3 PUSH2 0xBBE JUMP JUMPDEST SWAP1 POP SWAP2 SWAP1 POP JUMP JUMPDEST PUSH0 DUP1 PUSH20 0xFFFFFFFFFFFFFFFFFFFFFFFFFFFFFFFFFFFFFFFF AND DUP3 PUSH20 0xFFFFFFFFFFFFFFFFFFFFFFFFFFFFFFFFFFFFFFFF AND SUB PUSH2 0x91E JUMPI PUSH0 PUSH1 0x40 MLOAD PUSH32 0x89C62B6400000000000000000000000000000000000000000000000000000000 DUP2 MSTORE PUSH1 0x4 ADD PUSH2 0x915 SWAP2 SWAP1 PUSH2 0x1AD8 JUMP JUMPDEST PUSH1 0x40 MLOAD DUP1 SWAP2 SUB SWAP1 REVERT JUMPDEST PUSH1 0x3 PUSH0 DUP4 PUSH20 0xFFFFFFFFFFFFFFFFFFFFFFFFFFFFFFFFFFFFFFFF AND PUSH20 0xFFFFFFFFFFFFFFFFFFFFFFFFFFFFFFFFFFFFFFFF AND DUP2 MSTORE PUSH1 0x20 ADD SWAP1 DUP2 MSTORE PUSH1 0x20 ADD PUSH0 KECCAK256 SLOAD SWAP1 POP SWAP2 SWAP1 POP JUMP JUMPDEST PUSH1 0x6 PUSH1 0x8 SWAP1 SLOAD SWAP1 PUSH2 0x100 EXP SWAP1 DIV PUSH4 0xFFFFFFFF AND DUP2 JUMP JUMPDEST PUSH1 0x60 PUSH1 0x1 DUP1 SLOAD PUSH2 0x988 SWAP1 PUSH2 0x2056 JUMP JUMPDEST DUP1 PUSH1 0x1F ADD PUSH1 0x20 DUP1 SWAP2 DIV MUL PUSH1 0x20 ADD PUSH1 0x40 MLOAD SWAP1 DUP2 ADD PUSH1 0x40 MSTORE DUP1 SWAP3 SWAP2 SWAP1 DUP2 DUP2 MSTORE PUSH1 0x20 ADD DUP3 DUP1 SLOAD PUSH2 0x9B4 SWAP1 PUSH2 0x2056 JUMP JUMPDEST DUP1 ISZERO PUSH2 0x9FF JUMPI DUP1 PUSH1 0x1F LT PUSH2 0x9D6 JUMPI PUSH2 0x100 DUP1 DUP4 SLOAD DIV MUL DUP4 MSTORE SWAP2 PUSH1 0x20 ADD SWAP2 PUSH2 0x9FF JUMP JUMPDEST DUP3 ADD SWAP2 SWAP1 PUSH0 MSTORE PUSH1 0x20 PUSH0 KECCAK256 SWAP1 JUMPDEST DUP2 SLOAD DUP2 MSTORE SWAP1 PUSH1 0x1 ADD SWAP1 PUSH1 0x20 ADD DUP1 DUP4 GT PUSH2 0x9E2 JUMPI DUP3 SWAP1 SUB PUSH1 0x1F AND DUP3 ADD SWAP2 JUMPDEST POP POP POP POP POP SWAP1 POP SWAP1 JUMP JUMPDEST PUSH2 0xA1B PUSH2 0xA14 PUSH2 0xC7D JUMP JUMPDEST DUP4 DUP4 PUSH2 0xEA1 JUMP JUMPDEST POP POP JUMP JUMPDEST PUSH2 0xA2A DUP5 DUP5 DUP5 PUSH2 0x753 JUMP JUMPDEST PUSH2 0xA3E PUSH2 0xA35 PUSH2 0xC7D JUMP JUMPDEST DUP6 DUP6 DUP6 DUP6 PUSH2 0x100A JUMP JUMPDEST POP POP POP POP JUMP JUMPDEST PUSH1 0x60 PUSH2 0xA4F DUP3 PUSH2 0xBBE JUMP JUMPDEST POP PUSH0 PUSH2 0xA59 PUSH2 0x11B6 JUMP JUMPDEST SWAP1 POP PUSH0 DUP2 MLOAD GT PUSH2 0xA77 JUMPI PUSH1 0x40 MLOAD DUP1 PUSH1 0x20 ADD PUSH1 0x40 MSTORE DUP1 PUSH0 DUP2 MSTORE POP PUSH2 0xAA2 JUMP JUMPDEST DUP1 PUSH2 0xA81 DUP5 PUSH2 0x11CC JUMP JUMPDEST PUSH1 0x40 MLOAD PUSH1 0x20 ADD PUSH2 0xA92 SWAP3 SWAP2 SWAP1 PUSH2 0x20F5 JUMP JUMPDEST PUSH1 0x40 MLOAD PUSH1 0x20 DUP2 DUP4 SUB SUB DUP2 MSTORE SWAP1 PUSH1 0x40 MSTORE JUMPDEST SWAP2 POP POP SWAP2 SWAP1 POP JUMP JUMPDEST PUSH0 PUSH1 0x5 PUSH0 DUP5 PUSH20 0xFFFFFFFFFFFFFFFFFFFFFFFFFFFFFFFFFFFFFFFF AND PUSH20 0xFFFFFFFFFFFFFFFFFFFFFFFFFFFFFFFFFFFFFFFF AND DUP2 MSTORE PUSH1 0x20 ADD SWAP1 DUP2 MSTORE PUSH1 0x20 ADD PUSH0 KECCAK256 PUSH0 DUP4 PUSH20 0xFFFFFFFFFFFFFFFFFFFFFFFFFFFFFFFFFFFFFFFF AND PUSH20 0xFFFFFFFFFFFFFFFFFFFFFFFFFFFFFFFFFFFFFFFF AND DUP2 MSTORE PUSH1 0x20 ADD SWAP1 DUP2 MSTORE PUSH1 0x20 ADD PUSH0 KECCAK256 PUSH0 SWAP1 SLOAD SWAP1 PUSH2 0x100 EXP SWAP1 DIV PUSH1 0xFF AND SWAP1 POP SWAP3 SWAP2 POP POP JUMP JUMPDEST PUSH2 0xB51 DUP3 DUP3 PUSH1 0x40 MLOAD DUP1 PUSH1 0x20 ADD PUSH1 0x40 MSTORE DUP1 PUSH0 DUP2 MSTORE POP PUSH2 0x1296 JUMP JUMPDEST POP POP JUMP JUMPDEST PUSH0 PUSH32 0x1FFC9A700000000000000000000000000000000000000000000000000000000 PUSH28 0xFFFFFFFFFFFFFFFFFFFFFFFFFFFFFFFFFFFFFFFFFFFFFFFFFFFFFFFF NOT AND DUP3 PUSH28 0xFFFFFFFFFFFFFFFFFFFFFFFFFFFFFFFFFFFFFFFFFFFFFFFFFFFFFFFF NOT AND EQ SWAP1 POP SWAP2 SWAP1 POP JUMP JUMPDEST PUSH0 DUP1 PUSH2 0xBC9 DUP4 PUSH2 0x12B9 JUMP JUMPDEST SWAP1 POP PUSH0 PUSH20 0xFFFFFFFFFFFFFFFFFFFFFFFFFFFFFFFFFFFFFFFF AND DUP2 PUSH20 0xFFFFFFFFFFFFFFFFFFFFFFFFFFFFFFFFFFFFFFFF AND SUB PUSH2 0xC3B JUMPI DUP3 PUSH1 0x40 MLOAD PUSH32 0x7E27328900000000000000000000000000000000000000000000000000000000 DUP2 MSTORE PUSH1 0x4 ADD PUSH2 0xC32 SWAP2 SWAP1 PUSH2 0x1BC5 JUMP JUMPDEST PUSH1 0x40 MLOAD DUP1 SWAP2 SUB SWAP1 REVERT JUMPDEST DUP1 SWAP2 POP POP SWAP2 SWAP1 POP JUMP JUMPDEST PUSH0 PUSH1 0x4 PUSH0 DUP4 DUP2 MSTORE PUSH1 0x20 ADD SWAP1 DUP2 MSTORE PUSH1 0x20 ADD PUSH0 KECCAK256 PUSH0 SWAP1 SLOAD SWAP1 PUSH2 0x100 EXP SWAP1 DIV PUSH20 0xFFFFFFFFFFFFFFFFFFFFFFFFFFFFFFFFFFFFFFFF AND SWAP1 POP SWAP2 SWAP1 POP JUMP JUMPDEST PUSH0 CALLER SWAP1 POP SWAP1 JUMP JUMPDEST PUSH2 0xC91 DUP4 DUP4 DUP4 PUSH1 0x1 PUSH2 0x12F2 JUMP JUMPDEST POP POP POP JUMP JUMPDEST PUSH0 DUP1 PUSH2 0xCA1 DUP5 PUSH2 0x12B9 JUMP JUMPDEST SWAP1 POP PUSH0 PUSH20 0xFFFFFFFFFFFFFFFFFFFFFFFFFFFFFFFFFFFFFFFF AND DUP4 PUSH20 0xFFFFFFFFFFFFFFFFFFFFFFFFFFFFFFFFFFFFFFFF AND EQ PUSH2 0xCE2 JUMPI PUSH2 0xCE1 DUP2 DUP5 DUP7 PUSH2 0x14B1 JUMP JUMPDEST JUMPDEST PUSH0 PUSH20 0xFFFFFFFFFFFFFFFFFFFFFFFFFFFFFFFFFFFFFFFF AND DUP2 PUSH20 0xFFFFFFFFFFFFFFFFFFFFFFFFFFFFFFFFFFFFFFFF AND EQ PUSH2 0xD6D JUMPI PUSH2 0xD21 PUSH0 DUP6 PUSH0 DUP1 PUSH2 0x12F2 JUMP JUMPDEST PUSH1 0x1 PUSH1 0x3 PUSH0 DUP4 PUSH20 0xFFFFFFFFFFFFFFFFFFFFFFFFFFFFFFFFFFFFFFFF AND PUSH20 0xFFFFFFFFFFFFFFFFFFFFFFFFFFFFFFFFFFFFFFFF AND DUP2 MSTORE PUSH1 0x20 ADD SWAP1 DUP2 MSTORE PUSH1 0x20 ADD PUSH0 KECCAK256 PUSH0 DUP3 DUP3 SLOAD SUB SWAP3 POP POP DUP2 SWAP1 SSTORE POP JUMPDEST PUSH0 PUSH20 0xFFFFFFFFFFFFFFFFFFFFFFFFFFFFFFFFFFFFFFFF AND DUP6 PUSH20 0xFFFFFFFFFFFFFFFFFFFFFFFFFFFFFFFFFFFFFFFF AND EQ PUSH2 0xDEC JUMPI PUSH1 0x1 PUSH1 0x3 PUSH0 DUP8 PUSH20 0xFFFFFFFFFFFFFFFFFFFFFFFFFFFFFFFFFFFFFFFF AND PUSH20 0xFFFFFFFFFFFFFFFFFFFFFFFFFFFFFFFFFFFFFFFF AND DUP2 MSTORE PUSH1 0x20 ADD SWAP1 DUP2 MSTORE PUSH1 0x20 ADD PUSH0 KECCAK256 PUSH0 DUP3 DUP3 SLOAD ADD SWAP3 POP POP DUP2 SWAP1 SSTORE POP JUMPDEST DUP5 PUSH1 0x2 PUSH0 DUP7 DUP2 MSTORE PUSH1 0x20 ADD SWAP1 DUP2 MSTORE PUSH1 0x20 ADD PUSH0 KECCAK256 PUSH0 PUSH2 0x100 EXP DUP2 SLOAD DUP2 PUSH20 0xFFFFFFFFFFFFFFFFFFFFFFFFFFFFFFFFFFFFFFFF MUL NOT AND SWAP1 DUP4 PUSH20 0xFFFFFFFFFFFFFFFFFFFFFFFFFFFFFFFFFFFFFFFF AND MUL OR SWAP1 SSTORE POP DUP4 DUP6 PUSH20 0xFFFFFFFFFFFFFFFFFFFFFFFFFFFFFFFFFFFFFFFF AND DUP3 PUSH20 0xFFFFFFFFFFFFFFFFFFFFFFFFFFFFFFFFFFFFFFFF AND PUSH32 0xDDF252AD1BE2C89B69C2B068FC378DAA952BA7F163C4A11628F55A4DF523B3EF PUSH1 0x40 MLOAD PUSH1 0x40 MLOAD DUP1 SWAP2 SUB SWAP1 LOG4 DUP1 SWAP2 POP POP SWAP4 SWAP3 POP POP POP JUMP JUMPDEST PUSH0 PUSH20 0xFFFFFFFFFFFFFFFFFFFFFFFFFFFFFFFFFFFFFFFF AND DUP3 PUSH20 0xFFFFFFFFFFFFFFFFFFFFFFFFFFFFFFFFFFFFFFFF AND SUB PUSH2 0xF11 JUMPI DUP2 PUSH1 0x40 MLOAD PUSH32 0x5B08BA1800000000000000000000000000000000000000000000000000000000 DUP2 MSTORE PUSH1 0x4 ADD PUSH2 0xF08 SWAP2 SWAP1 PUSH2 0x1AD8 JUMP JUMPDEST PUSH1 0x40 MLOAD DUP1 SWAP2 SUB SWAP1 REVERT JUMPDEST DUP1 PUSH1 0x5 PUSH0 DUP6 PUSH20 0xFFFFFFFFFFFFFFFFFFFFFFFFFFFFFFFFFFFFFFFF AND PUSH20 0xFFFFFFFFFFFFFFFFFFFFFFFFFFFFFFFFFFFFFFFF AND DUP2 MSTORE PUSH1 0x20 ADD SWAP1 DUP2 MSTORE PUSH1 0x20 ADD PUSH0 KECCAK256 PUSH0 DUP5 PUSH20 0xFFFFFFFFFFFFFFFFFFFFFFFFFFFFFFFFFFFFFFFF AND PUSH20 0xFFFFFFFFFFFFFFFFFFFFFFFFFFFFFFFFFFFFFFFF AND DUP2 MSTORE PUSH1 0x20 ADD SWAP1 DUP2 MSTORE PUSH1 0x20 ADD PUSH0 KECCAK256 PUSH0 PUSH2 0x100 EXP DUP2 SLOAD DUP2 PUSH1 0xFF MUL NOT AND SWAP1 DUP4 ISZERO ISZERO MUL OR SWAP1 SSTORE POP DUP2 PUSH20 0xFFFFFFFFFFFFFFFFFFFFFFFFFFFFFFFFFFFFFFFF AND DUP4 PUSH20 0xFFFFFFFFFFFFFFFFFFFFFFFFFFFFFFFFFFFFFFFF AND PUSH32 0x17307EAB39AB6107E8899845AD3D59BD9653F200F220920489CA2B5937696C31 DUP4 PUSH1 0x40 MLOAD PUSH2 0xFFD SWAP2 SWAP1 PUSH2 0x19A8 JUMP JUMPDEST PUSH1 0x40 MLOAD DUP1 SWAP2 SUB SWAP1 LOG3 POP POP POP JUMP JUMPDEST PUSH0 DUP4 PUSH20 0xFFFFFFFFFFFFFFFFFFFFFFFFFFFFFFFFFFFFFFFF AND EXTCODESIZE GT ISZERO PUSH2 0x11AF JUMPI DUP3 PUSH20 0xFFFFFFFFFFFFFFFFFFFFFFFFFFFFFFFFFFFFFFFF AND PUSH4 0x150B7A02 DUP7 DUP7 DUP6 DUP6 PUSH1 0x40 MLOAD DUP6 PUSH4 0xFFFFFFFF AND PUSH1 0xE0 SHL DUP2 MSTORE PUSH1 0x4 ADD PUSH2 0x1068 SWAP5 SWAP4 SWAP3 SWAP2 SWAP1 PUSH2 0x216A JUMP JUMPDEST PUSH1 0x20 PUSH1 0x40 MLOAD DUP1 DUP4 SUB DUP2 PUSH0 DUP8 GAS CALL SWAP3 POP POP POP DUP1 ISZERO PUSH2 0x10A3 JUMPI POP PUSH1 0x40 MLOAD RETURNDATASIZE PUSH1 0x1F NOT PUSH1 0x1F DUP3 ADD AND DUP3 ADD DUP1 PUSH1 0x40 MSTORE POP DUP2 ADD SWAP1 PUSH2 0x10A0 SWAP2 SWAP1 PUSH2 0x21C8 JUMP JUMPDEST PUSH1 0x1 JUMPDEST PUSH2 0x1124 JUMPI RETURNDATASIZE DUP1 PUSH0 DUP2 EQ PUSH2 0x10D1 JUMPI PUSH1 0x40 MLOAD SWAP2 POP PUSH1 0x1F NOT PUSH1 0x3F RETURNDATASIZE ADD AND DUP3 ADD PUSH1 0x40 MSTORE RETURNDATASIZE DUP3 MSTORE RETURNDATASIZE PUSH0 PUSH1 0x20 DUP5 ADD RETURNDATACOPY PUSH2 0x10D6 JUMP JUMPDEST PUSH1 0x60 SWAP2 POP JUMPDEST POP PUSH0 DUP2 MLOAD SUB PUSH2 0x111C JUMPI DUP4 PUSH1 0x40 MLOAD PUSH32 0x64A0AE9200000000000000000000000000000000000000000000000000000000 DUP2 MSTORE PUSH1 0x4 ADD PUSH2 0x1113 SWAP2 SWAP1 PUSH2 0x1AD8 JUMP JUMPDEST PUSH1 0x40 MLOAD DUP1 SWAP2 SUB SWAP1 REVERT JUMPDEST DUP1 MLOAD DUP2 PUSH1 0x20 ADD REVERT JUMPDEST PUSH4 0x150B7A02 PUSH1 0xE0 SHL PUSH28 0xFFFFFFFFFFFFFFFFFFFFFFFFFFFFFFFFFFFFFFFFFFFFFFFFFFFFFFFF NOT AND DUP2 PUSH28 0xFFFFFFFFFFFFFFFFFFFFFFFFFFFFFFFFFFFFFFFFFFFFFFFFFFFFFFFF NOT AND EQ PUSH2 0x11AD JUMPI DUP4 PUSH1 0x40 MLOAD PUSH32 0x64A0AE9200000000000000000000000000000000000000000000000000000000 DUP2 MSTORE PUSH1 0x4 ADD PUSH2 0x11A4 SWAP2 SWAP1 PUSH2 0x1AD8 JUMP JUMPDEST PUSH1 0x40 MLOAD DUP1 SWAP2 SUB SWAP1 REVERT JUMPDEST POP JUMPDEST POP POP POP POP POP JUMP JUMPDEST PUSH1 0x60 PUSH1 0x40 MLOAD DUP1 PUSH1 0x20 ADD PUSH1 0x40 MSTORE DUP1 PUSH0 DUP2 MSTORE POP SWAP1 POP SWAP1 JUMP JUMPDEST PUSH1 0x60 PUSH0 PUSH1 0x1 PUSH2 0x11DA DUP5 PUSH2 0x1574 JUMP JUMPDEST ADD SWAP1 POP PUSH0 DUP2 PUSH8 0xFFFFFFFFFFFFFFFF DUP2 GT ISZERO PUSH2 0x11F8 JUMPI PUSH2 0x11F7 PUSH2 0x1C4E JUMP JUMPDEST JUMPDEST PUSH1 0x40 MLOAD SWAP1 DUP1 DUP3 MSTORE DUP1 PUSH1 0x1F ADD PUSH1 0x1F NOT AND PUSH1 0x20 ADD DUP3 ADD PUSH1 0x40 MSTORE DUP1 ISZERO PUSH2 0x122A JUMPI DUP2 PUSH1 0x20 ADD PUSH1 0x1 DUP3 MUL DUP1 CALLDATASIZE DUP4 CALLDATACOPY DUP1 DUP3 ADD SWAP2 POP POP SWAP1 POP JUMPDEST POP SWAP1 POP PUSH0 DUP3 PUSH1 0x20 ADD DUP3 ADD SWAP1 POP JUMPDEST PUSH1 0x1 ISZERO PUSH2 0x128B JUMPI DUP1 DUP1 PUSH1 0x1 SWAP1 SUB SWAP2 POP POP PUSH32 0x3031323334353637383961626364656600000000000000000000000000000000 PUSH1 0xA DUP7 MOD BYTE DUP2 MSTORE8 PUSH1 0xA DUP6 DUP2 PUSH2 0x1280 JUMPI PUSH2 0x127F PUSH2 0x21F3 JUMP JUMPDEST JUMPDEST DIV SWAP5 POP PUSH0 DUP6 SUB PUSH2 0x1237 JUMPI JUMPDEST DUP2 SWAP4 POP POP POP POP SWAP2 SWAP1 POP JUMP JUMPDEST PUSH2 0x12A0 DUP4 DUP4 PUSH2 0x16C5 JUMP JUMPDEST PUSH2 0x12B4 PUSH2 0x12AB PUSH2 0xC7D JUMP JUMPDEST PUSH0 DUP6 DUP6 DUP6 PUSH2 0x100A JUMP JUMPDEST POP POP POP JUMP JUMPDEST PUSH0 PUSH1 0x2 PUSH0 DUP4 DUP2 MSTORE PUSH1 0x20 ADD SWAP1 DUP2 MSTORE PUSH1 0x20 ADD PUSH0 KECCAK256 PUSH0 SWAP1 SLOAD SWAP1 PUSH2 0x100 EXP SWAP1 DIV PUSH20 0xFFFFFFFFFFFFFFFFFFFFFFFFFFFFFFFFFFFFFFFF AND SWAP1 POP SWAP2 SWAP1 POP JUMP JUMPDEST DUP1 DUP1 PUSH2 0x132A JUMPI POP PUSH0 PUSH20 0xFFFFFFFFFFFFFFFFFFFFFFFFFFFFFFFFFFFFFFFF AND DUP3 PUSH20 0xFFFFFFFFFFFFFFFFFFFFFFFFFFFFFFFFFFFFFFFF AND EQ ISZERO JUMPDEST ISZERO PUSH2 0x145C JUMPI PUSH0 PUSH2 0x1339 DUP5 PUSH2 0xBBE JUMP JUMPDEST SWAP1 POP PUSH0 PUSH20 0xFFFFFFFFFFFFFFFFFFFFFFFFFFFFFFFFFFFFFFFF AND DUP4 PUSH20 0xFFFFFFFFFFFFFFFFFFFFFFFFFFFFFFFFFFFFFFFF AND EQ ISZERO DUP1 ISZERO PUSH2 0x13A3 JUMPI POP DUP3 PUSH20 0xFFFFFFFFFFFFFFFFFFFFFFFFFFFFFFFFFFFFFFFF AND DUP2 PUSH20 0xFFFFFFFFFFFFFFFFFFFFFFFFFFFFFFFFFFFFFFFF AND EQ ISZERO JUMPDEST DUP1 ISZERO PUSH2 0x13B6 JUMPI POP PUSH2 0x13B4 DUP2 DUP5 PUSH2 0xAAA JUMP JUMPDEST ISZERO JUMPDEST ISZERO PUSH2 0x13F8 JUMPI DUP3 PUSH1 0x40 MLOAD PUSH32 0xA9FBF51F00000000000000000000000000000000000000000000000000000000 DUP2 MSTORE PUSH1 0x4 ADD PUSH2 0x13EF SWAP2 SWAP1 PUSH2 0x1AD8 JUMP JUMPDEST PUSH1 0x40 MLOAD DUP1 SWAP2 SUB SWAP1 REVERT JUMPDEST DUP2 ISZERO PUSH2 0x145A JUMPI DUP4 DUP6 PUSH20 0xFFFFFFFFFFFFFFFFFFFFFFFFFFFFFFFFFFFFFFFF AND DUP3 PUSH20 0xFFFFFFFFFFFFFFFFFFFFFFFFFFFFFFFFFFFFFFFF AND PUSH32 0x8C5BE1E5EBEC7D5BD14F71427D1E84F3DD0314C0F7B2291E5B200AC8C7C3B925 PUSH1 0x40 MLOAD PUSH1 0x40 MLOAD DUP1 SWAP2 SUB SWAP1 LOG4 JUMPDEST POP JUMPDEST DUP4 PUSH1 0x4 PUSH0 DUP6 DUP2 MSTORE PUSH1 0x20 ADD SWAP1 DUP2 MSTORE PUSH1 0x20 ADD PUSH0 KECCAK256 PUSH0 PUSH2 0x100 EXP DUP2 SLOAD DUP2 PUSH20 0xFFFFFFFFFFFFFFFFFFFFFFFFFFFFFFFFFFFFFFFF MUL NOT AND SWAP1 DUP4 PUSH20 0xFFFFFFFFFFFFFFFFFFFFFFFFFFFFFFFFFFFFFFFF AND MUL OR SWAP1 SSTORE POP POP POP POP POP JUMP JUMPDEST PUSH2 0x14BC DUP4 DUP4 DUP4 PUSH2 0x17B8 JUMP JUMPDEST PUSH2 0x156F JUMPI PUSH0 PUSH20 0xFFFFFFFFFFFFFFFFFFFFFFFFFFFFFFFFFFFFFFFF AND DUP4 PUSH20 0xFFFFFFFFFFFFFFFFFFFFFFFFFFFFFFFFFFFFFFFF AND SUB PUSH2 0x1530 JUMPI DUP1 PUSH1 0x40 MLOAD PUSH32 0x7E27328900000000000000000000000000000000000000000000000000000000 DUP2 MSTORE PUSH1 0x4 ADD PUSH2 0x1527 SWAP2 SWAP1 PUSH2 0x1BC5 JUMP JUMPDEST PUSH1 0x40 MLOAD DUP1 SWAP2 SUB SWAP1 REVERT JUMPDEST DUP2 DUP2 PUSH1 0x40 MLOAD PUSH32 0x177E802F00000000000000000000000000000000000000000000000000000000 DUP2 MSTORE PUSH1 0x4 ADD PUSH2 0x1566 SWAP3 SWAP2 SWAP1 PUSH2 0x2220 JUMP JUMPDEST PUSH1 0x40 MLOAD DUP1 SWAP2 SUB SWAP1 REVERT JUMPDEST POP POP POP JUMP JUMPDEST PUSH0 DUP1 PUSH0 SWAP1 POP PUSH27 0x184F03E93FF9F4DAA797ED6E38ED64BF6A1F010000000000000000 DUP4 LT PUSH2 0x15D0 JUMPI PUSH27 0x184F03E93FF9F4DAA797ED6E38ED64BF6A1F010000000000000000 DUP4 DUP2 PUSH2 0x15C6 JUMPI PUSH2 0x15C5 PUSH2 0x21F3 JUMP JUMPDEST JUMPDEST DIV SWAP3 POP PUSH1 0x40 DUP2 ADD SWAP1 POP JUMPDEST PUSH14 0x4EE2D6D415B85ACEF8100000000 DUP4 LT PUSH2 0x160D JUMPI PUSH14 0x4EE2D6D415B85ACEF8100000000 DUP4 DUP2 PUSH2 0x1603 JUMPI PUSH2 0x1602 PUSH2 0x21F3 JUMP JUMPDEST JUMPDEST DIV SWAP3 POP PUSH1 0x20 DUP2 ADD SWAP1 POP JUMPDEST PUSH7 0x2386F26FC10000 DUP4 LT PUSH2 0x163C JUMPI PUSH7 0x2386F26FC10000 DUP4 DUP2 PUSH2 0x1632 JUMPI PUSH2 0x1631 PUSH2 0x21F3 JUMP JUMPDEST JUMPDEST DIV SWAP3 POP PUSH1 0x10 DUP2 ADD SWAP1 POP JUMPDEST PUSH4 0x5F5E100 DUP4 LT PUSH2 0x1665 JUMPI PUSH4 0x5F5E100 DUP4 DUP2 PUSH2 0x165B JUMPI PUSH2 0x165A PUSH2 0x21F3 JUMP JUMPDEST JUMPDEST DIV SWAP3 POP PUSH1 0x8 DUP2 ADD SWAP1 POP JUMPDEST PUSH2 0x2710 DUP4 LT PUSH2 0x168A JUMPI PUSH2 0x2710 DUP4 DUP2 PUSH2 0x1680 JUMPI PUSH2 0x167F PUSH2 0x21F3 JUMP JUMPDEST JUMPDEST DIV SWAP3 POP PUSH1 0x4 DUP2 ADD SWAP1 POP JUMPDEST PUSH1 0x64 DUP4 LT PUSH2 0x16AD JUMPI PUSH1 0x64 DUP4 DUP2 PUSH2 0x16A3 JUMPI PUSH2 0x16A2 PUSH2 0x21F3 JUMP JUMPDEST JUMPDEST DIV SWAP3 POP PUSH1 0x2 DUP2 ADD SWAP1 POP JUMPDEST PUSH1 0xA DUP4 LT PUSH2 0x16BC JUMPI PUSH1 0x1 DUP2 ADD SWAP1 POP JUMPDEST DUP1 SWAP2 POP POP SWAP2 SWAP1 POP JUMP JUMPDEST PUSH0 PUSH20 0xFFFFFFFFFFFFFFFFFFFFFFFFFFFFFFFFFFFFFFFF AND DUP3 PUSH20 0xFFFFFFFFFFFFFFFFFFFFFFFFFFFFFFFFFFFFFFFF AND SUB PUSH2 0x1735 JUMPI PUSH0 PUSH1 0x40 MLOAD PUSH32 0x64A0AE9200000000000000000000000000000000000000000000000000000000 DUP2 MSTORE PUSH1 0x4 ADD PUSH2 0x172C SWAP2 SWAP1 PUSH2 0x1AD8 JUMP JUMPDEST PUSH1 0x40 MLOAD DUP1 SWAP2 SUB SWAP1 REVERT JUMPDEST PUSH0 PUSH2 0x1741 DUP4 DUP4 PUSH0 PUSH2 0xC96 JUMP JUMPDEST SWAP1 POP PUSH0 PUSH20 0xFFFFFFFFFFFFFFFFFFFFFFFFFFFFFFFFFFFFFFFF AND DUP2 PUSH20 0xFFFFFFFFFFFFFFFFFFFFFFFFFFFFFFFFFFFFFFFF AND EQ PUSH2 0x17B3 JUMPI PUSH0 PUSH1 0x40 MLOAD PUSH32 0x73C6AC6E00000000000000000000000000000000000000000000000000000000 DUP2 MSTORE PUSH1 0x4 ADD PUSH2 0x17AA SWAP2 SWAP1 PUSH2 0x1AD8 JUMP JUMPDEST PUSH1 0x40 MLOAD DUP1 SWAP2 SUB SWAP1 REVERT JUMPDEST POP POP POP JUMP JUMPDEST PUSH0 DUP1 PUSH20 0xFFFFFFFFFFFFFFFFFFFFFFFFFFFFFFFFFFFFFFFF AND DUP4 PUSH20 0xFFFFFFFFFFFFFFFFFFFFFFFFFFFFFFFFFFFFFFFF AND EQ ISZERO DUP1 ISZERO PUSH2 0x186F JUMPI POP DUP3 PUSH20 0xFFFFFFFFFFFFFFFFFFFFFFFFFFFFFFFFFFFFFFFF AND DUP5 PUSH20 0xFFFFFFFFFFFFFFFFFFFFFFFFFFFFFFFFFFFFFFFF AND EQ DUP1 PUSH2 0x1830 JUMPI POP PUSH2 0x182F DUP5 DUP5 PUSH2 0xAAA JUMP JUMPDEST JUMPDEST DUP1 PUSH2 0x186E JUMPI POP DUP3 PUSH20 0xFFFFFFFFFFFFFFFFFFFFFFFFFFFFFFFFFFFFFFFF AND PUSH2 0x1856 DUP4 PUSH2 0xC44 JUMP JUMPDEST PUSH20 0xFFFFFFFFFFFFFFFFFFFFFFFFFFFFFFFFFFFFFFFF AND EQ JUMPDEST JUMPDEST SWAP1 POP SWAP4 SWAP3 POP POP POP JUMP JUMPDEST PUSH0 PUSH1 0x40 MLOAD SWAP1 POP SWAP1 JUMP JUMPDEST PUSH0 DUP1 REVERT JUMPDEST PUSH0 DUP1 REVERT JUMPDEST PUSH0 PUSH20 0xFFFFFFFFFFFFFFFFFFFFFFFFFFFFFFFFFFFFFFFF DUP3 AND SWAP1 POP SWAP2 SWAP1 POP JUMP JUMPDEST PUSH0 PUSH2 0x18B2 DUP3 PUSH2 0x1889 JUMP JUMPDEST SWAP1 POP SWAP2 SWAP1 POP JUMP JUMPDEST PUSH2 0x18C2 DUP2 PUSH2 0x18A8 JUMP JUMPDEST DUP2 EQ PUSH2 0x18CC JUMPI PUSH0 DUP1 REVERT JUMPDEST POP JUMP JUMPDEST PUSH0 DUP2 CALLDATALOAD SWAP1 POP PUSH2 0x18DD DUP2 PUSH2 0x18B9 JUMP JUMPDEST SWAP3 SWAP2 POP POP JUMP JUMPDEST PUSH0 PUSH1 0x20 DUP3 DUP5 SUB SLT ISZERO PUSH2 0x18F8 JUMPI PUSH2 0x18F7 PUSH2 0x1881 JUMP JUMPDEST JUMPDEST PUSH0 PUSH2 0x1905 DUP5 DUP3 DUP6 ADD PUSH2 0x18CF JUMP JUMPDEST SWAP2 POP POP SWAP3 SWAP2 POP POP JUMP JUMPDEST PUSH0 PUSH32 0xFFFFFFFF00000000000000000000000000000000000000000000000000000000 DUP3 AND SWAP1 POP SWAP2 SWAP1 POP JUMP JUMPDEST PUSH2 0x1942 DUP2 PUSH2 0x190E JUMP JUMPDEST DUP2 EQ PUSH2 0x194C JUMPI PUSH0 DUP1 REVERT JUMPDEST POP JUMP JUMPDEST PUSH0 DUP2 CALLDATALOAD SWAP1 POP PUSH2 0x195D DUP2 PUSH2 0x1939 JUMP JUMPDEST SWAP3 SWAP2 POP POP JUMP JUMPDEST PUSH0 PUSH1 0x20 DUP3 DUP5 SUB SLT ISZERO PUSH2 0x1978 JUMPI PUSH2 0x1977 PUSH2 0x1881 JUMP JUMPDEST JUMPDEST PUSH0 PUSH2 0x1985 DUP5 DUP3 DUP6 ADD PUSH2 0x194F JUMP JUMPDEST SWAP2 POP POP SWAP3 SWAP2 POP POP JUMP JUMPDEST PUSH0 DUP2 ISZERO ISZERO SWAP1 POP SWAP2 SWAP1 POP JUMP JUMPDEST PUSH2 0x19A2 DUP2 PUSH2 0x198E JUMP JUMPDEST DUP3 MSTORE POP POP JUMP JUMPDEST PUSH0 PUSH1 0x20 DUP3 ADD SWAP1 POP PUSH2 0x19BB PUSH0 DUP4 ADD DUP5 PUSH2 0x1999 JUMP JUMPDEST SWAP3 SWAP2 POP POP JUMP JUMPDEST PUSH0 DUP2 MLOAD SWAP1 POP SWAP2 SWAP1 POP JUMP JUMPDEST PUSH0 DUP3 DUP3 MSTORE PUSH1 0x20 DUP3 ADD SWAP1 POP SWAP3 SWAP2 POP POP JUMP JUMPDEST PUSH0 JUMPDEST DUP4 DUP2 LT ISZERO PUSH2 0x19F8 JUMPI DUP1 DUP3 ADD MLOAD DUP2 DUP5 ADD MSTORE PUSH1 0x20 DUP2 ADD SWAP1 POP PUSH2 0x19DD JUMP JUMPDEST PUSH0 DUP5 DUP5 ADD MSTORE POP POP POP POP JUMP JUMPDEST PUSH0 PUSH1 0x1F NOT PUSH1 0x1F DUP4 ADD AND SWAP1 POP SWAP2 SWAP1 POP JUMP JUMPDEST PUSH0 PUSH2 0x1A1D DUP3 PUSH2 0x19C1 JUMP JUMPDEST PUSH2 0x1A27 DUP2 DUP6 PUSH2 0x19CB JUMP JUMPDEST SWAP4 POP PUSH2 0x1A37 DUP2 DUP6 PUSH1 0x20 DUP7 ADD PUSH2 0x19DB JUMP JUMPDEST PUSH2 0x1A40 DUP2 PUSH2 0x1A03 JUMP JUMPDEST DUP5 ADD SWAP2 POP POP SWAP3 SWAP2 POP POP JUMP JUMPDEST PUSH0 PUSH1 0x20 DUP3 ADD SWAP1 POP DUP2 DUP2 SUB PUSH0 DUP4 ADD MSTORE PUSH2 0x1A63 DUP2 DUP5 PUSH2 0x1A13 JUMP JUMPDEST SWAP1 POP SWAP3 SWAP2 POP POP JUMP JUMPDEST PUSH0 DUP2 SWAP1 POP SWAP2 SWAP1 POP JUMP JUMPDEST PUSH2 0x1A7D DUP2 PUSH2 0x1A6B JUMP JUMPDEST DUP2 EQ PUSH2 0x1A87 JUMPI PUSH0 DUP1 REVERT JUMPDEST POP JUMP JUMPDEST PUSH0 DUP2 CALLDATALOAD SWAP1 POP PUSH2 0x1A98 DUP2 PUSH2 0x1A74 JUMP JUMPDEST SWAP3 SWAP2 POP POP JUMP JUMPDEST PUSH0 PUSH1 0x20 DUP3 DUP5 SUB SLT ISZERO PUSH2 0x1AB3 JUMPI PUSH2 0x1AB2 PUSH2 0x1881 JUMP JUMPDEST JUMPDEST PUSH0 PUSH2 0x1AC0 DUP5 DUP3 DUP6 ADD PUSH2 0x1A8A JUMP JUMPDEST SWAP2 POP POP SWAP3 SWAP2 POP POP JUMP JUMPDEST PUSH2 0x1AD2 DUP2 PUSH2 0x18A8 JUMP JUMPDEST DUP3 MSTORE POP POP JUMP JUMPDEST PUSH0 PUSH1 0x20 DUP3 ADD SWAP1 POP PUSH2 0x1AEB PUSH0 DUP4 ADD DUP5 PUSH2 0x1AC9 JUMP JUMPDEST SWAP3 SWAP2 POP POP JUMP JUMPDEST PUSH0 DUP1 PUSH1 0x40 DUP4 DUP6 SUB SLT ISZERO PUSH2 0x1B07 JUMPI PUSH2 0x1B06 PUSH2 0x1881 JUMP JUMPDEST JUMPDEST PUSH0 PUSH2 0x1B14 DUP6 DUP3 DUP7 ADD PUSH2 0x18CF JUMP JUMPDEST SWAP3 POP POP PUSH1 0x20 PUSH2 0x1B25 DUP6 DUP3 DUP7 ADD PUSH2 0x1A8A JUMP JUMPDEST SWAP2 POP POP SWAP3 POP SWAP3 SWAP1 POP JUMP JUMPDEST PUSH0 DUP1 PUSH0 PUSH1 0x60 DUP5 DUP7 SUB SLT ISZERO PUSH2 0x1B46 JUMPI PUSH2 0x1B45 PUSH2 0x1881 JUMP JUMPDEST JUMPDEST PUSH0 PUSH2 0x1B53 DUP7 DUP3 DUP8 ADD PUSH2 0x18CF JUMP JUMPDEST SWAP4 POP POP PUSH1 0x20 PUSH2 0x1B64 DUP7 DUP3 DUP8 ADD PUSH2 0x18CF JUMP JUMPDEST SWAP3 POP POP PUSH1 0x40 PUSH2 0x1B75 DUP7 DUP3 DUP8 ADD PUSH2 0x1A8A JUMP JUMPDEST SWAP2 POP POP SWAP3 POP SWAP3 POP SWAP3 JUMP JUMPDEST PUSH0 PUSH4 0xFFFFFFFF DUP3 AND SWAP1 POP SWAP2 SWAP1 POP JUMP JUMPDEST PUSH2 0x1B97 DUP2 PUSH2 0x1B7F JUMP JUMPDEST DUP3 MSTORE POP POP JUMP JUMPDEST PUSH0 PUSH1 0x20 DUP3 ADD SWAP1 POP PUSH2 0x1BB0 PUSH0 DUP4 ADD DUP5 PUSH2 0x1B8E JUMP JUMPDEST SWAP3 SWAP2 POP POP JUMP JUMPDEST PUSH2 0x1BBF DUP2 PUSH2 0x1A6B JUMP JUMPDEST DUP3 MSTORE POP POP JUMP JUMPDEST PUSH0 PUSH1 0x20 DUP3 ADD SWAP1 POP PUSH2 0x1BD8 PUSH0 DUP4 ADD DUP5 PUSH2 0x1BB6 JUMP JUMPDEST SWAP3 SWAP2 POP POP JUMP JUMPDEST PUSH2 0x1BE7 DUP2 PUSH2 0x198E JUMP JUMPDEST DUP2 EQ PUSH2 0x1BF1 JUMPI PUSH0 DUP1 REVERT JUMPDEST POP JUMP JUMPDEST PUSH0 DUP2 CALLDATALOAD SWAP1 POP PUSH2 0x1C02 DUP2 PUSH2 0x1BDE JUMP JUMPDEST SWAP3 SWAP2 POP POP JUMP JUMPDEST PUSH0 DUP1 PUSH1 0x40 DUP4 DUP6 SUB SLT ISZERO PUSH2 0x1C1E JUMPI PUSH2 0x1C1D PUSH2 0x1881 JUMP JUMPDEST JUMPDEST PUSH0 PUSH2 0x1C2B DUP6 DUP3 DUP7 ADD PUSH2 0x18CF JUMP JUMPDEST SWAP3 POP POP PUSH1 0x20 PUSH2 0x1C3C DUP6 DUP3 DUP7 ADD PUSH2 0x1BF4 JUMP JUMPDEST SWAP2 POP POP SWAP3 POP SWAP3 SWAP1 POP JUMP JUMPDEST PUSH0 DUP1 REVERT JUMPDEST PUSH0 DUP1 REVERT JUMPDEST PUSH32 0x4E487B7100000000000000000000000000000000000000000000000000000000 PUSH0 MSTORE PUSH1 0x41 PUSH1 0x4 MSTORE PUSH1 0x24 PUSH0 REVERT JUMPDEST PUSH2 0x1C84 DUP3 PUSH2 0x1A03 JUMP JUMPDEST DUP2 ADD DUP2 DUP2 LT PUSH8 0xFFFFFFFFFFFFFFFF DUP3 GT OR ISZERO PUSH2 0x1CA3 JUMPI PUSH2 0x1CA2 PUSH2 0x1C4E JUMP JUMPDEST JUMPDEST DUP1 PUSH1 0x40 MSTORE POP POP POP JUMP JUMPDEST PUSH0 PUSH2 0x1CB5 PUSH2 0x1878 JUMP JUMPDEST SWAP1 POP PUSH2 0x1CC1 DUP3 DUP3 PUSH2 0x1C7B JUMP JUMPDEST SWAP2 SWAP1 POP JUMP JUMPDEST PUSH0 PUSH8 0xFFFFFFFFFFFFFFFF DUP3 GT ISZERO PUSH2 0x1CE0 JUMPI PUSH2 0x1CDF PUSH2 0x1C4E JUMP JUMPDEST JUMPDEST PUSH2 0x1CE9 DUP3 PUSH2 0x1A03 JUMP JUMPDEST SWAP1 POP PUSH1 0x20 DUP2 ADD SWAP1 POP SWAP2 SWAP1 POP JUMP JUMPDEST DUP3 DUP2 DUP4 CALLDATACOPY PUSH0 DUP4 DUP4 ADD MSTORE POP POP POP JUMP JUMPDEST PUSH0 PUSH2 0x1D16 PUSH2 0x1D11 DUP5 PUSH2 0x1CC6 JUMP JUMPDEST PUSH2 0x1CAC JUMP JUMPDEST SWAP1 POP DUP3 DUP2 MSTORE PUSH1 0x20 DUP2 ADD DUP5 DUP5 DUP5 ADD GT ISZERO PUSH2 0x1D32 JUMPI PUSH2 0x1D31 PUSH2 0x1C4A JUMP JUMPDEST JUMPDEST PUSH2 0x1D3D DUP5 DUP3 DUP6 PUSH2 0x1CF6 JUMP JUMPDEST POP SWAP4 SWAP3 POP POP POP JUMP JUMPDEST PUSH0 DUP3 PUSH1 0x1F DUP4 ADD SLT PUSH2 0x1D59 JUMPI PUSH2 0x1D58 PUSH2 0x1C46 JUMP JUMPDEST JUMPDEST DUP2 CALLDATALOAD PUSH2 0x1D69 DUP5 DUP3 PUSH1 0x20 DUP7 ADD PUSH2 0x1D04 JUMP JUMPDEST SWAP2 POP POP SWAP3 SWAP2 POP POP JUMP JUMPDEST PUSH0 DUP1 PUSH0 DUP1 PUSH1 0x80 DUP6 DUP8 SUB SLT ISZERO PUSH2 0x1D8A JUMPI PUSH2 0x1D89 PUSH2 0x1881 JUMP JUMPDEST JUMPDEST PUSH0 PUSH2 0x1D97 DUP8 DUP3 DUP9 ADD PUSH2 0x18CF JUMP JUMPDEST SWAP5 POP POP PUSH1 0x20 PUSH2 0x1DA8 DUP8 DUP3 DUP9 ADD PUSH2 0x18CF JUMP JUMPDEST SWAP4 POP POP PUSH1 0x40 PUSH2 0x1DB9 DUP8 DUP3 DUP9 ADD PUSH2 0x1A8A JUMP JUMPDEST SWAP3 POP POP PUSH1 0x60 DUP6 ADD CALLDATALOAD PUSH8 0xFFFFFFFFFFFFFFFF DUP2 GT ISZERO PUSH2 0x1DDA JUMPI PUSH2 0x1DD9 PUSH2 0x1885 JUMP JUMPDEST JUMPDEST PUSH2 0x1DE6 DUP8 DUP3 DUP9 ADD PUSH2 0x1D45 JUMP JUMPDEST SWAP2 POP POP SWAP3 SWAP6 SWAP2 SWAP5 POP SWAP3 POP JUMP JUMPDEST PUSH0 DUP1 PUSH1 0x40 DUP4 DUP6 SUB SLT ISZERO PUSH2 0x1E08 JUMPI PUSH2 0x1E07 PUSH2 0x1881 JUMP JUMPDEST JUMPDEST PUSH0 PUSH2 0x1E15 DUP6 DUP3 DUP7 ADD PUSH2 0x18CF JUMP JUMPDEST SWAP3 POP POP PUSH1 0x20 PUSH2 0x1E26 DUP6 DUP3 DUP7 ADD PUSH2 0x18CF JUMP JUMPDEST SWAP2 POP POP SWAP3 POP SWAP3 SWAP1 POP JUMP JUMPDEST PUSH32 0x736F72727920736F6D656F6E6520656C7365206973206D696E74696E67206E6F PUSH0 DUP3 ADD MSTORE PUSH32 0x772C20706C656173652074727920616761696E206C6174657200000000000000 PUSH1 0x20 DUP3 ADD MSTORE POP JUMP JUMPDEST PUSH0 PUSH2 0x1E8A PUSH1 0x39 DUP4 PUSH2 0x19CB JUMP JUMPDEST SWAP2 POP PUSH2 0x1E95 DUP3 PUSH2 0x1E30 JUMP JUMPDEST PUSH1 0x40 DUP3 ADD SWAP1 POP SWAP2 SWAP1 POP JUMP JUMPDEST PUSH0 PUSH1 0x20 DUP3 ADD SWAP1 POP DUP2 DUP2 SUB PUSH0 DUP4 ADD MSTORE PUSH2 0x1EB7 DUP2 PUSH2 0x1E7E JUMP JUMPDEST SWAP1 POP SWAP2 SWAP1 POP JUMP JUMPDEST PUSH32 0x736F727279206E6F7420656E6F75676820737570706C79000000000000000000 PUSH0 DUP3 ADD MSTORE POP JUMP JUMPDEST PUSH0 PUSH2 0x1EF2 PUSH1 0x17 DUP4 PUSH2 0x19CB JUMP JUMPDEST SWAP2 POP PUSH2 0x1EFD DUP3 PUSH2 0x1EBE JUMP JUMPDEST PUSH1 0x20 DUP3 ADD SWAP1 POP SWAP2 SWAP1 POP JUMP JUMPDEST PUSH0 PUSH1 0x20 DUP3 ADD SWAP1 POP DUP2 DUP2 SUB PUSH0 DUP4 ADD MSTORE PUSH2 0x1F1F DUP2 PUSH2 0x1EE6 JUMP JUMPDEST SWAP1 POP SWAP2 SWAP1 POP JUMP JUMPDEST PUSH32 0x796F75206861766520616C7265616479206D696E746564000000000000000000 PUSH0 DUP3 ADD MSTORE POP JUMP JUMPDEST PUSH0 PUSH2 0x1F5A PUSH1 0x17 DUP4 PUSH2 0x19CB JUMP JUMPDEST SWAP2 POP PUSH2 0x1F65 DUP3 PUSH2 0x1F26 JUMP JUMPDEST PUSH1 0x20 DUP3 ADD SWAP1 POP SWAP2 SWAP1 POP JUMP JUMPDEST PUSH0 PUSH1 0x20 DUP3 ADD SWAP1 POP DUP2 DUP2 SUB PUSH0 DUP4 ADD MSTORE PUSH2 0x1F87 DUP2 PUSH2 0x1F4E JUMP JUMPDEST SWAP1 POP SWAP2 SWAP1 POP JUMP JUMPDEST PUSH32 0x4E487B7100000000000000000000000000000000000000000000000000000000 PUSH0 MSTORE PUSH1 0x11 PUSH1 0x4 MSTORE PUSH1 0x24 PUSH0 REVERT JUMPDEST PUSH0 PUSH2 0x1FC5 DUP3 PUSH2 0x1B7F JUMP JUMPDEST SWAP2 POP PUSH2 0x1FD0 DUP4 PUSH2 0x1B7F JUMP JUMPDEST SWAP3 POP DUP3 DUP3 ADD SWAP1 POP PUSH4 0xFFFFFFFF DUP2 GT ISZERO PUSH2 0x1FEC JUMPI PUSH2 0x1FEB PUSH2 0x1F8E JUMP JUMPDEST JUMPDEST SWAP3 SWAP2 POP POP JUMP JUMPDEST PUSH0 PUSH2 0x1FFC DUP3 PUSH2 0x1B7F JUMP JUMPDEST SWAP2 POP PUSH2 0x2007 DUP4 PUSH2 0x1B7F JUMP JUMPDEST SWAP3 POP DUP3 DUP3 SUB SWAP1 POP PUSH4 0xFFFFFFFF DUP2 GT ISZERO PUSH2 0x2023 JUMPI PUSH2 0x2022 PUSH2 0x1F8E JUMP JUMPDEST JUMPDEST SWAP3 SWAP2 POP POP JUMP JUMPDEST PUSH32 0x4E487B7100000000000000000000000000000000000000000000000000000000 PUSH0 MSTORE PUSH1 0x22 PUSH1 0x4 MSTORE PUSH1 0x24 PUSH0 REVERT JUMPDEST PUSH0 PUSH1 0x2 DUP3 DIV SWAP1 POP PUSH1 0x1 DUP3 AND DUP1 PUSH2 0x206D JUMPI PUSH1 0x7F DUP3 AND SWAP2 POP JUMPDEST PUSH1 0x20 DUP3 LT DUP2 SUB PUSH2 0x2080 JUMPI PUSH2 0x207F PUSH2 0x2029 JUMP JUMPDEST JUMPDEST POP SWAP2 SWAP1 POP JUMP JUMPDEST PUSH0 PUSH1 0x60 DUP3 ADD SWAP1 POP PUSH2 0x2099 PUSH0 DUP4 ADD DUP7 PUSH2 0x1AC9 JUMP JUMPDEST PUSH2 0x20A6 PUSH1 0x20 DUP4 ADD DUP6 PUSH2 0x1BB6 JUMP JUMPDEST PUSH2 0x20B3 PUSH1 0x40 DUP4 ADD DUP5 PUSH2 0x1AC9 JUMP JUMPDEST SWAP5 SWAP4 POP POP POP POP JUMP JUMPDEST PUSH0 DUP2 SWAP1 POP SWAP3 SWAP2 POP POP JUMP JUMPDEST PUSH0 PUSH2 0x20CF DUP3 PUSH2 0x19C1 JUMP JUMPDEST PUSH2 0x20D9 DUP2 DUP6 PUSH2 0x20BB JUMP JUMPDEST SWAP4 POP PUSH2 0x20E9 DUP2 DUP6 PUSH1 0x20 DUP7 ADD PUSH2 0x19DB JUMP JUMPDEST DUP1 DUP5 ADD SWAP2 POP POP SWAP3 SWAP2 POP POP JUMP JUMPDEST PUSH0 PUSH2 0x2100 DUP3 DUP6 PUSH2 0x20C5 JUMP JUMPDEST SWAP2 POP PUSH2 0x210C DUP3 DUP5 PUSH2 0x20C5 JUMP JUMPDEST SWAP2 POP DUP2 SWAP1 POP SWAP4 SWAP3 POP POP POP JUMP JUMPDEST PUSH0 DUP2 MLOAD SWAP1 POP SWAP2 SWAP1 POP JUMP JUMPDEST PUSH0 DUP3 DUP3 MSTORE PUSH1 0x20 DUP3 ADD SWAP1 POP SWAP3 SWAP2 POP POP JUMP JUMPDEST PUSH0 PUSH2 0x213C DUP3 PUSH2 0x2118 JUMP JUMPDEST PUSH2 0x2146 DUP2 DUP6 PUSH2 0x2122 JUMP JUMPDEST SWAP4 POP PUSH2 0x2156 DUP2 DUP6 PUSH1 0x20 DUP7 ADD PUSH2 0x19DB JUMP JUMPDEST PUSH2 0x215F DUP2 PUSH2 0x1A03 JUMP JUMPDEST DUP5 ADD SWAP2 POP POP SWAP3 SWAP2 POP POP JUMP JUMPDEST PUSH0 PUSH1 0x80 DUP3 ADD SWAP1 POP PUSH2 0x217D PUSH0 DUP4 ADD DUP8 PUSH2 0x1AC9 JUMP JUMPDEST PUSH2 0x218A PUSH1 0x20 DUP4 ADD DUP7 PUSH2 0x1AC9 JUMP JUMPDEST PUSH2 0x2197 PUSH1 0x40 DUP4 ADD DUP6 PUSH2 0x1BB6 JUMP JUMPDEST DUP2 DUP2 SUB PUSH1 0x60 DUP4 ADD MSTORE PUSH2 0x21A9 DUP2 DUP5 PUSH2 0x2132 JUMP JUMPDEST SWAP1 POP SWAP6 SWAP5 POP POP POP POP POP JUMP JUMPDEST PUSH0 DUP2 MLOAD SWAP1 POP PUSH2 0x21C2 DUP2 PUSH2 0x1939 JUMP JUMPDEST SWAP3 SWAP2 POP POP JUMP JUMPDEST PUSH0 PUSH1 0x20 DUP3 DUP5 SUB SLT ISZERO PUSH2 0x21DD JUMPI PUSH2 0x21DC PUSH2 0x1881 JUMP JUMPDEST JUMPDEST PUSH0 PUSH2 0x21EA DUP5 DUP3 DUP6 ADD PUSH2 0x21B4 JUMP JUMPDEST SWAP2 POP POP SWAP3 SWAP2 POP POP JUMP JUMPDEST PUSH32 0x4E487B7100000000000000000000000000000000000000000000000000000000 PUSH0 MSTORE PUSH1 0x12 PUSH1 0x4 MSTORE PUSH1 0x24 PUSH0 REVERT JUMPDEST PUSH0 PUSH1 0x40 DUP3 ADD SWAP1 POP PUSH2 0x2233 PUSH0 DUP4 ADD DUP6 PUSH2 0x1AC9 JUMP JUMPDEST PUSH2 0x2240 PUSH1 0x20 DUP4 ADD DUP5 PUSH2 0x1BB6 JUMP JUMPDEST SWAP4 SWAP3 POP POP POP JUMP INVALID LOG2 PUSH5 0x6970667358 0x22 SLT KECCAK256 SSTORE 0x5E 0x2F 0xBF 0xD NUMBER PUSH29 0x77140E5E83BA5991C22E1ED83C05CC26E0B8E7E610ED5F5E0164736F6C PUSH4 0x43000814 STOP CALLER PUSH1 0x80 PUSH1 0x40 MSTORE PUSH0 PUSH1 0x8 PUSH0 PUSH2 0x100 EXP DUP2 SLOAD DUP2 PUSH1 0xFF MUL NOT AND SWAP1 DUP4 ISZERO ISZERO MUL OR SWAP1 SSTORE POP CALLVALUE DUP1 ISZERO PUSH3 0x29 JUMPI PUSH0 DUP1 REVERT JUMPDEST POP PUSH1 0x40 MLOAD PUSH3 0x2E5B CODESIZE SUB DUP1 PUSH3 0x2E5B DUP4 CODECOPY DUP2 DUP2 ADD PUSH1 0x40 MSTORE DUP2 ADD SWAP1 PUSH3 0x4F SWAP2 SWAP1 PUSH3 0x39B JUMP JUMPDEST DUP4 PUSH1 0x40 MLOAD DUP1 PUSH1 0x40 ADD PUSH1 0x40 MSTORE DUP1 PUSH1 0xD DUP2 MSTORE PUSH1 0x20 ADD PUSH32 0x434F505952494748545F4E465400000000000000000000000000000000000000 DUP2 MSTORE POP DUP2 PUSH0 SWAP1 DUP2 PUSH3 0x96 SWAP2 SWAP1 PUSH3 0x657 JUMP JUMPDEST POP DUP1 PUSH1 0x1 SWAP1 DUP2 PUSH3 0xA8 SWAP2 SWAP1 PUSH3 0x657 JUMP JUMPDEST POP POP POP DUP3 PUSH1 0x6 PUSH1 0x8 PUSH2 0x100 EXP DUP2 SLOAD DUP2 PUSH4 0xFFFFFFFF MUL NOT AND SWAP1 DUP4 PUSH4 0xFFFFFFFF AND MUL OR SWAP1 SSTORE POP DUP3 PUSH1 0x6 PUSH1 0xC PUSH2 0x100 EXP DUP2 SLOAD DUP2 PUSH4 0xFFFFFFFF MUL NOT AND SWAP1 DUP4 PUSH4 0xFFFFFFFF AND MUL OR SWAP1 SSTORE POP DUP2 PUSH1 0x7 DUP2 SWAP1 SSTORE POP DUP1 PUSH1 0x8 PUSH1 0x1 PUSH2 0x100 EXP DUP2 SLOAD DUP2 PUSH20 0xFFFFFFFFFFFFFFFFFFFFFFFFFFFFFFFFFFFFFFFF MUL NOT AND SWAP1 DUP4 PUSH20 0xFFFFFFFFFFFFFFFFFFFFFFFFFFFFFFFFFFFFFFFF AND MUL OR SWAP1 SSTORE POP POP POP POP POP PUSH3 0x73B JUMP JUMPDEST PUSH0 PUSH1 0x40 MLOAD SWAP1 POP SWAP1 JUMP JUMPDEST PUSH0 DUP1 REVERT JUMPDEST PUSH0 DUP1 REVERT JUMPDEST PUSH0 DUP1 REVERT JUMPDEST PUSH0 DUP1 REVERT JUMPDEST PUSH0 PUSH1 0x1F NOT PUSH1 0x1F DUP4 ADD AND SWAP1 POP SWAP2 SWAP1 POP JUMP JUMPDEST PUSH32 0x4E487B7100000000000000000000000000000000000000000000000000000000 PUSH0 MSTORE PUSH1 0x41 PUSH1 0x4 MSTORE PUSH1 0x24 PUSH0 REVERT JUMPDEST PUSH3 0x1A0 DUP3 PUSH3 0x158 JUMP JUMPDEST DUP2 ADD DUP2 DUP2 LT PUSH8 0xFFFFFFFFFFFFFFFF DUP3 GT OR ISZERO PUSH3 0x1C2 JUMPI PUSH3 0x1C1 PUSH3 0x168 JUMP JUMPDEST JUMPDEST DUP1 PUSH1 0x40 MSTORE POP POP POP JUMP JUMPDEST PUSH0 PUSH3 0x1D6 PUSH3 0x13F JUMP JUMPDEST SWAP1 POP PUSH3 0x1E4 DUP3 DUP3 PUSH3 0x195 JUMP JUMPDEST SWAP2 SWAP1 POP JUMP JUMPDEST PUSH0 PUSH8 0xFFFFFFFFFFFFFFFF DUP3 GT ISZERO PUSH3 0x206 JUMPI PUSH3 0x205 PUSH3 0x168 JUMP JUMPDEST JUMPDEST PUSH3 0x211 DUP3 PUSH3 0x158 JUMP JUMPDEST SWAP1 POP PUSH1 0x20 DUP2 ADD SWAP1 POP SWAP2 SWAP1 POP JUMP JUMPDEST PUSH0 JUMPDEST DUP4 DUP2 LT ISZERO PUSH3 0x23D JUMPI DUP1 DUP3 ADD MLOAD DUP2 DUP5 ADD MSTORE PUSH1 0x20 DUP2 ADD SWAP1 POP PUSH3 0x220 JUMP JUMPDEST PUSH0 DUP5 DUP5 ADD MSTORE POP POP POP POP JUMP JUMPDEST PUSH0 PUSH3 0x25E PUSH3 0x258 DUP5 PUSH3 0x1E9 JUMP JUMPDEST PUSH3 0x1CB JUMP JUMPDEST SWAP1 POP DUP3 DUP2 MSTORE PUSH1 0x20 DUP2 ADD DUP5 DUP5 DUP5 ADD GT ISZERO PUSH3 0x27D JUMPI PUSH3 0x27C PUSH3 0x154 JUMP JUMPDEST JUMPDEST PUSH3 0x28A DUP5 DUP3 DUP6 PUSH3 0x21E JUMP JUMPDEST POP SWAP4 SWAP3 POP POP POP JUMP JUMPDEST PUSH0 DUP3 PUSH1 0x1F DUP4 ADD SLT PUSH3 0x2A9 JUMPI PUSH3 0x2A8 PUSH3 0x150 JUMP JUMPDEST JUMPDEST DUP2 MLOAD PUSH3 0x2BB DUP5 DUP3 PUSH1 0x20 DUP7 ADD PUSH3 0x248 JUMP JUMPDEST SWAP2 POP POP SWAP3 SWAP2 POP POP JUMP JUMPDEST PUSH0 PUSH4 0xFFFFFFFF DUP3 AND SWAP1 POP SWAP2 SWAP1 POP JUMP JUMPDEST PUSH3 0x2DE DUP2 PUSH3 0x2C4 JUMP JUMPDEST DUP2 EQ PUSH3 0x2E9 JUMPI PUSH0 DUP1 REVERT JUMPDEST POP JUMP JUMPDEST PUSH0 DUP2 MLOAD SWAP1 POP PUSH3 0x2FC DUP2 PUSH3 0x2D3 JUMP JUMPDEST SWAP3 SWAP2 POP POP JUMP JUMPDEST PUSH0 DUP2 SWAP1 POP SWAP2 SWAP1 POP JUMP JUMPDEST PUSH3 0x316 DUP2 PUSH3 0x302 JUMP JUMPDEST DUP2 EQ PUSH3 0x321 JUMPI PUSH0 DUP1 REVERT JUMPDEST POP JUMP JUMPDEST PUSH0 DUP2 MLOAD SWAP1 POP PUSH3 0x334 DUP2 PUSH3 0x30B JUMP JUMPDEST SWAP3 SWAP2 POP POP JUMP JUMPDEST PUSH0 PUSH20 0xFFFFFFFFFFFFFFFFFFFFFFFFFFFFFFFFFFFFFFFF DUP3 AND SWAP1 POP SWAP2 SWAP1 POP JUMP JUMPDEST PUSH0 PUSH3 0x365 DUP3 PUSH3 0x33A JUMP JUMPDEST SWAP1 POP SWAP2 SWAP1 POP JUMP JUMPDEST PUSH3 0x377 DUP2 PUSH3 0x359 JUMP JUMPDEST DUP2 EQ PUSH3 0x382 JUMPI PUSH0 DUP1 REVERT JUMPDEST POP JUMP JUMPDEST PUSH0 DUP2 MLOAD SWAP1 POP PUSH3 0x395 DUP2 PUSH3 0x36C JUMP JUMPDEST SWAP3 SWAP2 POP POP JUMP JUMPDEST PUSH0 DUP1 PUSH0 DUP1 PUSH1 0x80 DUP6 DUP8 SUB SLT ISZERO PUSH3 0x3B6 JUMPI PUSH3 0x3B5 PUSH3 0x148 JUMP JUMPDEST JUMPDEST PUSH0 DUP6 ADD MLOAD PUSH8 0xFFFFFFFFFFFFFFFF DUP2 GT ISZERO PUSH3 0x3D6 JUMPI PUSH3 0x3D5 PUSH3 0x14C JUMP JUMPDEST JUMPDEST PUSH3 0x3E4 DUP8 DUP3 DUP9 ADD PUSH3 0x292 JUMP JUMPDEST SWAP5 POP POP PUSH1 0x20 PUSH3 0x3F7 DUP8 DUP3 DUP9 ADD PUSH3 0x2EC JUMP JUMPDEST SWAP4 POP POP PUSH1 0x40 PUSH3 0x40A DUP8 DUP3 DUP9 ADD PUSH3 0x324 JUMP JUMPDEST SWAP3 POP POP PUSH1 0x60 PUSH3 0x41D DUP8 DUP3 DUP9 ADD PUSH3 0x385 JUMP JUMPDEST SWAP2 POP POP SWAP3 SWAP6 SWAP2 SWAP5 POP SWAP3 POP JUMP JUMPDEST PUSH0 DUP2 MLOAD SWAP1 POP SWAP2 SWAP1 POP JUMP JUMPDEST PUSH32 0x4E487B7100000000000000000000000000000000000000000000000000000000 PUSH0 MSTORE PUSH1 0x22 PUSH1 0x4 MSTORE PUSH1 0x24 PUSH0 REVERT JUMPDEST PUSH0 PUSH1 0x2 DUP3 DIV SWAP1 POP PUSH1 0x1 DUP3 AND DUP1 PUSH3 0x478 JUMPI PUSH1 0x7F DUP3 AND SWAP2 POP JUMPDEST PUSH1 0x20 DUP3 LT DUP2 SUB PUSH3 0x48E JUMPI PUSH3 0x48D PUSH3 0x433 JUMP JUMPDEST JUMPDEST POP SWAP2 SWAP1 POP JUMP JUMPDEST PUSH0 DUP2 SWAP1 POP DUP2 PUSH0 MSTORE PUSH1 0x20 PUSH0 KECCAK256 SWAP1 POP SWAP2 SWAP1 POP JUMP JUMPDEST PUSH0 PUSH1 0x20 PUSH1 0x1F DUP4 ADD DIV SWAP1 POP SWAP2 SWAP1 POP JUMP JUMPDEST PUSH0 DUP3 DUP3 SHL SWAP1 POP SWAP3 SWAP2 POP POP JUMP JUMPDEST PUSH0 PUSH1 0x8 DUP4 MUL PUSH3 0x4F2 PUSH32 0xFFFFFFFFFFFFFFFFFFFFFFFFFFFFFFFFFFFFFFFFFFFFFFFFFFFFFFFFFFFFFFFF DUP3 PUSH3 0x4B5 JUMP JUMPDEST PUSH3 0x4FE DUP7 DUP4 PUSH3 0x4B5 JUMP JUMPDEST SWAP6 POP DUP1 NOT DUP5 AND SWAP4 POP DUP1 DUP7 AND DUP5 OR SWAP3 POP POP POP SWAP4 SWAP3 POP POP POP JUMP JUMPDEST PUSH0 DUP2 SWAP1 POP SWAP2 SWAP1 POP JUMP JUMPDEST PUSH0 PUSH3 0x53F PUSH3 0x539 PUSH3 0x533 DUP5 PUSH3 0x302 JUMP JUMPDEST PUSH3 0x516 JUMP JUMPDEST PUSH3 0x302 JUMP JUMPDEST SWAP1 POP SWAP2 SWAP1 POP JUMP JUMPDEST PUSH0 DUP2 SWAP1 POP SWAP2 SWAP1 POP JUMP JUMPDEST PUSH3 0x55A DUP4 PUSH3 0x51F JUMP JUMPDEST PUSH3 0x572 PUSH3 0x569 DUP3 PUSH3 0x546 JUMP JUMPDEST DUP5 DUP5 SLOAD PUSH3 0x4C1 JUMP JUMPDEST DUP3 SSTORE POP POP POP POP JUMP JUMPDEST PUSH0 SWAP1 JUMP JUMPDEST PUSH3 0x588 PUSH3 0x57A JUMP JUMPDEST PUSH3 0x595 DUP2 DUP5 DUP5 PUSH3 0x54F JUMP JUMPDEST POP POP POP JUMP JUMPDEST JUMPDEST DUP2 DUP2 LT ISZERO PUSH3 0x5BC JUMPI PUSH3 0x5B0 PUSH0 DUP3 PUSH3 0x57E JUMP JUMPDEST PUSH1 0x1 DUP2 ADD SWAP1 POP PUSH3 0x59B JUMP JUMPDEST POP POP JUMP JUMPDEST PUSH1 0x1F DUP3 GT ISZERO PUSH3 0x60B JUMPI PUSH3 0x5D5 DUP2 PUSH3 0x494 JUMP JUMPDEST PUSH3 0x5E0 DUP5 PUSH3 0x4A6 JUMP JUMPDEST DUP2 ADD PUSH1 0x20 DUP6 LT ISZERO PUSH3 0x5F0 JUMPI DUP2 SWAP1 POP JUMPDEST PUSH3 0x608 PUSH3 0x5FF DUP6 PUSH3 0x4A6 JUMP JUMPDEST DUP4 ADD DUP3 PUSH3 0x59A JUMP JUMPDEST POP POP JUMPDEST POP POP POP JUMP JUMPDEST PUSH0 DUP3 DUP3 SHR SWAP1 POP SWAP3 SWAP2 POP POP JUMP JUMPDEST PUSH0 PUSH3 0x62D PUSH0 NOT DUP5 PUSH1 0x8 MUL PUSH3 0x610 JUMP JUMPDEST NOT DUP1 DUP4 AND SWAP2 POP POP SWAP3 SWAP2 POP POP JUMP JUMPDEST PUSH0 PUSH3 0x647 DUP4 DUP4 PUSH3 0x61C JUMP JUMPDEST SWAP2 POP DUP3 PUSH1 0x2 MUL DUP3 OR SWAP1 POP SWAP3 SWAP2 POP POP JUMP JUMPDEST PUSH3 0x662 DUP3 PUSH3 0x429 JUMP JUMPDEST PUSH8 0xFFFFFFFFFFFFFFFF DUP2 GT ISZERO PUSH3 0x67E JUMPI PUSH3 0x67D PUSH3 0x168 JUMP JUMPDEST JUMPDEST PUSH3 0x68A DUP3 SLOAD PUSH3 0x460 JUMP JUMPDEST PUSH3 0x697 DUP3 DUP3 DUP6 PUSH3 0x5C0 JUMP JUMPDEST PUSH0 PUSH1 0x20 SWAP1 POP PUSH1 0x1F DUP4 GT PUSH1 0x1 DUP2 EQ PUSH3 0x6CD JUMPI PUSH0 DUP5 ISZERO PUSH3 0x6B8 JUMPI DUP3 DUP8 ADD MLOAD SWAP1 POP JUMPDEST PUSH3 0x6C4 DUP6 DUP3 PUSH3 0x63A JUMP JUMPDEST DUP7 SSTORE POP PUSH3 0x733 JUMP JUMPDEST PUSH1 0x1F NOT DUP5 AND PUSH3 0x6DD DUP7 PUSH3 0x494 JUMP JUMPDEST PUSH0 JUMPDEST DUP3 DUP2 LT ISZERO PUSH3 0x706 JUMPI DUP5 DUP10 ADD MLOAD DUP3 SSTORE PUSH1 0x1 DUP3 ADD SWAP2 POP PUSH1 0x20 DUP6 ADD SWAP5 POP PUSH1 0x20 DUP2 ADD SWAP1 POP PUSH3 0x6DF JUMP JUMPDEST DUP7 DUP4 LT ISZERO PUSH3 0x726 JUMPI DUP5 DUP10 ADD MLOAD PUSH3 0x722 PUSH1 0x1F DUP10 AND DUP3 PUSH3 0x61C JUMP JUMPDEST DUP4 SSTORE POP JUMPDEST PUSH1 0x1 PUSH1 0x2 DUP9 MUL ADD DUP9 SSTORE POP POP POP JUMPDEST POP POP POP POP POP POP JUMP JUMPDEST PUSH2 0x2712 DUP1 PUSH3 0x749 PUSH0 CODECOPY PUSH0 RETURN INVALID PUSH1 0x80 PUSH1 0x40 MSTORE PUSH1 0x4 CALLDATASIZE LT PUSH2 0x11E JUMPI PUSH0 CALLDATALOAD PUSH1 0xE0 SHR DUP1 PUSH4 0x6352211E GT PUSH2 0x9F JUMPI DUP1 PUSH4 0xA035B1FE GT PUSH2 0x63 JUMPI DUP1 PUSH4 0xA035B1FE EQ PUSH2 0x3AA JUMPI DUP1 PUSH4 0xA22CB465 EQ PUSH2 0x3D4 JUMPI DUP1 PUSH4 0xB88D4FDE EQ PUSH2 0x3FC JUMPI DUP1 PUSH4 0xC87B56DD EQ PUSH2 0x424 JUMPI DUP1 PUSH4 0xE985E9C5 EQ PUSH2 0x460 JUMPI PUSH2 0x11E JUMP JUMPDEST DUP1 PUSH4 0x6352211E EQ PUSH2 0x2B6 JUMPI DUP1 PUSH4 0x70A08231 EQ PUSH2 0x2F2 JUMPI DUP1 PUSH4 0x8A333B50 EQ PUSH2 0x32E JUMPI DUP1 PUSH4 0x91B7F5ED EQ PUSH2 0x358 JUMPI DUP1 PUSH4 0x95D89B41 EQ PUSH2 0x380 JUMPI PUSH2 0x11E JUMP JUMPDEST DUP1 PUSH4 0x2004FFD9 GT PUSH2 0xE6 JUMPI DUP1 PUSH4 0x2004FFD9 EQ PUSH2 0x208 JUMPI DUP1 PUSH4 0x23B872DD EQ PUSH2 0x212 JUMPI DUP1 PUSH4 0x24F92A25 EQ PUSH2 0x23A JUMPI DUP1 PUSH4 0x3940E9EE EQ PUSH2 0x264 JUMPI DUP1 PUSH4 0x42842E0E EQ PUSH2 0x28E JUMPI PUSH2 0x11E JUMP JUMPDEST DUP1 PUSH4 0x1173A74 EQ PUSH2 0x122 JUMPI DUP1 PUSH4 0x1FFC9A7 EQ PUSH2 0x13E JUMPI DUP1 PUSH4 0x6FDDE03 EQ PUSH2 0x17A JUMPI DUP1 PUSH4 0x81812FC EQ PUSH2 0x1A4 JUMPI DUP1 PUSH4 0x95EA7B3 EQ PUSH2 0x1E0 JUMPI JUMPDEST PUSH0 DUP1 REVERT JUMPDEST PUSH2 0x13C PUSH1 0x4 DUP1 CALLDATASIZE SUB DUP2 ADD SWAP1 PUSH2 0x137 SWAP2 SWAP1 PUSH2 0x1C10 JUMP JUMPDEST PUSH2 0x49C JUMP JUMPDEST STOP JUMPDEST CALLVALUE DUP1 ISZERO PUSH2 0x149 JUMPI PUSH0 DUP1 REVERT JUMPDEST POP PUSH2 0x164 PUSH1 0x4 DUP1 CALLDATASIZE SUB DUP2 ADD SWAP1 PUSH2 0x15F SWAP2 SWAP1 PUSH2 0x1C90 JUMP JUMPDEST PUSH2 0x768 JUMP JUMPDEST PUSH1 0x40 MLOAD PUSH2 0x171 SWAP2 SWAP1 PUSH2 0x1CD5 JUMP JUMPDEST PUSH1 0x40 MLOAD DUP1 SWAP2 SUB SWAP1 RETURN JUMPDEST CALLVALUE DUP1 ISZERO PUSH2 0x185 JUMPI PUSH0 DUP1 REVERT JUMPDEST POP PUSH2 0x18E PUSH2 0x849 JUMP JUMPDEST PUSH1 0x40 MLOAD PUSH2 0x19B SWAP2 SWAP1 PUSH2 0x1D78 JUMP JUMPDEST PUSH1 0x40 MLOAD DUP1 SWAP2 SUB SWAP1 RETURN JUMPDEST CALLVALUE DUP1 ISZERO PUSH2 0x1AF JUMPI PUSH0 DUP1 REVERT JUMPDEST POP PUSH2 0x1CA PUSH1 0x4 DUP1 CALLDATASIZE SUB DUP2 ADD SWAP1 PUSH2 0x1C5 SWAP2 SWAP1 PUSH2 0x1DCB JUMP JUMPDEST PUSH2 0x8D8 JUMP JUMPDEST PUSH1 0x40 MLOAD PUSH2 0x1D7 SWAP2 SWAP1 PUSH2 0x1E05 JUMP JUMPDEST PUSH1 0x40 MLOAD DUP1 SWAP2 SUB SWAP1 RETURN JUMPDEST CALLVALUE DUP1 ISZERO PUSH2 0x1EB JUMPI PUSH0 DUP1 REVERT JUMPDEST POP PUSH2 0x206 PUSH1 0x4 DUP1 CALLDATASIZE SUB DUP2 ADD SWAP1 PUSH2 0x201 SWAP2 SWAP1 PUSH2 0x1E1E JUMP JUMPDEST PUSH2 0x8F3 JUMP JUMPDEST STOP JUMPDEST PUSH2 0x210 PUSH2 0x909 JUMP JUMPDEST STOP JUMPDEST CALLVALUE DUP1 ISZERO PUSH2 0x21D JUMPI PUSH0 DUP1 REVERT JUMPDEST POP PUSH2 0x238 PUSH1 0x4 DUP1 CALLDATASIZE SUB DUP2 ADD SWAP1 PUSH2 0x233 SWAP2 SWAP1 PUSH2 0x1E5C JUMP JUMPDEST PUSH2 0x914 JUMP JUMPDEST STOP JUMPDEST CALLVALUE DUP1 ISZERO PUSH2 0x245 JUMPI PUSH0 DUP1 REVERT JUMPDEST POP PUSH2 0x24E PUSH2 0xA13 JUMP JUMPDEST PUSH1 0x40 MLOAD PUSH2 0x25B SWAP2 SWAP1 PUSH2 0x1ECA JUMP JUMPDEST PUSH1 0x40 MLOAD DUP1 SWAP2 SUB SWAP1 RETURN JUMPDEST CALLVALUE DUP1 ISZERO PUSH2 0x26F JUMPI PUSH0 DUP1 REVERT JUMPDEST POP PUSH2 0x278 PUSH2 0xA29 JUMP JUMPDEST PUSH1 0x40 MLOAD PUSH2 0x285 SWAP2 SWAP1 PUSH2 0x1ECA JUMP JUMPDEST PUSH1 0x40 MLOAD DUP1 SWAP2 SUB SWAP1 RETURN JUMPDEST CALLVALUE DUP1 ISZERO PUSH2 0x299 JUMPI PUSH0 DUP1 REVERT JUMPDEST POP PUSH2 0x2B4 PUSH1 0x4 DUP1 CALLDATASIZE SUB DUP2 ADD SWAP1 PUSH2 0x2AF SWAP2 SWAP1 PUSH2 0x1E5C JUMP JUMPDEST PUSH2 0xA3E JUMP JUMPDEST STOP JUMPDEST CALLVALUE DUP1 ISZERO PUSH2 0x2C1 JUMPI PUSH0 DUP1 REVERT JUMPDEST POP PUSH2 0x2DC PUSH1 0x4 DUP1 CALLDATASIZE SUB DUP2 ADD SWAP1 PUSH2 0x2D7 SWAP2 SWAP1 PUSH2 0x1DCB JUMP JUMPDEST PUSH2 0xA5D JUMP JUMPDEST PUSH1 0x40 MLOAD PUSH2 0x2E9 SWAP2 SWAP1 PUSH2 0x1E05 JUMP JUMPDEST PUSH1 0x40 MLOAD DUP1 SWAP2 SUB SWAP1 RETURN JUMPDEST CALLVALUE DUP1 ISZERO PUSH2 0x2FD JUMPI PUSH0 DUP1 REVERT JUMPDEST POP PUSH2 0x318 PUSH1 0x4 DUP1 CALLDATASIZE SUB DUP2 ADD SWAP1 PUSH2 0x313 SWAP2 SWAP1 PUSH2 0x1C10 JUMP JUMPDEST PUSH2 0xA6E JUMP JUMPDEST PUSH1 0x40 MLOAD PUSH2 0x325 SWAP2 SWAP1 PUSH2 0x1EF2 JUMP JUMPDEST PUSH1 0x40 MLOAD DUP1 SWAP2 SUB SWAP1 RETURN JUMPDEST CALLVALUE DUP1 ISZERO PUSH2 0x339 JUMPI PUSH0 DUP1 REVERT JUMPDEST POP PUSH2 0x342 PUSH2 0xB24 JUMP JUMPDEST PUSH1 0x40 MLOAD PUSH2 0x34F SWAP2 SWAP1 PUSH2 0x1ECA JUMP JUMPDEST PUSH1 0x40 MLOAD DUP1 SWAP2 SUB SWAP1 RETURN JUMPDEST CALLVALUE DUP1 ISZERO PUSH2 0x363 JUMPI PUSH0 DUP1 REVERT JUMPDEST POP PUSH2 0x37E PUSH1 0x4 DUP1 CALLDATASIZE SUB DUP2 ADD SWAP1 PUSH2 0x379 SWAP2 SWAP1 PUSH2 0x1DCB JUMP JUMPDEST PUSH2 0xB3A JUMP JUMPDEST STOP JUMPDEST CALLVALUE DUP1 ISZERO PUSH2 0x38B JUMPI PUSH0 DUP1 REVERT JUMPDEST POP PUSH2 0x394 PUSH2 0xCA0 JUMP JUMPDEST PUSH1 0x40 MLOAD PUSH2 0x3A1 SWAP2 SWAP1 PUSH2 0x1D78 JUMP JUMPDEST PUSH1 0x40 MLOAD DUP1 SWAP2 SUB SWAP1 RETURN JUMPDEST CALLVALUE DUP1 ISZERO PUSH2 0x3B5 JUMPI PUSH0 DUP1 REVERT JUMPDEST POP PUSH2 0x3BE PUSH2 0xD30 JUMP JUMPDEST PUSH1 0x40 MLOAD PUSH2 0x3CB SWAP2 SWAP1 PUSH2 0x1EF2 JUMP JUMPDEST PUSH1 0x40 MLOAD DUP1 SWAP2 SUB SWAP1 RETURN JUMPDEST CALLVALUE DUP1 ISZERO PUSH2 0x3DF JUMPI PUSH0 DUP1 REVERT JUMPDEST POP PUSH2 0x3FA PUSH1 0x4 DUP1 CALLDATASIZE SUB DUP2 ADD SWAP1 PUSH2 0x3F5 SWAP2 SWAP1 PUSH2 0x1F35 JUMP JUMPDEST PUSH2 0xD36 JUMP JUMPDEST STOP JUMPDEST CALLVALUE DUP1 ISZERO PUSH2 0x407 JUMPI PUSH0 DUP1 REVERT JUMPDEST POP PUSH2 0x422 PUSH1 0x4 DUP1 CALLDATASIZE SUB DUP2 ADD SWAP1 PUSH2 0x41D SWAP2 SWAP1 PUSH2 0x209F JUMP JUMPDEST PUSH2 0xD4C JUMP JUMPDEST STOP JUMPDEST CALLVALUE DUP1 ISZERO PUSH2 0x42F JUMPI PUSH0 DUP1 REVERT JUMPDEST POP PUSH2 0x44A PUSH1 0x4 DUP1 CALLDATASIZE SUB DUP2 ADD SWAP1 PUSH2 0x445 SWAP2 SWAP1 PUSH2 0x1DCB JUMP JUMPDEST PUSH2 0xD71 JUMP JUMPDEST PUSH1 0x40 MLOAD PUSH2 0x457 SWAP2 SWAP1 PUSH2 0x1D78 JUMP JUMPDEST PUSH1 0x40 MLOAD DUP1 SWAP2 SUB SWAP1 RETURN JUMPDEST CALLVALUE DUP1 ISZERO PUSH2 0x46B JUMPI PUSH0 DUP1 REVERT JUMPDEST POP PUSH2 0x486 PUSH1 0x4 DUP1 CALLDATASIZE SUB DUP2 ADD SWAP1 PUSH2 0x481 SWAP2 SWAP1 PUSH2 0x211F JUMP JUMPDEST PUSH2 0xDD7 JUMP JUMPDEST PUSH1 0x40 MLOAD PUSH2 0x493 SWAP2 SWAP1 PUSH2 0x1CD5 JUMP JUMPDEST PUSH1 0x40 MLOAD DUP1 SWAP2 SUB SWAP1 RETURN JUMPDEST DUP1 PUSH1 0x8 PUSH0 SWAP1 SLOAD SWAP1 PUSH2 0x100 EXP SWAP1 DIV PUSH1 0xFF AND ISZERO PUSH2 0x4EC JUMPI PUSH1 0x40 MLOAD PUSH32 0x8C379A000000000000000000000000000000000000000000000000000000000 DUP2 MSTORE PUSH1 0x4 ADD PUSH2 0x4E3 SWAP1 PUSH2 0x21CD JUMP JUMPDEST PUSH1 0x40 MLOAD DUP1 SWAP2 SUB SWAP1 REVERT JUMPDEST PUSH1 0x1 PUSH1 0x8 PUSH0 PUSH2 0x100 EXP DUP2 SLOAD DUP2 PUSH1 0xFF MUL NOT AND SWAP1 DUP4 ISZERO ISZERO MUL OR SWAP1 SSTORE POP PUSH0 PUSH1 0x6 PUSH1 0xC SWAP1 SLOAD SWAP1 PUSH2 0x100 EXP SWAP1 DIV PUSH4 0xFFFFFFFF AND PUSH4 0xFFFFFFFF AND GT PUSH2 0x560 JUMPI PUSH1 0x40 MLOAD PUSH32 0x8C379A000000000000000000000000000000000000000000000000000000000 DUP2 MSTORE PUSH1 0x4 ADD PUSH2 0x557 SWAP1 PUSH2 0x2235 JUMP JUMPDEST PUSH1 0x40 MLOAD DUP1 SWAP2 SUB SWAP1 REVERT JUMPDEST PUSH0 DUP1 PUSH2 0x56B DUP4 PUSH2 0xA6E JUMP JUMPDEST GT PUSH2 0x576 JUMPI PUSH0 PUSH2 0x579 JUMP JUMPDEST PUSH1 0x1 JUMPDEST SWAP1 POP PUSH0 ISZERO ISZERO DUP2 ISZERO ISZERO EQ PUSH2 0x5C1 JUMPI PUSH1 0x40 MLOAD PUSH32 0x8C379A000000000000000000000000000000000000000000000000000000000 DUP2 MSTORE PUSH1 0x4 ADD PUSH2 0x5B8 SWAP1 PUSH2 0x229D JUMP JUMPDEST PUSH1 0x40 MLOAD DUP1 SWAP2 SUB SWAP1 REVERT JUMPDEST CALLVALUE PUSH1 0x7 SLOAD DUP2 LT ISZERO PUSH2 0x607 JUMPI PUSH1 0x40 MLOAD PUSH32 0x8C379A000000000000000000000000000000000000000000000000000000000 DUP2 MSTORE PUSH1 0x4 ADD PUSH2 0x5FE SWAP1 PUSH2 0x2305 JUMP JUMPDEST PUSH1 0x40 MLOAD DUP1 SWAP2 SUB SWAP1 REVERT JUMPDEST PUSH1 0x7 SLOAD DUP2 GT ISZERO PUSH2 0x668 JUMPI PUSH0 PUSH1 0x7 SLOAD DUP3 PUSH2 0x620 SWAP2 SWAP1 PUSH2 0x2350 JUMP JUMPDEST SWAP1 POP CALLER PUSH20 0xFFFFFFFFFFFFFFFFFFFFFFFFFFFFFFFFFFFFFFFF AND PUSH2 0x8FC DUP3 SWAP1 DUP2 ISZERO MUL SWAP1 PUSH1 0x40 MLOAD PUSH0 PUSH1 0x40 MLOAD DUP1 DUP4 SUB DUP2 DUP6 DUP9 DUP9 CALL SWAP4 POP POP POP POP ISZERO DUP1 ISZERO PUSH2 0x665 JUMPI RETURNDATASIZE PUSH0 DUP1 RETURNDATACOPY RETURNDATASIZE PUSH0 REVERT JUMPDEST POP POP JUMPDEST PUSH2 0x68A DUP5 PUSH1 0x6 PUSH1 0x4 SWAP1 SLOAD SWAP1 PUSH2 0x100 EXP SWAP1 DIV PUSH4 0xFFFFFFFF AND PUSH4 0xFFFFFFFF AND PUSH2 0xE65 JUMP JUMPDEST PUSH1 0x1 PUSH1 0x6 PUSH1 0x4 DUP3 DUP3 DUP3 SWAP1 SLOAD SWAP1 PUSH2 0x100 EXP SWAP1 DIV PUSH4 0xFFFFFFFF AND PUSH2 0x6AC SWAP2 SWAP1 PUSH2 0x2383 JUMP JUMPDEST SWAP3 POP PUSH2 0x100 EXP DUP2 SLOAD DUP2 PUSH4 0xFFFFFFFF MUL NOT AND SWAP1 DUP4 PUSH4 0xFFFFFFFF AND MUL OR SWAP1 SSTORE POP PUSH1 0x1 PUSH1 0x6 PUSH1 0xC DUP3 DUP3 DUP3 SWAP1 SLOAD SWAP1 PUSH2 0x100 EXP SWAP1 DIV PUSH4 0xFFFFFFFF AND PUSH2 0x6EC SWAP2 SWAP1 PUSH2 0x23BA JUMP JUMPDEST SWAP3 POP PUSH2 0x100 EXP DUP2 SLOAD DUP2 PUSH4 0xFFFFFFFF MUL NOT AND SWAP1 DUP4 PUSH4 0xFFFFFFFF AND MUL OR SWAP1 SSTORE POP PUSH1 0x1 PUSH1 0x6 PUSH0 DUP3 DUP3 DUP3 SWAP1 SLOAD SWAP1 PUSH2 0x100 EXP SWAP1 DIV PUSH4 0xFFFFFFFF AND PUSH2 0x72B SWAP2 SWAP1 PUSH2 0x2383 JUMP JUMPDEST SWAP3 POP PUSH2 0x100 EXP DUP2 SLOAD DUP2 PUSH4 0xFFFFFFFF MUL NOT AND SWAP1 DUP4 PUSH4 0xFFFFFFFF AND MUL OR SWAP1 SSTORE POP POP PUSH0 PUSH1 0x8 PUSH0 PUSH2 0x100 EXP DUP2 SLOAD DUP2 PUSH1 0xFF MUL NOT AND SWAP1 DUP4 ISZERO ISZERO MUL OR SWAP1 SSTORE POP POP POP POP JUMP JUMPDEST PUSH0 PUSH32 0x80AC58CD00000000000000000000000000000000000000000000000000000000 PUSH28 0xFFFFFFFFFFFFFFFFFFFFFFFFFFFFFFFFFFFFFFFFFFFFFFFFFFFFFFFF NOT AND DUP3 PUSH28 0xFFFFFFFFFFFFFFFFFFFFFFFFFFFFFFFFFFFFFFFFFFFFFFFFFFFFFFFF NOT AND EQ DUP1 PUSH2 0x832 JUMPI POP PUSH32 0x5B5E139F00000000000000000000000000000000000000000000000000000000 PUSH28 0xFFFFFFFFFFFFFFFFFFFFFFFFFFFFFFFFFFFFFFFFFFFFFFFFFFFFFFFF NOT AND DUP3 PUSH28 0xFFFFFFFFFFFFFFFFFFFFFFFFFFFFFFFFFFFFFFFFFFFFFFFFFFFFFFFF NOT AND EQ JUMPDEST DUP1 PUSH2 0x842 JUMPI POP PUSH2 0x841 DUP3 PUSH2 0xE82 JUMP JUMPDEST JUMPDEST SWAP1 POP SWAP2 SWAP1 POP JUMP JUMPDEST PUSH1 0x60 PUSH0 DUP1 SLOAD PUSH2 0x857 SWAP1 PUSH2 0x241E JUMP JUMPDEST DUP1 PUSH1 0x1F ADD PUSH1 0x20 DUP1 SWAP2 DIV MUL PUSH1 0x20 ADD PUSH1 0x40 MLOAD SWAP1 DUP2 ADD PUSH1 0x40 MSTORE DUP1 SWAP3 SWAP2 SWAP1 DUP2 DUP2 MSTORE PUSH1 0x20 ADD DUP3 DUP1 SLOAD PUSH2 0x883 SWAP1 PUSH2 0x241E JUMP JUMPDEST DUP1 ISZERO PUSH2 0x8CE JUMPI DUP1 PUSH1 0x1F LT PUSH2 0x8A5 JUMPI PUSH2 0x100 DUP1 DUP4 SLOAD DIV MUL DUP4 MSTORE SWAP2 PUSH1 0x20 ADD SWAP2 PUSH2 0x8CE JUMP JUMPDEST DUP3 ADD SWAP2 SWAP1 PUSH0 MSTORE PUSH1 0x20 PUSH0 KECCAK256 SWAP1 JUMPDEST DUP2 SLOAD DUP2 MSTORE SWAP1 PUSH1 0x1 ADD SWAP1 PUSH1 0x20 ADD DUP1 DUP4 GT PUSH2 0x8B1 JUMPI DUP3 SWAP1 SUB PUSH1 0x1F AND DUP3 ADD SWAP2 JUMPDEST POP POP POP POP POP SWAP1 POP SWAP1 JUMP JUMPDEST PUSH0 PUSH2 0x8E2 DUP3 PUSH2 0xEEB JUMP JUMPDEST POP PUSH2 0x8EC DUP3 PUSH2 0xF71 JUMP JUMPDEST SWAP1 POP SWAP2 SWAP1 POP JUMP JUMPDEST PUSH2 0x905 DUP3 DUP3 PUSH2 0x900 PUSH2 0xFAA JUMP JUMPDEST PUSH2 0xFB1 JUMP JUMPDEST POP POP JUMP JUMPDEST PUSH2 0x912 CALLER PUSH2 0x49C JUMP JUMPDEST JUMP JUMPDEST PUSH0 PUSH20 0xFFFFFFFFFFFFFFFFFFFFFFFFFFFFFFFFFFFFFFFF AND DUP3 PUSH20 0xFFFFFFFFFFFFFFFFFFFFFFFFFFFFFFFFFFFFFFFF AND SUB PUSH2 0x984 JUMPI PUSH0 PUSH1 0x40 MLOAD PUSH32 0x64A0AE9200000000000000000000000000000000000000000000000000000000 DUP2 MSTORE PUSH1 0x4 ADD PUSH2 0x97B SWAP2 SWAP1 PUSH2 0x1E05 JUMP JUMPDEST PUSH1 0x40 MLOAD DUP1 SWAP2 SUB SWAP1 REVERT JUMPDEST PUSH0 PUSH2 0x997 DUP4 DUP4 PUSH2 0x992 PUSH2 0xFAA JUMP JUMPDEST PUSH2 0xFC3 JUMP JUMPDEST SWAP1 POP DUP4 PUSH20 0xFFFFFFFFFFFFFFFFFFFFFFFFFFFFFFFFFFFFFFFF AND DUP2 PUSH20 0xFFFFFFFFFFFFFFFFFFFFFFFFFFFFFFFFFFFFFFFF AND EQ PUSH2 0xA0D JUMPI DUP4 DUP3 DUP3 PUSH1 0x40 MLOAD PUSH32 0x64283D7B00000000000000000000000000000000000000000000000000000000 DUP2 MSTORE PUSH1 0x4 ADD PUSH2 0xA04 SWAP4 SWAP3 SWAP2 SWAP1 PUSH2 0x244E JUMP JUMPDEST PUSH1 0x40 MLOAD DUP1 SWAP2 SUB SWAP1 REVERT JUMPDEST POP POP POP POP JUMP JUMPDEST PUSH1 0x6 PUSH1 0xC SWAP1 SLOAD SWAP1 PUSH2 0x100 EXP SWAP1 DIV PUSH4 0xFFFFFFFF AND DUP2 JUMP JUMPDEST PUSH1 0x6 PUSH0 SWAP1 SLOAD SWAP1 PUSH2 0x100 EXP SWAP1 DIV PUSH4 0xFFFFFFFF AND DUP2 JUMP JUMPDEST PUSH2 0xA58 DUP4 DUP4 DUP4 PUSH1 0x40 MLOAD DUP1 PUSH1 0x20 ADD PUSH1 0x40 MSTORE DUP1 PUSH0 DUP2 MSTORE POP PUSH2 0xD4C JUMP JUMPDEST POP POP POP JUMP JUMPDEST PUSH0 PUSH2 0xA67 DUP3 PUSH2 0xEEB JUMP JUMPDEST SWAP1 POP SWAP2 SWAP1 POP JUMP JUMPDEST PUSH0 DUP1 PUSH20 0xFFFFFFFFFFFFFFFFFFFFFFFFFFFFFFFFFFFFFFFF AND DUP3 PUSH20 0xFFFFFFFFFFFFFFFFFFFFFFFFFFFFFFFFFFFFFFFF AND SUB PUSH2 0xADF JUMPI PUSH0 PUSH1 0x40 MLOAD PUSH32 0x89C62B6400000000000000000000000000000000000000000000000000000000 DUP2 MSTORE PUSH1 0x4 ADD PUSH2 0xAD6 SWAP2 SWAP1 PUSH2 0x1E05 JUMP JUMPDEST PUSH1 0x40 MLOAD DUP1 SWAP2 SUB SWAP1 REVERT JUMPDEST PUSH1 0x3 PUSH0 DUP4 PUSH20 0xFFFFFFFFFFFFFFFFFFFFFFFFFFFFFFFFFFFFFFFF AND PUSH20 0xFFFFFFFFFFFFFFFFFFFFFFFFFFFFFFFFFFFFFFFF AND DUP2 MSTORE PUSH1 0x20 ADD SWAP1 DUP2 MSTORE PUSH1 0x20 ADD PUSH0 KECCAK256 SLOAD SWAP1 POP SWAP2 SWAP1 POP JUMP JUMPDEST PUSH1 0x6 PUSH1 0x8 SWAP1 SLOAD SWAP1 PUSH2 0x100 EXP SWAP1 DIV PUSH4 0xFFFFFFFF AND DUP2 JUMP JUMPDEST PUSH0 PUSH1 0x8 PUSH1 0x1 SWAP1 SLOAD SWAP1 PUSH2 0x100 EXP SWAP1 DIV PUSH20 0xFFFFFFFFFFFFFFFFFFFFFFFFFFFFFFFFFFFFFFFF AND PUSH20 0xFFFFFFFFFFFFFFFFFFFFFFFFFFFFFFFFFFFFFFFF AND PUSH4 0x893D20E8 PUSH1 0x40 MLOAD DUP2 PUSH4 0xFFFFFFFF AND PUSH1 0xE0 SHL DUP2 MSTORE PUSH1 0x4 ADD PUSH1 0x20 PUSH1 0x40 MLOAD DUP1 DUP4 SUB DUP2 DUP7 GAS STATICCALL ISZERO DUP1 ISZERO PUSH2 0xBA6 JUMPI RETURNDATASIZE PUSH0 DUP1 RETURNDATACOPY RETURNDATASIZE PUSH0 REVERT JUMPDEST POP POP POP POP PUSH1 0x40 MLOAD RETURNDATASIZE PUSH1 0x1F NOT PUSH1 0x1F DUP3 ADD AND DUP3 ADD DUP1 PUSH1 0x40 MSTORE POP DUP2 ADD SWAP1 PUSH2 0xBCA SWAP2 SWAP1 PUSH2 0x2497 JUMP JUMPDEST SWAP1 POP PUSH0 DUP2 PUSH20 0xFFFFFFFFFFFFFFFFFFFFFFFFFFFFFFFFFFFFFFFF AND CALLER PUSH20 0xFFFFFFFFFFFFFFFFFFFFFFFFFFFFFFFFFFFFFFFF AND EQ DUP1 PUSH2 0xC52 JUMPI POP CALLER PUSH20 0xFFFFFFFFFFFFFFFFFFFFFFFFFFFFFFFFFFFFFFFF AND PUSH2 0xC3A PUSH1 0x6 PUSH1 0x4 SWAP1 SLOAD SWAP1 PUSH2 0x100 EXP SWAP1 DIV PUSH4 0xFFFFFFFF AND PUSH4 0xFFFFFFFF AND PUSH2 0x8D8 JUMP JUMPDEST PUSH20 0xFFFFFFFFFFFFFFFFFFFFFFFFFFFFFFFFFFFFFFFF AND EQ JUMPDEST SWAP1 POP DUP1 PUSH2 0xC94 JUMPI PUSH1 0x40 MLOAD PUSH32 0x8C379A000000000000000000000000000000000000000000000000000000000 DUP2 MSTORE PUSH1 0x4 ADD PUSH2 0xC8B SWAP1 PUSH2 0x2532 JUMP JUMPDEST PUSH1 0x40 MLOAD DUP1 SWAP2 SUB SWAP1 REVERT JUMPDEST DUP3 PUSH1 0x7 DUP2 SWAP1 SSTORE POP POP POP POP JUMP JUMPDEST PUSH1 0x60 PUSH1 0x1 DUP1 SLOAD PUSH2 0xCAF SWAP1 PUSH2 0x241E JUMP JUMPDEST DUP1 PUSH1 0x1F ADD PUSH1 0x20 DUP1 SWAP2 DIV MUL PUSH1 0x20 ADD PUSH1 0x40 MLOAD SWAP1 DUP2 ADD PUSH1 0x40 MSTORE DUP1 SWAP3 SWAP2 SWAP1 DUP2 DUP2 MSTORE PUSH1 0x20 ADD DUP3 DUP1 SLOAD PUSH2 0xCDB SWAP1 PUSH2 0x241E JUMP JUMPDEST DUP1 ISZERO PUSH2 0xD26 JUMPI DUP1 PUSH1 0x1F LT PUSH2 0xCFD JUMPI PUSH2 0x100 DUP1 DUP4 SLOAD DIV MUL DUP4 MSTORE SWAP2 PUSH1 0x20 ADD SWAP2 PUSH2 0xD26 JUMP JUMPDEST DUP3 ADD SWAP2 SWAP1 PUSH0 MSTORE PUSH1 0x20 PUSH0 KECCAK256 SWAP1 JUMPDEST DUP2 SLOAD DUP2 MSTORE SWAP1 PUSH1 0x1 ADD SWAP1 PUSH1 0x20 ADD DUP1 DUP4 GT PUSH2 0xD09 JUMPI DUP3 SWAP1 SUB PUSH1 0x1F AND DUP3 ADD SWAP2 JUMPDEST POP POP POP POP POP SWAP1 POP SWAP1 JUMP JUMPDEST PUSH1 0x7 SLOAD DUP2 JUMP JUMPDEST PUSH2 0xD48 PUSH2 0xD41 PUSH2 0xFAA JUMP JUMPDEST DUP4 DUP4 PUSH2 0x11CE JUMP JUMPDEST POP POP JUMP JUMPDEST PUSH2 0xD57 DUP5 DUP5 DUP5 PUSH2 0x914 JUMP JUMPDEST PUSH2 0xD6B PUSH2 0xD62 PUSH2 0xFAA JUMP JUMPDEST DUP6 DUP6 DUP6 DUP6 PUSH2 0x1337 JUMP JUMPDEST POP POP POP POP JUMP JUMPDEST PUSH1 0x60 PUSH2 0xD7C DUP3 PUSH2 0xEEB JUMP JUMPDEST POP PUSH0 PUSH2 0xD86 PUSH2 0x14E3 JUMP JUMPDEST SWAP1 POP PUSH0 DUP2 MLOAD GT PUSH2 0xDA4 JUMPI PUSH1 0x40 MLOAD DUP1 PUSH1 0x20 ADD PUSH1 0x40 MSTORE DUP1 PUSH0 DUP2 MSTORE POP PUSH2 0xDCF JUMP JUMPDEST DUP1 PUSH2 0xDAE DUP5 PUSH2 0x14F9 JUMP JUMPDEST PUSH1 0x40 MLOAD PUSH1 0x20 ADD PUSH2 0xDBF SWAP3 SWAP2 SWAP1 PUSH2 0x258A JUMP JUMPDEST PUSH1 0x40 MLOAD PUSH1 0x20 DUP2 DUP4 SUB SUB DUP2 MSTORE SWAP1 PUSH1 0x40 MSTORE JUMPDEST SWAP2 POP POP SWAP2 SWAP1 POP JUMP JUMPDEST PUSH0 PUSH1 0x5 PUSH0 DUP5 PUSH20 0xFFFFFFFFFFFFFFFFFFFFFFFFFFFFFFFFFFFFFFFF AND PUSH20 0xFFFFFFFFFFFFFFFFFFFFFFFFFFFFFFFFFFFFFFFF AND DUP2 MSTORE PUSH1 0x20 ADD SWAP1 DUP2 MSTORE PUSH1 0x20 ADD PUSH0 KECCAK256 PUSH0 DUP4 PUSH20 0xFFFFFFFFFFFFFFFFFFFFFFFFFFFFFFFFFFFFFFFF AND PUSH20 0xFFFFFFFFFFFFFFFFFFFFFFFFFFFFFFFFFFFFFFFF AND DUP2 MSTORE PUSH1 0x20 ADD SWAP1 DUP2 MSTORE PUSH1 0x20 ADD PUSH0 KECCAK256 PUSH0 SWAP1 SLOAD SWAP1 PUSH2 0x100 EXP SWAP1 DIV PUSH1 0xFF AND SWAP1 POP SWAP3 SWAP2 POP POP JUMP JUMPDEST PUSH2 0xE7E DUP3 DUP3 PUSH1 0x40 MLOAD DUP1 PUSH1 0x20 ADD PUSH1 0x40 MSTORE DUP1 PUSH0 DUP2 MSTORE POP PUSH2 0x15C3 JUMP JUMPDEST POP POP JUMP JUMPDEST PUSH0 PUSH32 0x1FFC9A700000000000000000000000000000000000000000000000000000000 PUSH28 0xFFFFFFFFFFFFFFFFFFFFFFFFFFFFFFFFFFFFFFFFFFFFFFFFFFFFFFFF NOT AND DUP3 PUSH28 0xFFFFFFFFFFFFFFFFFFFFFFFFFFFFFFFFFFFFFFFFFFFFFFFFFFFFFFFF NOT AND EQ SWAP1 POP SWAP2 SWAP1 POP JUMP JUMPDEST PUSH0 DUP1 PUSH2 0xEF6 DUP4 PUSH2 0x15E6 JUMP JUMPDEST SWAP1 POP PUSH0 PUSH20 0xFFFFFFFFFFFFFFFFFFFFFFFFFFFFFFFFFFFFFFFF AND DUP2 PUSH20 0xFFFFFFFFFFFFFFFFFFFFFFFFFFFFFFFFFFFFFFFF AND SUB PUSH2 0xF68 JUMPI DUP3 PUSH1 0x40 MLOAD PUSH32 0x7E27328900000000000000000000000000000000000000000000000000000000 DUP2 MSTORE PUSH1 0x4 ADD PUSH2 0xF5F SWAP2 SWAP1 PUSH2 0x1EF2 JUMP JUMPDEST PUSH1 0x40 MLOAD DUP1 SWAP2 SUB SWAP1 REVERT JUMPDEST DUP1 SWAP2 POP POP SWAP2 SWAP1 POP JUMP JUMPDEST PUSH0 PUSH1 0x4 PUSH0 DUP4 DUP2 MSTORE PUSH1 0x20 ADD SWAP1 DUP2 MSTORE PUSH1 0x20 ADD PUSH0 KECCAK256 PUSH0 SWAP1 SLOAD SWAP1 PUSH2 0x100 EXP SWAP1 DIV PUSH20 0xFFFFFFFFFFFFFFFFFFFFFFFFFFFFFFFFFFFFFFFF AND SWAP1 POP SWAP2 SWAP1 POP JUMP JUMPDEST PUSH0 CALLER SWAP1 POP SWAP1 JUMP JUMPDEST PUSH2 0xFBE DUP4 DUP4 DUP4 PUSH1 0x1 PUSH2 0x161F JUMP JUMPDEST POP POP POP JUMP JUMPDEST PUSH0 DUP1 PUSH2 0xFCE DUP5 PUSH2 0x15E6 JUMP JUMPDEST SWAP1 POP PUSH0 PUSH20 0xFFFFFFFFFFFFFFFFFFFFFFFFFFFFFFFFFFFFFFFF AND DUP4 PUSH20 0xFFFFFFFFFFFFFFFFFFFFFFFFFFFFFFFFFFFFFFFF AND EQ PUSH2 0x100F JUMPI PUSH2 0x100E DUP2 DUP5 DUP7 PUSH2 0x17DE JUMP JUMPDEST JUMPDEST PUSH0 PUSH20 0xFFFFFFFFFFFFFFFFFFFFFFFFFFFFFFFFFFFFFFFF AND DUP2 PUSH20 0xFFFFFFFFFFFFFFFFFFFFFFFFFFFFFFFFFFFFFFFF AND EQ PUSH2 0x109A JUMPI PUSH2 0x104E PUSH0 DUP6 PUSH0 DUP1 PUSH2 0x161F JUMP JUMPDEST PUSH1 0x1 PUSH1 0x3 PUSH0 DUP4 PUSH20 0xFFFFFFFFFFFFFFFFFFFFFFFFFFFFFFFFFFFFFFFF AND PUSH20 0xFFFFFFFFFFFFFFFFFFFFFFFFFFFFFFFFFFFFFFFF AND DUP2 MSTORE PUSH1 0x20 ADD SWAP1 DUP2 MSTORE PUSH1 0x20 ADD PUSH0 KECCAK256 PUSH0 DUP3 DUP3 SLOAD SUB SWAP3 POP POP DUP2 SWAP1 SSTORE POP JUMPDEST PUSH0 PUSH20 0xFFFFFFFFFFFFFFFFFFFFFFFFFFFFFFFFFFFFFFFF AND DUP6 PUSH20 0xFFFFFFFFFFFFFFFFFFFFFFFFFFFFFFFFFFFFFFFF AND EQ PUSH2 0x1119 JUMPI PUSH1 0x1 PUSH1 0x3 PUSH0 DUP8 PUSH20 0xFFFFFFFFFFFFFFFFFFFFFFFFFFFFFFFFFFFFFFFF AND PUSH20 0xFFFFFFFFFFFFFFFFFFFFFFFFFFFFFFFFFFFFFFFF AND DUP2 MSTORE PUSH1 0x20 ADD SWAP1 DUP2 MSTORE PUSH1 0x20 ADD PUSH0 KECCAK256 PUSH0 DUP3 DUP3 SLOAD ADD SWAP3 POP POP DUP2 SWAP1 SSTORE POP JUMPDEST DUP5 PUSH1 0x2 PUSH0 DUP7 DUP2 MSTORE PUSH1 0x20 ADD SWAP1 DUP2 MSTORE PUSH1 0x20 ADD PUSH0 KECCAK256 PUSH0 PUSH2 0x100 EXP DUP2 SLOAD DUP2 PUSH20 0xFFFFFFFFFFFFFFFFFFFFFFFFFFFFFFFFFFFFFFFF MUL NOT AND SWAP1 DUP4 PUSH20 0xFFFFFFFFFFFFFFFFFFFFFFFFFFFFFFFFFFFFFFFF AND MUL OR SWAP1 SSTORE POP DUP4 DUP6 PUSH20 0xFFFFFFFFFFFFFFFFFFFFFFFFFFFFFFFFFFFFFFFF AND DUP3 PUSH20 0xFFFFFFFFFFFFFFFFFFFFFFFFFFFFFFFFFFFFFFFF AND PUSH32 0xDDF252AD1BE2C89B69C2B068FC378DAA952BA7F163C4A11628F55A4DF523B3EF PUSH1 0x40 MLOAD PUSH1 0x40 MLOAD DUP1 SWAP2 SUB SWAP1 LOG4 DUP1 SWAP2 POP POP SWAP4 SWAP3 POP POP POP JUMP JUMPDEST PUSH0 PUSH20 0xFFFFFFFFFFFFFFFFFFFFFFFFFFFFFFFFFFFFFFFF AND DUP3 PUSH20 0xFFFFFFFFFFFFFFFFFFFFFFFFFFFFFFFFFFFFFFFF AND SUB PUSH2 0x123E JUMPI DUP2 PUSH1 0x40 MLOAD PUSH32 0x5B08BA1800000000000000000000000000000000000000000000000000000000 DUP2 MSTORE PUSH1 0x4 ADD PUSH2 0x1235 SWAP2 SWAP1 PUSH2 0x1E05 JUMP JUMPDEST PUSH1 0x40 MLOAD DUP1 SWAP2 SUB SWAP1 REVERT JUMPDEST DUP1 PUSH1 0x5 PUSH0 DUP6 PUSH20 0xFFFFFFFFFFFFFFFFFFFFFFFFFFFFFFFFFFFFFFFF AND PUSH20 0xFFFFFFFFFFFFFFFFFFFFFFFFFFFFFFFFFFFFFFFF AND DUP2 MSTORE PUSH1 0x20 ADD SWAP1 DUP2 MSTORE PUSH1 0x20 ADD PUSH0 KECCAK256 PUSH0 DUP5 PUSH20 0xFFFFFFFFFFFFFFFFFFFFFFFFFFFFFFFFFFFFFFFF AND PUSH20 0xFFFFFFFFFFFFFFFFFFFFFFFFFFFFFFFFFFFFFFFF AND DUP2 MSTORE PUSH1 0x20 ADD SWAP1 DUP2 MSTORE PUSH1 0x20 ADD PUSH0 KECCAK256 PUSH0 PUSH2 0x100 EXP DUP2 SLOAD DUP2 PUSH1 0xFF MUL NOT AND SWAP1 DUP4 ISZERO ISZERO MUL OR SWAP1 SSTORE POP DUP2 PUSH20 0xFFFFFFFFFFFFFFFFFFFFFFFFFFFFFFFFFFFFFFFF AND DUP4 PUSH20 0xFFFFFFFFFFFFFFFFFFFFFFFFFFFFFFFFFFFFFFFF AND PUSH32 0x17307EAB39AB6107E8899845AD3D59BD9653F200F220920489CA2B5937696C31 DUP4 PUSH1 0x40 MLOAD PUSH2 0x132A SWAP2 SWAP1 PUSH2 0x1CD5 JUMP JUMPDEST PUSH1 0x40 MLOAD DUP1 SWAP2 SUB SWAP1 LOG3 POP POP POP JUMP JUMPDEST PUSH0 DUP4 PUSH20 0xFFFFFFFFFFFFFFFFFFFFFFFFFFFFFFFFFFFFFFFF AND EXTCODESIZE GT ISZERO PUSH2 0x14DC JUMPI DUP3 PUSH20 0xFFFFFFFFFFFFFFFFFFFFFFFFFFFFFFFFFFFFFFFF AND PUSH4 0x150B7A02 DUP7 DUP7 DUP6 DUP6 PUSH1 0x40 MLOAD DUP6 PUSH4 0xFFFFFFFF AND PUSH1 0xE0 SHL DUP2 MSTORE PUSH1 0x4 ADD PUSH2 0x1395 SWAP5 SWAP4 SWAP3 SWAP2 SWAP1 PUSH2 0x25FF JUMP JUMPDEST PUSH1 0x20 PUSH1 0x40 MLOAD DUP1 DUP4 SUB DUP2 PUSH0 DUP8 GAS CALL SWAP3 POP POP POP DUP1 ISZERO PUSH2 0x13D0 JUMPI POP PUSH1 0x40 MLOAD RETURNDATASIZE PUSH1 0x1F NOT PUSH1 0x1F DUP3 ADD AND DUP3 ADD DUP1 PUSH1 0x40 MSTORE POP DUP2 ADD SWAP1 PUSH2 0x13CD SWAP2 SWAP1 PUSH2 0x265D JUMP JUMPDEST PUSH1 0x1 JUMPDEST PUSH2 0x1451 JUMPI RETURNDATASIZE DUP1 PUSH0 DUP2 EQ PUSH2 0x13FE JUMPI PUSH1 0x40 MLOAD SWAP2 POP PUSH1 0x1F NOT PUSH1 0x3F RETURNDATASIZE ADD AND DUP3 ADD PUSH1 0x40 MSTORE RETURNDATASIZE DUP3 MSTORE RETURNDATASIZE PUSH0 PUSH1 0x20 DUP5 ADD RETURNDATACOPY PUSH2 0x1403 JUMP JUMPDEST PUSH1 0x60 SWAP2 POP JUMPDEST POP PUSH0 DUP2 MLOAD SUB PUSH2 0x1449 JUMPI DUP4 PUSH1 0x40 MLOAD PUSH32 0x64A0AE9200000000000000000000000000000000000000000000000000000000 DUP2 MSTORE PUSH1 0x4 ADD PUSH2 0x1440 SWAP2 SWAP1 PUSH2 0x1E05 JUMP JUMPDEST PUSH1 0x40 MLOAD DUP1 SWAP2 SUB SWAP1 REVERT JUMPDEST DUP1 MLOAD DUP2 PUSH1 0x20 ADD REVERT JUMPDEST PUSH4 0x150B7A02 PUSH1 0xE0 SHL PUSH28 0xFFFFFFFFFFFFFFFFFFFFFFFFFFFFFFFFFFFFFFFFFFFFFFFFFFFFFFFF NOT AND DUP2 PUSH28 0xFFFFFFFFFFFFFFFFFFFFFFFFFFFFFFFFFFFFFFFFFFFFFFFFFFFFFFFF NOT AND EQ PUSH2 0x14DA JUMPI DUP4 PUSH1 0x40 MLOAD PUSH32 0x64A0AE9200000000000000000000000000000000000000000000000000000000 DUP2 MSTORE PUSH1 0x4 ADD PUSH2 0x14D1 SWAP2 SWAP1 PUSH2 0x1E05 JUMP JUMPDEST PUSH1 0x40 MLOAD DUP1 SWAP2 SUB SWAP1 REVERT JUMPDEST POP JUMPDEST POP POP POP POP POP JUMP JUMPDEST PUSH1 0x60 PUSH1 0x40 MLOAD DUP1 PUSH1 0x20 ADD PUSH1 0x40 MSTORE DUP1 PUSH0 DUP2 MSTORE POP SWAP1 POP SWAP1 JUMP JUMPDEST PUSH1 0x60 PUSH0 PUSH1 0x1 PUSH2 0x1507 DUP5 PUSH2 0x18A1 JUMP JUMPDEST ADD SWAP1 POP PUSH0 DUP2 PUSH8 0xFFFFFFFFFFFFFFFF DUP2 GT ISZERO PUSH2 0x1525 JUMPI PUSH2 0x1524 PUSH2 0x1F7B JUMP JUMPDEST JUMPDEST PUSH1 0x40 MLOAD SWAP1 DUP1 DUP3 MSTORE DUP1 PUSH1 0x1F ADD PUSH1 0x1F NOT AND PUSH1 0x20 ADD DUP3 ADD PUSH1 0x40 MSTORE DUP1 ISZERO PUSH2 0x1557 JUMPI DUP2 PUSH1 0x20 ADD PUSH1 0x1 DUP3 MUL DUP1 CALLDATASIZE DUP4 CALLDATACOPY DUP1 DUP3 ADD SWAP2 POP POP SWAP1 POP JUMPDEST POP SWAP1 POP PUSH0 DUP3 PUSH1 0x20 ADD DUP3 ADD SWAP1 POP JUMPDEST PUSH1 0x1 ISZERO PUSH2 0x15B8 JUMPI DUP1 DUP1 PUSH1 0x1 SWAP1 SUB SWAP2 POP POP PUSH32 0x3031323334353637383961626364656600000000000000000000000000000000 PUSH1 0xA DUP7 MOD BYTE DUP2 MSTORE8 PUSH1 0xA DUP6 DUP2 PUSH2 0x15AD JUMPI PUSH2 0x15AC PUSH2 0x2688 JUMP JUMPDEST JUMPDEST DIV SWAP5 POP PUSH0 DUP6 SUB PUSH2 0x1564 JUMPI JUMPDEST DUP2 SWAP4 POP POP POP POP SWAP2 SWAP1 POP JUMP JUMPDEST PUSH2 0x15CD DUP4 DUP4 PUSH2 0x19F2 JUMP JUMPDEST PUSH2 0x15E1 PUSH2 0x15D8 PUSH2 0xFAA JUMP JUMPDEST PUSH0 DUP6 DUP6 DUP6 PUSH2 0x1337 JUMP JUMPDEST POP POP POP JUMP JUMPDEST PUSH0 PUSH1 0x2 PUSH0 DUP4 DUP2 MSTORE PUSH1 0x20 ADD SWAP1 DUP2 MSTORE PUSH1 0x20 ADD PUSH0 KECCAK256 PUSH0 SWAP1 SLOAD SWAP1 PUSH2 0x100 EXP SWAP1 DIV PUSH20 0xFFFFFFFFFFFFFFFFFFFFFFFFFFFFFFFFFFFFFFFF AND SWAP1 POP SWAP2 SWAP1 POP JUMP JUMPDEST DUP1 DUP1 PUSH2 0x1657 JUMPI POP PUSH0 PUSH20 0xFFFFFFFFFFFFFFFFFFFFFFFFFFFFFFFFFFFFFFFF AND DUP3 PUSH20 0xFFFFFFFFFFFFFFFFFFFFFFFFFFFFFFFFFFFFFFFF AND EQ ISZERO JUMPDEST ISZERO PUSH2 0x1789 JUMPI PUSH0 PUSH2 0x1666 DUP5 PUSH2 0xEEB JUMP JUMPDEST SWAP1 POP PUSH0 PUSH20 0xFFFFFFFFFFFFFFFFFFFFFFFFFFFFFFFFFFFFFFFF AND DUP4 PUSH20 0xFFFFFFFFFFFFFFFFFFFFFFFFFFFFFFFFFFFFFFFF AND EQ ISZERO DUP1 ISZERO PUSH2 0x16D0 JUMPI POP DUP3 PUSH20 0xFFFFFFFFFFFFFFFFFFFFFFFFFFFFFFFFFFFFFFFF AND DUP2 PUSH20 0xFFFFFFFFFFFFFFFFFFFFFFFFFFFFFFFFFFFFFFFF AND EQ ISZERO JUMPDEST DUP1 ISZERO PUSH2 0x16E3 JUMPI POP PUSH2 0x16E1 DUP2 DUP5 PUSH2 0xDD7 JUMP JUMPDEST ISZERO JUMPDEST ISZERO PUSH2 0x1725 JUMPI DUP3 PUSH1 0x40 MLOAD PUSH32 0xA9FBF51F00000000000000000000000000000000000000000000000000000000 DUP2 MSTORE PUSH1 0x4 ADD PUSH2 0x171C SWAP2 SWAP1 PUSH2 0x1E05 JUMP JUMPDEST PUSH1 0x40 MLOAD DUP1 SWAP2 SUB SWAP1 REVERT JUMPDEST DUP2 ISZERO PUSH2 0x1787 JUMPI DUP4 DUP6 PUSH20 0xFFFFFFFFFFFFFFFFFFFFFFFFFFFFFFFFFFFFFFFF AND DUP3 PUSH20 0xFFFFFFFFFFFFFFFFFFFFFFFFFFFFFFFFFFFFFFFF AND PUSH32 0x8C5BE1E5EBEC7D5BD14F71427D1E84F3DD0314C0F7B2291E5B200AC8C7C3B925 PUSH1 0x40 MLOAD PUSH1 0x40 MLOAD DUP1 SWAP2 SUB SWAP1 LOG4 JUMPDEST POP JUMPDEST DUP4 PUSH1 0x4 PUSH0 DUP6 DUP2 MSTORE PUSH1 0x20 ADD SWAP1 DUP2 MSTORE PUSH1 0x20 ADD PUSH0 KECCAK256 PUSH0 PUSH2 0x100 EXP DUP2 SLOAD DUP2 PUSH20 0xFFFFFFFFFFFFFFFFFFFFFFFFFFFFFFFFFFFFFFFF MUL NOT AND SWAP1 DUP4 PUSH20 0xFFFFFFFFFFFFFFFFFFFFFFFFFFFFFFFFFFFFFFFF AND MUL OR SWAP1 SSTORE POP POP POP POP POP JUMP JUMPDEST PUSH2 0x17E9 DUP4 DUP4 DUP4 PUSH2 0x1AE5 JUMP JUMPDEST PUSH2 0x189C JUMPI PUSH0 PUSH20 0xFFFFFFFFFFFFFFFFFFFFFFFFFFFFFFFFFFFFFFFF AND DUP4 PUSH20 0xFFFFFFFFFFFFFFFFFFFFFFFFFFFFFFFFFFFFFFFF AND SUB PUSH2 0x185D JUMPI DUP1 PUSH1 0x40 MLOAD PUSH32 0x7E27328900000000000000000000000000000000000000000000000000000000 DUP2 MSTORE PUSH1 0x4 ADD PUSH2 0x1854 SWAP2 SWAP1 PUSH2 0x1EF2 JUMP JUMPDEST PUSH1 0x40 MLOAD DUP1 SWAP2 SUB SWAP1 REVERT JUMPDEST DUP2 DUP2 PUSH1 0x40 MLOAD PUSH32 0x177E802F00000000000000000000000000000000000000000000000000000000 DUP2 MSTORE PUSH1 0x4 ADD PUSH2 0x1893 SWAP3 SWAP2 SWAP1 PUSH2 0x26B5 JUMP JUMPDEST PUSH1 0x40 MLOAD DUP1 SWAP2 SUB SWAP1 REVERT JUMPDEST POP POP POP JUMP JUMPDEST PUSH0 DUP1 PUSH0 SWAP1 POP PUSH27 0x184F03E93FF9F4DAA797ED6E38ED64BF6A1F010000000000000000 DUP4 LT PUSH2 0x18FD JUMPI PUSH27 0x184F03E93FF9F4DAA797ED6E38ED64BF6A1F010000000000000000 DUP4 DUP2 PUSH2 0x18F3 JUMPI PUSH2 0x18F2 PUSH2 0x2688 JUMP JUMPDEST JUMPDEST DIV SWAP3 POP PUSH1 0x40 DUP2 ADD SWAP1 POP JUMPDEST PUSH14 0x4EE2D6D415B85ACEF8100000000 DUP4 LT PUSH2 0x193A JUMPI PUSH14 0x4EE2D6D415B85ACEF8100000000 DUP4 DUP2 PUSH2 0x1930 JUMPI PUSH2 0x192F PUSH2 0x2688 JUMP JUMPDEST JUMPDEST DIV SWAP3 POP PUSH1 0x20 DUP2 ADD SWAP1 POP JUMPDEST PUSH7 0x2386F26FC10000 DUP4 LT PUSH2 0x1969 JUMPI PUSH7 0x2386F26FC10000 DUP4 DUP2 PUSH2 0x195F JUMPI PUSH2 0x195E PUSH2 0x2688 JUMP JUMPDEST JUMPDEST DIV SWAP3 POP PUSH1 0x10 DUP2 ADD SWAP1 POP JUMPDEST PUSH4 0x5F5E100 DUP4 LT PUSH2 0x1992 JUMPI PUSH4 0x5F5E100 DUP4 DUP2 PUSH2 0x1988 JUMPI PUSH2 0x1987 PUSH2 0x2688 JUMP JUMPDEST JUMPDEST DIV SWAP3 POP PUSH1 0x8 DUP2 ADD SWAP1 POP JUMPDEST PUSH2 0x2710 DUP4 LT PUSH2 0x19B7 JUMPI PUSH2 0x2710 DUP4 DUP2 PUSH2 0x19AD JUMPI PUSH2 0x19AC PUSH2 0x2688 JUMP JUMPDEST JUMPDEST DIV SWAP3 POP PUSH1 0x4 DUP2 ADD SWAP1 POP JUMPDEST PUSH1 0x64 DUP4 LT PUSH2 0x19DA JUMPI PUSH1 0x64 DUP4 DUP2 PUSH2 0x19D0 JUMPI PUSH2 0x19CF PUSH2 0x2688 JUMP JUMPDEST JUMPDEST DIV SWAP3 POP PUSH1 0x2 DUP2 ADD SWAP1 POP JUMPDEST PUSH1 0xA DUP4 LT PUSH2 0x19E9 JUMPI PUSH1 0x1 DUP2 ADD SWAP1 POP JUMPDEST DUP1 SWAP2 POP POP SWAP2 SWAP1 POP JUMP JUMPDEST PUSH0 PUSH20 0xFFFFFFFFFFFFFFFFFFFFFFFFFFFFFFFFFFFFFFFF AND DUP3 PUSH20 0xFFFFFFFFFFFFFFFFFFFFFFFFFFFFFFFFFFFFFFFF AND SUB PUSH2 0x1A62 JUMPI PUSH0 PUSH1 0x40 MLOAD PUSH32 0x64A0AE9200000000000000000000000000000000000000000000000000000000 DUP2 MSTORE PUSH1 0x4 ADD PUSH2 0x1A59 SWAP2 SWAP1 PUSH2 0x1E05 JUMP JUMPDEST PUSH1 0x40 MLOAD DUP1 SWAP2 SUB SWAP1 REVERT JUMPDEST PUSH0 PUSH2 0x1A6E DUP4 DUP4 PUSH0 PUSH2 0xFC3 JUMP JUMPDEST SWAP1 POP PUSH0 PUSH20 0xFFFFFFFFFFFFFFFFFFFFFFFFFFFFFFFFFFFFFFFF AND DUP2 PUSH20 0xFFFFFFFFFFFFFFFFFFFFFFFFFFFFFFFFFFFFFFFF AND EQ PUSH2 0x1AE0 JUMPI PUSH0 PUSH1 0x40 MLOAD PUSH32 0x73C6AC6E00000000000000000000000000000000000000000000000000000000 DUP2 MSTORE PUSH1 0x4 ADD PUSH2 0x1AD7 SWAP2 SWAP1 PUSH2 0x1E05 JUMP JUMPDEST PUSH1 0x40 MLOAD DUP1 SWAP2 SUB SWAP1 REVERT JUMPDEST POP POP POP JUMP JUMPDEST PUSH0 DUP1 PUSH20 0xFFFFFFFFFFFFFFFFFFFFFFFFFFFFFFFFFFFFFFFF AND DUP4 PUSH20 0xFFFFFFFFFFFFFFFFFFFFFFFFFFFFFFFFFFFFFFFF AND EQ ISZERO DUP1 ISZERO PUSH2 0x1B9C JUMPI POP DUP3 PUSH20 0xFFFFFFFFFFFFFFFFFFFFFFFFFFFFFFFFFFFFFFFF AND DUP5 PUSH20 0xFFFFFFFFFFFFFFFFFFFFFFFFFFFFFFFFFFFFFFFF AND EQ DUP1 PUSH2 0x1B5D JUMPI POP PUSH2 0x1B5C DUP5 DUP5 PUSH2 0xDD7 JUMP JUMPDEST JUMPDEST DUP1 PUSH2 0x1B9B JUMPI POP DUP3 PUSH20 0xFFFFFFFFFFFFFFFFFFFFFFFFFFFFFFFFFFFFFFFF AND PUSH2 0x1B83 DUP4 PUSH2 0xF71 JUMP JUMPDEST PUSH20 0xFFFFFFFFFFFFFFFFFFFFFFFFFFFFFFFFFFFFFFFF AND EQ JUMPDEST JUMPDEST SWAP1 POP SWAP4 SWAP3 POP POP POP JUMP JUMPDEST PUSH0 PUSH1 0x40 MLOAD SWAP1 POP SWAP1 JUMP JUMPDEST PUSH0 DUP1 REVERT JUMPDEST PUSH0 DUP1 REVERT JUMPDEST PUSH0 PUSH20 0xFFFFFFFFFFFFFFFFFFFFFFFFFFFFFFFFFFFFFFFF DUP3 AND SWAP1 POP SWAP2 SWAP1 POP JUMP JUMPDEST PUSH0 PUSH2 0x1BDF DUP3 PUSH2 0x1BB6 JUMP JUMPDEST SWAP1 POP SWAP2 SWAP1 POP JUMP JUMPDEST PUSH2 0x1BEF DUP2 PUSH2 0x1BD5 JUMP JUMPDEST DUP2 EQ PUSH2 0x1BF9 JUMPI PUSH0 DUP1 REVERT JUMPDEST POP JUMP JUMPDEST PUSH0 DUP2 CALLDATALOAD SWAP1 POP PUSH2 0x1C0A DUP2 PUSH2 0x1BE6 JUMP JUMPDEST SWAP3 SWAP2 POP POP JUMP JUMPDEST PUSH0 PUSH1 0x20 DUP3 DUP5 SUB SLT ISZERO PUSH2 0x1C25 JUMPI PUSH2 0x1C24 PUSH2 0x1BAE JUMP JUMPDEST JUMPDEST PUSH0 PUSH2 0x1C32 DUP5 DUP3 DUP6 ADD PUSH2 0x1BFC JUMP JUMPDEST SWAP2 POP POP SWAP3 SWAP2 POP POP JUMP JUMPDEST PUSH0 PUSH32 0xFFFFFFFF00000000000000000000000000000000000000000000000000000000 DUP3 AND SWAP1 POP SWAP2 SWAP1 POP JUMP JUMPDEST PUSH2 0x1C6F DUP2 PUSH2 0x1C3B JUMP JUMPDEST DUP2 EQ PUSH2 0x1C79 JUMPI PUSH0 DUP1 REVERT JUMPDEST POP JUMP JUMPDEST PUSH0 DUP2 CALLDATALOAD SWAP1 POP PUSH2 0x1C8A DUP2 PUSH2 0x1C66 JUMP JUMPDEST SWAP3 SWAP2 POP POP JUMP JUMPDEST PUSH0 PUSH1 0x20 DUP3 DUP5 SUB SLT ISZERO PUSH2 0x1CA5 JUMPI PUSH2 0x1CA4 PUSH2 0x1BAE JUMP JUMPDEST JUMPDEST PUSH0 PUSH2 0x1CB2 DUP5 DUP3 DUP6 ADD PUSH2 0x1C7C JUMP JUMPDEST SWAP2 POP POP SWAP3 SWAP2 POP POP JUMP JUMPDEST PUSH0 DUP2 ISZERO ISZERO SWAP1 POP SWAP2 SWAP1 POP JUMP JUMPDEST PUSH2 0x1CCF DUP2 PUSH2 0x1CBB JUMP JUMPDEST DUP3 MSTORE POP POP JUMP JUMPDEST PUSH0 PUSH1 0x20 DUP3 ADD SWAP1 POP PUSH2 0x1CE8 PUSH0 DUP4 ADD DUP5 PUSH2 0x1CC6 JUMP JUMPDEST SWAP3 SWAP2 POP POP JUMP JUMPDEST PUSH0 DUP2 MLOAD SWAP1 POP SWAP2 SWAP1 POP JUMP JUMPDEST PUSH0 DUP3 DUP3 MSTORE PUSH1 0x20 DUP3 ADD SWAP1 POP SWAP3 SWAP2 POP POP JUMP JUMPDEST PUSH0 JUMPDEST DUP4 DUP2 LT ISZERO PUSH2 0x1D25 JUMPI DUP1 DUP3 ADD MLOAD DUP2 DUP5 ADD MSTORE PUSH1 0x20 DUP2 ADD SWAP1 POP PUSH2 0x1D0A JUMP JUMPDEST PUSH0 DUP5 DUP5 ADD MSTORE POP POP POP POP JUMP JUMPDEST PUSH0 PUSH1 0x1F NOT PUSH1 0x1F DUP4 ADD AND SWAP1 POP SWAP2 SWAP1 POP JUMP JUMPDEST PUSH0 PUSH2 0x1D4A DUP3 PUSH2 0x1CEE JUMP JUMPDEST PUSH2 0x1D54 DUP2 DUP6 PUSH2 0x1CF8 JUMP JUMPDEST SWAP4 POP PUSH2 0x1D64 DUP2 DUP6 PUSH1 0x20 DUP7 ADD PUSH2 0x1D08 JUMP JUMPDEST PUSH2 0x1D6D DUP2 PUSH2 0x1D30 JUMP JUMPDEST DUP5 ADD SWAP2 POP POP SWAP3 SWAP2 POP POP JUMP JUMPDEST PUSH0 PUSH1 0x20 DUP3 ADD SWAP1 POP DUP2 DUP2 SUB PUSH0 DUP4 ADD MSTORE PUSH2 0x1D90 DUP2 DUP5 PUSH2 0x1D40 JUMP JUMPDEST SWAP1 POP SWAP3 SWAP2 POP POP JUMP JUMPDEST PUSH0 DUP2 SWAP1 POP SWAP2 SWAP1 POP JUMP JUMPDEST PUSH2 0x1DAA DUP2 PUSH2 0x1D98 JUMP JUMPDEST DUP2 EQ PUSH2 0x1DB4 JUMPI PUSH0 DUP1 REVERT JUMPDEST POP JUMP JUMPDEST PUSH0 DUP2 CALLDATALOAD SWAP1 POP PUSH2 0x1DC5 DUP2 PUSH2 0x1DA1 JUMP JUMPDEST SWAP3 SWAP2 POP POP JUMP JUMPDEST PUSH0 PUSH1 0x20 DUP3 DUP5 SUB SLT ISZERO PUSH2 0x1DE0 JUMPI PUSH2 0x1DDF PUSH2 0x1BAE JUMP JUMPDEST JUMPDEST PUSH0 PUSH2 0x1DED DUP5 DUP3 DUP6 ADD PUSH2 0x1DB7 JUMP JUMPDEST SWAP2 POP POP SWAP3 SWAP2 POP POP JUMP JUMPDEST PUSH2 0x1DFF DUP2 PUSH2 0x1BD5 JUMP JUMPDEST DUP3 MSTORE POP POP JUMP JUMPDEST PUSH0 PUSH1 0x20 DUP3 ADD SWAP1 POP PUSH2 0x1E18 PUSH0 DUP4 ADD DUP5 PUSH2 0x1DF6 JUMP JUMPDEST SWAP3 SWAP2 POP POP JUMP JUMPDEST PUSH0 DUP1 PUSH1 0x40 DUP4 DUP6 SUB SLT ISZERO PUSH2 0x1E34 JUMPI PUSH2 0x1E33 PUSH2 0x1BAE JUMP JUMPDEST JUMPDEST PUSH0 PUSH2 0x1E41 DUP6 DUP3 DUP7 ADD PUSH2 0x1BFC JUMP JUMPDEST SWAP3 POP POP PUSH1 0x20 PUSH2 0x1E52 DUP6 DUP3 DUP7 ADD PUSH2 0x1DB7 JUMP JUMPDEST SWAP2 POP POP SWAP3 POP SWAP3 SWAP1 POP JUMP JUMPDEST PUSH0 DUP1 PUSH0 PUSH1 0x60 DUP5 DUP7 SUB SLT ISZERO PUSH2 0x1E73 JUMPI PUSH2 0x1E72 PUSH2 0x1BAE JUMP JUMPDEST JUMPDEST PUSH0 PUSH2 0x1E80 DUP7 DUP3 DUP8 ADD PUSH2 0x1BFC JUMP JUMPDEST SWAP4 POP POP PUSH1 0x20 PUSH2 0x1E91 DUP7 DUP3 DUP8 ADD PUSH2 0x1BFC JUMP JUMPDEST SWAP3 POP POP PUSH1 0x40 PUSH2 0x1EA2 DUP7 DUP3 DUP8 ADD PUSH2 0x1DB7 JUMP JUMPDEST SWAP2 POP POP SWAP3 POP SWAP3 POP SWAP3 JUMP JUMPDEST PUSH0 PUSH4 0xFFFFFFFF DUP3 AND SWAP1 POP SWAP2 SWAP1 POP JUMP JUMPDEST PUSH2 0x1EC4 DUP2 PUSH2 0x1EAC JUMP JUMPDEST DUP3 MSTORE POP POP JUMP JUMPDEST PUSH0 PUSH1 0x20 DUP3 ADD SWAP1 POP PUSH2 0x1EDD PUSH0 DUP4 ADD DUP5 PUSH2 0x1EBB JUMP JUMPDEST SWAP3 SWAP2 POP POP JUMP JUMPDEST PUSH2 0x1EEC DUP2 PUSH2 0x1D98 JUMP JUMPDEST DUP3 MSTORE POP POP JUMP JUMPDEST PUSH0 PUSH1 0x20 DUP3 ADD SWAP1 POP PUSH2 0x1F05 PUSH0 DUP4 ADD DUP5 PUSH2 0x1EE3 JUMP JUMPDEST SWAP3 SWAP2 POP POP JUMP JUMPDEST PUSH2 0x1F14 DUP2 PUSH2 0x1CBB JUMP JUMPDEST DUP2 EQ PUSH2 0x1F1E JUMPI PUSH0 DUP1 REVERT JUMPDEST POP JUMP JUMPDEST PUSH0 DUP2 CALLDATALOAD SWAP1 POP PUSH2 0x1F2F DUP2 PUSH2 0x1F0B JUMP JUMPDEST SWAP3 SWAP2 POP POP JUMP JUMPDEST PUSH0 DUP1 PUSH1 0x40 DUP4 DUP6 SUB SLT ISZERO PUSH2 0x1F4B JUMPI PUSH2 0x1F4A PUSH2 0x1BAE JUMP JUMPDEST JUMPDEST PUSH0 PUSH2 0x1F58 DUP6 DUP3 DUP7 ADD PUSH2 0x1BFC JUMP JUMPDEST SWAP3 POP POP PUSH1 0x20 PUSH2 0x1F69 DUP6 DUP3 DUP7 ADD PUSH2 0x1F21 JUMP JUMPDEST SWAP2 POP POP SWAP3 POP SWAP3 SWAP1 POP JUMP JUMPDEST PUSH0 DUP1 REVERT JUMPDEST PUSH0 DUP1 REVERT JUMPDEST PUSH32 0x4E487B7100000000000000000000000000000000000000000000000000000000 PUSH0 MSTORE PUSH1 0x41 PUSH1 0x4 MSTORE PUSH1 0x24 PUSH0 REVERT JUMPDEST PUSH2 0x1FB1 DUP3 PUSH2 0x1D30 JUMP JUMPDEST DUP2 ADD DUP2 DUP2 LT PUSH8 0xFFFFFFFFFFFFFFFF DUP3 GT OR ISZERO PUSH2 0x1FD0 JUMPI PUSH2 0x1FCF PUSH2 0x1F7B JUMP JUMPDEST JUMPDEST DUP1 PUSH1 0x40 MSTORE POP POP POP JUMP JUMPDEST PUSH0 PUSH2 0x1FE2 PUSH2 0x1BA5 JUMP JUMPDEST SWAP1 POP PUSH2 0x1FEE DUP3 DUP3 PUSH2 0x1FA8 JUMP JUMPDEST SWAP2 SWAP1 POP JUMP JUMPDEST PUSH0 PUSH8 0xFFFFFFFFFFFFFFFF DUP3 GT ISZERO PUSH2 0x200D JUMPI PUSH2 0x200C PUSH2 0x1F7B JUMP JUMPDEST JUMPDEST PUSH2 0x2016 DUP3 PUSH2 0x1D30 JUMP JUMPDEST SWAP1 POP PUSH1 0x20 DUP2 ADD SWAP1 POP SWAP2 SWAP1 POP JUMP JUMPDEST DUP3 DUP2 DUP4 CALLDATACOPY PUSH0 DUP4 DUP4 ADD MSTORE POP POP POP JUMP JUMPDEST PUSH0 PUSH2 0x2043 PUSH2 0x203E DUP5 PUSH2 0x1FF3 JUMP JUMPDEST PUSH2 0x1FD9 JUMP JUMPDEST SWAP1 POP DUP3 DUP2 MSTORE PUSH1 0x20 DUP2 ADD DUP5 DUP5 DUP5 ADD GT ISZERO PUSH2 0x205F JUMPI PUSH2 0x205E PUSH2 0x1F77 JUMP JUMPDEST JUMPDEST PUSH2 0x206A DUP5 DUP3 DUP6 PUSH2 0x2023 JUMP JUMPDEST POP SWAP4 SWAP3 POP POP POP JUMP JUMPDEST PUSH0 DUP3 PUSH1 0x1F DUP4 ADD SLT PUSH2 0x2086 JUMPI PUSH2 0x2085 PUSH2 0x1F73 JUMP JUMPDEST JUMPDEST DUP2 CALLDATALOAD PUSH2 0x2096 DUP5 DUP3 PUSH1 0x20 DUP7 ADD PUSH2 0x2031 JUMP JUMPDEST SWAP2 POP POP SWAP3 SWAP2 POP POP JUMP JUMPDEST PUSH0 DUP1 PUSH0 DUP1 PUSH1 0x80 DUP6 DUP8 SUB SLT ISZERO PUSH2 0x20B7 JUMPI PUSH2 0x20B6 PUSH2 0x1BAE JUMP JUMPDEST JUMPDEST PUSH0 PUSH2 0x20C4 DUP8 DUP3 DUP9 ADD PUSH2 0x1BFC JUMP JUMPDEST SWAP5 POP POP PUSH1 0x20 PUSH2 0x20D5 DUP8 DUP3 DUP9 ADD PUSH2 0x1BFC JUMP JUMPDEST SWAP4 POP POP PUSH1 0x40 PUSH2 0x20E6 DUP8 DUP3 DUP9 ADD PUSH2 0x1DB7 JUMP JUMPDEST SWAP3 POP POP PUSH1 0x60 DUP6 ADD CALLDATALOAD PUSH8 0xFFFFFFFFFFFFFFFF DUP2 GT ISZERO PUSH2 0x2107 JUMPI PUSH2 0x2106 PUSH2 0x1BB2 JUMP JUMPDEST JUMPDEST PUSH2 0x2113 DUP8 DUP3 DUP9 ADD PUSH2 0x2072 JUMP JUMPDEST SWAP2 POP POP SWAP3 SWAP6 SWAP2 SWAP5 POP SWAP3 POP JUMP JUMPDEST PUSH0 DUP1 PUSH1 0x40 DUP4 DUP6 SUB SLT ISZERO PUSH2 0x2135 JUMPI PUSH2 0x2134 PUSH2 0x1BAE JUMP JUMPDEST JUMPDEST PUSH0 PUSH2 0x2142 DUP6 DUP3 DUP7 ADD PUSH2 0x1BFC JUMP JUMPDEST SWAP3 POP POP PUSH1 0x20 PUSH2 0x2153 DUP6 DUP3 DUP7 ADD PUSH2 0x1BFC JUMP JUMPDEST SWAP2 POP POP SWAP3 POP SWAP3 SWAP1 POP JUMP JUMPDEST PUSH32 0x736F72727920736F6D656F6E6520656C7365206973206D696E74696E67206E6F PUSH0 DUP3 ADD MSTORE PUSH32 0x772C20706C656173652074727920616761696E206C6174657200000000000000 PUSH1 0x20 DUP3 ADD MSTORE POP JUMP JUMPDEST PUSH0 PUSH2 0x21B7 PUSH1 0x39 DUP4 PUSH2 0x1CF8 JUMP JUMPDEST SWAP2 POP PUSH2 0x21C2 DUP3 PUSH2 0x215D JUMP JUMPDEST PUSH1 0x40 DUP3 ADD SWAP1 POP SWAP2 SWAP1 POP JUMP JUMPDEST PUSH0 PUSH1 0x20 DUP3 ADD SWAP1 POP DUP2 DUP2 SUB PUSH0 DUP4 ADD MSTORE PUSH2 0x21E4 DUP2 PUSH2 0x21AB JUMP JUMPDEST SWAP1 POP SWAP2 SWAP1 POP JUMP JUMPDEST PUSH32 0x736F727279206E6F7420656E6F75676820737570706C79000000000000000000 PUSH0 DUP3 ADD MSTORE POP JUMP JUMPDEST PUSH0 PUSH2 0x221F PUSH1 0x17 DUP4 PUSH2 0x1CF8 JUMP JUMPDEST SWAP2 POP PUSH2 0x222A DUP3 PUSH2 0x21EB JUMP JUMPDEST PUSH1 0x20 DUP3 ADD SWAP1 POP SWAP2 SWAP1 POP JUMP JUMPDEST PUSH0 PUSH1 0x20 DUP3 ADD SWAP1 POP DUP2 DUP2 SUB PUSH0 DUP4 ADD MSTORE PUSH2 0x224C DUP2 PUSH2 0x2213 JUMP JUMPDEST SWAP1 POP SWAP2 SWAP1 POP JUMP JUMPDEST PUSH32 0x796F75206861766520616C7265616479206D696E746564000000000000000000 PUSH0 DUP3 ADD MSTORE POP JUMP JUMPDEST PUSH0 PUSH2 0x2287 PUSH1 0x17 DUP4 PUSH2 0x1CF8 JUMP JUMPDEST SWAP2 POP PUSH2 0x2292 DUP3 PUSH2 0x2253 JUMP JUMPDEST PUSH1 0x20 DUP3 ADD SWAP1 POP SWAP2 SWAP1 POP JUMP JUMPDEST PUSH0 PUSH1 0x20 DUP3 ADD SWAP1 POP DUP2 DUP2 SUB PUSH0 DUP4 ADD MSTORE PUSH2 0x22B4 DUP2 PUSH2 0x227B JUMP JUMPDEST SWAP1 POP SWAP2 SWAP1 POP JUMP JUMPDEST PUSH32 0x74686520676976656E20616D6F756E74206973206E6F7420656E6F7567680000 PUSH0 DUP3 ADD MSTORE POP JUMP JUMPDEST PUSH0 PUSH2 0x22EF PUSH1 0x1E DUP4 PUSH2 0x1CF8 JUMP JUMPDEST SWAP2 POP PUSH2 0x22FA DUP3 PUSH2 0x22BB JUMP JUMPDEST PUSH1 0x20 DUP3 ADD SWAP1 POP SWAP2 SWAP1 POP JUMP JUMPDEST PUSH0 PUSH1 0x20 DUP3 ADD SWAP1 POP DUP2 DUP2 SUB PUSH0 DUP4 ADD MSTORE PUSH2 0x231C DUP2 PUSH2 0x22E3 JUMP JUMPDEST SWAP1 POP SWAP2 SWAP1 POP JUMP JUMPDEST PUSH32 0x4E487B7100000000000000000000000000000000000000000000000000000000 PUSH0 MSTORE PUSH1 0x11 PUSH1 0x4 MSTORE PUSH1 0x24 PUSH0 REVERT JUMPDEST PUSH0 PUSH2 0x235A DUP3 PUSH2 0x1D98 JUMP JUMPDEST SWAP2 POP PUSH2 0x2365 DUP4 PUSH2 0x1D98 JUMP JUMPDEST SWAP3 POP DUP3 DUP3 SUB SWAP1 POP DUP2 DUP2 GT ISZERO PUSH2 0x237D JUMPI PUSH2 0x237C PUSH2 0x2323 JUMP JUMPDEST JUMPDEST SWAP3 SWAP2 POP POP JUMP JUMPDEST PUSH0 PUSH2 0x238D DUP3 PUSH2 0x1EAC JUMP JUMPDEST SWAP2 POP PUSH2 0x2398 DUP4 PUSH2 0x1EAC JUMP JUMPDEST SWAP3 POP DUP3 DUP3 ADD SWAP1 POP PUSH4 0xFFFFFFFF DUP2 GT ISZERO PUSH2 0x23B4 JUMPI PUSH2 0x23B3 PUSH2 0x2323 JUMP JUMPDEST JUMPDEST SWAP3 SWAP2 POP POP JUMP JUMPDEST PUSH0 PUSH2 0x23C4 DUP3 PUSH2 0x1EAC JUMP JUMPDEST SWAP2 POP PUSH2 0x23CF DUP4 PUSH2 0x1EAC JUMP JUMPDEST SWAP3 POP DUP3 DUP3 SUB SWAP1 POP PUSH4 0xFFFFFFFF DUP2 GT ISZERO PUSH2 0x23EB JUMPI PUSH2 0x23EA PUSH2 0x2323 JUMP JUMPDEST JUMPDEST SWAP3 SWAP2 POP POP JUMP JUMPDEST PUSH32 0x4E487B7100000000000000000000000000000000000000000000000000000000 PUSH0 MSTORE PUSH1 0x22 PUSH1 0x4 MSTORE PUSH1 0x24 PUSH0 REVERT JUMPDEST PUSH0 PUSH1 0x2 DUP3 DIV SWAP1 POP PUSH1 0x1 DUP3 AND DUP1 PUSH2 0x2435 JUMPI PUSH1 0x7F DUP3 AND SWAP2 POP JUMPDEST PUSH1 0x20 DUP3 LT DUP2 SUB PUSH2 0x2448 JUMPI PUSH2 0x2447 PUSH2 0x23F1 JUMP JUMPDEST JUMPDEST POP SWAP2 SWAP1 POP JUMP JUMPDEST PUSH0 PUSH1 0x60 DUP3 ADD SWAP1 POP PUSH2 0x2461 PUSH0 DUP4 ADD DUP7 PUSH2 0x1DF6 JUMP JUMPDEST PUSH2 0x246E PUSH1 0x20 DUP4 ADD DUP6 PUSH2 0x1EE3 JUMP JUMPDEST PUSH2 0x247B PUSH1 0x40 DUP4 ADD DUP5 PUSH2 0x1DF6 JUMP JUMPDEST SWAP5 SWAP4 POP POP POP POP JUMP JUMPDEST PUSH0 DUP2 MLOAD SWAP1 POP PUSH2 0x2491 DUP2 PUSH2 0x1BE6 JUMP JUMPDEST SWAP3 SWAP2 POP POP JUMP JUMPDEST PUSH0 PUSH1 0x20 DUP3 DUP5 SUB SLT ISZERO PUSH2 0x24AC JUMPI PUSH2 0x24AB PUSH2 0x1BAE JUMP JUMPDEST JUMPDEST PUSH0 PUSH2 0x24B9 DUP5 DUP3 DUP6 ADD PUSH2 0x2483 JUMP JUMPDEST SWAP2 POP POP SWAP3 SWAP2 POP POP JUMP JUMPDEST PUSH32 0x4F6E6C792074686520636F6E7472616374206F776E65722063616E20646F2074 PUSH0 DUP3 ADD MSTORE PUSH32 0x6869730000000000000000000000000000000000000000000000000000000000 PUSH1 0x20 DUP3 ADD MSTORE POP JUMP JUMPDEST PUSH0 PUSH2 0x251C PUSH1 0x23 DUP4 PUSH2 0x1CF8 JUMP JUMPDEST SWAP2 POP PUSH2 0x2527 DUP3 PUSH2 0x24C2 JUMP JUMPDEST PUSH1 0x40 DUP3 ADD SWAP1 POP SWAP2 SWAP1 POP JUMP JUMPDEST PUSH0 PUSH1 0x20 DUP3 ADD SWAP1 POP DUP2 DUP2 SUB PUSH0 DUP4 ADD MSTORE PUSH2 0x2549 DUP2 PUSH2 0x2510 JUMP JUMPDEST SWAP1 POP SWAP2 SWAP1 POP JUMP JUMPDEST PUSH0 DUP2 SWAP1 POP SWAP3 SWAP2 POP POP JUMP JUMPDEST PUSH0 PUSH2 0x2564 DUP3 PUSH2 0x1CEE JUMP JUMPDEST PUSH2 0x256E DUP2 DUP6 PUSH2 0x2550 JUMP JUMPDEST SWAP4 POP PUSH2 0x257E DUP2 DUP6 PUSH1 0x20 DUP7 ADD PUSH2 0x1D08 JUMP JUMPDEST DUP1 DUP5 ADD SWAP2 POP POP SWAP3 SWAP2 POP POP JUMP JUMPDEST PUSH0 PUSH2 0x2595 DUP3 DUP6 PUSH2 0x255A JUMP JUMPDEST SWAP2 POP PUSH2 0x25A1 DUP3 DUP5 PUSH2 0x255A JUMP JUMPDEST SWAP2 POP DUP2 SWAP1 POP SWAP4 SWAP3 POP POP POP JUMP JUMPDEST PUSH0 DUP2 MLOAD SWAP1 POP SWAP2 SWAP1 POP JUMP JUMPDEST PUSH0 DUP3 DUP3 MSTORE PUSH1 0x20 DUP3 ADD SWAP1 POP SWAP3 SWAP2 POP POP JUMP JUMPDEST PUSH0 PUSH2 0x25D1 DUP3 PUSH2 0x25AD JUMP JUMPDEST PUSH2 0x25DB DUP2 DUP6 PUSH2 0x25B7 JUMP JUMPDEST SWAP4 POP PUSH2 0x25EB DUP2 DUP6 PUSH1 0x20 DUP7 ADD PUSH2 0x1D08 JUMP JUMPDEST PUSH2 0x25F4 DUP2 PUSH2 0x1D30 JUMP JUMPDEST DUP5 ADD SWAP2 POP POP SWAP3 SWAP2 POP POP JUMP JUMPDEST PUSH0 PUSH1 0x80 DUP3 ADD SWAP1 POP PUSH2 0x2612 PUSH0 DUP4 ADD DUP8 PUSH2 0x1DF6 JUMP JUMPDEST PUSH2 0x261F PUSH1 0x20 DUP4 ADD DUP7 PUSH2 0x1DF6 JUMP JUMPDEST PUSH2 0x262C PUSH1 0x40 DUP4 ADD DUP6 PUSH2 0x1EE3 JUMP JUMPDEST DUP2 DUP2 SUB PUSH1 0x60 DUP4 ADD MSTORE PUSH2 0x263E DUP2 DUP5 PUSH2 0x25C7 JUMP JUMPDEST SWAP1 POP SWAP6 SWAP5 POP POP POP POP POP JUMP JUMPDEST PUSH0 DUP2 MLOAD SWAP1 POP PUSH2 0x2657 DUP2 PUSH2 0x1C66 JUMP JUMPDEST SWAP3 SWAP2 POP POP JUMP JUMPDEST PUSH0 PUSH1 0x20 DUP3 DUP5 SUB SLT ISZERO PUSH2 0x2672 JUMPI PUSH2 0x2671 PUSH2 0x1BAE JUMP JUMPDEST JUMPDEST PUSH0 PUSH2 0x267F DUP5 DUP3 DUP6 ADD PUSH2 0x2649 JUMP JUMPDEST SWAP2 POP POP SWAP3 SWAP2 POP POP JUMP JUMPDEST PUSH32 0x4E487B7100000000000000000000000000000000000000000000000000000000 PUSH0 MSTORE PUSH1 0x12 PUSH1 0x4 MSTORE PUSH1 0x24 PUSH0 REVERT JUMPDEST PUSH0 PUSH1 0x40 DUP3 ADD SWAP1 POP PUSH2 0x26C8 PUSH0 DUP4 ADD DUP6 PUSH2 0x1DF6 JUMP JUMPDEST PUSH2 0x26D5 PUSH1 0x20 DUP4 ADD DUP5 PUSH2 0x1EE3 JUMP JUMPDEST SWAP4 SWAP3 POP POP POP JUMP INVALID LOG2 PUSH5 0x6970667358 0x22 SLT KECCAK256 CALLER PUSH12 0xC556B265AC0F7113E2623842 0x5E 0xBA SLT 0xD8 0xE8 RETURNDATACOPY JUMP 0xE3 0x2F 0xCB SWAP9 PUSH10 0x8460F873FBE64736F6C PUSH4 0x43000814 STOP CALLER LOG2 PUSH5 0x6970667358 0x22 SLT KECCAK256 PUSH16 0x789547B232E99F60CDDAFE25D1F2A81F PC PUSH19 0x4A637C9585C4C6F463D6D524EB64736F6C6343 STOP ADDMOD EQ STOP CALLER "
		},
		"gasEstimates": {
			"creation": {
				"codeDepositCost": "8123800",
				"executionCost": "35084",
				"totalCost": "8158884"
			},
			"external": {
				"create_song(string,string,string,string,uint32,uint32,uint256)": "infinite",
				"get_song(uint32)": "infinite",
				"next_song_id()": "2485",
				"songs(uint32)": "infinite"
			}
		},
		"methodIdentifiers": {
			"create_song(string,string,string,string,uint32,uint32,uint256)": "a98ac3dc",
			"get_song(uint32)": "996517e2",
			"next_song_id()": "9d585de1",
			"songs(uint32)": "3ea8873a"
		}
	},
	"abi": [
		{
			"inputs": [],
			"stateMutability": "nonpayable",
			"type": "constructor"
		},
		{
			"inputs": [
				{
					"internalType": "string",
					"name": "song_name",
					"type": "string"
				},
				{
					"internalType": "string",
					"name": "styles",
					"type": "string"
				},
				{
					"internalType": "string",
					"name": "negativ_styels",
					"type": "string"
				},
				{
					"internalType": "string",
					"name": "uri",
					"type": "string"
				},
				{
					"internalType": "uint32",
					"name": "fan_nft_maxSupply",
					"type": "uint32"
				},
				{
					"internalType": "uint32",
					"name": "copyright_nft_maxSupply",
					"type": "uint32"
				},
				{
					"internalType": "uint256",
					"name": "copyright_nft_price",
					"type": "uint256"
				}
			],
			"name": "create_song",
			"outputs": [],
			"stateMutability": "nonpayable",
			"type": "function"
		},
		{
			"inputs": [
				{
					"internalType": "uint32",
					"name": "song_id",
					"type": "uint32"
				}
			],
			"name": "get_song",
			"outputs": [
				{
					"components": [
						{
							"internalType": "uint32",
							"name": "song_id",
							"type": "uint32"
						},
						{
							"internalType": "string",
							"name": "song_name",
							"type": "string"
						},
						{
							"internalType": "string",
							"name": "styles",
							"type": "string"
						},
						{
							"internalType": "string",
							"name": "negativ_styels",
							"type": "string"
						},
						{
							"internalType": "string",
							"name": "uri",
							"type": "string"
						},
						{
							"internalType": "uint32",
							"name": "fan_nft_maxSupply",
							"type": "uint32"
						},
						{
							"internalType": "uint32",
							"name": "copyright_nft_maxSupply",
							"type": "uint32"
						},
						{
							"internalType": "uint256",
							"name": "copyright_nft_price",
							"type": "uint256"
						},
						{
							"internalType": "address",
							"name": "owner_nft_contract",
							"type": "address"
						},
						{
							"internalType": "address",
							"name": "fan_nft_contract",
							"type": "address"
						},
						{
							"internalType": "address",
							"name": "copyright_nft_contract",
							"type": "address"
						},
						{
							"internalType": "address",
							"name": "owner",
							"type": "address"
						}
					],
					"internalType": "struct Songs.song",
					"name": "",
					"type": "tuple"
				}
			],
			"stateMutability": "view",
			"type": "function"
		},
		{
			"inputs": [],
			"name": "next_song_id",
			"outputs": [
				{
					"internalType": "uint32",
					"name": "",
					"type": "uint32"
				}
			],
			"stateMutability": "view",
			"type": "function"
		},
		{
			"inputs": [
				{
					"internalType": "uint32",
					"name": "",
					"type": "uint32"
				}
			],
			"name": "songs",
			"outputs": [
				{
					"internalType": "uint32",
					"name": "song_id",
					"type": "uint32"
				},
				{
					"internalType": "string",
					"name": "song_name",
					"type": "string"
				},
				{
					"internalType": "string",
					"name": "styles",
					"type": "string"
				},
				{
					"internalType": "string",
					"name": "negativ_styels",
					"type": "string"
				},
				{
					"internalType": "string",
					"name": "uri",
					"type": "string"
				},
				{
					"internalType": "uint32",
					"name": "fan_nft_maxSupply",
					"type": "uint32"
				},
				{
					"internalType": "uint32",
					"name": "copyright_nft_maxSupply",
					"type": "uint32"
				},
				{
					"internalType": "uint256",
					"name": "copyright_nft_price",
					"type": "uint256"
				},
				{
					"internalType": "address",
					"name": "owner_nft_contract",
					"type": "address"
				},
				{
					"internalType": "address",
					"name": "fan_nft_contract",
					"type": "address"
				},
				{
					"internalType": "address",
					"name": "copyright_nft_contract",
					"type": "address"
				},
				{
					"internalType": "address",
					"name": "owner",
					"type": "address"
				}
			],
			"stateMutability": "view",
			"type": "function"
		}
	]
}